{
	"PartyB_Min.sol": {
		"Day1PartyB_Min": {
			"abi": [
				{
					"inputs": [
						{
							"internalType": "address",
							"name": "_partyA",
							"type": "address"
						}
					],
					"stateMutability": "nonpayable",
					"type": "constructor"
				},
				{
					"anonymous": false,
					"inputs": [
						{
							"indexed": false,
							"internalType": "bytes32",
							"name": "data",
							"type": "bytes32"
						}
					],
					"name": "Submitted",
					"type": "event"
				},
				{
					"inputs": [],
					"name": "partyA",
					"outputs": [
						{
							"internalType": "address",
							"name": "",
							"type": "address"
						}
					],
					"stateMutability": "view",
					"type": "function"
				},
				{
					"inputs": [],
					"name": "partyB",
					"outputs": [
						{
							"internalType": "address",
							"name": "",
							"type": "address"
						}
					],
					"stateMutability": "view",
					"type": "function"
				},
				{
					"inputs": [
						{
							"internalType": "bytes32",
							"name": "data",
							"type": "bytes32"
						}
					],
					"name": "submit",
					"outputs": [],
					"stateMutability": "nonpayable",
					"type": "function"
				}
			],
			"devdoc": {
				"kind": "dev",
				"methods": {},
				"version": 1
			},
			"evm": {
				"assembly": "    /* \"PartyB_Min.sol\":192:665  contract Day1PartyB_Min {... */\n  mstore(0x40, 0x80)\n    /* \"PartyB_Min.sol\":313:404  constructor(address _partyA) {... */\n  callvalue\n  dup1\n  iszero\n  tag_1\n  jumpi\n  0x00\n  dup1\n  revert\ntag_1:\n  pop\n  mload(0x40)\n  sub(codesize, bytecodeSize)\n  dup1\n  bytecodeSize\n  dup4\n  codecopy\n  dup2\n  dup2\n  add\n  0x40\n  mstore\n  dup2\n  add\n  swap1\n  tag_2\n  swap2\n  swap1\n  tag_3\n  jump\t// in\ntag_2:\n    /* \"PartyB_Min.sol\":361:371  msg.sender */\n  caller\n    /* \"PartyB_Min.sol\":352:358  partyB */\n  0x00\n  dup1\n    /* \"PartyB_Min.sol\":352:371  partyB = msg.sender */\n  0x0100\n  exp\n  dup2\n  sload\n  dup2\n  0xffffffffffffffffffffffffffffffffffffffff\n  mul\n  not\n  and\n  swap1\n  dup4\n  0xffffffffffffffffffffffffffffffffffffffff\n  and\n  mul\n  or\n  swap1\n  sstore\n  pop\n    /* \"PartyB_Min.sol\":390:397  _partyA */\n  dup1\n    /* \"PartyB_Min.sol\":381:387  partyA */\n  0x01\n  0x00\n    /* \"PartyB_Min.sol\":381:397  partyA = _partyA */\n  0x0100\n  exp\n  dup2\n  sload\n  dup2\n  0xffffffffffffffffffffffffffffffffffffffff\n  mul\n  not\n  and\n  swap1\n  dup4\n  0xffffffffffffffffffffffffffffffffffffffff\n  and\n  mul\n  or\n  swap1\n  sstore\n  pop\n    /* \"PartyB_Min.sol\":313:404  constructor(address _partyA) {... */\n  pop\n    /* \"PartyB_Min.sol\":192:665  contract Day1PartyB_Min {... */\n  jump(tag_6)\n    /* \"#utility.yul\":88:205   */\ntag_8:\n    /* \"#utility.yul\":197:198   */\n  0x00\n    /* \"#utility.yul\":194:195   */\n  dup1\n    /* \"#utility.yul\":187:199   */\n  revert\n    /* \"#utility.yul\":334:460   */\ntag_10:\n    /* \"#utility.yul\":371:378   */\n  0x00\n    /* \"#utility.yul\":411:453   */\n  0xffffffffffffffffffffffffffffffffffffffff\n    /* \"#utility.yul\":404:409   */\n  dup3\n    /* \"#utility.yul\":400:454   */\n  and\n    /* \"#utility.yul\":389:454   */\n  swap1\n  pop\n    /* \"#utility.yul\":334:460   */\n  swap2\n  swap1\n  pop\n  jump\t// out\n    /* \"#utility.yul\":466:562   */\ntag_11:\n    /* \"#utility.yul\":503:510   */\n  0x00\n    /* \"#utility.yul\":532:556   */\n  tag_20\n    /* \"#utility.yul\":550:555   */\n  dup3\n    /* \"#utility.yul\":532:556   */\n  tag_10\n  jump\t// in\ntag_20:\n    /* \"#utility.yul\":521:556   */\n  swap1\n  pop\n    /* \"#utility.yul\":466:562   */\n  swap2\n  swap1\n  pop\n  jump\t// out\n    /* \"#utility.yul\":568:690   */\ntag_12:\n    /* \"#utility.yul\":641:665   */\n  tag_22\n    /* \"#utility.yul\":659:664   */\n  dup2\n    /* \"#utility.yul\":641:665   */\n  tag_11\n  jump\t// in\ntag_22:\n    /* \"#utility.yul\":634:639   */\n  dup2\n    /* \"#utility.yul\":631:666   */\n  eq\n    /* \"#utility.yul\":621:684   */\n  tag_23\n  jumpi\n    /* \"#utility.yul\":680:681   */\n  0x00\n    /* \"#utility.yul\":677:678   */\n  dup1\n    /* \"#utility.yul\":670:682   */\n  revert\n    /* \"#utility.yul\":621:684   */\ntag_23:\n    /* \"#utility.yul\":568:690   */\n  pop\n  jump\t// out\n    /* \"#utility.yul\":696:839   */\ntag_13:\n    /* \"#utility.yul\":753:758   */\n  0x00\n    /* \"#utility.yul\":784:790   */\n  dup2\n    /* \"#utility.yul\":778:791   */\n  mload\n    /* \"#utility.yul\":769:791   */\n  swap1\n  pop\n    /* \"#utility.yul\":800:833   */\n  tag_25\n    /* \"#utility.yul\":827:832   */\n  dup2\n    /* \"#utility.yul\":800:833   */\n  tag_12\n  jump\t// in\ntag_25:\n    /* \"#utility.yul\":696:839   */\n  swap3\n  swap2\n  pop\n  pop\n  jump\t// out\n    /* \"#utility.yul\":845:1196   */\ntag_3:\n    /* \"#utility.yul\":915:921   */\n  0x00\n    /* \"#utility.yul\":964:966   */\n  0x20\n    /* \"#utility.yul\":952:961   */\n  dup3\n    /* \"#utility.yul\":943:950   */\n  dup5\n    /* \"#utility.yul\":939:962   */\n  sub\n    /* \"#utility.yul\":935:967   */\n  slt\n    /* \"#utility.yul\":932:1051   */\n  iszero\n  tag_27\n  jumpi\n    /* \"#utility.yul\":970:1049   */\n  tag_28\n  tag_8\n  jump\t// in\ntag_28:\n    /* \"#utility.yul\":932:1051   */\ntag_27:\n    /* \"#utility.yul\":1090:1091   */\n  0x00\n    /* \"#utility.yul\":1115:1179   */\n  tag_29\n    /* \"#utility.yul\":1171:1178   */\n  dup5\n    /* \"#utility.yul\":1162:1168   */\n  dup3\n    /* \"#utility.yul\":1151:1160   */\n  dup6\n    /* \"#utility.yul\":1147:1169   */\n  add\n    /* \"#utility.yul\":1115:1179   */\n  tag_13\n  jump\t// in\ntag_29:\n    /* \"#utility.yul\":1105:1179   */\n  swap2\n  pop\n    /* \"#utility.yul\":1061:1189   */\n  pop\n    /* \"#utility.yul\":845:1196   */\n  swap3\n  swap2\n  pop\n  pop\n  jump\t// out\n    /* \"PartyB_Min.sol\":192:665  contract Day1PartyB_Min {... */\ntag_6:\n  dataSize(sub_0)\n  dup1\n  dataOffset(sub_0)\n  0x00\n  codecopy\n  0x00\n  return\nstop\n\nsub_0: assembly {\n        /* \"PartyB_Min.sol\":192:665  contract Day1PartyB_Min {... */\n      mstore(0x40, 0x80)\n      callvalue\n      dup1\n      iszero\n      tag_1\n      jumpi\n      0x00\n      dup1\n      revert\n    tag_1:\n      pop\n      jumpi(tag_2, lt(calldatasize, 0x04))\n      shr(0xe0, calldataload(0x00))\n      dup1\n      0x10e1d8ca\n      eq\n      tag_3\n      jumpi\n      dup1\n      0x29040113\n      eq\n      tag_4\n      jumpi\n      dup1\n      0xd9caa3d2\n      eq\n      tag_5\n      jumpi\n    tag_2:\n      0x00\n      dup1\n      revert\n        /* \"PartyB_Min.sol\":249:270  address public partyA */\n    tag_3:\n      tag_6\n      tag_7\n      jump\t// in\n    tag_6:\n      mload(0x40)\n      tag_8\n      swap2\n      swap1\n      tag_9\n      jump\t// in\n    tag_8:\n      mload(0x40)\n      dup1\n      swap2\n      sub\n      swap1\n      return\n        /* \"PartyB_Min.sol\":222:243  address public partyB */\n    tag_4:\n      tag_10\n      tag_11\n      jump\t// in\n    tag_10:\n      mload(0x40)\n      tag_12\n      swap2\n      swap1\n      tag_9\n      jump\t// in\n    tag_12:\n      mload(0x40)\n      dup1\n      swap2\n      sub\n      swap1\n      return\n        /* \"PartyB_Min.sol\":410:663  function submit(bytes32 data) external {... */\n    tag_5:\n      tag_13\n      0x04\n      dup1\n      calldatasize\n      sub\n      dup2\n      add\n      swap1\n      tag_14\n      swap2\n      swap1\n      tag_15\n      jump\t// in\n    tag_14:\n      tag_16\n      jump\t// in\n    tag_13:\n      stop\n        /* \"PartyB_Min.sol\":249:270  address public partyA */\n    tag_7:\n      0x01\n      0x00\n      swap1\n      sload\n      swap1\n      0x0100\n      exp\n      swap1\n      div\n      0xffffffffffffffffffffffffffffffffffffffff\n      and\n      dup2\n      jump\t// out\n        /* \"PartyB_Min.sol\":222:243  address public partyB */\n    tag_11:\n      0x00\n      dup1\n      sload\n      swap1\n      0x0100\n      exp\n      swap1\n      div\n      0xffffffffffffffffffffffffffffffffffffffff\n      and\n      dup2\n      jump\t// out\n        /* \"PartyB_Min.sol\":410:663  function submit(bytes32 data) external {... */\n    tag_16:\n        /* \"PartyB_Min.sol\":481:487  partyB */\n      0x00\n      dup1\n      sload\n      swap1\n      0x0100\n      exp\n      swap1\n      div\n      0xffffffffffffffffffffffffffffffffffffffff\n      and\n        /* \"PartyB_Min.sol\":467:487  msg.sender == partyB */\n      0xffffffffffffffffffffffffffffffffffffffff\n      and\n        /* \"PartyB_Min.sol\":467:477  msg.sender */\n      caller\n        /* \"PartyB_Min.sol\":467:487  msg.sender == partyB */\n      0xffffffffffffffffffffffffffffffffffffffff\n      and\n      eq\n        /* \"PartyB_Min.sol\":459:502  require(msg.sender == partyB, \"Not PartyB\") */\n      tag_18\n      jumpi\n      mload(0x40)\n      0x08c379a000000000000000000000000000000000000000000000000000000000\n      dup2\n      mstore\n      0x04\n      add\n      tag_19\n      swap1\n      tag_20\n      jump\t// in\n    tag_19:\n      mload(0x40)\n      dup1\n      swap2\n      sub\n      swap1\n      revert\n    tag_18:\n        /* \"PartyB_Min.sol\":531:537  partyA */\n      0x01\n      0x00\n      swap1\n      sload\n      swap1\n      0x0100\n      exp\n      swap1\n      div\n      0xffffffffffffffffffffffffffffffffffffffff\n      and\n        /* \"PartyB_Min.sol\":520:552  IPartyA_v3(partyA).dataRequested */\n      0xffffffffffffffffffffffffffffffffffffffff\n      and\n      0x4222c7fb\n        /* \"PartyB_Min.sol\":520:554  IPartyA_v3(partyA).dataRequested() */\n      mload(0x40)\n      dup2\n      0xffffffff\n      and\n      0xe0\n      shl\n      dup2\n      mstore\n      0x04\n      add\n      0x20\n      mload(0x40)\n      dup1\n      dup4\n      sub\n      dup2\n      dup7\n      gas\n      staticcall\n      iszero\n      dup1\n      iszero\n      tag_22\n      jumpi\n      returndatasize\n      0x00\n      dup1\n      returndatacopy\n      revert(0x00, returndatasize)\n    tag_22:\n      pop\n      pop\n      pop\n      pop\n      mload(0x40)\n      returndatasize\n      not(0x1f)\n      0x1f\n      dup3\n      add\n      and\n      dup3\n      add\n      dup1\n      0x40\n      mstore\n      pop\n      dup2\n      add\n      swap1\n      tag_23\n      swap2\n      swap1\n      tag_24\n      jump\t// in\n    tag_23:\n        /* \"PartyB_Min.sol\":512:579  require(IPartyA_v3(partyA).dataRequested(), \"PartyA not requested\") */\n      tag_25\n      jumpi\n      mload(0x40)\n      0x08c379a000000000000000000000000000000000000000000000000000000000\n      dup2\n      mstore\n      0x04\n      add\n      tag_26\n      swap1\n      tag_27\n      jump\t// in\n    tag_26:\n      mload(0x40)\n      dup1\n      swap2\n      sub\n      swap1\n      revert\n    tag_25:\n        /* \"PartyB_Min.sol\":601:607  partyA */\n      0x01\n      0x00\n      swap1\n      sload\n      swap1\n      0x0100\n      exp\n      swap1\n      div\n      0xffffffffffffffffffffffffffffffffffffffff\n      and\n        /* \"PartyB_Min.sol\":590:620  IPartyA_v3(partyA).fulfillData */\n      0xffffffffffffffffffffffffffffffffffffffff\n      and\n      0xfeae371b\n        /* \"PartyB_Min.sol\":621:625  data */\n      dup3\n        /* \"PartyB_Min.sol\":590:626  IPartyA_v3(partyA).fulfillData(data) */\n      mload(0x40)\n      dup3\n      0xffffffff\n      and\n      0xe0\n      shl\n      dup2\n      mstore\n      0x04\n      add\n      tag_28\n      swap2\n      swap1\n      tag_29\n      jump\t// in\n    tag_28:\n      0x00\n      mload(0x40)\n      dup1\n      dup4\n      sub\n      dup2\n      0x00\n      dup8\n      dup1\n      extcodesize\n      iszero\n      dup1\n      iszero\n      tag_30\n      jumpi\n      0x00\n      dup1\n      revert\n    tag_30:\n      pop\n      gas\n      call\n      iszero\n      dup1\n      iszero\n      tag_32\n      jumpi\n      returndatasize\n      0x00\n      dup1\n      returndatacopy\n      revert(0x00, returndatasize)\n    tag_32:\n      pop\n      pop\n      pop\n      pop\n        /* \"PartyB_Min.sol\":641:656  Submitted(data) */\n      0xe4142e56e449251d27732d585248d507994e400fc19184ce6158f1263cdc9e1b\n        /* \"PartyB_Min.sol\":651:655  data */\n      dup2\n        /* \"PartyB_Min.sol\":641:656  Submitted(data) */\n      mload(0x40)\n      tag_33\n      swap2\n      swap1\n      tag_29\n      jump\t// in\n    tag_33:\n      mload(0x40)\n      dup1\n      swap2\n      sub\n      swap1\n      log1\n        /* \"PartyB_Min.sol\":410:663  function submit(bytes32 data) external {... */\n      pop\n      jump\t// out\n        /* \"#utility.yul\":7:133   */\n    tag_34:\n        /* \"#utility.yul\":44:51   */\n      0x00\n        /* \"#utility.yul\":84:126   */\n      0xffffffffffffffffffffffffffffffffffffffff\n        /* \"#utility.yul\":77:82   */\n      dup3\n        /* \"#utility.yul\":73:127   */\n      and\n        /* \"#utility.yul\":62:127   */\n      swap1\n      pop\n        /* \"#utility.yul\":7:133   */\n      swap2\n      swap1\n      pop\n      jump\t// out\n        /* \"#utility.yul\":139:235   */\n    tag_35:\n        /* \"#utility.yul\":176:183   */\n      0x00\n        /* \"#utility.yul\":205:229   */\n      tag_55\n        /* \"#utility.yul\":223:228   */\n      dup3\n        /* \"#utility.yul\":205:229   */\n      tag_34\n      jump\t// in\n    tag_55:\n        /* \"#utility.yul\":194:229   */\n      swap1\n      pop\n        /* \"#utility.yul\":139:235   */\n      swap2\n      swap1\n      pop\n      jump\t// out\n        /* \"#utility.yul\":241:359   */\n    tag_36:\n        /* \"#utility.yul\":328:352   */\n      tag_57\n        /* \"#utility.yul\":346:351   */\n      dup2\n        /* \"#utility.yul\":328:352   */\n      tag_35\n      jump\t// in\n    tag_57:\n        /* \"#utility.yul\":323:326   */\n      dup3\n        /* \"#utility.yul\":316:353   */\n      mstore\n        /* \"#utility.yul\":241:359   */\n      pop\n      pop\n      jump\t// out\n        /* \"#utility.yul\":365:587   */\n    tag_9:\n        /* \"#utility.yul\":458:462   */\n      0x00\n        /* \"#utility.yul\":496:498   */\n      0x20\n        /* \"#utility.yul\":485:494   */\n      dup3\n        /* \"#utility.yul\":481:499   */\n      add\n        /* \"#utility.yul\":473:499   */\n      swap1\n      pop\n        /* \"#utility.yul\":509:580   */\n      tag_59\n        /* \"#utility.yul\":577:578   */\n      0x00\n        /* \"#utility.yul\":566:575   */\n      dup4\n        /* \"#utility.yul\":562:579   */\n      add\n        /* \"#utility.yul\":553:559   */\n      dup5\n        /* \"#utility.yul\":509:580   */\n      tag_36\n      jump\t// in\n    tag_59:\n        /* \"#utility.yul\":365:587   */\n      swap3\n      swap2\n      pop\n      pop\n      jump\t// out\n        /* \"#utility.yul\":674:791   */\n    tag_38:\n        /* \"#utility.yul\":783:784   */\n      0x00\n        /* \"#utility.yul\":780:781   */\n      dup1\n        /* \"#utility.yul\":773:785   */\n      revert\n        /* \"#utility.yul\":920:997   */\n    tag_40:\n        /* \"#utility.yul\":957:964   */\n      0x00\n        /* \"#utility.yul\":986:991   */\n      dup2\n        /* \"#utility.yul\":975:991   */\n      swap1\n      pop\n        /* \"#utility.yul\":920:997   */\n      swap2\n      swap1\n      pop\n      jump\t// out\n        /* \"#utility.yul\":1003:1125   */\n    tag_41:\n        /* \"#utility.yul\":1076:1100   */\n      tag_65\n        /* \"#utility.yul\":1094:1099   */\n      dup2\n        /* \"#utility.yul\":1076:1100   */\n      tag_40\n      jump\t// in\n    tag_65:\n        /* \"#utility.yul\":1069:1074   */\n      dup2\n        /* \"#utility.yul\":1066:1101   */\n      eq\n        /* \"#utility.yul\":1056:1119   */\n      tag_66\n      jumpi\n        /* \"#utility.yul\":1115:1116   */\n      0x00\n        /* \"#utility.yul\":1112:1113   */\n      dup1\n        /* \"#utility.yul\":1105:1117   */\n      revert\n        /* \"#utility.yul\":1056:1119   */\n    tag_66:\n        /* \"#utility.yul\":1003:1125   */\n      pop\n      jump\t// out\n        /* \"#utility.yul\":1131:1270   */\n    tag_42:\n        /* \"#utility.yul\":1177:1182   */\n      0x00\n        /* \"#utility.yul\":1215:1221   */\n      dup2\n        /* \"#utility.yul\":1202:1222   */\n      calldataload\n        /* \"#utility.yul\":1193:1222   */\n      swap1\n      pop\n        /* \"#utility.yul\":1231:1264   */\n      tag_68\n        /* \"#utility.yul\":1258:1263   */\n      dup2\n        /* \"#utility.yul\":1231:1264   */\n      tag_41\n      jump\t// in\n    tag_68:\n        /* \"#utility.yul\":1131:1270   */\n      swap3\n      swap2\n      pop\n      pop\n      jump\t// out\n        /* \"#utility.yul\":1276:1605   */\n    tag_15:\n        /* \"#utility.yul\":1335:1341   */\n      0x00\n        /* \"#utility.yul\":1384:1386   */\n      0x20\n        /* \"#utility.yul\":1372:1381   */\n      dup3\n        /* \"#utility.yul\":1363:1370   */\n      dup5\n        /* \"#utility.yul\":1359:1382   */\n      sub\n        /* \"#utility.yul\":1355:1387   */\n      slt\n        /* \"#utility.yul\":1352:1471   */\n      iszero\n      tag_70\n      jumpi\n        /* \"#utility.yul\":1390:1469   */\n      tag_71\n      tag_38\n      jump\t// in\n    tag_71:\n        /* \"#utility.yul\":1352:1471   */\n    tag_70:\n        /* \"#utility.yul\":1510:1511   */\n      0x00\n        /* \"#utility.yul\":1535:1588   */\n      tag_72\n        /* \"#utility.yul\":1580:1587   */\n      dup5\n        /* \"#utility.yul\":1571:1577   */\n      dup3\n        /* \"#utility.yul\":1560:1569   */\n      dup6\n        /* \"#utility.yul\":1556:1578   */\n      add\n        /* \"#utility.yul\":1535:1588   */\n      tag_42\n      jump\t// in\n    tag_72:\n        /* \"#utility.yul\":1525:1588   */\n      swap2\n      pop\n        /* \"#utility.yul\":1481:1598   */\n      pop\n        /* \"#utility.yul\":1276:1605   */\n      swap3\n      swap2\n      pop\n      pop\n      jump\t// out\n        /* \"#utility.yul\":1611:1780   */\n    tag_43:\n        /* \"#utility.yul\":1695:1706   */\n      0x00\n        /* \"#utility.yul\":1729:1735   */\n      dup3\n        /* \"#utility.yul\":1724:1727   */\n      dup3\n        /* \"#utility.yul\":1717:1736   */\n      mstore\n        /* \"#utility.yul\":1769:1773   */\n      0x20\n        /* \"#utility.yul\":1764:1767   */\n      dup3\n        /* \"#utility.yul\":1760:1774   */\n      add\n        /* \"#utility.yul\":1745:1774   */\n      swap1\n      pop\n        /* \"#utility.yul\":1611:1780   */\n      swap3\n      swap2\n      pop\n      pop\n      jump\t// out\n        /* \"#utility.yul\":1786:1946   */\n    tag_44:\n        /* \"#utility.yul\":1926:1938   */\n      0x4e6f742050617274794200000000000000000000000000000000000000000000\n        /* \"#utility.yul\":1922:1923   */\n      0x00\n        /* \"#utility.yul\":1914:1920   */\n      dup3\n        /* \"#utility.yul\":1910:1924   */\n      add\n        /* \"#utility.yul\":1903:1939   */\n      mstore\n        /* \"#utility.yul\":1786:1946   */\n      pop\n      jump\t// out\n        /* \"#utility.yul\":1952:2318   */\n    tag_45:\n        /* \"#utility.yul\":2094:2097   */\n      0x00\n        /* \"#utility.yul\":2115:2182   */\n      tag_76\n        /* \"#utility.yul\":2179:2181   */\n      0x0a\n        /* \"#utility.yul\":2174:2177   */\n      dup4\n        /* \"#utility.yul\":2115:2182   */\n      tag_43\n      jump\t// in\n    tag_76:\n        /* \"#utility.yul\":2108:2182   */\n      swap2\n      pop\n        /* \"#utility.yul\":2191:2284   */\n      tag_77\n        /* \"#utility.yul\":2280:2283   */\n      dup3\n        /* \"#utility.yul\":2191:2284   */\n      tag_44\n      jump\t// in\n    tag_77:\n        /* \"#utility.yul\":2309:2311   */\n      0x20\n        /* \"#utility.yul\":2304:2307   */\n      dup3\n        /* \"#utility.yul\":2300:2312   */\n      add\n        /* \"#utility.yul\":2293:2312   */\n      swap1\n      pop\n        /* \"#utility.yul\":1952:2318   */\n      swap2\n      swap1\n      pop\n      jump\t// out\n        /* \"#utility.yul\":2324:2743   */\n    tag_20:\n        /* \"#utility.yul\":2490:2494   */\n      0x00\n        /* \"#utility.yul\":2528:2530   */\n      0x20\n        /* \"#utility.yul\":2517:2526   */\n      dup3\n        /* \"#utility.yul\":2513:2531   */\n      add\n        /* \"#utility.yul\":2505:2531   */\n      swap1\n      pop\n        /* \"#utility.yul\":2577:2586   */\n      dup2\n        /* \"#utility.yul\":2571:2575   */\n      dup2\n        /* \"#utility.yul\":2567:2587   */\n      sub\n        /* \"#utility.yul\":2563:2564   */\n      0x00\n        /* \"#utility.yul\":2552:2561   */\n      dup4\n        /* \"#utility.yul\":2548:2565   */\n      add\n        /* \"#utility.yul\":2541:2588   */\n      mstore\n        /* \"#utility.yul\":2605:2736   */\n      tag_79\n        /* \"#utility.yul\":2731:2735   */\n      dup2\n        /* \"#utility.yul\":2605:2736   */\n      tag_45\n      jump\t// in\n    tag_79:\n        /* \"#utility.yul\":2597:2736   */\n      swap1\n      pop\n        /* \"#utility.yul\":2324:2743   */\n      swap2\n      swap1\n      pop\n      jump\t// out\n        /* \"#utility.yul\":2749:2839   */\n    tag_46:\n        /* \"#utility.yul\":2783:2790   */\n      0x00\n        /* \"#utility.yul\":2826:2831   */\n      dup2\n        /* \"#utility.yul\":2819:2832   */\n      iszero\n        /* \"#utility.yul\":2812:2833   */\n      iszero\n        /* \"#utility.yul\":2801:2833   */\n      swap1\n      pop\n        /* \"#utility.yul\":2749:2839   */\n      swap2\n      swap1\n      pop\n      jump\t// out\n        /* \"#utility.yul\":2845:2961   */\n    tag_47:\n        /* \"#utility.yul\":2915:2936   */\n      tag_82\n        /* \"#utility.yul\":2930:2935   */\n      dup2\n        /* \"#utility.yul\":2915:2936   */\n      tag_46\n      jump\t// in\n    tag_82:\n        /* \"#utility.yul\":2908:2913   */\n      dup2\n        /* \"#utility.yul\":2905:2937   */\n      eq\n        /* \"#utility.yul\":2895:2955   */\n      tag_83\n      jumpi\n        /* \"#utility.yul\":2951:2952   */\n      0x00\n        /* \"#utility.yul\":2948:2949   */\n      dup1\n        /* \"#utility.yul\":2941:2953   */\n      revert\n        /* \"#utility.yul\":2895:2955   */\n    tag_83:\n        /* \"#utility.yul\":2845:2961   */\n      pop\n      jump\t// out\n        /* \"#utility.yul\":2967:3104   */\n    tag_48:\n        /* \"#utility.yul\":3021:3026   */\n      0x00\n        /* \"#utility.yul\":3052:3058   */\n      dup2\n        /* \"#utility.yul\":3046:3059   */\n      mload\n        /* \"#utility.yul\":3037:3059   */\n      swap1\n      pop\n        /* \"#utility.yul\":3068:3098   */\n      tag_85\n        /* \"#utility.yul\":3092:3097   */\n      dup2\n        /* \"#utility.yul\":3068:3098   */\n      tag_47\n      jump\t// in\n    tag_85:\n        /* \"#utility.yul\":2967:3104   */\n      swap3\n      swap2\n      pop\n      pop\n      jump\t// out\n        /* \"#utility.yul\":3110:3455   */\n    tag_24:\n        /* \"#utility.yul\":3177:3183   */\n      0x00\n        /* \"#utility.yul\":3226:3228   */\n      0x20\n        /* \"#utility.yul\":3214:3223   */\n      dup3\n        /* \"#utility.yul\":3205:3212   */\n      dup5\n        /* \"#utility.yul\":3201:3224   */\n      sub\n        /* \"#utility.yul\":3197:3229   */\n      slt\n        /* \"#utility.yul\":3194:3313   */\n      iszero\n      tag_87\n      jumpi\n        /* \"#utility.yul\":3232:3311   */\n      tag_88\n      tag_38\n      jump\t// in\n    tag_88:\n        /* \"#utility.yul\":3194:3313   */\n    tag_87:\n        /* \"#utility.yul\":3352:3353   */\n      0x00\n        /* \"#utility.yul\":3377:3438   */\n      tag_89\n        /* \"#utility.yul\":3430:3437   */\n      dup5\n        /* \"#utility.yul\":3421:3427   */\n      dup3\n        /* \"#utility.yul\":3410:3419   */\n      dup6\n        /* \"#utility.yul\":3406:3428   */\n      add\n        /* \"#utility.yul\":3377:3438   */\n      tag_48\n      jump\t// in\n    tag_89:\n        /* \"#utility.yul\":3367:3438   */\n      swap2\n      pop\n        /* \"#utility.yul\":3323:3448   */\n      pop\n        /* \"#utility.yul\":3110:3455   */\n      swap3\n      swap2\n      pop\n      pop\n      jump\t// out\n        /* \"#utility.yul\":3461:3631   */\n    tag_49:\n        /* \"#utility.yul\":3601:3623   */\n      0x506172747941206e6f7420726571756573746564000000000000000000000000\n        /* \"#utility.yul\":3597:3598   */\n      0x00\n        /* \"#utility.yul\":3589:3595   */\n      dup3\n        /* \"#utility.yul\":3585:3599   */\n      add\n        /* \"#utility.yul\":3578:3624   */\n      mstore\n        /* \"#utility.yul\":3461:3631   */\n      pop\n      jump\t// out\n        /* \"#utility.yul\":3637:4003   */\n    tag_50:\n        /* \"#utility.yul\":3779:3782   */\n      0x00\n        /* \"#utility.yul\":3800:3867   */\n      tag_92\n        /* \"#utility.yul\":3864:3866   */\n      0x14\n        /* \"#utility.yul\":3859:3862   */\n      dup4\n        /* \"#utility.yul\":3800:3867   */\n      tag_43\n      jump\t// in\n    tag_92:\n        /* \"#utility.yul\":3793:3867   */\n      swap2\n      pop\n        /* \"#utility.yul\":3876:3969   */\n      tag_93\n        /* \"#utility.yul\":3965:3968   */\n      dup3\n        /* \"#utility.yul\":3876:3969   */\n      tag_49\n      jump\t// in\n    tag_93:\n        /* \"#utility.yul\":3994:3996   */\n      0x20\n        /* \"#utility.yul\":3989:3992   */\n      dup3\n        /* \"#utility.yul\":3985:3997   */\n      add\n        /* \"#utility.yul\":3978:3997   */\n      swap1\n      pop\n        /* \"#utility.yul\":3637:4003   */\n      swap2\n      swap1\n      pop\n      jump\t// out\n        /* \"#utility.yul\":4009:4428   */\n    tag_27:\n        /* \"#utility.yul\":4175:4179   */\n      0x00\n        /* \"#utility.yul\":4213:4215   */\n      0x20\n        /* \"#utility.yul\":4202:4211   */\n      dup3\n        /* \"#utility.yul\":4198:4216   */\n      add\n        /* \"#utility.yul\":4190:4216   */\n      swap1\n      pop\n        /* \"#utility.yul\":4262:4271   */\n      dup2\n        /* \"#utility.yul\":4256:4260   */\n      dup2\n        /* \"#utility.yul\":4252:4272   */\n      sub\n        /* \"#utility.yul\":4248:4249   */\n      0x00\n        /* \"#utility.yul\":4237:4246   */\n      dup4\n        /* \"#utility.yul\":4233:4250   */\n      add\n        /* \"#utility.yul\":4226:4273   */\n      mstore\n        /* \"#utility.yul\":4290:4421   */\n      tag_95\n        /* \"#utility.yul\":4416:4420   */\n      dup2\n        /* \"#utility.yul\":4290:4421   */\n      tag_50\n      jump\t// in\n    tag_95:\n        /* \"#utility.yul\":4282:4421   */\n      swap1\n      pop\n        /* \"#utility.yul\":4009:4428   */\n      swap2\n      swap1\n      pop\n      jump\t// out\n        /* \"#utility.yul\":4434:4552   */\n    tag_51:\n        /* \"#utility.yul\":4521:4545   */\n      tag_97\n        /* \"#utility.yul\":4539:4544   */\n      dup2\n        /* \"#utility.yul\":4521:4545   */\n      tag_40\n      jump\t// in\n    tag_97:\n        /* \"#utility.yul\":4516:4519   */\n      dup3\n        /* \"#utility.yul\":4509:4546   */\n      mstore\n        /* \"#utility.yul\":4434:4552   */\n      pop\n      pop\n      jump\t// out\n        /* \"#utility.yul\":4558:4780   */\n    tag_29:\n        /* \"#utility.yul\":4651:4655   */\n      0x00\n        /* \"#utility.yul\":4689:4691   */\n      0x20\n        /* \"#utility.yul\":4678:4687   */\n      dup3\n        /* \"#utility.yul\":4674:4692   */\n      add\n        /* \"#utility.yul\":4666:4692   */\n      swap1\n      pop\n        /* \"#utility.yul\":4702:4773   */\n      tag_99\n        /* \"#utility.yul\":4770:4771   */\n      0x00\n        /* \"#utility.yul\":4759:4768   */\n      dup4\n        /* \"#utility.yul\":4755:4772   */\n      add\n        /* \"#utility.yul\":4746:4752   */\n      dup5\n        /* \"#utility.yul\":4702:4773   */\n      tag_51\n      jump\t// in\n    tag_99:\n        /* \"#utility.yul\":4558:4780   */\n      swap3\n      swap2\n      pop\n      pop\n      jump\t// out\n\n    auxdata: 0xa2646970667358221220e1e0dd82579b5364c5e946b590daa33ebcf82f68c6e8901b24d579c0133f873464736f6c63430008110033\n}\n",
				"bytecode": {
					"linkReferences": {},
					"object": "608060405234801561001057600080fd5b506040516106d73803806106d78339818101604052810190610032919061011c565b336000806101000a81548173ffffffffffffffffffffffffffffffffffffffff021916908373ffffffffffffffffffffffffffffffffffffffff16021790555080600160006101000a81548173ffffffffffffffffffffffffffffffffffffffff021916908373ffffffffffffffffffffffffffffffffffffffff16021790555050610149565b600080fd5b600073ffffffffffffffffffffffffffffffffffffffff82169050919050565b60006100e9826100be565b9050919050565b6100f9816100de565b811461010457600080fd5b50565b600081519050610116816100f0565b92915050565b600060208284031215610132576101316100b9565b5b600061014084828501610107565b91505092915050565b61057f806101586000396000f3fe608060405234801561001057600080fd5b50600436106100415760003560e01c806310e1d8ca146100465780632904011314610064578063d9caa3d214610082575b600080fd5b61004e61009e565b60405161005b919061034e565b60405180910390f35b61006c6100c4565b604051610079919061034e565b60405180910390f35b61009c600480360381019061009791906103a4565b6100e8565b005b600160009054906101000a900473ffffffffffffffffffffffffffffffffffffffff1681565b60008054906101000a900473ffffffffffffffffffffffffffffffffffffffff1681565b60008054906101000a900473ffffffffffffffffffffffffffffffffffffffff1673ffffffffffffffffffffffffffffffffffffffff163373ffffffffffffffffffffffffffffffffffffffff1614610176576040517f08c379a000000000000000000000000000000000000000000000000000000000815260040161016d9061042e565b60405180910390fd5b600160009054906101000a900473ffffffffffffffffffffffffffffffffffffffff1673ffffffffffffffffffffffffffffffffffffffff16634222c7fb6040518163ffffffff1660e01b8152600401602060405180830381865afa1580156101e3573d6000803e3d6000fd5b505050506040513d601f19601f820116820180604052508101906102079190610486565b610246576040517f08c379a000000000000000000000000000000000000000000000000000000000815260040161023d906104ff565b60405180910390fd5b600160009054906101000a900473ffffffffffffffffffffffffffffffffffffffff1673ffffffffffffffffffffffffffffffffffffffff1663feae371b826040518263ffffffff1660e01b81526004016102a1919061052e565b600060405180830381600087803b1580156102bb57600080fd5b505af11580156102cf573d6000803e3d6000fd5b505050507fe4142e56e449251d27732d585248d507994e400fc19184ce6158f1263cdc9e1b81604051610302919061052e565b60405180910390a150565b600073ffffffffffffffffffffffffffffffffffffffff82169050919050565b60006103388261030d565b9050919050565b6103488161032d565b82525050565b6000602082019050610363600083018461033f565b92915050565b600080fd5b6000819050919050565b6103818161036e565b811461038c57600080fd5b50565b60008135905061039e81610378565b92915050565b6000602082840312156103ba576103b9610369565b5b60006103c88482850161038f565b91505092915050565b600082825260208201905092915050565b7f4e6f742050617274794200000000000000000000000000000000000000000000600082015250565b6000610418600a836103d1565b9150610423826103e2565b602082019050919050565b600060208201905081810360008301526104478161040b565b9050919050565b60008115159050919050565b6104638161044e565b811461046e57600080fd5b50565b6000815190506104808161045a565b92915050565b60006020828403121561049c5761049b610369565b5b60006104aa84828501610471565b91505092915050565b7f506172747941206e6f7420726571756573746564000000000000000000000000600082015250565b60006104e96014836103d1565b91506104f4826104b3565b602082019050919050565b60006020820190508181036000830152610518816104dc565b9050919050565b6105288161036e565b82525050565b6000602082019050610543600083018461051f565b9291505056fea2646970667358221220e1e0dd82579b5364c5e946b590daa33ebcf82f68c6e8901b24d579c0133f873464736f6c63430008110033",
					"opcodes": "PUSH1 0x80 PUSH1 0x40 MSTORE CALLVALUE DUP1 ISZERO PUSH2 0x10 JUMPI PUSH1 0x0 DUP1 REVERT JUMPDEST POP PUSH1 0x40 MLOAD PUSH2 0x6D7 CODESIZE SUB DUP1 PUSH2 0x6D7 DUP4 CODECOPY DUP2 DUP2 ADD PUSH1 0x40 MSTORE DUP2 ADD SWAP1 PUSH2 0x32 SWAP2 SWAP1 PUSH2 0x11C JUMP JUMPDEST CALLER PUSH1 0x0 DUP1 PUSH2 0x100 EXP DUP2 SLOAD DUP2 PUSH20 0xFFFFFFFFFFFFFFFFFFFFFFFFFFFFFFFFFFFFFFFF MUL NOT AND SWAP1 DUP4 PUSH20 0xFFFFFFFFFFFFFFFFFFFFFFFFFFFFFFFFFFFFFFFF AND MUL OR SWAP1 SSTORE POP DUP1 PUSH1 0x1 PUSH1 0x0 PUSH2 0x100 EXP DUP2 SLOAD DUP2 PUSH20 0xFFFFFFFFFFFFFFFFFFFFFFFFFFFFFFFFFFFFFFFF MUL NOT AND SWAP1 DUP4 PUSH20 0xFFFFFFFFFFFFFFFFFFFFFFFFFFFFFFFFFFFFFFFF AND MUL OR SWAP1 SSTORE POP POP PUSH2 0x149 JUMP JUMPDEST PUSH1 0x0 DUP1 REVERT JUMPDEST PUSH1 0x0 PUSH20 0xFFFFFFFFFFFFFFFFFFFFFFFFFFFFFFFFFFFFFFFF DUP3 AND SWAP1 POP SWAP2 SWAP1 POP JUMP JUMPDEST PUSH1 0x0 PUSH2 0xE9 DUP3 PUSH2 0xBE JUMP JUMPDEST SWAP1 POP SWAP2 SWAP1 POP JUMP JUMPDEST PUSH2 0xF9 DUP2 PUSH2 0xDE JUMP JUMPDEST DUP2 EQ PUSH2 0x104 JUMPI PUSH1 0x0 DUP1 REVERT JUMPDEST POP JUMP JUMPDEST PUSH1 0x0 DUP2 MLOAD SWAP1 POP PUSH2 0x116 DUP2 PUSH2 0xF0 JUMP JUMPDEST SWAP3 SWAP2 POP POP JUMP JUMPDEST PUSH1 0x0 PUSH1 0x20 DUP3 DUP5 SUB SLT ISZERO PUSH2 0x132 JUMPI PUSH2 0x131 PUSH2 0xB9 JUMP JUMPDEST JUMPDEST PUSH1 0x0 PUSH2 0x140 DUP5 DUP3 DUP6 ADD PUSH2 0x107 JUMP JUMPDEST SWAP2 POP POP SWAP3 SWAP2 POP POP JUMP JUMPDEST PUSH2 0x57F DUP1 PUSH2 0x158 PUSH1 0x0 CODECOPY PUSH1 0x0 RETURN INVALID PUSH1 0x80 PUSH1 0x40 MSTORE CALLVALUE DUP1 ISZERO PUSH2 0x10 JUMPI PUSH1 0x0 DUP1 REVERT JUMPDEST POP PUSH1 0x4 CALLDATASIZE LT PUSH2 0x41 JUMPI PUSH1 0x0 CALLDATALOAD PUSH1 0xE0 SHR DUP1 PUSH4 0x10E1D8CA EQ PUSH2 0x46 JUMPI DUP1 PUSH4 0x29040113 EQ PUSH2 0x64 JUMPI DUP1 PUSH4 0xD9CAA3D2 EQ PUSH2 0x82 JUMPI JUMPDEST PUSH1 0x0 DUP1 REVERT JUMPDEST PUSH2 0x4E PUSH2 0x9E JUMP JUMPDEST PUSH1 0x40 MLOAD PUSH2 0x5B SWAP2 SWAP1 PUSH2 0x34E JUMP JUMPDEST PUSH1 0x40 MLOAD DUP1 SWAP2 SUB SWAP1 RETURN JUMPDEST PUSH2 0x6C PUSH2 0xC4 JUMP JUMPDEST PUSH1 0x40 MLOAD PUSH2 0x79 SWAP2 SWAP1 PUSH2 0x34E JUMP JUMPDEST PUSH1 0x40 MLOAD DUP1 SWAP2 SUB SWAP1 RETURN JUMPDEST PUSH2 0x9C PUSH1 0x4 DUP1 CALLDATASIZE SUB DUP2 ADD SWAP1 PUSH2 0x97 SWAP2 SWAP1 PUSH2 0x3A4 JUMP JUMPDEST PUSH2 0xE8 JUMP JUMPDEST STOP JUMPDEST PUSH1 0x1 PUSH1 0x0 SWAP1 SLOAD SWAP1 PUSH2 0x100 EXP SWAP1 DIV PUSH20 0xFFFFFFFFFFFFFFFFFFFFFFFFFFFFFFFFFFFFFFFF AND DUP2 JUMP JUMPDEST PUSH1 0x0 DUP1 SLOAD SWAP1 PUSH2 0x100 EXP SWAP1 DIV PUSH20 0xFFFFFFFFFFFFFFFFFFFFFFFFFFFFFFFFFFFFFFFF AND DUP2 JUMP JUMPDEST PUSH1 0x0 DUP1 SLOAD SWAP1 PUSH2 0x100 EXP SWAP1 DIV PUSH20 0xFFFFFFFFFFFFFFFFFFFFFFFFFFFFFFFFFFFFFFFF AND PUSH20 0xFFFFFFFFFFFFFFFFFFFFFFFFFFFFFFFFFFFFFFFF AND CALLER PUSH20 0xFFFFFFFFFFFFFFFFFFFFFFFFFFFFFFFFFFFFFFFF AND EQ PUSH2 0x176 JUMPI PUSH1 0x40 MLOAD PUSH32 0x8C379A000000000000000000000000000000000000000000000000000000000 DUP2 MSTORE PUSH1 0x4 ADD PUSH2 0x16D SWAP1 PUSH2 0x42E JUMP JUMPDEST PUSH1 0x40 MLOAD DUP1 SWAP2 SUB SWAP1 REVERT JUMPDEST PUSH1 0x1 PUSH1 0x0 SWAP1 SLOAD SWAP1 PUSH2 0x100 EXP SWAP1 DIV PUSH20 0xFFFFFFFFFFFFFFFFFFFFFFFFFFFFFFFFFFFFFFFF AND PUSH20 0xFFFFFFFFFFFFFFFFFFFFFFFFFFFFFFFFFFFFFFFF AND PUSH4 0x4222C7FB PUSH1 0x40 MLOAD DUP2 PUSH4 0xFFFFFFFF AND PUSH1 0xE0 SHL DUP2 MSTORE PUSH1 0x4 ADD PUSH1 0x20 PUSH1 0x40 MLOAD DUP1 DUP4 SUB DUP2 DUP7 GAS STATICCALL ISZERO DUP1 ISZERO PUSH2 0x1E3 JUMPI RETURNDATASIZE PUSH1 0x0 DUP1 RETURNDATACOPY RETURNDATASIZE PUSH1 0x0 REVERT JUMPDEST POP POP POP POP PUSH1 0x40 MLOAD RETURNDATASIZE PUSH1 0x1F NOT PUSH1 0x1F DUP3 ADD AND DUP3 ADD DUP1 PUSH1 0x40 MSTORE POP DUP2 ADD SWAP1 PUSH2 0x207 SWAP2 SWAP1 PUSH2 0x486 JUMP JUMPDEST PUSH2 0x246 JUMPI PUSH1 0x40 MLOAD PUSH32 0x8C379A000000000000000000000000000000000000000000000000000000000 DUP2 MSTORE PUSH1 0x4 ADD PUSH2 0x23D SWAP1 PUSH2 0x4FF JUMP JUMPDEST PUSH1 0x40 MLOAD DUP1 SWAP2 SUB SWAP1 REVERT JUMPDEST PUSH1 0x1 PUSH1 0x0 SWAP1 SLOAD SWAP1 PUSH2 0x100 EXP SWAP1 DIV PUSH20 0xFFFFFFFFFFFFFFFFFFFFFFFFFFFFFFFFFFFFFFFF AND PUSH20 0xFFFFFFFFFFFFFFFFFFFFFFFFFFFFFFFFFFFFFFFF AND PUSH4 0xFEAE371B DUP3 PUSH1 0x40 MLOAD DUP3 PUSH4 0xFFFFFFFF AND PUSH1 0xE0 SHL DUP2 MSTORE PUSH1 0x4 ADD PUSH2 0x2A1 SWAP2 SWAP1 PUSH2 0x52E JUMP JUMPDEST PUSH1 0x0 PUSH1 0x40 MLOAD DUP1 DUP4 SUB DUP2 PUSH1 0x0 DUP8 DUP1 EXTCODESIZE ISZERO DUP1 ISZERO PUSH2 0x2BB JUMPI PUSH1 0x0 DUP1 REVERT JUMPDEST POP GAS CALL ISZERO DUP1 ISZERO PUSH2 0x2CF JUMPI RETURNDATASIZE PUSH1 0x0 DUP1 RETURNDATACOPY RETURNDATASIZE PUSH1 0x0 REVERT JUMPDEST POP POP POP POP PUSH32 0xE4142E56E449251D27732D585248D507994E400FC19184CE6158F1263CDC9E1B DUP2 PUSH1 0x40 MLOAD PUSH2 0x302 SWAP2 SWAP1 PUSH2 0x52E JUMP JUMPDEST PUSH1 0x40 MLOAD DUP1 SWAP2 SUB SWAP1 LOG1 POP JUMP JUMPDEST PUSH1 0x0 PUSH20 0xFFFFFFFFFFFFFFFFFFFFFFFFFFFFFFFFFFFFFFFF DUP3 AND SWAP1 POP SWAP2 SWAP1 POP JUMP JUMPDEST PUSH1 0x0 PUSH2 0x338 DUP3 PUSH2 0x30D JUMP JUMPDEST SWAP1 POP SWAP2 SWAP1 POP JUMP JUMPDEST PUSH2 0x348 DUP2 PUSH2 0x32D JUMP JUMPDEST DUP3 MSTORE POP POP JUMP JUMPDEST PUSH1 0x0 PUSH1 0x20 DUP3 ADD SWAP1 POP PUSH2 0x363 PUSH1 0x0 DUP4 ADD DUP5 PUSH2 0x33F JUMP JUMPDEST SWAP3 SWAP2 POP POP JUMP JUMPDEST PUSH1 0x0 DUP1 REVERT JUMPDEST PUSH1 0x0 DUP2 SWAP1 POP SWAP2 SWAP1 POP JUMP JUMPDEST PUSH2 0x381 DUP2 PUSH2 0x36E JUMP JUMPDEST DUP2 EQ PUSH2 0x38C JUMPI PUSH1 0x0 DUP1 REVERT JUMPDEST POP JUMP JUMPDEST PUSH1 0x0 DUP2 CALLDATALOAD SWAP1 POP PUSH2 0x39E DUP2 PUSH2 0x378 JUMP JUMPDEST SWAP3 SWAP2 POP POP JUMP JUMPDEST PUSH1 0x0 PUSH1 0x20 DUP3 DUP5 SUB SLT ISZERO PUSH2 0x3BA JUMPI PUSH2 0x3B9 PUSH2 0x369 JUMP JUMPDEST JUMPDEST PUSH1 0x0 PUSH2 0x3C8 DUP5 DUP3 DUP6 ADD PUSH2 0x38F JUMP JUMPDEST SWAP2 POP POP SWAP3 SWAP2 POP POP JUMP JUMPDEST PUSH1 0x0 DUP3 DUP3 MSTORE PUSH1 0x20 DUP3 ADD SWAP1 POP SWAP3 SWAP2 POP POP JUMP JUMPDEST PUSH32 0x4E6F742050617274794200000000000000000000000000000000000000000000 PUSH1 0x0 DUP3 ADD MSTORE POP JUMP JUMPDEST PUSH1 0x0 PUSH2 0x418 PUSH1 0xA DUP4 PUSH2 0x3D1 JUMP JUMPDEST SWAP2 POP PUSH2 0x423 DUP3 PUSH2 0x3E2 JUMP JUMPDEST PUSH1 0x20 DUP3 ADD SWAP1 POP SWAP2 SWAP1 POP JUMP JUMPDEST PUSH1 0x0 PUSH1 0x20 DUP3 ADD SWAP1 POP DUP2 DUP2 SUB PUSH1 0x0 DUP4 ADD MSTORE PUSH2 0x447 DUP2 PUSH2 0x40B JUMP JUMPDEST SWAP1 POP SWAP2 SWAP1 POP JUMP JUMPDEST PUSH1 0x0 DUP2 ISZERO ISZERO SWAP1 POP SWAP2 SWAP1 POP JUMP JUMPDEST PUSH2 0x463 DUP2 PUSH2 0x44E JUMP JUMPDEST DUP2 EQ PUSH2 0x46E JUMPI PUSH1 0x0 DUP1 REVERT JUMPDEST POP JUMP JUMPDEST PUSH1 0x0 DUP2 MLOAD SWAP1 POP PUSH2 0x480 DUP2 PUSH2 0x45A JUMP JUMPDEST SWAP3 SWAP2 POP POP JUMP JUMPDEST PUSH1 0x0 PUSH1 0x20 DUP3 DUP5 SUB SLT ISZERO PUSH2 0x49C JUMPI PUSH2 0x49B PUSH2 0x369 JUMP JUMPDEST JUMPDEST PUSH1 0x0 PUSH2 0x4AA DUP5 DUP3 DUP6 ADD PUSH2 0x471 JUMP JUMPDEST SWAP2 POP POP SWAP3 SWAP2 POP POP JUMP JUMPDEST PUSH32 0x506172747941206E6F7420726571756573746564000000000000000000000000 PUSH1 0x0 DUP3 ADD MSTORE POP JUMP JUMPDEST PUSH1 0x0 PUSH2 0x4E9 PUSH1 0x14 DUP4 PUSH2 0x3D1 JUMP JUMPDEST SWAP2 POP PUSH2 0x4F4 DUP3 PUSH2 0x4B3 JUMP JUMPDEST PUSH1 0x20 DUP3 ADD SWAP1 POP SWAP2 SWAP1 POP JUMP JUMPDEST PUSH1 0x0 PUSH1 0x20 DUP3 ADD SWAP1 POP DUP2 DUP2 SUB PUSH1 0x0 DUP4 ADD MSTORE PUSH2 0x518 DUP2 PUSH2 0x4DC JUMP JUMPDEST SWAP1 POP SWAP2 SWAP1 POP JUMP JUMPDEST PUSH2 0x528 DUP2 PUSH2 0x36E JUMP JUMPDEST DUP3 MSTORE POP POP JUMP JUMPDEST PUSH1 0x0 PUSH1 0x20 DUP3 ADD SWAP1 POP PUSH2 0x543 PUSH1 0x0 DUP4 ADD DUP5 PUSH2 0x51F JUMP JUMPDEST SWAP3 SWAP2 POP POP JUMP INVALID LOG2 PUSH5 0x6970667358 0x22 SLT KECCAK256 0xE1 0xE0 0xDD DUP3 JUMPI SWAP12 MSTORE8 PUSH5 0xC5E946B590 0xDA LOG3 RETURNDATACOPY 0xBC 0xF8 0x2F PUSH9 0xC6E8901B24D579C013 EXTCODEHASH DUP8 CALLVALUE PUSH5 0x736F6C6343 STOP ADDMOD GT STOP CALLER "
				},
				"gasEstimates": {
					"creation": {
						"codeDepositCost": "281400",
						"executionCost": "infinite",
						"totalCost": "infinite"
					},
					"external": {
						"partyA()": "2492",
						"partyB()": "2511",
						"submit(bytes32)": "infinite"
					}
				},
				"methodIdentifiers": {
					"partyA()": "10e1d8ca",
					"partyB()": "29040113",
					"submit(bytes32)": "d9caa3d2"
				}
			},
			"storageLayout": {
				"storage": [
					{
						"astId": 14,
						"contract": "PartyB_Min.sol:Day1PartyB_Min",
						"label": "partyB",
						"offset": 0,
						"slot": "0",
						"type": "t_address"
					},
					{
						"astId": 16,
						"contract": "PartyB_Min.sol:Day1PartyB_Min",
						"label": "partyA",
						"offset": 0,
						"slot": "1",
						"type": "t_address"
					}
				],
				"types": {
					"t_address": {
						"encoding": "inplace",
						"label": "address",
						"numberOfBytes": "20"
					}
				}
			},
			"userdoc": {
				"kind": "user",
				"methods": {},
				"version": 1
			}
		}
	}
}