{
	"PartyA_vMulti.sol": {
		"Day1PartyA_vMulti": {
			"abi": [
				{
					"inputs": [
						{
							"internalType": "bytes32",
							"name": "_commitment",
							"type": "bytes32"
						}
					],
					"stateMutability": "nonpayable",
					"type": "constructor"
				},
				{
					"anonymous": false,
					"inputs": [
						{
							"indexed": false,
							"internalType": "bytes32",
							"name": "data",
							"type": "bytes32"
						},
						{
							"indexed": true,
							"internalType": "uint256",
							"name": "roundId",
							"type": "uint256"
						}
					],
					"name": "DataFulfilled",
					"type": "event"
				},
				{
					"anonymous": false,
					"inputs": [
						{
							"indexed": true,
							"internalType": "address",
							"name": "partyA",
							"type": "address"
						},
						{
							"indexed": true,
							"internalType": "uint256",
							"name": "roundId",
							"type": "uint256"
						}
					],
					"name": "DataRequested",
					"type": "event"
				},
				{
					"inputs": [],
					"name": "commit",
					"outputs": [],
					"stateMutability": "nonpayable",
					"type": "function"
				},
				{
					"inputs": [],
					"name": "commitment",
					"outputs": [
						{
							"internalType": "bytes32",
							"name": "",
							"type": "bytes32"
						}
					],
					"stateMutability": "view",
					"type": "function"
				},
				{
					"inputs": [],
					"name": "committed",
					"outputs": [
						{
							"internalType": "bool",
							"name": "",
							"type": "bool"
						}
					],
					"stateMutability": "view",
					"type": "function"
				},
				{
					"inputs": [],
					"name": "dataRequested",
					"outputs": [
						{
							"internalType": "bool",
							"name": "",
							"type": "bool"
						}
					],
					"stateMutability": "view",
					"type": "function"
				},
				{
					"inputs": [
						{
							"internalType": "bytes32",
							"name": "data",
							"type": "bytes32"
						}
					],
					"name": "fulfillData",
					"outputs": [],
					"stateMutability": "nonpayable",
					"type": "function"
				},
				{
					"inputs": [],
					"name": "latestData",
					"outputs": [
						{
							"internalType": "bytes32",
							"name": "",
							"type": "bytes32"
						}
					],
					"stateMutability": "view",
					"type": "function"
				},
				{
					"inputs": [],
					"name": "partyA",
					"outputs": [
						{
							"internalType": "address",
							"name": "",
							"type": "address"
						}
					],
					"stateMutability": "view",
					"type": "function"
				},
				{
					"inputs": [],
					"name": "requestData",
					"outputs": [],
					"stateMutability": "nonpayable",
					"type": "function"
				},
				{
					"inputs": [],
					"name": "roundId",
					"outputs": [
						{
							"internalType": "uint256",
							"name": "",
							"type": "uint256"
						}
					],
					"stateMutability": "view",
					"type": "function"
				}
			],
			"devdoc": {
				"kind": "dev",
				"methods": {},
				"version": 1
			},
			"evm": {
				"assembly": "    /* \"PartyA_vMulti.sol\":58:1601  contract Day1PartyA_vMulti {... */\n  mstore(0x40, 0x80)\n    /* \"PartyA_vMulti.sol\":564:667  constructor(bytes32 _commitment) {... */\n  callvalue\n  dup1\n  iszero\n  tag_1\n  jumpi\n  0x00\n  dup1\n  revert\ntag_1:\n  pop\n  mload(0x40)\n  sub(codesize, bytecodeSize)\n  dup1\n  bytecodeSize\n  dup4\n  codecopy\n  dup2\n  dup2\n  add\n  0x40\n  mstore\n  dup2\n  add\n  swap1\n  tag_2\n  swap2\n  swap1\n  tag_3\n  jump\t// in\ntag_2:\n    /* \"PartyA_vMulti.sol\":616:626  msg.sender */\n  caller\n    /* \"PartyA_vMulti.sol\":607:613  partyA */\n  0x00\n  dup1\n    /* \"PartyA_vMulti.sol\":607:626  partyA = msg.sender */\n  0x0100\n  exp\n  dup2\n  sload\n  dup2\n  0xffffffffffffffffffffffffffffffffffffffff\n  mul\n  not\n  and\n  swap1\n  dup4\n  0xffffffffffffffffffffffffffffffffffffffff\n  and\n  mul\n  or\n  swap1\n  sstore\n  pop\n    /* \"PartyA_vMulti.sol\":649:660  _commitment */\n  dup1\n    /* \"PartyA_vMulti.sol\":636:646  commitment */\n  0x01\n    /* \"PartyA_vMulti.sol\":636:660  commitment = _commitment */\n  dup2\n  swap1\n  sstore\n  pop\n    /* \"PartyA_vMulti.sol\":564:667  constructor(bytes32 _commitment) {... */\n  pop\n    /* \"PartyA_vMulti.sol\":58:1601  contract Day1PartyA_vMulti {... */\n  jump(tag_6)\n    /* \"#utility.yul\":88:205   */\ntag_8:\n    /* \"#utility.yul\":197:198   */\n  0x00\n    /* \"#utility.yul\":194:195   */\n  dup1\n    /* \"#utility.yul\":187:199   */\n  revert\n    /* \"#utility.yul\":334:411   */\ntag_10:\n    /* \"#utility.yul\":371:378   */\n  0x00\n    /* \"#utility.yul\":400:405   */\n  dup2\n    /* \"#utility.yul\":389:405   */\n  swap1\n  pop\n    /* \"#utility.yul\":334:411   */\n  swap2\n  swap1\n  pop\n  jump\t// out\n    /* \"#utility.yul\":417:539   */\ntag_11:\n    /* \"#utility.yul\":490:514   */\n  tag_19\n    /* \"#utility.yul\":508:513   */\n  dup2\n    /* \"#utility.yul\":490:514   */\n  tag_10\n  jump\t// in\ntag_19:\n    /* \"#utility.yul\":483:488   */\n  dup2\n    /* \"#utility.yul\":480:515   */\n  eq\n    /* \"#utility.yul\":470:533   */\n  tag_20\n  jumpi\n    /* \"#utility.yul\":529:530   */\n  0x00\n    /* \"#utility.yul\":526:527   */\n  dup1\n    /* \"#utility.yul\":519:531   */\n  revert\n    /* \"#utility.yul\":470:533   */\ntag_20:\n    /* \"#utility.yul\":417:539   */\n  pop\n  jump\t// out\n    /* \"#utility.yul\":545:688   */\ntag_12:\n    /* \"#utility.yul\":602:607   */\n  0x00\n    /* \"#utility.yul\":633:639   */\n  dup2\n    /* \"#utility.yul\":627:640   */\n  mload\n    /* \"#utility.yul\":618:640   */\n  swap1\n  pop\n    /* \"#utility.yul\":649:682   */\n  tag_22\n    /* \"#utility.yul\":676:681   */\n  dup2\n    /* \"#utility.yul\":649:682   */\n  tag_11\n  jump\t// in\ntag_22:\n    /* \"#utility.yul\":545:688   */\n  swap3\n  swap2\n  pop\n  pop\n  jump\t// out\n    /* \"#utility.yul\":694:1045   */\ntag_3:\n    /* \"#utility.yul\":764:770   */\n  0x00\n    /* \"#utility.yul\":813:815   */\n  0x20\n    /* \"#utility.yul\":801:810   */\n  dup3\n    /* \"#utility.yul\":792:799   */\n  dup5\n    /* \"#utility.yul\":788:811   */\n  sub\n    /* \"#utility.yul\":784:816   */\n  slt\n    /* \"#utility.yul\":781:900   */\n  iszero\n  tag_24\n  jumpi\n    /* \"#utility.yul\":819:898   */\n  tag_25\n  tag_8\n  jump\t// in\ntag_25:\n    /* \"#utility.yul\":781:900   */\ntag_24:\n    /* \"#utility.yul\":939:940   */\n  0x00\n    /* \"#utility.yul\":964:1028   */\n  tag_26\n    /* \"#utility.yul\":1020:1027   */\n  dup5\n    /* \"#utility.yul\":1011:1017   */\n  dup3\n    /* \"#utility.yul\":1000:1009   */\n  dup6\n    /* \"#utility.yul\":996:1018   */\n  add\n    /* \"#utility.yul\":964:1028   */\n  tag_12\n  jump\t// in\ntag_26:\n    /* \"#utility.yul\":954:1028   */\n  swap2\n  pop\n    /* \"#utility.yul\":910:1038   */\n  pop\n    /* \"#utility.yul\":694:1045   */\n  swap3\n  swap2\n  pop\n  pop\n  jump\t// out\n    /* \"PartyA_vMulti.sol\":58:1601  contract Day1PartyA_vMulti {... */\ntag_6:\n  dataSize(sub_0)\n  dup1\n  dataOffset(sub_0)\n  0x00\n  codecopy\n  0x00\n  return\nstop\n\nsub_0: assembly {\n        /* \"PartyA_vMulti.sol\":58:1601  contract Day1PartyA_vMulti {... */\n      mstore(0x40, 0x80)\n      callvalue\n      dup1\n      iszero\n      tag_1\n      jumpi\n      0x00\n      dup1\n      revert\n    tag_1:\n      pop\n      jumpi(tag_2, lt(calldatasize, 0x04))\n      shr(0xe0, calldataload(0x00))\n      dup1\n      0x4222c7fb\n      gt\n      tag_12\n      jumpi\n      dup1\n      0x4222c7fb\n      eq\n      tag_7\n      jumpi\n      dup1\n      0x606deecd\n      eq\n      tag_8\n      jumpi\n      dup1\n      0x8cd221c9\n      eq\n      tag_9\n      jumpi\n      dup1\n      0x9b6b9664\n      eq\n      tag_10\n      jumpi\n      dup1\n      0xfeae371b\n      eq\n      tag_11\n      jumpi\n      jump(tag_2)\n    tag_12:\n      dup1\n      0x10e1d8ca\n      eq\n      tag_3\n      jumpi\n      dup1\n      0x1303a484\n      eq\n      tag_4\n      jumpi\n      dup1\n      0x142bc2ae\n      eq\n      tag_5\n      jumpi\n      dup1\n      0x3c7a3aff\n      eq\n      tag_6\n      jumpi\n    tag_2:\n      0x00\n      dup1\n      revert\n        /* \"PartyA_vMulti.sol\":91:112  address public partyA */\n    tag_3:\n      tag_13\n      tag_14\n      jump\t// in\n    tag_13:\n      mload(0x40)\n      tag_15\n      swap2\n      swap1\n      tag_16\n      jump\t// in\n    tag_15:\n      mload(0x40)\n      dup1\n      swap2\n      sub\n      swap1\n      return\n        /* \"PartyA_vMulti.sol\":118:143  bytes32 public commitment */\n    tag_4:\n      tag_17\n      tag_18\n      jump\t// in\n    tag_17:\n      mload(0x40)\n      tag_19\n      swap2\n      swap1\n      tag_20\n      jump\t// in\n    tag_19:\n      mload(0x40)\n      dup1\n      swap2\n      sub\n      swap1\n      return\n        /* \"PartyA_vMulti.sol\":285:310  bytes32 public latestData */\n    tag_5:\n      tag_21\n      tag_22\n      jump\t// in\n    tag_21:\n      mload(0x40)\n      tag_23\n      swap2\n      swap1\n      tag_20\n      jump\t// in\n    tag_23:\n      mload(0x40)\n      dup1\n      swap2\n      sub\n      swap1\n      return\n        /* \"PartyA_vMulti.sol\":673:836  function commit() external {... */\n    tag_6:\n      tag_24\n      tag_25\n      jump\t// in\n    tag_24:\n      stop\n        /* \"PartyA_vMulti.sol\":218:243  bool public dataRequested */\n    tag_7:\n      tag_26\n      tag_27\n      jump\t// in\n    tag_26:\n      mload(0x40)\n      tag_28\n      swap2\n      swap1\n      tag_29\n      jump\t// in\n    tag_28:\n      mload(0x40)\n      dup1\n      swap2\n      sub\n      swap1\n      return\n        /* \"PartyA_vMulti.sol\":934:1263  function requestData() external {... */\n    tag_8:\n      tag_30\n      tag_31\n      jump\t// in\n    tag_30:\n      stop\n        /* \"PartyA_vMulti.sol\":360:382  uint256 public roundId */\n    tag_9:\n      tag_32\n      tag_33\n      jump\t// in\n    tag_32:\n      mload(0x40)\n      tag_34\n      swap2\n      swap1\n      tag_35\n      jump\t// in\n    tag_34:\n      mload(0x40)\n      dup1\n      swap2\n      sub\n      swap1\n      return\n        /* \"PartyA_vMulti.sol\":149:170  bool public committed */\n    tag_10:\n      tag_36\n      tag_37\n      jump\t// in\n    tag_36:\n      mload(0x40)\n      tag_38\n      swap2\n      swap1\n      tag_29\n      jump\t// in\n    tag_38:\n      mload(0x40)\n      dup1\n      swap2\n      sub\n      swap1\n      return\n        /* \"PartyA_vMulti.sol\":1347:1599  function fulfillData(bytes32 data) external {... */\n    tag_11:\n      tag_39\n      0x04\n      dup1\n      calldatasize\n      sub\n      dup2\n      add\n      swap1\n      tag_40\n      swap2\n      swap1\n      tag_41\n      jump\t// in\n    tag_40:\n      tag_42\n      jump\t// in\n    tag_39:\n      stop\n        /* \"PartyA_vMulti.sol\":91:112  address public partyA */\n    tag_14:\n      0x00\n      dup1\n      sload\n      swap1\n      0x0100\n      exp\n      swap1\n      div\n      0xffffffffffffffffffffffffffffffffffffffff\n      and\n      dup2\n      jump\t// out\n        /* \"PartyA_vMulti.sol\":118:143  bytes32 public commitment */\n    tag_18:\n      sload(0x01)\n      dup2\n      jump\t// out\n        /* \"PartyA_vMulti.sol\":285:310  bytes32 public latestData */\n    tag_22:\n      sload(0x03)\n      dup2\n      jump\t// out\n        /* \"PartyA_vMulti.sol\":673:836  function commit() external {... */\n    tag_25:\n        /* \"PartyA_vMulti.sol\":732:738  partyA */\n      0x00\n      dup1\n      sload\n      swap1\n      0x0100\n      exp\n      swap1\n      div\n      0xffffffffffffffffffffffffffffffffffffffff\n      and\n        /* \"PartyA_vMulti.sol\":718:738  msg.sender == partyA */\n      0xffffffffffffffffffffffffffffffffffffffff\n      and\n        /* \"PartyA_vMulti.sol\":718:728  msg.sender */\n      caller\n        /* \"PartyA_vMulti.sol\":718:738  msg.sender == partyA */\n      0xffffffffffffffffffffffffffffffffffffffff\n      and\n      eq\n        /* \"PartyA_vMulti.sol\":710:753  require(msg.sender == partyA, \"Not PartyA\") */\n      tag_44\n      jumpi\n      mload(0x40)\n      0x08c379a000000000000000000000000000000000000000000000000000000000\n      dup2\n      mstore\n      0x04\n      add\n      tag_45\n      swap1\n      tag_46\n      jump\t// in\n    tag_45:\n      mload(0x40)\n      dup1\n      swap2\n      sub\n      swap1\n      revert\n    tag_44:\n        /* \"PartyA_vMulti.sol\":772:781  committed */\n      0x02\n      0x00\n      swap1\n      sload\n      swap1\n      0x0100\n      exp\n      swap1\n      div\n      0xff\n      and\n        /* \"PartyA_vMulti.sol\":771:781  !committed */\n      iszero\n        /* \"PartyA_vMulti.sol\":763:803  require(!committed, \"Already committed\") */\n      tag_47\n      jumpi\n      mload(0x40)\n      0x08c379a000000000000000000000000000000000000000000000000000000000\n      dup2\n      mstore\n      0x04\n      add\n      tag_48\n      swap1\n      tag_49\n      jump\t// in\n    tag_48:\n      mload(0x40)\n      dup1\n      swap2\n      sub\n      swap1\n      revert\n    tag_47:\n        /* \"PartyA_vMulti.sol\":825:829  true */\n      0x01\n        /* \"PartyA_vMulti.sol\":813:822  committed */\n      0x02\n      0x00\n        /* \"PartyA_vMulti.sol\":813:829  committed = true */\n      0x0100\n      exp\n      dup2\n      sload\n      dup2\n      0xff\n      mul\n      not\n      and\n      swap1\n      dup4\n      iszero\n      iszero\n      mul\n      or\n      swap1\n      sstore\n      pop\n        /* \"PartyA_vMulti.sol\":673:836  function commit() external {... */\n      jump\t// out\n        /* \"PartyA_vMulti.sol\":218:243  bool public dataRequested */\n    tag_27:\n      0x02\n      0x01\n      swap1\n      sload\n      swap1\n      0x0100\n      exp\n      swap1\n      div\n      0xff\n      and\n      dup2\n      jump\t// out\n        /* \"PartyA_vMulti.sol\":934:1263  function requestData() external {... */\n    tag_31:\n        /* \"PartyA_vMulti.sol\":998:1004  partyA */\n      0x00\n      dup1\n      sload\n      swap1\n      0x0100\n      exp\n      swap1\n      div\n      0xffffffffffffffffffffffffffffffffffffffff\n      and\n        /* \"PartyA_vMulti.sol\":984:1004  msg.sender == partyA */\n      0xffffffffffffffffffffffffffffffffffffffff\n      and\n        /* \"PartyA_vMulti.sol\":984:994  msg.sender */\n      caller\n        /* \"PartyA_vMulti.sol\":984:1004  msg.sender == partyA */\n      0xffffffffffffffffffffffffffffffffffffffff\n      and\n      eq\n        /* \"PartyA_vMulti.sol\":976:1019  require(msg.sender == partyA, \"Not PartyA\") */\n      tag_51\n      jumpi\n      mload(0x40)\n      0x08c379a000000000000000000000000000000000000000000000000000000000\n      dup2\n      mstore\n      0x04\n      add\n      tag_52\n      swap1\n      tag_46\n      jump\t// in\n    tag_52:\n      mload(0x40)\n      dup1\n      swap2\n      sub\n      swap1\n      revert\n    tag_51:\n        /* \"PartyA_vMulti.sol\":1037:1046  committed */\n      0x02\n      0x00\n      swap1\n      sload\n      swap1\n      0x0100\n      exp\n      swap1\n      div\n      0xff\n      and\n        /* \"PartyA_vMulti.sol\":1029:1063  require(committed, \"Commit first\") */\n      tag_53\n      jumpi\n      mload(0x40)\n      0x08c379a000000000000000000000000000000000000000000000000000000000\n      dup2\n      mstore\n      0x04\n      add\n      tag_54\n      swap1\n      tag_55\n      jump\t// in\n    tag_54:\n      mload(0x40)\n      dup1\n      swap2\n      sub\n      swap1\n      revert\n    tag_53:\n        /* \"PartyA_vMulti.sol\":1082:1095  dataRequested */\n      0x02\n      0x01\n      swap1\n      sload\n      swap1\n      0x0100\n      exp\n      swap1\n      div\n      0xff\n      and\n        /* \"PartyA_vMulti.sol\":1081:1095  !dataRequested */\n      iszero\n        /* \"PartyA_vMulti.sol\":1073:1130  require(!dataRequested, \"Previous request not fulfilled\") */\n      tag_56\n      jumpi\n      mload(0x40)\n      0x08c379a000000000000000000000000000000000000000000000000000000000\n      dup2\n      mstore\n      0x04\n      add\n      tag_57\n      swap1\n      tag_58\n      jump\t// in\n    tag_57:\n      mload(0x40)\n      dup1\n      swap2\n      sub\n      swap1\n      revert\n    tag_56:\n        /* \"PartyA_vMulti.sol\":1179:1180  1 */\n      0x01\n        /* \"PartyA_vMulti.sol\":1168:1175  roundId */\n      0x04\n      0x00\n        /* \"PartyA_vMulti.sol\":1168:1180  roundId += 1 */\n      dup3\n      dup3\n      sload\n      tag_59\n      swap2\n      swap1\n      tag_60\n      jump\t// in\n    tag_59:\n      swap3\n      pop\n      pop\n      dup2\n      swap1\n      sstore\n      pop\n        /* \"PartyA_vMulti.sol\":1206:1210  true */\n      0x01\n        /* \"PartyA_vMulti.sol\":1190:1203  dataRequested */\n      0x02\n      0x01\n        /* \"PartyA_vMulti.sol\":1190:1210  dataRequested = true */\n      0x0100\n      exp\n      dup2\n      sload\n      dup2\n      0xff\n      mul\n      not\n      and\n      swap1\n      dup4\n      iszero\n      iszero\n      mul\n      or\n      swap1\n      sstore\n      pop\n        /* \"PartyA_vMulti.sol\":1248:1255  roundId */\n      sload(0x04)\n        /* \"PartyA_vMulti.sol\":1240:1246  partyA */\n      0x00\n      dup1\n      sload\n      swap1\n      0x0100\n      exp\n      swap1\n      div\n      0xffffffffffffffffffffffffffffffffffffffff\n      and\n        /* \"PartyA_vMulti.sol\":1226:1256  DataRequested(partyA, roundId) */\n      0xffffffffffffffffffffffffffffffffffffffff\n      and\n      0x3fe96a3ccc27bc4c37d7fc553fdca8e6c351f415b8fd16c0c7f49cc57a40a178\n      mload(0x40)\n      mload(0x40)\n      dup1\n      swap2\n      sub\n      swap1\n      log3\n        /* \"PartyA_vMulti.sol\":934:1263  function requestData() external {... */\n      jump\t// out\n        /* \"PartyA_vMulti.sol\":360:382  uint256 public roundId */\n    tag_33:\n      sload(0x04)\n      dup2\n      jump\t// out\n        /* \"PartyA_vMulti.sol\":149:170  bool public committed */\n    tag_37:\n      0x02\n      0x00\n      swap1\n      sload\n      swap1\n      0x0100\n      exp\n      swap1\n      div\n      0xff\n      and\n      dup2\n      jump\t// out\n        /* \"PartyA_vMulti.sol\":1347:1599  function fulfillData(bytes32 data) external {... */\n    tag_42:\n        /* \"PartyA_vMulti.sol\":1409:1422  dataRequested */\n      0x02\n      0x01\n      swap1\n      sload\n      swap1\n      0x0100\n      exp\n      swap1\n      div\n      0xff\n      and\n        /* \"PartyA_vMulti.sol\":1401:1444  require(dataRequested, \"No active request\") */\n      tag_62\n      jumpi\n      mload(0x40)\n      0x08c379a000000000000000000000000000000000000000000000000000000000\n      dup2\n      mstore\n      0x04\n      add\n      tag_63\n      swap1\n      tag_64\n      jump\t// in\n    tag_63:\n      mload(0x40)\n      dup1\n      swap2\n      sub\n      swap1\n      revert\n    tag_62:\n        /* \"PartyA_vMulti.sol\":1513:1517  data */\n      dup1\n        /* \"PartyA_vMulti.sol\":1500:1510  latestData */\n      0x03\n        /* \"PartyA_vMulti.sol\":1500:1517  latestData = data */\n      dup2\n      swap1\n      sstore\n      pop\n        /* \"PartyA_vMulti.sol\":1543:1548  false */\n      0x00\n        /* \"PartyA_vMulti.sol\":1527:1540  dataRequested */\n      0x02\n      0x01\n        /* \"PartyA_vMulti.sol\":1527:1548  dataRequested = false */\n      0x0100\n      exp\n      dup2\n      sload\n      dup2\n      0xff\n      mul\n      not\n      and\n      swap1\n      dup4\n      iszero\n      iszero\n      mul\n      or\n      swap1\n      sstore\n      pop\n        /* \"PartyA_vMulti.sol\":1584:1591  roundId */\n      sload(0x04)\n        /* \"PartyA_vMulti.sol\":1564:1592  DataFulfilled(data, roundId) */\n      0x91bbeb6693b54ed164984d080403adc3d9ef9e7712a54536723a61de8084ab90\n        /* \"PartyA_vMulti.sol\":1578:1582  data */\n      dup3\n        /* \"PartyA_vMulti.sol\":1564:1592  DataFulfilled(data, roundId) */\n      mload(0x40)\n      tag_65\n      swap2\n      swap1\n      tag_20\n      jump\t// in\n    tag_65:\n      mload(0x40)\n      dup1\n      swap2\n      sub\n      swap1\n      log2\n        /* \"PartyA_vMulti.sol\":1347:1599  function fulfillData(bytes32 data) external {... */\n      pop\n      jump\t// out\n        /* \"#utility.yul\":7:133   */\n    tag_66:\n        /* \"#utility.yul\":44:51   */\n      0x00\n        /* \"#utility.yul\":84:126   */\n      0xffffffffffffffffffffffffffffffffffffffff\n        /* \"#utility.yul\":77:82   */\n      dup3\n        /* \"#utility.yul\":73:127   */\n      and\n        /* \"#utility.yul\":62:127   */\n      swap1\n      pop\n        /* \"#utility.yul\":7:133   */\n      swap2\n      swap1\n      pop\n      jump\t// out\n        /* \"#utility.yul\":139:235   */\n    tag_67:\n        /* \"#utility.yul\":176:183   */\n      0x00\n        /* \"#utility.yul\":205:229   */\n      tag_95\n        /* \"#utility.yul\":223:228   */\n      dup3\n        /* \"#utility.yul\":205:229   */\n      tag_66\n      jump\t// in\n    tag_95:\n        /* \"#utility.yul\":194:229   */\n      swap1\n      pop\n        /* \"#utility.yul\":139:235   */\n      swap2\n      swap1\n      pop\n      jump\t// out\n        /* \"#utility.yul\":241:359   */\n    tag_68:\n        /* \"#utility.yul\":328:352   */\n      tag_97\n        /* \"#utility.yul\":346:351   */\n      dup2\n        /* \"#utility.yul\":328:352   */\n      tag_67\n      jump\t// in\n    tag_97:\n        /* \"#utility.yul\":323:326   */\n      dup3\n        /* \"#utility.yul\":316:353   */\n      mstore\n        /* \"#utility.yul\":241:359   */\n      pop\n      pop\n      jump\t// out\n        /* \"#utility.yul\":365:587   */\n    tag_16:\n        /* \"#utility.yul\":458:462   */\n      0x00\n        /* \"#utility.yul\":496:498   */\n      0x20\n        /* \"#utility.yul\":485:494   */\n      dup3\n        /* \"#utility.yul\":481:499   */\n      add\n        /* \"#utility.yul\":473:499   */\n      swap1\n      pop\n        /* \"#utility.yul\":509:580   */\n      tag_99\n        /* \"#utility.yul\":577:578   */\n      0x00\n        /* \"#utility.yul\":566:575   */\n      dup4\n        /* \"#utility.yul\":562:579   */\n      add\n        /* \"#utility.yul\":553:559   */\n      dup5\n        /* \"#utility.yul\":509:580   */\n      tag_68\n      jump\t// in\n    tag_99:\n        /* \"#utility.yul\":365:587   */\n      swap3\n      swap2\n      pop\n      pop\n      jump\t// out\n        /* \"#utility.yul\":593:670   */\n    tag_69:\n        /* \"#utility.yul\":630:637   */\n      0x00\n        /* \"#utility.yul\":659:664   */\n      dup2\n        /* \"#utility.yul\":648:664   */\n      swap1\n      pop\n        /* \"#utility.yul\":593:670   */\n      swap2\n      swap1\n      pop\n      jump\t// out\n        /* \"#utility.yul\":676:794   */\n    tag_70:\n        /* \"#utility.yul\":763:787   */\n      tag_102\n        /* \"#utility.yul\":781:786   */\n      dup2\n        /* \"#utility.yul\":763:787   */\n      tag_69\n      jump\t// in\n    tag_102:\n        /* \"#utility.yul\":758:761   */\n      dup3\n        /* \"#utility.yul\":751:788   */\n      mstore\n        /* \"#utility.yul\":676:794   */\n      pop\n      pop\n      jump\t// out\n        /* \"#utility.yul\":800:1022   */\n    tag_20:\n        /* \"#utility.yul\":893:897   */\n      0x00\n        /* \"#utility.yul\":931:933   */\n      0x20\n        /* \"#utility.yul\":920:929   */\n      dup3\n        /* \"#utility.yul\":916:934   */\n      add\n        /* \"#utility.yul\":908:934   */\n      swap1\n      pop\n        /* \"#utility.yul\":944:1015   */\n      tag_104\n        /* \"#utility.yul\":1012:1013   */\n      0x00\n        /* \"#utility.yul\":1001:1010   */\n      dup4\n        /* \"#utility.yul\":997:1014   */\n      add\n        /* \"#utility.yul\":988:994   */\n      dup5\n        /* \"#utility.yul\":944:1015   */\n      tag_70\n      jump\t// in\n    tag_104:\n        /* \"#utility.yul\":800:1022   */\n      swap3\n      swap2\n      pop\n      pop\n      jump\t// out\n        /* \"#utility.yul\":1028:1118   */\n    tag_71:\n        /* \"#utility.yul\":1062:1069   */\n      0x00\n        /* \"#utility.yul\":1105:1110   */\n      dup2\n        /* \"#utility.yul\":1098:1111   */\n      iszero\n        /* \"#utility.yul\":1091:1112   */\n      iszero\n        /* \"#utility.yul\":1080:1112   */\n      swap1\n      pop\n        /* \"#utility.yul\":1028:1118   */\n      swap2\n      swap1\n      pop\n      jump\t// out\n        /* \"#utility.yul\":1124:1233   */\n    tag_72:\n        /* \"#utility.yul\":1205:1226   */\n      tag_107\n        /* \"#utility.yul\":1220:1225   */\n      dup2\n        /* \"#utility.yul\":1205:1226   */\n      tag_71\n      jump\t// in\n    tag_107:\n        /* \"#utility.yul\":1200:1203   */\n      dup3\n        /* \"#utility.yul\":1193:1227   */\n      mstore\n        /* \"#utility.yul\":1124:1233   */\n      pop\n      pop\n      jump\t// out\n        /* \"#utility.yul\":1239:1449   */\n    tag_29:\n        /* \"#utility.yul\":1326:1330   */\n      0x00\n        /* \"#utility.yul\":1364:1366   */\n      0x20\n        /* \"#utility.yul\":1353:1362   */\n      dup3\n        /* \"#utility.yul\":1349:1367   */\n      add\n        /* \"#utility.yul\":1341:1367   */\n      swap1\n      pop\n        /* \"#utility.yul\":1377:1442   */\n      tag_109\n        /* \"#utility.yul\":1439:1440   */\n      0x00\n        /* \"#utility.yul\":1428:1437   */\n      dup4\n        /* \"#utility.yul\":1424:1441   */\n      add\n        /* \"#utility.yul\":1415:1421   */\n      dup5\n        /* \"#utility.yul\":1377:1442   */\n      tag_72\n      jump\t// in\n    tag_109:\n        /* \"#utility.yul\":1239:1449   */\n      swap3\n      swap2\n      pop\n      pop\n      jump\t// out\n        /* \"#utility.yul\":1455:1532   */\n    tag_73:\n        /* \"#utility.yul\":1492:1499   */\n      0x00\n        /* \"#utility.yul\":1521:1526   */\n      dup2\n        /* \"#utility.yul\":1510:1526   */\n      swap1\n      pop\n        /* \"#utility.yul\":1455:1532   */\n      swap2\n      swap1\n      pop\n      jump\t// out\n        /* \"#utility.yul\":1538:1656   */\n    tag_74:\n        /* \"#utility.yul\":1625:1649   */\n      tag_112\n        /* \"#utility.yul\":1643:1648   */\n      dup2\n        /* \"#utility.yul\":1625:1649   */\n      tag_73\n      jump\t// in\n    tag_112:\n        /* \"#utility.yul\":1620:1623   */\n      dup3\n        /* \"#utility.yul\":1613:1650   */\n      mstore\n        /* \"#utility.yul\":1538:1656   */\n      pop\n      pop\n      jump\t// out\n        /* \"#utility.yul\":1662:1884   */\n    tag_35:\n        /* \"#utility.yul\":1755:1759   */\n      0x00\n        /* \"#utility.yul\":1793:1795   */\n      0x20\n        /* \"#utility.yul\":1782:1791   */\n      dup3\n        /* \"#utility.yul\":1778:1796   */\n      add\n        /* \"#utility.yul\":1770:1796   */\n      swap1\n      pop\n        /* \"#utility.yul\":1806:1877   */\n      tag_114\n        /* \"#utility.yul\":1874:1875   */\n      0x00\n        /* \"#utility.yul\":1863:1872   */\n      dup4\n        /* \"#utility.yul\":1859:1876   */\n      add\n        /* \"#utility.yul\":1850:1856   */\n      dup5\n        /* \"#utility.yul\":1806:1877   */\n      tag_74\n      jump\t// in\n    tag_114:\n        /* \"#utility.yul\":1662:1884   */\n      swap3\n      swap2\n      pop\n      pop\n      jump\t// out\n        /* \"#utility.yul\":1971:2088   */\n    tag_76:\n        /* \"#utility.yul\":2080:2081   */\n      0x00\n        /* \"#utility.yul\":2077:2078   */\n      dup1\n        /* \"#utility.yul\":2070:2082   */\n      revert\n        /* \"#utility.yul\":2217:2339   */\n    tag_78:\n        /* \"#utility.yul\":2290:2314   */\n      tag_119\n        /* \"#utility.yul\":2308:2313   */\n      dup2\n        /* \"#utility.yul\":2290:2314   */\n      tag_69\n      jump\t// in\n    tag_119:\n        /* \"#utility.yul\":2283:2288   */\n      dup2\n        /* \"#utility.yul\":2280:2315   */\n      eq\n        /* \"#utility.yul\":2270:2333   */\n      tag_120\n      jumpi\n        /* \"#utility.yul\":2329:2330   */\n      0x00\n        /* \"#utility.yul\":2326:2327   */\n      dup1\n        /* \"#utility.yul\":2319:2331   */\n      revert\n        /* \"#utility.yul\":2270:2333   */\n    tag_120:\n        /* \"#utility.yul\":2217:2339   */\n      pop\n      jump\t// out\n        /* \"#utility.yul\":2345:2484   */\n    tag_79:\n        /* \"#utility.yul\":2391:2396   */\n      0x00\n        /* \"#utility.yul\":2429:2435   */\n      dup2\n        /* \"#utility.yul\":2416:2436   */\n      calldataload\n        /* \"#utility.yul\":2407:2436   */\n      swap1\n      pop\n        /* \"#utility.yul\":2445:2478   */\n      tag_122\n        /* \"#utility.yul\":2472:2477   */\n      dup2\n        /* \"#utility.yul\":2445:2478   */\n      tag_78\n      jump\t// in\n    tag_122:\n        /* \"#utility.yul\":2345:2484   */\n      swap3\n      swap2\n      pop\n      pop\n      jump\t// out\n        /* \"#utility.yul\":2490:2819   */\n    tag_41:\n        /* \"#utility.yul\":2549:2555   */\n      0x00\n        /* \"#utility.yul\":2598:2600   */\n      0x20\n        /* \"#utility.yul\":2586:2595   */\n      dup3\n        /* \"#utility.yul\":2577:2584   */\n      dup5\n        /* \"#utility.yul\":2573:2596   */\n      sub\n        /* \"#utility.yul\":2569:2601   */\n      slt\n        /* \"#utility.yul\":2566:2685   */\n      iszero\n      tag_124\n      jumpi\n        /* \"#utility.yul\":2604:2683   */\n      tag_125\n      tag_76\n      jump\t// in\n    tag_125:\n        /* \"#utility.yul\":2566:2685   */\n    tag_124:\n        /* \"#utility.yul\":2724:2725   */\n      0x00\n        /* \"#utility.yul\":2749:2802   */\n      tag_126\n        /* \"#utility.yul\":2794:2801   */\n      dup5\n        /* \"#utility.yul\":2785:2791   */\n      dup3\n        /* \"#utility.yul\":2774:2783   */\n      dup6\n        /* \"#utility.yul\":2770:2792   */\n      add\n        /* \"#utility.yul\":2749:2802   */\n      tag_79\n      jump\t// in\n    tag_126:\n        /* \"#utility.yul\":2739:2802   */\n      swap2\n      pop\n        /* \"#utility.yul\":2695:2812   */\n      pop\n        /* \"#utility.yul\":2490:2819   */\n      swap3\n      swap2\n      pop\n      pop\n      jump\t// out\n        /* \"#utility.yul\":2825:2994   */\n    tag_80:\n        /* \"#utility.yul\":2909:2920   */\n      0x00\n        /* \"#utility.yul\":2943:2949   */\n      dup3\n        /* \"#utility.yul\":2938:2941   */\n      dup3\n        /* \"#utility.yul\":2931:2950   */\n      mstore\n        /* \"#utility.yul\":2983:2987   */\n      0x20\n        /* \"#utility.yul\":2978:2981   */\n      dup3\n        /* \"#utility.yul\":2974:2988   */\n      add\n        /* \"#utility.yul\":2959:2988   */\n      swap1\n      pop\n        /* \"#utility.yul\":2825:2994   */\n      swap3\n      swap2\n      pop\n      pop\n      jump\t// out\n        /* \"#utility.yul\":3000:3160   */\n    tag_81:\n        /* \"#utility.yul\":3140:3152   */\n      0x4e6f742050617274794100000000000000000000000000000000000000000000\n        /* \"#utility.yul\":3136:3137   */\n      0x00\n        /* \"#utility.yul\":3128:3134   */\n      dup3\n        /* \"#utility.yul\":3124:3138   */\n      add\n        /* \"#utility.yul\":3117:3153   */\n      mstore\n        /* \"#utility.yul\":3000:3160   */\n      pop\n      jump\t// out\n        /* \"#utility.yul\":3166:3532   */\n    tag_82:\n        /* \"#utility.yul\":3308:3311   */\n      0x00\n        /* \"#utility.yul\":3329:3396   */\n      tag_130\n        /* \"#utility.yul\":3393:3395   */\n      0x0a\n        /* \"#utility.yul\":3388:3391   */\n      dup4\n        /* \"#utility.yul\":3329:3396   */\n      tag_80\n      jump\t// in\n    tag_130:\n        /* \"#utility.yul\":3322:3396   */\n      swap2\n      pop\n        /* \"#utility.yul\":3405:3498   */\n      tag_131\n        /* \"#utility.yul\":3494:3497   */\n      dup3\n        /* \"#utility.yul\":3405:3498   */\n      tag_81\n      jump\t// in\n    tag_131:\n        /* \"#utility.yul\":3523:3525   */\n      0x20\n        /* \"#utility.yul\":3518:3521   */\n      dup3\n        /* \"#utility.yul\":3514:3526   */\n      add\n        /* \"#utility.yul\":3507:3526   */\n      swap1\n      pop\n        /* \"#utility.yul\":3166:3532   */\n      swap2\n      swap1\n      pop\n      jump\t// out\n        /* \"#utility.yul\":3538:3957   */\n    tag_46:\n        /* \"#utility.yul\":3704:3708   */\n      0x00\n        /* \"#utility.yul\":3742:3744   */\n      0x20\n        /* \"#utility.yul\":3731:3740   */\n      dup3\n        /* \"#utility.yul\":3727:3745   */\n      add\n        /* \"#utility.yul\":3719:3745   */\n      swap1\n      pop\n        /* \"#utility.yul\":3791:3800   */\n      dup2\n        /* \"#utility.yul\":3785:3789   */\n      dup2\n        /* \"#utility.yul\":3781:3801   */\n      sub\n        /* \"#utility.yul\":3777:3778   */\n      0x00\n        /* \"#utility.yul\":3766:3775   */\n      dup4\n        /* \"#utility.yul\":3762:3779   */\n      add\n        /* \"#utility.yul\":3755:3802   */\n      mstore\n        /* \"#utility.yul\":3819:3950   */\n      tag_133\n        /* \"#utility.yul\":3945:3949   */\n      dup2\n        /* \"#utility.yul\":3819:3950   */\n      tag_82\n      jump\t// in\n    tag_133:\n        /* \"#utility.yul\":3811:3950   */\n      swap1\n      pop\n        /* \"#utility.yul\":3538:3957   */\n      swap2\n      swap1\n      pop\n      jump\t// out\n        /* \"#utility.yul\":3963:4130   */\n    tag_83:\n        /* \"#utility.yul\":4103:4122   */\n      0x416c726561647920636f6d6d6974746564000000000000000000000000000000\n        /* \"#utility.yul\":4099:4100   */\n      0x00\n        /* \"#utility.yul\":4091:4097   */\n      dup3\n        /* \"#utility.yul\":4087:4101   */\n      add\n        /* \"#utility.yul\":4080:4123   */\n      mstore\n        /* \"#utility.yul\":3963:4130   */\n      pop\n      jump\t// out\n        /* \"#utility.yul\":4136:4502   */\n    tag_84:\n        /* \"#utility.yul\":4278:4281   */\n      0x00\n        /* \"#utility.yul\":4299:4366   */\n      tag_136\n        /* \"#utility.yul\":4363:4365   */\n      0x11\n        /* \"#utility.yul\":4358:4361   */\n      dup4\n        /* \"#utility.yul\":4299:4366   */\n      tag_80\n      jump\t// in\n    tag_136:\n        /* \"#utility.yul\":4292:4366   */\n      swap2\n      pop\n        /* \"#utility.yul\":4375:4468   */\n      tag_137\n        /* \"#utility.yul\":4464:4467   */\n      dup3\n        /* \"#utility.yul\":4375:4468   */\n      tag_83\n      jump\t// in\n    tag_137:\n        /* \"#utility.yul\":4493:4495   */\n      0x20\n        /* \"#utility.yul\":4488:4491   */\n      dup3\n        /* \"#utility.yul\":4484:4496   */\n      add\n        /* \"#utility.yul\":4477:4496   */\n      swap1\n      pop\n        /* \"#utility.yul\":4136:4502   */\n      swap2\n      swap1\n      pop\n      jump\t// out\n        /* \"#utility.yul\":4508:4927   */\n    tag_49:\n        /* \"#utility.yul\":4674:4678   */\n      0x00\n        /* \"#utility.yul\":4712:4714   */\n      0x20\n        /* \"#utility.yul\":4701:4710   */\n      dup3\n        /* \"#utility.yul\":4697:4715   */\n      add\n        /* \"#utility.yul\":4689:4715   */\n      swap1\n      pop\n        /* \"#utility.yul\":4761:4770   */\n      dup2\n        /* \"#utility.yul\":4755:4759   */\n      dup2\n        /* \"#utility.yul\":4751:4771   */\n      sub\n        /* \"#utility.yul\":4747:4748   */\n      0x00\n        /* \"#utility.yul\":4736:4745   */\n      dup4\n        /* \"#utility.yul\":4732:4749   */\n      add\n        /* \"#utility.yul\":4725:4772   */\n      mstore\n        /* \"#utility.yul\":4789:4920   */\n      tag_139\n        /* \"#utility.yul\":4915:4919   */\n      dup2\n        /* \"#utility.yul\":4789:4920   */\n      tag_84\n      jump\t// in\n    tag_139:\n        /* \"#utility.yul\":4781:4920   */\n      swap1\n      pop\n        /* \"#utility.yul\":4508:4927   */\n      swap2\n      swap1\n      pop\n      jump\t// out\n        /* \"#utility.yul\":4933:5095   */\n    tag_85:\n        /* \"#utility.yul\":5073:5087   */\n      0x436f6d6d69742066697273740000000000000000000000000000000000000000\n        /* \"#utility.yul\":5069:5070   */\n      0x00\n        /* \"#utility.yul\":5061:5067   */\n      dup3\n        /* \"#utility.yul\":5057:5071   */\n      add\n        /* \"#utility.yul\":5050:5088   */\n      mstore\n        /* \"#utility.yul\":4933:5095   */\n      pop\n      jump\t// out\n        /* \"#utility.yul\":5101:5467   */\n    tag_86:\n        /* \"#utility.yul\":5243:5246   */\n      0x00\n        /* \"#utility.yul\":5264:5331   */\n      tag_142\n        /* \"#utility.yul\":5328:5330   */\n      0x0c\n        /* \"#utility.yul\":5323:5326   */\n      dup4\n        /* \"#utility.yul\":5264:5331   */\n      tag_80\n      jump\t// in\n    tag_142:\n        /* \"#utility.yul\":5257:5331   */\n      swap2\n      pop\n        /* \"#utility.yul\":5340:5433   */\n      tag_143\n        /* \"#utility.yul\":5429:5432   */\n      dup3\n        /* \"#utility.yul\":5340:5433   */\n      tag_85\n      jump\t// in\n    tag_143:\n        /* \"#utility.yul\":5458:5460   */\n      0x20\n        /* \"#utility.yul\":5453:5456   */\n      dup3\n        /* \"#utility.yul\":5449:5461   */\n      add\n        /* \"#utility.yul\":5442:5461   */\n      swap1\n      pop\n        /* \"#utility.yul\":5101:5467   */\n      swap2\n      swap1\n      pop\n      jump\t// out\n        /* \"#utility.yul\":5473:5892   */\n    tag_55:\n        /* \"#utility.yul\":5639:5643   */\n      0x00\n        /* \"#utility.yul\":5677:5679   */\n      0x20\n        /* \"#utility.yul\":5666:5675   */\n      dup3\n        /* \"#utility.yul\":5662:5680   */\n      add\n        /* \"#utility.yul\":5654:5680   */\n      swap1\n      pop\n        /* \"#utility.yul\":5726:5735   */\n      dup2\n        /* \"#utility.yul\":5720:5724   */\n      dup2\n        /* \"#utility.yul\":5716:5736   */\n      sub\n        /* \"#utility.yul\":5712:5713   */\n      0x00\n        /* \"#utility.yul\":5701:5710   */\n      dup4\n        /* \"#utility.yul\":5697:5714   */\n      add\n        /* \"#utility.yul\":5690:5737   */\n      mstore\n        /* \"#utility.yul\":5754:5885   */\n      tag_145\n        /* \"#utility.yul\":5880:5884   */\n      dup2\n        /* \"#utility.yul\":5754:5885   */\n      tag_86\n      jump\t// in\n    tag_145:\n        /* \"#utility.yul\":5746:5885   */\n      swap1\n      pop\n        /* \"#utility.yul\":5473:5892   */\n      swap2\n      swap1\n      pop\n      jump\t// out\n        /* \"#utility.yul\":5898:6078   */\n    tag_87:\n        /* \"#utility.yul\":6038:6070   */\n      0x50726576696f75732072657175657374206e6f742066756c66696c6c65640000\n        /* \"#utility.yul\":6034:6035   */\n      0x00\n        /* \"#utility.yul\":6026:6032   */\n      dup3\n        /* \"#utility.yul\":6022:6036   */\n      add\n        /* \"#utility.yul\":6015:6071   */\n      mstore\n        /* \"#utility.yul\":5898:6078   */\n      pop\n      jump\t// out\n        /* \"#utility.yul\":6084:6450   */\n    tag_88:\n        /* \"#utility.yul\":6226:6229   */\n      0x00\n        /* \"#utility.yul\":6247:6314   */\n      tag_148\n        /* \"#utility.yul\":6311:6313   */\n      0x1e\n        /* \"#utility.yul\":6306:6309   */\n      dup4\n        /* \"#utility.yul\":6247:6314   */\n      tag_80\n      jump\t// in\n    tag_148:\n        /* \"#utility.yul\":6240:6314   */\n      swap2\n      pop\n        /* \"#utility.yul\":6323:6416   */\n      tag_149\n        /* \"#utility.yul\":6412:6415   */\n      dup3\n        /* \"#utility.yul\":6323:6416   */\n      tag_87\n      jump\t// in\n    tag_149:\n        /* \"#utility.yul\":6441:6443   */\n      0x20\n        /* \"#utility.yul\":6436:6439   */\n      dup3\n        /* \"#utility.yul\":6432:6444   */\n      add\n        /* \"#utility.yul\":6425:6444   */\n      swap1\n      pop\n        /* \"#utility.yul\":6084:6450   */\n      swap2\n      swap1\n      pop\n      jump\t// out\n        /* \"#utility.yul\":6456:6875   */\n    tag_58:\n        /* \"#utility.yul\":6622:6626   */\n      0x00\n        /* \"#utility.yul\":6660:6662   */\n      0x20\n        /* \"#utility.yul\":6649:6658   */\n      dup3\n        /* \"#utility.yul\":6645:6663   */\n      add\n        /* \"#utility.yul\":6637:6663   */\n      swap1\n      pop\n        /* \"#utility.yul\":6709:6718   */\n      dup2\n        /* \"#utility.yul\":6703:6707   */\n      dup2\n        /* \"#utility.yul\":6699:6719   */\n      sub\n        /* \"#utility.yul\":6695:6696   */\n      0x00\n        /* \"#utility.yul\":6684:6693   */\n      dup4\n        /* \"#utility.yul\":6680:6697   */\n      add\n        /* \"#utility.yul\":6673:6720   */\n      mstore\n        /* \"#utility.yul\":6737:6868   */\n      tag_151\n        /* \"#utility.yul\":6863:6867   */\n      dup2\n        /* \"#utility.yul\":6737:6868   */\n      tag_88\n      jump\t// in\n    tag_151:\n        /* \"#utility.yul\":6729:6868   */\n      swap1\n      pop\n        /* \"#utility.yul\":6456:6875   */\n      swap2\n      swap1\n      pop\n      jump\t// out\n        /* \"#utility.yul\":6881:7061   */\n    tag_89:\n        /* \"#utility.yul\":6929:7006   */\n      0x4e487b7100000000000000000000000000000000000000000000000000000000\n        /* \"#utility.yul\":6926:6927   */\n      0x00\n        /* \"#utility.yul\":6919:7007   */\n      mstore\n        /* \"#utility.yul\":7026:7030   */\n      0x11\n        /* \"#utility.yul\":7023:7024   */\n      0x04\n        /* \"#utility.yul\":7016:7031   */\n      mstore\n        /* \"#utility.yul\":7050:7054   */\n      0x24\n        /* \"#utility.yul\":7047:7048   */\n      0x00\n        /* \"#utility.yul\":7040:7055   */\n      revert\n        /* \"#utility.yul\":7067:7258   */\n    tag_60:\n        /* \"#utility.yul\":7107:7110   */\n      0x00\n        /* \"#utility.yul\":7126:7146   */\n      tag_154\n        /* \"#utility.yul\":7144:7145   */\n      dup3\n        /* \"#utility.yul\":7126:7146   */\n      tag_73\n      jump\t// in\n    tag_154:\n        /* \"#utility.yul\":7121:7146   */\n      swap2\n      pop\n        /* \"#utility.yul\":7160:7180   */\n      tag_155\n        /* \"#utility.yul\":7178:7179   */\n      dup4\n        /* \"#utility.yul\":7160:7180   */\n      tag_73\n      jump\t// in\n    tag_155:\n        /* \"#utility.yul\":7155:7180   */\n      swap3\n      pop\n        /* \"#utility.yul\":7203:7204   */\n      dup3\n        /* \"#utility.yul\":7200:7201   */\n      dup3\n        /* \"#utility.yul\":7196:7205   */\n      add\n        /* \"#utility.yul\":7189:7205   */\n      swap1\n      pop\n        /* \"#utility.yul\":7224:7227   */\n      dup1\n        /* \"#utility.yul\":7221:7222   */\n      dup3\n        /* \"#utility.yul\":7218:7228   */\n      gt\n        /* \"#utility.yul\":7215:7251   */\n      iszero\n      tag_156\n      jumpi\n        /* \"#utility.yul\":7231:7249   */\n      tag_157\n      tag_89\n      jump\t// in\n    tag_157:\n        /* \"#utility.yul\":7215:7251   */\n    tag_156:\n        /* \"#utility.yul\":7067:7258   */\n      swap3\n      swap2\n      pop\n      pop\n      jump\t// out\n        /* \"#utility.yul\":7264:7431   */\n    tag_90:\n        /* \"#utility.yul\":7404:7423   */\n      0x4e6f206163746976652072657175657374000000000000000000000000000000\n        /* \"#utility.yul\":7400:7401   */\n      0x00\n        /* \"#utility.yul\":7392:7398   */\n      dup3\n        /* \"#utility.yul\":7388:7402   */\n      add\n        /* \"#utility.yul\":7381:7424   */\n      mstore\n        /* \"#utility.yul\":7264:7431   */\n      pop\n      jump\t// out\n        /* \"#utility.yul\":7437:7803   */\n    tag_91:\n        /* \"#utility.yul\":7579:7582   */\n      0x00\n        /* \"#utility.yul\":7600:7667   */\n      tag_160\n        /* \"#utility.yul\":7664:7666   */\n      0x11\n        /* \"#utility.yul\":7659:7662   */\n      dup4\n        /* \"#utility.yul\":7600:7667   */\n      tag_80\n      jump\t// in\n    tag_160:\n        /* \"#utility.yul\":7593:7667   */\n      swap2\n      pop\n        /* \"#utility.yul\":7676:7769   */\n      tag_161\n        /* \"#utility.yul\":7765:7768   */\n      dup3\n        /* \"#utility.yul\":7676:7769   */\n      tag_90\n      jump\t// in\n    tag_161:\n        /* \"#utility.yul\":7794:7796   */\n      0x20\n        /* \"#utility.yul\":7789:7792   */\n      dup3\n        /* \"#utility.yul\":7785:7797   */\n      add\n        /* \"#utility.yul\":7778:7797   */\n      swap1\n      pop\n        /* \"#utility.yul\":7437:7803   */\n      swap2\n      swap1\n      pop\n      jump\t// out\n        /* \"#utility.yul\":7809:8228   */\n    tag_64:\n        /* \"#utility.yul\":7975:7979   */\n      0x00\n        /* \"#utility.yul\":8013:8015   */\n      0x20\n        /* \"#utility.yul\":8002:8011   */\n      dup3\n        /* \"#utility.yul\":7998:8016   */\n      add\n        /* \"#utility.yul\":7990:8016   */\n      swap1\n      pop\n        /* \"#utility.yul\":8062:8071   */\n      dup2\n        /* \"#utility.yul\":8056:8060   */\n      dup2\n        /* \"#utility.yul\":8052:8072   */\n      sub\n        /* \"#utility.yul\":8048:8049   */\n      0x00\n        /* \"#utility.yul\":8037:8046   */\n      dup4\n        /* \"#utility.yul\":8033:8050   */\n      add\n        /* \"#utility.yul\":8026:8073   */\n      mstore\n        /* \"#utility.yul\":8090:8221   */\n      tag_163\n        /* \"#utility.yul\":8216:8220   */\n      dup2\n        /* \"#utility.yul\":8090:8221   */\n      tag_91\n      jump\t// in\n    tag_163:\n        /* \"#utility.yul\":8082:8221   */\n      swap1\n      pop\n        /* \"#utility.yul\":7809:8228   */\n      swap2\n      swap1\n      pop\n      jump\t// out\n\n    auxdata: 0xa26469706673582212204e58edb8cc8093854f95dfa86ee0682d1819764dd20ec571fa8204326928690064736f6c63430008110033\n}\n",
				"bytecode": {
					"linkReferences": {},
					"object": "608060405234801561001057600080fd5b50604051610a5f380380610a5f833981810160405281019061003291906100ba565b336000806101000a81548173ffffffffffffffffffffffffffffffffffffffff021916908373ffffffffffffffffffffffffffffffffffffffff16021790555080600181905550506100e7565b600080fd5b6000819050919050565b61009781610084565b81146100a257600080fd5b50565b6000815190506100b48161008e565b92915050565b6000602082840312156100d0576100cf61007f565b5b60006100de848285016100a5565b91505092915050565b610969806100f66000396000f3fe608060405234801561001057600080fd5b50600436106100935760003560e01c80634222c7fb116100665780634222c7fb146100fc578063606deecd1461011a5780638cd221c9146101245780639b6b966414610142578063feae371b1461016057610093565b806310e1d8ca146100985780631303a484146100b6578063142bc2ae146100d45780633c7a3aff146100f2575b600080fd5b6100a061017c565b6040516100ad919061058c565b60405180910390f35b6100be6101a0565b6040516100cb91906105c0565b60405180910390f35b6100dc6101a6565b6040516100e991906105c0565b60405180910390f35b6100fa6101ac565b005b6101046102a7565b60405161011191906105f6565b60405180910390f35b6101226102ba565b005b61012c610484565b604051610139919061062a565b60405180910390f35b61014a61048a565b60405161015791906105f6565b60405180910390f35b61017a60048036038101906101759190610676565b61049d565b005b60008054906101000a900473ffffffffffffffffffffffffffffffffffffffff1681565b60015481565b60035481565b60008054906101000a900473ffffffffffffffffffffffffffffffffffffffff1673ffffffffffffffffffffffffffffffffffffffff163373ffffffffffffffffffffffffffffffffffffffff161461023a576040517f08c379a000000000000000000000000000000000000000000000000000000000815260040161023190610700565b60405180910390fd5b600260009054906101000a900460ff161561028a576040517f08c379a00000000000000000000000000000000000000000000000000000000081526004016102819061076c565b60405180910390fd5b6001600260006101000a81548160ff021916908315150217905550565b600260019054906101000a900460ff1681565b60008054906101000a900473ffffffffffffffffffffffffffffffffffffffff1673ffffffffffffffffffffffffffffffffffffffff163373ffffffffffffffffffffffffffffffffffffffff1614610348576040517f08c379a000000000000000000000000000000000000000000000000000000000815260040161033f90610700565b60405180910390fd5b600260009054906101000a900460ff16610397576040517f08c379a000000000000000000000000000000000000000000000000000000000815260040161038e906107d8565b60405180910390fd5b600260019054906101000a900460ff16156103e7576040517f08c379a00000000000000000000000000000000000000000000000000000000081526004016103de90610844565b60405180910390fd5b6001600460008282546103fa9190610893565b925050819055506001600260016101000a81548160ff02191690831515021790555060045460008054906101000a900473ffffffffffffffffffffffffffffffffffffffff1673ffffffffffffffffffffffffffffffffffffffff167f3fe96a3ccc27bc4c37d7fc553fdca8e6c351f415b8fd16c0c7f49cc57a40a17860405160405180910390a3565b60045481565b600260009054906101000a900460ff1681565b600260019054906101000a900460ff166104ec576040517f08c379a00000000000000000000000000000000000000000000000000000000081526004016104e390610913565b60405180910390fd5b806003819055506000600260016101000a81548160ff0219169083151502179055506004547f91bbeb6693b54ed164984d080403adc3d9ef9e7712a54536723a61de8084ab908260405161054091906105c0565b60405180910390a250565b600073ffffffffffffffffffffffffffffffffffffffff82169050919050565b60006105768261054b565b9050919050565b6105868161056b565b82525050565b60006020820190506105a1600083018461057d565b92915050565b6000819050919050565b6105ba816105a7565b82525050565b60006020820190506105d560008301846105b1565b92915050565b60008115159050919050565b6105f0816105db565b82525050565b600060208201905061060b60008301846105e7565b92915050565b6000819050919050565b61062481610611565b82525050565b600060208201905061063f600083018461061b565b92915050565b600080fd5b610653816105a7565b811461065e57600080fd5b50565b6000813590506106708161064a565b92915050565b60006020828403121561068c5761068b610645565b5b600061069a84828501610661565b91505092915050565b600082825260208201905092915050565b7f4e6f742050617274794100000000000000000000000000000000000000000000600082015250565b60006106ea600a836106a3565b91506106f5826106b4565b602082019050919050565b60006020820190508181036000830152610719816106dd565b9050919050565b7f416c726561647920636f6d6d6974746564000000000000000000000000000000600082015250565b60006107566011836106a3565b915061076182610720565b602082019050919050565b6000602082019050818103600083015261078581610749565b9050919050565b7f436f6d6d69742066697273740000000000000000000000000000000000000000600082015250565b60006107c2600c836106a3565b91506107cd8261078c565b602082019050919050565b600060208201905081810360008301526107f1816107b5565b9050919050565b7f50726576696f75732072657175657374206e6f742066756c66696c6c65640000600082015250565b600061082e601e836106a3565b9150610839826107f8565b602082019050919050565b6000602082019050818103600083015261085d81610821565b9050919050565b7f4e487b7100000000000000000000000000000000000000000000000000000000600052601160045260246000fd5b600061089e82610611565b91506108a983610611565b92508282019050808211156108c1576108c0610864565b5b92915050565b7f4e6f206163746976652072657175657374000000000000000000000000000000600082015250565b60006108fd6011836106a3565b9150610908826108c7565b602082019050919050565b6000602082019050818103600083015261092c816108f0565b905091905056fea26469706673582212204e58edb8cc8093854f95dfa86ee0682d1819764dd20ec571fa8204326928690064736f6c63430008110033",
					"opcodes": "PUSH1 0x80 PUSH1 0x40 MSTORE CALLVALUE DUP1 ISZERO PUSH2 0x10 JUMPI PUSH1 0x0 DUP1 REVERT JUMPDEST POP PUSH1 0x40 MLOAD PUSH2 0xA5F CODESIZE SUB DUP1 PUSH2 0xA5F DUP4 CODECOPY DUP2 DUP2 ADD PUSH1 0x40 MSTORE DUP2 ADD SWAP1 PUSH2 0x32 SWAP2 SWAP1 PUSH2 0xBA JUMP JUMPDEST CALLER PUSH1 0x0 DUP1 PUSH2 0x100 EXP DUP2 SLOAD DUP2 PUSH20 0xFFFFFFFFFFFFFFFFFFFFFFFFFFFFFFFFFFFFFFFF MUL NOT AND SWAP1 DUP4 PUSH20 0xFFFFFFFFFFFFFFFFFFFFFFFFFFFFFFFFFFFFFFFF AND MUL OR SWAP1 SSTORE POP DUP1 PUSH1 0x1 DUP2 SWAP1 SSTORE POP POP PUSH2 0xE7 JUMP JUMPDEST PUSH1 0x0 DUP1 REVERT JUMPDEST PUSH1 0x0 DUP2 SWAP1 POP SWAP2 SWAP1 POP JUMP JUMPDEST PUSH2 0x97 DUP2 PUSH2 0x84 JUMP JUMPDEST DUP2 EQ PUSH2 0xA2 JUMPI PUSH1 0x0 DUP1 REVERT JUMPDEST POP JUMP JUMPDEST PUSH1 0x0 DUP2 MLOAD SWAP1 POP PUSH2 0xB4 DUP2 PUSH2 0x8E JUMP JUMPDEST SWAP3 SWAP2 POP POP JUMP JUMPDEST PUSH1 0x0 PUSH1 0x20 DUP3 DUP5 SUB SLT ISZERO PUSH2 0xD0 JUMPI PUSH2 0xCF PUSH2 0x7F JUMP JUMPDEST JUMPDEST PUSH1 0x0 PUSH2 0xDE DUP5 DUP3 DUP6 ADD PUSH2 0xA5 JUMP JUMPDEST SWAP2 POP POP SWAP3 SWAP2 POP POP JUMP JUMPDEST PUSH2 0x969 DUP1 PUSH2 0xF6 PUSH1 0x0 CODECOPY PUSH1 0x0 RETURN INVALID PUSH1 0x80 PUSH1 0x40 MSTORE CALLVALUE DUP1 ISZERO PUSH2 0x10 JUMPI PUSH1 0x0 DUP1 REVERT JUMPDEST POP PUSH1 0x4 CALLDATASIZE LT PUSH2 0x93 JUMPI PUSH1 0x0 CALLDATALOAD PUSH1 0xE0 SHR DUP1 PUSH4 0x4222C7FB GT PUSH2 0x66 JUMPI DUP1 PUSH4 0x4222C7FB EQ PUSH2 0xFC JUMPI DUP1 PUSH4 0x606DEECD EQ PUSH2 0x11A JUMPI DUP1 PUSH4 0x8CD221C9 EQ PUSH2 0x124 JUMPI DUP1 PUSH4 0x9B6B9664 EQ PUSH2 0x142 JUMPI DUP1 PUSH4 0xFEAE371B EQ PUSH2 0x160 JUMPI PUSH2 0x93 JUMP JUMPDEST DUP1 PUSH4 0x10E1D8CA EQ PUSH2 0x98 JUMPI DUP1 PUSH4 0x1303A484 EQ PUSH2 0xB6 JUMPI DUP1 PUSH4 0x142BC2AE EQ PUSH2 0xD4 JUMPI DUP1 PUSH4 0x3C7A3AFF EQ PUSH2 0xF2 JUMPI JUMPDEST PUSH1 0x0 DUP1 REVERT JUMPDEST PUSH2 0xA0 PUSH2 0x17C JUMP JUMPDEST PUSH1 0x40 MLOAD PUSH2 0xAD SWAP2 SWAP1 PUSH2 0x58C JUMP JUMPDEST PUSH1 0x40 MLOAD DUP1 SWAP2 SUB SWAP1 RETURN JUMPDEST PUSH2 0xBE PUSH2 0x1A0 JUMP JUMPDEST PUSH1 0x40 MLOAD PUSH2 0xCB SWAP2 SWAP1 PUSH2 0x5C0 JUMP JUMPDEST PUSH1 0x40 MLOAD DUP1 SWAP2 SUB SWAP1 RETURN JUMPDEST PUSH2 0xDC PUSH2 0x1A6 JUMP JUMPDEST PUSH1 0x40 MLOAD PUSH2 0xE9 SWAP2 SWAP1 PUSH2 0x5C0 JUMP JUMPDEST PUSH1 0x40 MLOAD DUP1 SWAP2 SUB SWAP1 RETURN JUMPDEST PUSH2 0xFA PUSH2 0x1AC JUMP JUMPDEST STOP JUMPDEST PUSH2 0x104 PUSH2 0x2A7 JUMP JUMPDEST PUSH1 0x40 MLOAD PUSH2 0x111 SWAP2 SWAP1 PUSH2 0x5F6 JUMP JUMPDEST PUSH1 0x40 MLOAD DUP1 SWAP2 SUB SWAP1 RETURN JUMPDEST PUSH2 0x122 PUSH2 0x2BA JUMP JUMPDEST STOP JUMPDEST PUSH2 0x12C PUSH2 0x484 JUMP JUMPDEST PUSH1 0x40 MLOAD PUSH2 0x139 SWAP2 SWAP1 PUSH2 0x62A JUMP JUMPDEST PUSH1 0x40 MLOAD DUP1 SWAP2 SUB SWAP1 RETURN JUMPDEST PUSH2 0x14A PUSH2 0x48A JUMP JUMPDEST PUSH1 0x40 MLOAD PUSH2 0x157 SWAP2 SWAP1 PUSH2 0x5F6 JUMP JUMPDEST PUSH1 0x40 MLOAD DUP1 SWAP2 SUB SWAP1 RETURN JUMPDEST PUSH2 0x17A PUSH1 0x4 DUP1 CALLDATASIZE SUB DUP2 ADD SWAP1 PUSH2 0x175 SWAP2 SWAP1 PUSH2 0x676 JUMP JUMPDEST PUSH2 0x49D JUMP JUMPDEST STOP JUMPDEST PUSH1 0x0 DUP1 SLOAD SWAP1 PUSH2 0x100 EXP SWAP1 DIV PUSH20 0xFFFFFFFFFFFFFFFFFFFFFFFFFFFFFFFFFFFFFFFF AND DUP2 JUMP JUMPDEST PUSH1 0x1 SLOAD DUP2 JUMP JUMPDEST PUSH1 0x3 SLOAD DUP2 JUMP JUMPDEST PUSH1 0x0 DUP1 SLOAD SWAP1 PUSH2 0x100 EXP SWAP1 DIV PUSH20 0xFFFFFFFFFFFFFFFFFFFFFFFFFFFFFFFFFFFFFFFF AND PUSH20 0xFFFFFFFFFFFFFFFFFFFFFFFFFFFFFFFFFFFFFFFF AND CALLER PUSH20 0xFFFFFFFFFFFFFFFFFFFFFFFFFFFFFFFFFFFFFFFF AND EQ PUSH2 0x23A JUMPI PUSH1 0x40 MLOAD PUSH32 0x8C379A000000000000000000000000000000000000000000000000000000000 DUP2 MSTORE PUSH1 0x4 ADD PUSH2 0x231 SWAP1 PUSH2 0x700 JUMP JUMPDEST PUSH1 0x40 MLOAD DUP1 SWAP2 SUB SWAP1 REVERT JUMPDEST PUSH1 0x2 PUSH1 0x0 SWAP1 SLOAD SWAP1 PUSH2 0x100 EXP SWAP1 DIV PUSH1 0xFF AND ISZERO PUSH2 0x28A JUMPI PUSH1 0x40 MLOAD PUSH32 0x8C379A000000000000000000000000000000000000000000000000000000000 DUP2 MSTORE PUSH1 0x4 ADD PUSH2 0x281 SWAP1 PUSH2 0x76C JUMP JUMPDEST PUSH1 0x40 MLOAD DUP1 SWAP2 SUB SWAP1 REVERT JUMPDEST PUSH1 0x1 PUSH1 0x2 PUSH1 0x0 PUSH2 0x100 EXP DUP2 SLOAD DUP2 PUSH1 0xFF MUL NOT AND SWAP1 DUP4 ISZERO ISZERO MUL OR SWAP1 SSTORE POP JUMP JUMPDEST PUSH1 0x2 PUSH1 0x1 SWAP1 SLOAD SWAP1 PUSH2 0x100 EXP SWAP1 DIV PUSH1 0xFF AND DUP2 JUMP JUMPDEST PUSH1 0x0 DUP1 SLOAD SWAP1 PUSH2 0x100 EXP SWAP1 DIV PUSH20 0xFFFFFFFFFFFFFFFFFFFFFFFFFFFFFFFFFFFFFFFF AND PUSH20 0xFFFFFFFFFFFFFFFFFFFFFFFFFFFFFFFFFFFFFFFF AND CALLER PUSH20 0xFFFFFFFFFFFFFFFFFFFFFFFFFFFFFFFFFFFFFFFF AND EQ PUSH2 0x348 JUMPI PUSH1 0x40 MLOAD PUSH32 0x8C379A000000000000000000000000000000000000000000000000000000000 DUP2 MSTORE PUSH1 0x4 ADD PUSH2 0x33F SWAP1 PUSH2 0x700 JUMP JUMPDEST PUSH1 0x40 MLOAD DUP1 SWAP2 SUB SWAP1 REVERT JUMPDEST PUSH1 0x2 PUSH1 0x0 SWAP1 SLOAD SWAP1 PUSH2 0x100 EXP SWAP1 DIV PUSH1 0xFF AND PUSH2 0x397 JUMPI PUSH1 0x40 MLOAD PUSH32 0x8C379A000000000000000000000000000000000000000000000000000000000 DUP2 MSTORE PUSH1 0x4 ADD PUSH2 0x38E SWAP1 PUSH2 0x7D8 JUMP JUMPDEST PUSH1 0x40 MLOAD DUP1 SWAP2 SUB SWAP1 REVERT JUMPDEST PUSH1 0x2 PUSH1 0x1 SWAP1 SLOAD SWAP1 PUSH2 0x100 EXP SWAP1 DIV PUSH1 0xFF AND ISZERO PUSH2 0x3E7 JUMPI PUSH1 0x40 MLOAD PUSH32 0x8C379A000000000000000000000000000000000000000000000000000000000 DUP2 MSTORE PUSH1 0x4 ADD PUSH2 0x3DE SWAP1 PUSH2 0x844 JUMP JUMPDEST PUSH1 0x40 MLOAD DUP1 SWAP2 SUB SWAP1 REVERT JUMPDEST PUSH1 0x1 PUSH1 0x4 PUSH1 0x0 DUP3 DUP3 SLOAD PUSH2 0x3FA SWAP2 SWAP1 PUSH2 0x893 JUMP JUMPDEST SWAP3 POP POP DUP2 SWAP1 SSTORE POP PUSH1 0x1 PUSH1 0x2 PUSH1 0x1 PUSH2 0x100 EXP DUP2 SLOAD DUP2 PUSH1 0xFF MUL NOT AND SWAP1 DUP4 ISZERO ISZERO MUL OR SWAP1 SSTORE POP PUSH1 0x4 SLOAD PUSH1 0x0 DUP1 SLOAD SWAP1 PUSH2 0x100 EXP SWAP1 DIV PUSH20 0xFFFFFFFFFFFFFFFFFFFFFFFFFFFFFFFFFFFFFFFF AND PUSH20 0xFFFFFFFFFFFFFFFFFFFFFFFFFFFFFFFFFFFFFFFF AND PUSH32 0x3FE96A3CCC27BC4C37D7FC553FDCA8E6C351F415B8FD16C0C7F49CC57A40A178 PUSH1 0x40 MLOAD PUSH1 0x40 MLOAD DUP1 SWAP2 SUB SWAP1 LOG3 JUMP JUMPDEST PUSH1 0x4 SLOAD DUP2 JUMP JUMPDEST PUSH1 0x2 PUSH1 0x0 SWAP1 SLOAD SWAP1 PUSH2 0x100 EXP SWAP1 DIV PUSH1 0xFF AND DUP2 JUMP JUMPDEST PUSH1 0x2 PUSH1 0x1 SWAP1 SLOAD SWAP1 PUSH2 0x100 EXP SWAP1 DIV PUSH1 0xFF AND PUSH2 0x4EC JUMPI PUSH1 0x40 MLOAD PUSH32 0x8C379A000000000000000000000000000000000000000000000000000000000 DUP2 MSTORE PUSH1 0x4 ADD PUSH2 0x4E3 SWAP1 PUSH2 0x913 JUMP JUMPDEST PUSH1 0x40 MLOAD DUP1 SWAP2 SUB SWAP1 REVERT JUMPDEST DUP1 PUSH1 0x3 DUP2 SWAP1 SSTORE POP PUSH1 0x0 PUSH1 0x2 PUSH1 0x1 PUSH2 0x100 EXP DUP2 SLOAD DUP2 PUSH1 0xFF MUL NOT AND SWAP1 DUP4 ISZERO ISZERO MUL OR SWAP1 SSTORE POP PUSH1 0x4 SLOAD PUSH32 0x91BBEB6693B54ED164984D080403ADC3D9EF9E7712A54536723A61DE8084AB90 DUP3 PUSH1 0x40 MLOAD PUSH2 0x540 SWAP2 SWAP1 PUSH2 0x5C0 JUMP JUMPDEST PUSH1 0x40 MLOAD DUP1 SWAP2 SUB SWAP1 LOG2 POP JUMP JUMPDEST PUSH1 0x0 PUSH20 0xFFFFFFFFFFFFFFFFFFFFFFFFFFFFFFFFFFFFFFFF DUP3 AND SWAP1 POP SWAP2 SWAP1 POP JUMP JUMPDEST PUSH1 0x0 PUSH2 0x576 DUP3 PUSH2 0x54B JUMP JUMPDEST SWAP1 POP SWAP2 SWAP1 POP JUMP JUMPDEST PUSH2 0x586 DUP2 PUSH2 0x56B JUMP JUMPDEST DUP3 MSTORE POP POP JUMP JUMPDEST PUSH1 0x0 PUSH1 0x20 DUP3 ADD SWAP1 POP PUSH2 0x5A1 PUSH1 0x0 DUP4 ADD DUP5 PUSH2 0x57D JUMP JUMPDEST SWAP3 SWAP2 POP POP JUMP JUMPDEST PUSH1 0x0 DUP2 SWAP1 POP SWAP2 SWAP1 POP JUMP JUMPDEST PUSH2 0x5BA DUP2 PUSH2 0x5A7 JUMP JUMPDEST DUP3 MSTORE POP POP JUMP JUMPDEST PUSH1 0x0 PUSH1 0x20 DUP3 ADD SWAP1 POP PUSH2 0x5D5 PUSH1 0x0 DUP4 ADD DUP5 PUSH2 0x5B1 JUMP JUMPDEST SWAP3 SWAP2 POP POP JUMP JUMPDEST PUSH1 0x0 DUP2 ISZERO ISZERO SWAP1 POP SWAP2 SWAP1 POP JUMP JUMPDEST PUSH2 0x5F0 DUP2 PUSH2 0x5DB JUMP JUMPDEST DUP3 MSTORE POP POP JUMP JUMPDEST PUSH1 0x0 PUSH1 0x20 DUP3 ADD SWAP1 POP PUSH2 0x60B PUSH1 0x0 DUP4 ADD DUP5 PUSH2 0x5E7 JUMP JUMPDEST SWAP3 SWAP2 POP POP JUMP JUMPDEST PUSH1 0x0 DUP2 SWAP1 POP SWAP2 SWAP1 POP JUMP JUMPDEST PUSH2 0x624 DUP2 PUSH2 0x611 JUMP JUMPDEST DUP3 MSTORE POP POP JUMP JUMPDEST PUSH1 0x0 PUSH1 0x20 DUP3 ADD SWAP1 POP PUSH2 0x63F PUSH1 0x0 DUP4 ADD DUP5 PUSH2 0x61B JUMP JUMPDEST SWAP3 SWAP2 POP POP JUMP JUMPDEST PUSH1 0x0 DUP1 REVERT JUMPDEST PUSH2 0x653 DUP2 PUSH2 0x5A7 JUMP JUMPDEST DUP2 EQ PUSH2 0x65E JUMPI PUSH1 0x0 DUP1 REVERT JUMPDEST POP JUMP JUMPDEST PUSH1 0x0 DUP2 CALLDATALOAD SWAP1 POP PUSH2 0x670 DUP2 PUSH2 0x64A JUMP JUMPDEST SWAP3 SWAP2 POP POP JUMP JUMPDEST PUSH1 0x0 PUSH1 0x20 DUP3 DUP5 SUB SLT ISZERO PUSH2 0x68C JUMPI PUSH2 0x68B PUSH2 0x645 JUMP JUMPDEST JUMPDEST PUSH1 0x0 PUSH2 0x69A DUP5 DUP3 DUP6 ADD PUSH2 0x661 JUMP JUMPDEST SWAP2 POP POP SWAP3 SWAP2 POP POP JUMP JUMPDEST PUSH1 0x0 DUP3 DUP3 MSTORE PUSH1 0x20 DUP3 ADD SWAP1 POP SWAP3 SWAP2 POP POP JUMP JUMPDEST PUSH32 0x4E6F742050617274794100000000000000000000000000000000000000000000 PUSH1 0x0 DUP3 ADD MSTORE POP JUMP JUMPDEST PUSH1 0x0 PUSH2 0x6EA PUSH1 0xA DUP4 PUSH2 0x6A3 JUMP JUMPDEST SWAP2 POP PUSH2 0x6F5 DUP3 PUSH2 0x6B4 JUMP JUMPDEST PUSH1 0x20 DUP3 ADD SWAP1 POP SWAP2 SWAP1 POP JUMP JUMPDEST PUSH1 0x0 PUSH1 0x20 DUP3 ADD SWAP1 POP DUP2 DUP2 SUB PUSH1 0x0 DUP4 ADD MSTORE PUSH2 0x719 DUP2 PUSH2 0x6DD JUMP JUMPDEST SWAP1 POP SWAP2 SWAP1 POP JUMP JUMPDEST PUSH32 0x416C726561647920636F6D6D6974746564000000000000000000000000000000 PUSH1 0x0 DUP3 ADD MSTORE POP JUMP JUMPDEST PUSH1 0x0 PUSH2 0x756 PUSH1 0x11 DUP4 PUSH2 0x6A3 JUMP JUMPDEST SWAP2 POP PUSH2 0x761 DUP3 PUSH2 0x720 JUMP JUMPDEST PUSH1 0x20 DUP3 ADD SWAP1 POP SWAP2 SWAP1 POP JUMP JUMPDEST PUSH1 0x0 PUSH1 0x20 DUP3 ADD SWAP1 POP DUP2 DUP2 SUB PUSH1 0x0 DUP4 ADD MSTORE PUSH2 0x785 DUP2 PUSH2 0x749 JUMP JUMPDEST SWAP1 POP SWAP2 SWAP1 POP JUMP JUMPDEST PUSH32 0x436F6D6D69742066697273740000000000000000000000000000000000000000 PUSH1 0x0 DUP3 ADD MSTORE POP JUMP JUMPDEST PUSH1 0x0 PUSH2 0x7C2 PUSH1 0xC DUP4 PUSH2 0x6A3 JUMP JUMPDEST SWAP2 POP PUSH2 0x7CD DUP3 PUSH2 0x78C JUMP JUMPDEST PUSH1 0x20 DUP3 ADD SWAP1 POP SWAP2 SWAP1 POP JUMP JUMPDEST PUSH1 0x0 PUSH1 0x20 DUP3 ADD SWAP1 POP DUP2 DUP2 SUB PUSH1 0x0 DUP4 ADD MSTORE PUSH2 0x7F1 DUP2 PUSH2 0x7B5 JUMP JUMPDEST SWAP1 POP SWAP2 SWAP1 POP JUMP JUMPDEST PUSH32 0x50726576696F75732072657175657374206E6F742066756C66696C6C65640000 PUSH1 0x0 DUP3 ADD MSTORE POP JUMP JUMPDEST PUSH1 0x0 PUSH2 0x82E PUSH1 0x1E DUP4 PUSH2 0x6A3 JUMP JUMPDEST SWAP2 POP PUSH2 0x839 DUP3 PUSH2 0x7F8 JUMP JUMPDEST PUSH1 0x20 DUP3 ADD SWAP1 POP SWAP2 SWAP1 POP JUMP JUMPDEST PUSH1 0x0 PUSH1 0x20 DUP3 ADD SWAP1 POP DUP2 DUP2 SUB PUSH1 0x0 DUP4 ADD MSTORE PUSH2 0x85D DUP2 PUSH2 0x821 JUMP JUMPDEST SWAP1 POP SWAP2 SWAP1 POP JUMP JUMPDEST PUSH32 0x4E487B7100000000000000000000000000000000000000000000000000000000 PUSH1 0x0 MSTORE PUSH1 0x11 PUSH1 0x4 MSTORE PUSH1 0x24 PUSH1 0x0 REVERT JUMPDEST PUSH1 0x0 PUSH2 0x89E DUP3 PUSH2 0x611 JUMP JUMPDEST SWAP2 POP PUSH2 0x8A9 DUP4 PUSH2 0x611 JUMP JUMPDEST SWAP3 POP DUP3 DUP3 ADD SWAP1 POP DUP1 DUP3 GT ISZERO PUSH2 0x8C1 JUMPI PUSH2 0x8C0 PUSH2 0x864 JUMP JUMPDEST JUMPDEST SWAP3 SWAP2 POP POP JUMP JUMPDEST PUSH32 0x4E6F206163746976652072657175657374000000000000000000000000000000 PUSH1 0x0 DUP3 ADD MSTORE POP JUMP JUMPDEST PUSH1 0x0 PUSH2 0x8FD PUSH1 0x11 DUP4 PUSH2 0x6A3 JUMP JUMPDEST SWAP2 POP PUSH2 0x908 DUP3 PUSH2 0x8C7 JUMP JUMPDEST PUSH1 0x20 DUP3 ADD SWAP1 POP SWAP2 SWAP1 POP JUMP JUMPDEST PUSH1 0x0 PUSH1 0x20 DUP3 ADD SWAP1 POP DUP2 DUP2 SUB PUSH1 0x0 DUP4 ADD MSTORE PUSH2 0x92C DUP2 PUSH2 0x8F0 JUMP JUMPDEST SWAP1 POP SWAP2 SWAP1 POP JUMP INVALID LOG2 PUSH5 0x6970667358 0x22 SLT KECCAK256 0x4E PC 0xED 0xB8 0xCC DUP1 SWAP4 DUP6 0x4F SWAP6 0xDF 0xA8 PUSH15 0xE0682D1819764DD20EC571FA820432 PUSH10 0x28690064736F6C634300 ADDMOD GT STOP CALLER "
				},
				"gasEstimates": {
					"creation": {
						"codeDepositCost": "481800",
						"executionCost": "infinite",
						"totalCost": "infinite"
					},
					"external": {
						"commit()": "28801",
						"commitment()": "2452",
						"committed()": "2537",
						"dataRequested()": "2521",
						"fulfillData(bytes32)": "infinite",
						"latestData()": "2474",
						"partyA()": "2512",
						"requestData()": "infinite",
						"roundId()": "2473"
					}
				},
				"methodIdentifiers": {
					"commit()": "3c7a3aff",
					"commitment()": "1303a484",
					"committed()": "9b6b9664",
					"dataRequested()": "4222c7fb",
					"fulfillData(bytes32)": "feae371b",
					"latestData()": "142bc2ae",
					"partyA()": "10e1d8ca",
					"requestData()": "606deecd",
					"roundId()": "8cd221c9"
				}
			},
			"storageLayout": {
				"storage": [
					{
						"astId": 3,
						"contract": "PartyA_vMulti.sol:Day1PartyA_vMulti",
						"label": "partyA",
						"offset": 0,
						"slot": "0",
						"type": "t_address"
					},
					{
						"astId": 5,
						"contract": "PartyA_vMulti.sol:Day1PartyA_vMulti",
						"label": "commitment",
						"offset": 0,
						"slot": "1",
						"type": "t_bytes32"
					},
					{
						"astId": 7,
						"contract": "PartyA_vMulti.sol:Day1PartyA_vMulti",
						"label": "committed",
						"offset": 0,
						"slot": "2",
						"type": "t_bool"
					},
					{
						"astId": 9,
						"contract": "PartyA_vMulti.sol:Day1PartyA_vMulti",
						"label": "dataRequested",
						"offset": 1,
						"slot": "2",
						"type": "t_bool"
					},
					{
						"astId": 11,
						"contract": "PartyA_vMulti.sol:Day1PartyA_vMulti",
						"label": "latestData",
						"offset": 0,
						"slot": "3",
						"type": "t_bytes32"
					},
					{
						"astId": 13,
						"contract": "PartyA_vMulti.sol:Day1PartyA_vMulti",
						"label": "roundId",
						"offset": 0,
						"slot": "4",
						"type": "t_uint256"
					}
				],
				"types": {
					"t_address": {
						"encoding": "inplace",
						"label": "address",
						"numberOfBytes": "20"
					},
					"t_bool": {
						"encoding": "inplace",
						"label": "bool",
						"numberOfBytes": "1"
					},
					"t_bytes32": {
						"encoding": "inplace",
						"label": "bytes32",
						"numberOfBytes": "32"
					},
					"t_uint256": {
						"encoding": "inplace",
						"label": "uint256",
						"numberOfBytes": "32"
					}
				}
			},
			"userdoc": {
				"kind": "user",
				"methods": {
					"fulfillData(bytes32)": {
						"notice": "Oracle 回写数据（多轮：每轮只能 fulfill 一次）"
					},
					"requestData()": {
						"notice": "发起一次新的数据请求（多轮：每次 request 都是新 round）"
					}
				},
				"version": 1
			}
		}
	}
}