{
	"PartyA_OCR.sol": {
		"PartyA_OCR": {
			"abi": [
				{
					"inputs": [
						{
							"internalType": "address[]",
							"name": "oracles",
							"type": "address[]"
						},
						{
							"internalType": "uint256",
							"name": "_thresholdK",
							"type": "uint256"
						}
					],
					"stateMutability": "nonpayable",
					"type": "constructor"
				},
				{
					"anonymous": false,
					"inputs": [
						{
							"indexed": true,
							"internalType": "uint256",
							"name": "roundId",
							"type": "uint256"
						}
					],
					"name": "DataRequested",
					"type": "event"
				},
				{
					"anonymous": false,
					"inputs": [
						{
							"indexed": true,
							"internalType": "uint256",
							"name": "roundId",
							"type": "uint256"
						},
						{
							"indexed": false,
							"internalType": "uint256",
							"name": "value",
							"type": "uint256"
						}
					],
					"name": "Finalized",
					"type": "event"
				},
				{
					"anonymous": false,
					"inputs": [
						{
							"indexed": true,
							"internalType": "address",
							"name": "oracle",
							"type": "address"
						},
						{
							"indexed": true,
							"internalType": "uint256",
							"name": "roundId",
							"type": "uint256"
						},
						{
							"indexed": false,
							"internalType": "uint256",
							"name": "value",
							"type": "uint256"
						}
					],
					"name": "ObservationSubmitted",
					"type": "event"
				},
				{
					"anonymous": false,
					"inputs": [
						{
							"indexed": false,
							"internalType": "uint256",
							"name": "oracleCount",
							"type": "uint256"
						},
						{
							"indexed": false,
							"internalType": "uint256",
							"name": "thresholdK",
							"type": "uint256"
						}
					],
					"name": "OraclesConfigured",
					"type": "event"
				},
				{
					"anonymous": false,
					"inputs": [
						{
							"indexed": true,
							"internalType": "uint256",
							"name": "roundId",
							"type": "uint256"
						},
						{
							"indexed": false,
							"internalType": "uint256",
							"name": "reportValue",
							"type": "uint256"
						}
					],
					"name": "ReportComputed",
					"type": "event"
				},
				{
					"anonymous": false,
					"inputs": [
						{
							"indexed": true,
							"internalType": "address",
							"name": "oracle",
							"type": "address"
						},
						{
							"indexed": true,
							"internalType": "uint256",
							"name": "roundId",
							"type": "uint256"
						}
					],
					"name": "ReportConfirmed",
					"type": "event"
				},
				{
					"anonymous": false,
					"inputs": [
						{
							"indexed": true,
							"internalType": "uint256",
							"name": "roundId",
							"type": "uint256"
						},
						{
							"indexed": false,
							"internalType": "string",
							"name": "reason",
							"type": "string"
						}
					],
					"name": "RequestCancelled",
					"type": "event"
				},
				{
					"anonymous": false,
					"inputs": [
						{
							"indexed": false,
							"internalType": "uint256",
							"name": "timeoutSeconds",
							"type": "uint256"
						}
					],
					"name": "TimeoutUpdated",
					"type": "event"
				},
				{
					"inputs": [],
					"name": "cancelIfTimeout",
					"outputs": [],
					"stateMutability": "nonpayable",
					"type": "function"
				},
				{
					"inputs": [],
					"name": "confirmReport",
					"outputs": [],
					"stateMutability": "nonpayable",
					"type": "function"
				},
				{
					"inputs": [],
					"name": "dataRequested",
					"outputs": [
						{
							"internalType": "bool",
							"name": "",
							"type": "bool"
						}
					],
					"stateMutability": "view",
					"type": "function"
				},
				{
					"inputs": [
						{
							"internalType": "uint256",
							"name": "_rid",
							"type": "uint256"
						}
					],
					"name": "getRoundStatus",
					"outputs": [
						{
							"internalType": "bool",
							"name": "active",
							"type": "bool"
						},
						{
							"internalType": "bool",
							"name": "reportReady",
							"type": "bool"
						},
						{
							"internalType": "bool",
							"name": "finalized",
							"type": "bool"
						},
						{
							"internalType": "uint256",
							"name": "obsCount",
							"type": "uint256"
						},
						{
							"internalType": "uint256",
							"name": "confirmCount",
							"type": "uint256"
						},
						{
							"internalType": "uint256",
							"name": "reportValue",
							"type": "uint256"
						}
					],
					"stateMutability": "view",
					"type": "function"
				},
				{
					"inputs": [
						{
							"internalType": "uint256",
							"name": "_rid",
							"type": "uint256"
						},
						{
							"internalType": "address",
							"name": "oracle",
							"type": "address"
						}
					],
					"name": "hasConfirmedReport",
					"outputs": [
						{
							"internalType": "bool",
							"name": "",
							"type": "bool"
						}
					],
					"stateMutability": "view",
					"type": "function"
				},
				{
					"inputs": [
						{
							"internalType": "uint256",
							"name": "_rid",
							"type": "uint256"
						},
						{
							"internalType": "address",
							"name": "oracle",
							"type": "address"
						}
					],
					"name": "hasSubmittedObservation",
					"outputs": [
						{
							"internalType": "bool",
							"name": "",
							"type": "bool"
						}
					],
					"stateMutability": "view",
					"type": "function"
				},
				{
					"inputs": [
						{
							"internalType": "address",
							"name": "",
							"type": "address"
						}
					],
					"name": "isOracle",
					"outputs": [
						{
							"internalType": "bool",
							"name": "",
							"type": "bool"
						}
					],
					"stateMutability": "view",
					"type": "function"
				},
				{
					"inputs": [],
					"name": "latestRound",
					"outputs": [
						{
							"internalType": "uint256",
							"name": "",
							"type": "uint256"
						}
					],
					"stateMutability": "view",
					"type": "function"
				},
				{
					"inputs": [],
					"name": "latestValue",
					"outputs": [
						{
							"internalType": "uint256",
							"name": "",
							"type": "uint256"
						}
					],
					"stateMutability": "view",
					"type": "function"
				},
				{
					"inputs": [],
					"name": "oracleCount",
					"outputs": [
						{
							"internalType": "uint256",
							"name": "",
							"type": "uint256"
						}
					],
					"stateMutability": "view",
					"type": "function"
				},
				{
					"inputs": [],
					"name": "partyA",
					"outputs": [
						{
							"internalType": "address",
							"name": "",
							"type": "address"
						}
					],
					"stateMutability": "view",
					"type": "function"
				},
				{
					"inputs": [],
					"name": "requestData",
					"outputs": [],
					"stateMutability": "nonpayable",
					"type": "function"
				},
				{
					"inputs": [],
					"name": "requestTimestamp",
					"outputs": [
						{
							"internalType": "uint256",
							"name": "",
							"type": "uint256"
						}
					],
					"stateMutability": "view",
					"type": "function"
				},
				{
					"inputs": [],
					"name": "roundId",
					"outputs": [
						{
							"internalType": "uint256",
							"name": "",
							"type": "uint256"
						}
					],
					"stateMutability": "view",
					"type": "function"
				},
				{
					"inputs": [
						{
							"internalType": "uint256",
							"name": "_timeoutSeconds",
							"type": "uint256"
						}
					],
					"name": "setTimeoutSeconds",
					"outputs": [],
					"stateMutability": "nonpayable",
					"type": "function"
				},
				{
					"inputs": [
						{
							"internalType": "uint256",
							"name": "value",
							"type": "uint256"
						}
					],
					"name": "submitObservation",
					"outputs": [],
					"stateMutability": "nonpayable",
					"type": "function"
				},
				{
					"inputs": [],
					"name": "thresholdK",
					"outputs": [
						{
							"internalType": "uint256",
							"name": "",
							"type": "uint256"
						}
					],
					"stateMutability": "view",
					"type": "function"
				},
				{
					"inputs": [],
					"name": "timeoutSeconds",
					"outputs": [
						{
							"internalType": "uint256",
							"name": "",
							"type": "uint256"
						}
					],
					"stateMutability": "view",
					"type": "function"
				}
			],
			"devdoc": {
				"details": "这是“机制建模版”：不做真正 P2P 共识，只把 OCR 的 report+quorum 规则写进合约",
				"kind": "dev",
				"methods": {
					"constructor": {
						"params": {
							"_thresholdK": "confirm 阈值（K-of-N）",
							"oracles": "oracle 地址列表（建议奇数：3/5）"
						}
					}
				},
				"title": "PartyA_OCR（把 Chainlink OCR 的“线下聚合机制规则”建模到合约里）",
				"version": 1
			},
			"evm": {
				"assembly": "    /* \"PartyA_OCR.sol\":482:8099  contract PartyA_OCR {... */\n  mstore(0x40, 0xa0)\n    /* \"PartyA_OCR.sol\":982:992  30 minutes */\n  0x0708\n    /* \"PartyA_OCR.sol\":950:992  uint256 public timeoutSeconds = 30 minutes */\n  0x03\n  sstore\n    /* \"PartyA_OCR.sol\":3028:3709  constructor(address[] memory oracles, uint256 _thresholdK) {... */\n  callvalue\n  dup1\n  iszero\n  tag_1\n  jumpi\n  0x00\n  dup1\n  revert\ntag_1:\n  pop\n  mload(0x40)\n  sub(codesize, bytecodeSize)\n  dup1\n  bytecodeSize\n  dup4\n  codecopy\n  dup2\n  dup2\n  add\n  0x40\n  mstore\n  dup2\n  add\n  swap1\n  tag_2\n  swap2\n  swap1\n  tag_3\n  jump\t// in\ntag_2:\n    /* \"PartyA_OCR.sol\":3123:3124  3 */\n  0x03\n    /* \"PartyA_OCR.sol\":3105:3112  oracles */\n  dup3\n    /* \"PartyA_OCR.sol\":3105:3119  oracles.length */\n  mload\n    /* \"PartyA_OCR.sol\":3105:3124  oracles.length >= 3 */\n  lt\n  iszero\n    /* \"PartyA_OCR.sol\":3097:3145  require(oracles.length >= 3, \"Need >=3 oracles\") */\n  tag_6\n  jumpi\n  mload(0x40)\n  0x08c379a000000000000000000000000000000000000000000000000000000000\n  dup2\n  mstore\n  0x04\n  add\n  tag_7\n  swap1\n  tag_8\n  jump\t// in\ntag_7:\n  mload(0x40)\n  dup1\n  swap2\n  sub\n  swap1\n  revert\ntag_6:\n    /* \"PartyA_OCR.sol\":3185:3186  1 */\n  0x01\n    /* \"PartyA_OCR.sol\":3180:3181  2 */\n  0x02\n    /* \"PartyA_OCR.sol\":3163:3170  oracles */\n  dup4\n    /* \"PartyA_OCR.sol\":3163:3177  oracles.length */\n  mload\n    /* \"PartyA_OCR.sol\":3163:3181  oracles.length % 2 */\n  tag_9\n  swap2\n  swap1\n  tag_10\n  jump\t// in\ntag_9:\n    /* \"PartyA_OCR.sol\":3163:3186  oracles.length % 2 == 1 */\n  eq\n    /* \"PartyA_OCR.sol\":3155:3215  require(oracles.length % 2 == 1, \"Oracle count must be odd\") */\n  tag_11\n  jumpi\n  mload(0x40)\n  0x08c379a000000000000000000000000000000000000000000000000000000000\n  dup2\n  mstore\n  0x04\n  add\n  tag_12\n  swap1\n  tag_13\n  jump\t// in\ntag_12:\n  mload(0x40)\n  dup1\n  swap2\n  sub\n  swap1\n  revert\ntag_11:\n    /* \"PartyA_OCR.sol\":3248:3249  1 */\n  0x01\n    /* \"PartyA_OCR.sol\":3233:3244  _thresholdK */\n  dup2\n    /* \"PartyA_OCR.sol\":3233:3249  _thresholdK >= 1 */\n  lt\n  iszero\n    /* \"PartyA_OCR.sol\":3233:3282  _thresholdK >= 1 && _thresholdK <= oracles.length */\n  dup1\n  iszero\n  tag_14\n  jumpi\n  pop\n    /* \"PartyA_OCR.sol\":3268:3275  oracles */\n  dup2\n    /* \"PartyA_OCR.sol\":3268:3282  oracles.length */\n  mload\n    /* \"PartyA_OCR.sol\":3253:3264  _thresholdK */\n  dup2\n    /* \"PartyA_OCR.sol\":3253:3282  _thresholdK <= oracles.length */\n  gt\n  iszero\n    /* \"PartyA_OCR.sol\":3233:3282  _thresholdK >= 1 && _thresholdK <= oracles.length */\ntag_14:\n    /* \"PartyA_OCR.sol\":3225:3300  require(_thresholdK >= 1 && _thresholdK <= oracles.length, \"Bad threshold\") */\n  tag_15\n  jumpi\n  mload(0x40)\n  0x08c379a000000000000000000000000000000000000000000000000000000000\n  dup2\n  mstore\n  0x04\n  add\n  tag_16\n  swap1\n  tag_17\n  jump\t// in\ntag_16:\n  mload(0x40)\n  dup1\n  swap2\n  sub\n  swap1\n  revert\ntag_15:\n    /* \"PartyA_OCR.sol\":3320:3330  msg.sender */\n  caller\n    /* \"PartyA_OCR.sol\":3311:3330  partyA = msg.sender */\n  0xffffffffffffffffffffffffffffffffffffffff\n  and\n  0x80\n  dup2\n  0xffffffffffffffffffffffffffffffffffffffff\n  and\n  dup2\n  mstore\n  pop\n  pop\n    /* \"PartyA_OCR.sol\":3346:3355  uint256 i */\n  0x00\n    /* \"PartyA_OCR.sol\":3341:3573  for (uint256 i = 0; i < oracles.length; i++) {... */\ntag_18:\n    /* \"PartyA_OCR.sol\":3365:3372  oracles */\n  dup3\n    /* \"PartyA_OCR.sol\":3365:3379  oracles.length */\n  mload\n    /* \"PartyA_OCR.sol\":3361:3362  i */\n  dup2\n    /* \"PartyA_OCR.sol\":3361:3379  i < oracles.length */\n  lt\n    /* \"PartyA_OCR.sol\":3341:3573  for (uint256 i = 0; i < oracles.length; i++) {... */\n  iszero\n  tag_19\n  jumpi\n    /* \"PartyA_OCR.sol\":3400:3409  address o */\n  0x00\n    /* \"PartyA_OCR.sol\":3412:3419  oracles */\n  dup4\n    /* \"PartyA_OCR.sol\":3420:3421  i */\n  dup3\n    /* \"PartyA_OCR.sol\":3412:3422  oracles[i] */\n  dup2\n  mload\n  dup2\n  lt\n  tag_21\n  jumpi\n  tag_22\n  tag_23\n  jump\t// in\ntag_22:\ntag_21:\n  0x20\n  mul\n  0x20\n  add\n  add\n  mload\n    /* \"PartyA_OCR.sol\":3400:3422  address o = oracles[i] */\n  swap1\n  pop\n    /* \"PartyA_OCR.sol\":3457:3458  0 */\n  0x00\n    /* \"PartyA_OCR.sol\":3444:3459  o != address(0) */\n  0xffffffffffffffffffffffffffffffffffffffff\n  and\n    /* \"PartyA_OCR.sol\":3444:3445  o */\n  dup2\n    /* \"PartyA_OCR.sol\":3444:3459  o != address(0) */\n  0xffffffffffffffffffffffffffffffffffffffff\n  and\n  sub\n    /* \"PartyA_OCR.sol\":3436:3475  require(o != address(0), \"Zero oracle\") */\n  tag_24\n  jumpi\n  mload(0x40)\n  0x08c379a000000000000000000000000000000000000000000000000000000000\n  dup2\n  mstore\n  0x04\n  add\n  tag_25\n  swap1\n  tag_26\n  jump\t// in\ntag_25:\n  mload(0x40)\n  dup1\n  swap2\n  sub\n  swap1\n  revert\ntag_24:\n    /* \"PartyA_OCR.sol\":3498:3506  isOracle */\n  0x00\n    /* \"PartyA_OCR.sol\":3498:3509  isOracle[o] */\n  dup1\n    /* \"PartyA_OCR.sol\":3507:3508  o */\n  dup3\n    /* \"PartyA_OCR.sol\":3498:3509  isOracle[o] */\n  0xffffffffffffffffffffffffffffffffffffffff\n  and\n  0xffffffffffffffffffffffffffffffffffffffff\n  and\n  dup2\n  mstore\n  0x20\n  add\n  swap1\n  dup2\n  mstore\n  0x20\n  add\n  0x00\n  keccak256\n  0x00\n  swap1\n  sload\n  swap1\n  0x0100\n  exp\n  swap1\n  div\n  0xff\n  and\n    /* \"PartyA_OCR.sol\":3497:3509  !isOracle[o] */\n  iszero\n    /* \"PartyA_OCR.sol\":3489:3530  require(!isOracle[o], \"Duplicate oracle\") */\n  tag_27\n  jumpi\n  mload(0x40)\n  0x08c379a000000000000000000000000000000000000000000000000000000000\n  dup2\n  mstore\n  0x04\n  add\n  tag_28\n  swap1\n  tag_29\n  jump\t// in\ntag_28:\n  mload(0x40)\n  dup1\n  swap2\n  sub\n  swap1\n  revert\ntag_27:\n    /* \"PartyA_OCR.sol\":3558:3562  true */\n  0x01\n    /* \"PartyA_OCR.sol\":3544:3552  isOracle */\n  0x00\n    /* \"PartyA_OCR.sol\":3544:3555  isOracle[o] */\n  dup1\n    /* \"PartyA_OCR.sol\":3553:3554  o */\n  dup4\n    /* \"PartyA_OCR.sol\":3544:3555  isOracle[o] */\n  0xffffffffffffffffffffffffffffffffffffffff\n  and\n  0xffffffffffffffffffffffffffffffffffffffff\n  and\n  dup2\n  mstore\n  0x20\n  add\n  swap1\n  dup2\n  mstore\n  0x20\n  add\n  0x00\n  keccak256\n  0x00\n    /* \"PartyA_OCR.sol\":3544:3562  isOracle[o] = true */\n  0x0100\n  exp\n  dup2\n  sload\n  dup2\n  0xff\n  mul\n  not\n  and\n  swap1\n  dup4\n  iszero\n  iszero\n  mul\n  or\n  swap1\n  sstore\n  pop\n    /* \"PartyA_OCR.sol\":3386:3573  {... */\n  pop\n    /* \"PartyA_OCR.sol\":3381:3384  i++ */\n  dup1\n  dup1\n  tag_30\n  swap1\n  tag_31\n  jump\t// in\ntag_30:\n  swap2\n  pop\n  pop\n    /* \"PartyA_OCR.sol\":3341:3573  for (uint256 i = 0; i < oracles.length; i++) {... */\n  jump(tag_18)\ntag_19:\n  pop\n    /* \"PartyA_OCR.sol\":3596:3603  oracles */\n  dup2\n    /* \"PartyA_OCR.sol\":3596:3610  oracles.length */\n  mload\n    /* \"PartyA_OCR.sol\":3582:3593  oracleCount */\n  0x01\n    /* \"PartyA_OCR.sol\":3582:3610  oracleCount = oracles.length */\n  dup2\n  swap1\n  sstore\n  pop\n    /* \"PartyA_OCR.sol\":3633:3644  _thresholdK */\n  dup1\n    /* \"PartyA_OCR.sol\":3620:3630  thresholdK */\n  0x02\n    /* \"PartyA_OCR.sol\":3620:3644  thresholdK = _thresholdK */\n  dup2\n  swap1\n  sstore\n  pop\n    /* \"PartyA_OCR.sol\":3660:3702  OraclesConfigured(oracleCount, thresholdK) */\n  0x81bdc869c5bfb1447e9cfc5153244b922480bad88b438b80dc6d92c50de3546c\n    /* \"PartyA_OCR.sol\":3678:3689  oracleCount */\n  sload(0x01)\n    /* \"PartyA_OCR.sol\":3691:3701  thresholdK */\n  sload(0x02)\n    /* \"PartyA_OCR.sol\":3660:3702  OraclesConfigured(oracleCount, thresholdK) */\n  mload(0x40)\n  tag_32\n  swap3\n  swap2\n  swap1\n  tag_33\n  jump\t// in\ntag_32:\n  mload(0x40)\n  dup1\n  swap2\n  sub\n  swap1\n  log1\n    /* \"PartyA_OCR.sol\":3028:3709  constructor(address[] memory oracles, uint256 _thresholdK) {... */\n  pop\n  pop\n    /* \"PartyA_OCR.sol\":482:8099  contract PartyA_OCR {... */\n  jump(tag_34)\n    /* \"#utility.yul\":7:82   */\ntag_35:\n    /* \"#utility.yul\":40:46   */\n  0x00\n    /* \"#utility.yul\":73:75   */\n  0x40\n    /* \"#utility.yul\":67:76   */\n  mload\n    /* \"#utility.yul\":57:76   */\n  swap1\n  pop\n    /* \"#utility.yul\":7:82   */\n  swap1\n  jump\t// out\n    /* \"#utility.yul\":88:205   */\ntag_36:\n    /* \"#utility.yul\":197:198   */\n  0x00\n    /* \"#utility.yul\":194:195   */\n  dup1\n    /* \"#utility.yul\":187:199   */\n  revert\n    /* \"#utility.yul\":211:328   */\ntag_37:\n    /* \"#utility.yul\":320:321   */\n  0x00\n    /* \"#utility.yul\":317:318   */\n  dup1\n    /* \"#utility.yul\":310:322   */\n  revert\n    /* \"#utility.yul\":334:451   */\ntag_38:\n    /* \"#utility.yul\":443:444   */\n  0x00\n    /* \"#utility.yul\":440:441   */\n  dup1\n    /* \"#utility.yul\":433:445   */\n  revert\n    /* \"#utility.yul\":457:559   */\ntag_39:\n    /* \"#utility.yul\":498:504   */\n  0x00\n    /* \"#utility.yul\":549:551   */\n  0x1f\n    /* \"#utility.yul\":545:552   */\n  not\n    /* \"#utility.yul\":540:542   */\n  0x1f\n    /* \"#utility.yul\":533:538   */\n  dup4\n    /* \"#utility.yul\":529:543   */\n  add\n    /* \"#utility.yul\":525:553   */\n  and\n    /* \"#utility.yul\":515:553   */\n  swap1\n  pop\n    /* \"#utility.yul\":457:559   */\n  swap2\n  swap1\n  pop\n  jump\t// out\n    /* \"#utility.yul\":565:745   */\ntag_40:\n    /* \"#utility.yul\":613:690   */\n  0x4e487b7100000000000000000000000000000000000000000000000000000000\n    /* \"#utility.yul\":610:611   */\n  0x00\n    /* \"#utility.yul\":603:691   */\n  mstore\n    /* \"#utility.yul\":710:714   */\n  0x41\n    /* \"#utility.yul\":707:708   */\n  0x04\n    /* \"#utility.yul\":700:715   */\n  mstore\n    /* \"#utility.yul\":734:738   */\n  0x24\n    /* \"#utility.yul\":731:732   */\n  0x00\n    /* \"#utility.yul\":724:739   */\n  revert\n    /* \"#utility.yul\":751:1032   */\ntag_41:\n    /* \"#utility.yul\":834:861   */\n  tag_76\n    /* \"#utility.yul\":856:860   */\n  dup3\n    /* \"#utility.yul\":834:861   */\n  tag_39\n  jump\t// in\ntag_76:\n    /* \"#utility.yul\":826:832   */\n  dup2\n    /* \"#utility.yul\":822:862   */\n  add\n    /* \"#utility.yul\":964:970   */\n  dup2\n    /* \"#utility.yul\":952:962   */\n  dup2\n    /* \"#utility.yul\":949:971   */\n  lt\n    /* \"#utility.yul\":928:946   */\n  0xffffffffffffffff\n    /* \"#utility.yul\":916:926   */\n  dup3\n    /* \"#utility.yul\":913:947   */\n  gt\n    /* \"#utility.yul\":910:972   */\n  or\n    /* \"#utility.yul\":907:995   */\n  iszero\n  tag_77\n  jumpi\n    /* \"#utility.yul\":975:993   */\n  tag_78\n  tag_40\n  jump\t// in\ntag_78:\n    /* \"#utility.yul\":907:995   */\ntag_77:\n    /* \"#utility.yul\":1015:1025   */\n  dup1\n    /* \"#utility.yul\":1011:1013   */\n  0x40\n    /* \"#utility.yul\":1004:1026   */\n  mstore\n    /* \"#utility.yul\":794:1032   */\n  pop\n    /* \"#utility.yul\":751:1032   */\n  pop\n  pop\n  jump\t// out\n    /* \"#utility.yul\":1038:1167   */\ntag_42:\n    /* \"#utility.yul\":1072:1078   */\n  0x00\n    /* \"#utility.yul\":1099:1119   */\n  tag_80\n  tag_35\n  jump\t// in\ntag_80:\n    /* \"#utility.yul\":1089:1119   */\n  swap1\n  pop\n    /* \"#utility.yul\":1128:1161   */\n  tag_81\n    /* \"#utility.yul\":1156:1160   */\n  dup3\n    /* \"#utility.yul\":1148:1154   */\n  dup3\n    /* \"#utility.yul\":1128:1161   */\n  tag_41\n  jump\t// in\ntag_81:\n    /* \"#utility.yul\":1038:1167   */\n  swap2\n  swap1\n  pop\n  jump\t// out\n    /* \"#utility.yul\":1173:1484   */\ntag_43:\n    /* \"#utility.yul\":1250:1254   */\n  0x00\n    /* \"#utility.yul\":1340:1358   */\n  0xffffffffffffffff\n    /* \"#utility.yul\":1332:1338   */\n  dup3\n    /* \"#utility.yul\":1329:1359   */\n  gt\n    /* \"#utility.yul\":1326:1382   */\n  iszero\n  tag_83\n  jumpi\n    /* \"#utility.yul\":1362:1380   */\n  tag_84\n  tag_40\n  jump\t// in\ntag_84:\n    /* \"#utility.yul\":1326:1382   */\ntag_83:\n    /* \"#utility.yul\":1412:1416   */\n  0x20\n    /* \"#utility.yul\":1404:1410   */\n  dup3\n    /* \"#utility.yul\":1400:1417   */\n  mul\n    /* \"#utility.yul\":1392:1417   */\n  swap1\n  pop\n    /* \"#utility.yul\":1472:1476   */\n  0x20\n    /* \"#utility.yul\":1466:1470   */\n  dup2\n    /* \"#utility.yul\":1462:1477   */\n  add\n    /* \"#utility.yul\":1454:1477   */\n  swap1\n  pop\n    /* \"#utility.yul\":1173:1484   */\n  swap2\n  swap1\n  pop\n  jump\t// out\n    /* \"#utility.yul\":1490:1607   */\ntag_44:\n    /* \"#utility.yul\":1599:1600   */\n  0x00\n    /* \"#utility.yul\":1596:1597   */\n  dup1\n    /* \"#utility.yul\":1589:1601   */\n  revert\n    /* \"#utility.yul\":1613:1739   */\ntag_45:\n    /* \"#utility.yul\":1650:1657   */\n  0x00\n    /* \"#utility.yul\":1690:1732   */\n  0xffffffffffffffffffffffffffffffffffffffff\n    /* \"#utility.yul\":1683:1688   */\n  dup3\n    /* \"#utility.yul\":1679:1733   */\n  and\n    /* \"#utility.yul\":1668:1733   */\n  swap1\n  pop\n    /* \"#utility.yul\":1613:1739   */\n  swap2\n  swap1\n  pop\n  jump\t// out\n    /* \"#utility.yul\":1745:1841   */\ntag_46:\n    /* \"#utility.yul\":1782:1789   */\n  0x00\n    /* \"#utility.yul\":1811:1835   */\n  tag_88\n    /* \"#utility.yul\":1829:1834   */\n  dup3\n    /* \"#utility.yul\":1811:1835   */\n  tag_45\n  jump\t// in\ntag_88:\n    /* \"#utility.yul\":1800:1835   */\n  swap1\n  pop\n    /* \"#utility.yul\":1745:1841   */\n  swap2\n  swap1\n  pop\n  jump\t// out\n    /* \"#utility.yul\":1847:1969   */\ntag_47:\n    /* \"#utility.yul\":1920:1944   */\n  tag_90\n    /* \"#utility.yul\":1938:1943   */\n  dup2\n    /* \"#utility.yul\":1920:1944   */\n  tag_46\n  jump\t// in\ntag_90:\n    /* \"#utility.yul\":1913:1918   */\n  dup2\n    /* \"#utility.yul\":1910:1945   */\n  eq\n    /* \"#utility.yul\":1900:1963   */\n  tag_91\n  jumpi\n    /* \"#utility.yul\":1959:1960   */\n  0x00\n    /* \"#utility.yul\":1956:1957   */\n  dup1\n    /* \"#utility.yul\":1949:1961   */\n  revert\n    /* \"#utility.yul\":1900:1963   */\ntag_91:\n    /* \"#utility.yul\":1847:1969   */\n  pop\n  jump\t// out\n    /* \"#utility.yul\":1975:2118   */\ntag_48:\n    /* \"#utility.yul\":2032:2037   */\n  0x00\n    /* \"#utility.yul\":2063:2069   */\n  dup2\n    /* \"#utility.yul\":2057:2070   */\n  mload\n    /* \"#utility.yul\":2048:2070   */\n  swap1\n  pop\n    /* \"#utility.yul\":2079:2112   */\n  tag_93\n    /* \"#utility.yul\":2106:2111   */\n  dup2\n    /* \"#utility.yul\":2079:2112   */\n  tag_47\n  jump\t// in\ntag_93:\n    /* \"#utility.yul\":1975:2118   */\n  swap3\n  swap2\n  pop\n  pop\n  jump\t// out\n    /* \"#utility.yul\":2141:2873   */\ntag_49:\n    /* \"#utility.yul\":2248:2253   */\n  0x00\n    /* \"#utility.yul\":2273:2354   */\n  tag_95\n    /* \"#utility.yul\":2289:2353   */\n  tag_96\n    /* \"#utility.yul\":2346:2352   */\n  dup5\n    /* \"#utility.yul\":2289:2353   */\n  tag_43\n  jump\t// in\ntag_96:\n    /* \"#utility.yul\":2273:2354   */\n  tag_42\n  jump\t// in\ntag_95:\n    /* \"#utility.yul\":2264:2354   */\n  swap1\n  pop\n    /* \"#utility.yul\":2374:2379   */\n  dup1\n    /* \"#utility.yul\":2403:2409   */\n  dup4\n    /* \"#utility.yul\":2396:2401   */\n  dup3\n    /* \"#utility.yul\":2389:2410   */\n  mstore\n    /* \"#utility.yul\":2437:2441   */\n  0x20\n    /* \"#utility.yul\":2430:2435   */\n  dup3\n    /* \"#utility.yul\":2426:2442   */\n  add\n    /* \"#utility.yul\":2419:2442   */\n  swap1\n  pop\n    /* \"#utility.yul\":2490:2494   */\n  0x20\n    /* \"#utility.yul\":2482:2488   */\n  dup5\n    /* \"#utility.yul\":2478:2495   */\n  mul\n    /* \"#utility.yul\":2470:2476   */\n  dup4\n    /* \"#utility.yul\":2466:2496   */\n  add\n    /* \"#utility.yul\":2519:2522   */\n  dup6\n    /* \"#utility.yul\":2511:2517   */\n  dup2\n    /* \"#utility.yul\":2508:2523   */\n  gt\n    /* \"#utility.yul\":2505:2627   */\n  iszero\n  tag_97\n  jumpi\n    /* \"#utility.yul\":2538:2617   */\n  tag_98\n  tag_44\n  jump\t// in\ntag_98:\n    /* \"#utility.yul\":2505:2627   */\ntag_97:\n    /* \"#utility.yul\":2653:2659   */\n  dup4\n    /* \"#utility.yul\":2636:2867   */\ntag_99:\n    /* \"#utility.yul\":2670:2676   */\n  dup2\n    /* \"#utility.yul\":2665:2668   */\n  dup2\n    /* \"#utility.yul\":2662:2677   */\n  lt\n    /* \"#utility.yul\":2636:2867   */\n  iszero\n  tag_101\n  jumpi\n    /* \"#utility.yul\":2745:2748   */\n  dup1\n    /* \"#utility.yul\":2774:2822   */\n  tag_102\n    /* \"#utility.yul\":2818:2821   */\n  dup9\n    /* \"#utility.yul\":2806:2816   */\n  dup3\n    /* \"#utility.yul\":2774:2822   */\n  tag_48\n  jump\t// in\ntag_102:\n    /* \"#utility.yul\":2769:2772   */\n  dup5\n    /* \"#utility.yul\":2762:2823   */\n  mstore\n    /* \"#utility.yul\":2852:2856   */\n  0x20\n    /* \"#utility.yul\":2847:2850   */\n  dup5\n    /* \"#utility.yul\":2843:2857   */\n  add\n    /* \"#utility.yul\":2836:2857   */\n  swap4\n  pop\n    /* \"#utility.yul\":2712:2867   */\n  pop\n    /* \"#utility.yul\":2696:2700   */\n  0x20\n    /* \"#utility.yul\":2691:2694   */\n  dup2\n    /* \"#utility.yul\":2687:2701   */\n  add\n    /* \"#utility.yul\":2680:2701   */\n  swap1\n  pop\n    /* \"#utility.yul\":2636:2867   */\n  jump(tag_99)\ntag_101:\n    /* \"#utility.yul\":2640:2661   */\n  pop\n    /* \"#utility.yul\":2254:2873   */\n  pop\n  pop\n    /* \"#utility.yul\":2141:2873   */\n  swap4\n  swap3\n  pop\n  pop\n  pop\n  jump\t// out\n    /* \"#utility.yul\":2896:3281   */\ntag_50:\n    /* \"#utility.yul\":2978:2983   */\n  0x00\n    /* \"#utility.yul\":3027:3030   */\n  dup3\n    /* \"#utility.yul\":3020:3024   */\n  0x1f\n    /* \"#utility.yul\":3012:3018   */\n  dup4\n    /* \"#utility.yul\":3008:3025   */\n  add\n    /* \"#utility.yul\":3004:3031   */\n  slt\n    /* \"#utility.yul\":2994:3116   */\n  tag_104\n  jumpi\n    /* \"#utility.yul\":3035:3114   */\n  tag_105\n  tag_38\n  jump\t// in\ntag_105:\n    /* \"#utility.yul\":2994:3116   */\ntag_104:\n    /* \"#utility.yul\":3145:3151   */\n  dup2\n    /* \"#utility.yul\":3139:3152   */\n  mload\n    /* \"#utility.yul\":3170:3275   */\n  tag_106\n    /* \"#utility.yul\":3271:3274   */\n  dup5\n    /* \"#utility.yul\":3263:3269   */\n  dup3\n    /* \"#utility.yul\":3256:3260   */\n  0x20\n    /* \"#utility.yul\":3248:3254   */\n  dup7\n    /* \"#utility.yul\":3244:3261   */\n  add\n    /* \"#utility.yul\":3170:3275   */\n  tag_49\n  jump\t// in\ntag_106:\n    /* \"#utility.yul\":3161:3275   */\n  swap2\n  pop\n    /* \"#utility.yul\":2984:3281   */\n  pop\n    /* \"#utility.yul\":2896:3281   */\n  swap3\n  swap2\n  pop\n  pop\n  jump\t// out\n    /* \"#utility.yul\":3287:3364   */\ntag_51:\n    /* \"#utility.yul\":3324:3331   */\n  0x00\n    /* \"#utility.yul\":3353:3358   */\n  dup2\n    /* \"#utility.yul\":3342:3358   */\n  swap1\n  pop\n    /* \"#utility.yul\":3287:3364   */\n  swap2\n  swap1\n  pop\n  jump\t// out\n    /* \"#utility.yul\":3370:3492   */\ntag_52:\n    /* \"#utility.yul\":3443:3467   */\n  tag_109\n    /* \"#utility.yul\":3461:3466   */\n  dup2\n    /* \"#utility.yul\":3443:3467   */\n  tag_51\n  jump\t// in\ntag_109:\n    /* \"#utility.yul\":3436:3441   */\n  dup2\n    /* \"#utility.yul\":3433:3468   */\n  eq\n    /* \"#utility.yul\":3423:3486   */\n  tag_110\n  jumpi\n    /* \"#utility.yul\":3482:3483   */\n  0x00\n    /* \"#utility.yul\":3479:3480   */\n  dup1\n    /* \"#utility.yul\":3472:3484   */\n  revert\n    /* \"#utility.yul\":3423:3486   */\ntag_110:\n    /* \"#utility.yul\":3370:3492   */\n  pop\n  jump\t// out\n    /* \"#utility.yul\":3498:3641   */\ntag_53:\n    /* \"#utility.yul\":3555:3560   */\n  0x00\n    /* \"#utility.yul\":3586:3592   */\n  dup2\n    /* \"#utility.yul\":3580:3593   */\n  mload\n    /* \"#utility.yul\":3571:3593   */\n  swap1\n  pop\n    /* \"#utility.yul\":3602:3635   */\n  tag_112\n    /* \"#utility.yul\":3629:3634   */\n  dup2\n    /* \"#utility.yul\":3602:3635   */\n  tag_52\n  jump\t// in\ntag_112:\n    /* \"#utility.yul\":3498:3641   */\n  swap3\n  swap2\n  pop\n  pop\n  jump\t// out\n    /* \"#utility.yul\":3647:4357   */\ntag_3:\n    /* \"#utility.yul\":3751:3757   */\n  0x00\n    /* \"#utility.yul\":3759:3765   */\n  dup1\n    /* \"#utility.yul\":3808:3810   */\n  0x40\n    /* \"#utility.yul\":3796:3805   */\n  dup4\n    /* \"#utility.yul\":3787:3794   */\n  dup6\n    /* \"#utility.yul\":3783:3806   */\n  sub\n    /* \"#utility.yul\":3779:3811   */\n  slt\n    /* \"#utility.yul\":3776:3895   */\n  iszero\n  tag_114\n  jumpi\n    /* \"#utility.yul\":3814:3893   */\n  tag_115\n  tag_36\n  jump\t// in\ntag_115:\n    /* \"#utility.yul\":3776:3895   */\ntag_114:\n    /* \"#utility.yul\":3955:3956   */\n  0x00\n    /* \"#utility.yul\":3944:3953   */\n  dup4\n    /* \"#utility.yul\":3940:3957   */\n  add\n    /* \"#utility.yul\":3934:3958   */\n  mload\n    /* \"#utility.yul\":3985:4003   */\n  0xffffffffffffffff\n    /* \"#utility.yul\":3977:3983   */\n  dup2\n    /* \"#utility.yul\":3974:4004   */\n  gt\n    /* \"#utility.yul\":3971:4088   */\n  iszero\n  tag_116\n  jumpi\n    /* \"#utility.yul\":4007:4086   */\n  tag_117\n  tag_37\n  jump\t// in\ntag_117:\n    /* \"#utility.yul\":3971:4088   */\ntag_116:\n    /* \"#utility.yul\":4112:4201   */\n  tag_118\n    /* \"#utility.yul\":4193:4200   */\n  dup6\n    /* \"#utility.yul\":4184:4190   */\n  dup3\n    /* \"#utility.yul\":4173:4182   */\n  dup7\n    /* \"#utility.yul\":4169:4191   */\n  add\n    /* \"#utility.yul\":4112:4201   */\n  tag_50\n  jump\t// in\ntag_118:\n    /* \"#utility.yul\":4102:4201   */\n  swap3\n  pop\n    /* \"#utility.yul\":3905:4211   */\n  pop\n    /* \"#utility.yul\":4250:4252   */\n  0x20\n    /* \"#utility.yul\":4276:4340   */\n  tag_119\n    /* \"#utility.yul\":4332:4339   */\n  dup6\n    /* \"#utility.yul\":4323:4329   */\n  dup3\n    /* \"#utility.yul\":4312:4321   */\n  dup7\n    /* \"#utility.yul\":4308:4330   */\n  add\n    /* \"#utility.yul\":4276:4340   */\n  tag_53\n  jump\t// in\ntag_119:\n    /* \"#utility.yul\":4266:4340   */\n  swap2\n  pop\n    /* \"#utility.yul\":4221:4350   */\n  pop\n    /* \"#utility.yul\":3647:4357   */\n  swap3\n  pop\n  swap3\n  swap1\n  pop\n  jump\t// out\n    /* \"#utility.yul\":4363:4532   */\ntag_54:\n    /* \"#utility.yul\":4447:4458   */\n  0x00\n    /* \"#utility.yul\":4481:4487   */\n  dup3\n    /* \"#utility.yul\":4476:4479   */\n  dup3\n    /* \"#utility.yul\":4469:4488   */\n  mstore\n    /* \"#utility.yul\":4521:4525   */\n  0x20\n    /* \"#utility.yul\":4516:4519   */\n  dup3\n    /* \"#utility.yul\":4512:4526   */\n  add\n    /* \"#utility.yul\":4497:4526   */\n  swap1\n  pop\n    /* \"#utility.yul\":4363:4532   */\n  swap3\n  swap2\n  pop\n  pop\n  jump\t// out\n    /* \"#utility.yul\":4538:4704   */\ntag_55:\n    /* \"#utility.yul\":4678:4696   */\n  0x4e656564203e3d33206f7261636c657300000000000000000000000000000000\n    /* \"#utility.yul\":4674:4675   */\n  0x00\n    /* \"#utility.yul\":4666:4672   */\n  dup3\n    /* \"#utility.yul\":4662:4676   */\n  add\n    /* \"#utility.yul\":4655:4697   */\n  mstore\n    /* \"#utility.yul\":4538:4704   */\n  pop\n  jump\t// out\n    /* \"#utility.yul\":4710:5076   */\ntag_56:\n    /* \"#utility.yul\":4852:4855   */\n  0x00\n    /* \"#utility.yul\":4873:4940   */\n  tag_123\n    /* \"#utility.yul\":4937:4939   */\n  0x10\n    /* \"#utility.yul\":4932:4935   */\n  dup4\n    /* \"#utility.yul\":4873:4940   */\n  tag_54\n  jump\t// in\ntag_123:\n    /* \"#utility.yul\":4866:4940   */\n  swap2\n  pop\n    /* \"#utility.yul\":4949:5042   */\n  tag_124\n    /* \"#utility.yul\":5038:5041   */\n  dup3\n    /* \"#utility.yul\":4949:5042   */\n  tag_55\n  jump\t// in\ntag_124:\n    /* \"#utility.yul\":5067:5069   */\n  0x20\n    /* \"#utility.yul\":5062:5065   */\n  dup3\n    /* \"#utility.yul\":5058:5070   */\n  add\n    /* \"#utility.yul\":5051:5070   */\n  swap1\n  pop\n    /* \"#utility.yul\":4710:5076   */\n  swap2\n  swap1\n  pop\n  jump\t// out\n    /* \"#utility.yul\":5082:5501   */\ntag_8:\n    /* \"#utility.yul\":5248:5252   */\n  0x00\n    /* \"#utility.yul\":5286:5288   */\n  0x20\n    /* \"#utility.yul\":5275:5284   */\n  dup3\n    /* \"#utility.yul\":5271:5289   */\n  add\n    /* \"#utility.yul\":5263:5289   */\n  swap1\n  pop\n    /* \"#utility.yul\":5335:5344   */\n  dup2\n    /* \"#utility.yul\":5329:5333   */\n  dup2\n    /* \"#utility.yul\":5325:5345   */\n  sub\n    /* \"#utility.yul\":5321:5322   */\n  0x00\n    /* \"#utility.yul\":5310:5319   */\n  dup4\n    /* \"#utility.yul\":5306:5323   */\n  add\n    /* \"#utility.yul\":5299:5346   */\n  mstore\n    /* \"#utility.yul\":5363:5494   */\n  tag_126\n    /* \"#utility.yul\":5489:5493   */\n  dup2\n    /* \"#utility.yul\":5363:5494   */\n  tag_56\n  jump\t// in\ntag_126:\n    /* \"#utility.yul\":5355:5494   */\n  swap1\n  pop\n    /* \"#utility.yul\":5082:5501   */\n  swap2\n  swap1\n  pop\n  jump\t// out\n    /* \"#utility.yul\":5507:5687   */\ntag_57:\n    /* \"#utility.yul\":5555:5632   */\n  0x4e487b7100000000000000000000000000000000000000000000000000000000\n    /* \"#utility.yul\":5552:5553   */\n  0x00\n    /* \"#utility.yul\":5545:5633   */\n  mstore\n    /* \"#utility.yul\":5652:5656   */\n  0x12\n    /* \"#utility.yul\":5649:5650   */\n  0x04\n    /* \"#utility.yul\":5642:5657   */\n  mstore\n    /* \"#utility.yul\":5676:5680   */\n  0x24\n    /* \"#utility.yul\":5673:5674   */\n  0x00\n    /* \"#utility.yul\":5666:5681   */\n  revert\n    /* \"#utility.yul\":5693:5869   */\ntag_10:\n    /* \"#utility.yul\":5725:5726   */\n  0x00\n    /* \"#utility.yul\":5742:5762   */\n  tag_129\n    /* \"#utility.yul\":5760:5761   */\n  dup3\n    /* \"#utility.yul\":5742:5762   */\n  tag_51\n  jump\t// in\ntag_129:\n    /* \"#utility.yul\":5737:5762   */\n  swap2\n  pop\n    /* \"#utility.yul\":5776:5796   */\n  tag_130\n    /* \"#utility.yul\":5794:5795   */\n  dup4\n    /* \"#utility.yul\":5776:5796   */\n  tag_51\n  jump\t// in\ntag_130:\n    /* \"#utility.yul\":5771:5796   */\n  swap3\n  pop\n    /* \"#utility.yul\":5815:5816   */\n  dup3\n    /* \"#utility.yul\":5805:5840   */\n  tag_131\n  jumpi\n    /* \"#utility.yul\":5820:5838   */\n  tag_132\n  tag_57\n  jump\t// in\ntag_132:\n    /* \"#utility.yul\":5805:5840   */\ntag_131:\n    /* \"#utility.yul\":5861:5862   */\n  dup3\n    /* \"#utility.yul\":5858:5859   */\n  dup3\n    /* \"#utility.yul\":5854:5863   */\n  mod\n    /* \"#utility.yul\":5849:5863   */\n  swap1\n  pop\n    /* \"#utility.yul\":5693:5869   */\n  swap3\n  swap2\n  pop\n  pop\n  jump\t// out\n    /* \"#utility.yul\":5875:6049   */\ntag_58:\n    /* \"#utility.yul\":6015:6041   */\n  0x4f7261636c6520636f756e74206d757374206265206f64640000000000000000\n    /* \"#utility.yul\":6011:6012   */\n  0x00\n    /* \"#utility.yul\":6003:6009   */\n  dup3\n    /* \"#utility.yul\":5999:6013   */\n  add\n    /* \"#utility.yul\":5992:6042   */\n  mstore\n    /* \"#utility.yul\":5875:6049   */\n  pop\n  jump\t// out\n    /* \"#utility.yul\":6055:6421   */\ntag_59:\n    /* \"#utility.yul\":6197:6200   */\n  0x00\n    /* \"#utility.yul\":6218:6285   */\n  tag_135\n    /* \"#utility.yul\":6282:6284   */\n  0x18\n    /* \"#utility.yul\":6277:6280   */\n  dup4\n    /* \"#utility.yul\":6218:6285   */\n  tag_54\n  jump\t// in\ntag_135:\n    /* \"#utility.yul\":6211:6285   */\n  swap2\n  pop\n    /* \"#utility.yul\":6294:6387   */\n  tag_136\n    /* \"#utility.yul\":6383:6386   */\n  dup3\n    /* \"#utility.yul\":6294:6387   */\n  tag_58\n  jump\t// in\ntag_136:\n    /* \"#utility.yul\":6412:6414   */\n  0x20\n    /* \"#utility.yul\":6407:6410   */\n  dup3\n    /* \"#utility.yul\":6403:6415   */\n  add\n    /* \"#utility.yul\":6396:6415   */\n  swap1\n  pop\n    /* \"#utility.yul\":6055:6421   */\n  swap2\n  swap1\n  pop\n  jump\t// out\n    /* \"#utility.yul\":6427:6846   */\ntag_13:\n    /* \"#utility.yul\":6593:6597   */\n  0x00\n    /* \"#utility.yul\":6631:6633   */\n  0x20\n    /* \"#utility.yul\":6620:6629   */\n  dup3\n    /* \"#utility.yul\":6616:6634   */\n  add\n    /* \"#utility.yul\":6608:6634   */\n  swap1\n  pop\n    /* \"#utility.yul\":6680:6689   */\n  dup2\n    /* \"#utility.yul\":6674:6678   */\n  dup2\n    /* \"#utility.yul\":6670:6690   */\n  sub\n    /* \"#utility.yul\":6666:6667   */\n  0x00\n    /* \"#utility.yul\":6655:6664   */\n  dup4\n    /* \"#utility.yul\":6651:6668   */\n  add\n    /* \"#utility.yul\":6644:6691   */\n  mstore\n    /* \"#utility.yul\":6708:6839   */\n  tag_138\n    /* \"#utility.yul\":6834:6838   */\n  dup2\n    /* \"#utility.yul\":6708:6839   */\n  tag_59\n  jump\t// in\ntag_138:\n    /* \"#utility.yul\":6700:6839   */\n  swap1\n  pop\n    /* \"#utility.yul\":6427:6846   */\n  swap2\n  swap1\n  pop\n  jump\t// out\n    /* \"#utility.yul\":6852:7015   */\ntag_60:\n    /* \"#utility.yul\":6992:7007   */\n  0x426164207468726573686f6c6400000000000000000000000000000000000000\n    /* \"#utility.yul\":6988:6989   */\n  0x00\n    /* \"#utility.yul\":6980:6986   */\n  dup3\n    /* \"#utility.yul\":6976:6990   */\n  add\n    /* \"#utility.yul\":6969:7008   */\n  mstore\n    /* \"#utility.yul\":6852:7015   */\n  pop\n  jump\t// out\n    /* \"#utility.yul\":7021:7387   */\ntag_61:\n    /* \"#utility.yul\":7163:7166   */\n  0x00\n    /* \"#utility.yul\":7184:7251   */\n  tag_141\n    /* \"#utility.yul\":7248:7250   */\n  0x0d\n    /* \"#utility.yul\":7243:7246   */\n  dup4\n    /* \"#utility.yul\":7184:7251   */\n  tag_54\n  jump\t// in\ntag_141:\n    /* \"#utility.yul\":7177:7251   */\n  swap2\n  pop\n    /* \"#utility.yul\":7260:7353   */\n  tag_142\n    /* \"#utility.yul\":7349:7352   */\n  dup3\n    /* \"#utility.yul\":7260:7353   */\n  tag_60\n  jump\t// in\ntag_142:\n    /* \"#utility.yul\":7378:7380   */\n  0x20\n    /* \"#utility.yul\":7373:7376   */\n  dup3\n    /* \"#utility.yul\":7369:7381   */\n  add\n    /* \"#utility.yul\":7362:7381   */\n  swap1\n  pop\n    /* \"#utility.yul\":7021:7387   */\n  swap2\n  swap1\n  pop\n  jump\t// out\n    /* \"#utility.yul\":7393:7812   */\ntag_17:\n    /* \"#utility.yul\":7559:7563   */\n  0x00\n    /* \"#utility.yul\":7597:7599   */\n  0x20\n    /* \"#utility.yul\":7586:7595   */\n  dup3\n    /* \"#utility.yul\":7582:7600   */\n  add\n    /* \"#utility.yul\":7574:7600   */\n  swap1\n  pop\n    /* \"#utility.yul\":7646:7655   */\n  dup2\n    /* \"#utility.yul\":7640:7644   */\n  dup2\n    /* \"#utility.yul\":7636:7656   */\n  sub\n    /* \"#utility.yul\":7632:7633   */\n  0x00\n    /* \"#utility.yul\":7621:7630   */\n  dup4\n    /* \"#utility.yul\":7617:7634   */\n  add\n    /* \"#utility.yul\":7610:7657   */\n  mstore\n    /* \"#utility.yul\":7674:7805   */\n  tag_144\n    /* \"#utility.yul\":7800:7804   */\n  dup2\n    /* \"#utility.yul\":7674:7805   */\n  tag_61\n  jump\t// in\ntag_144:\n    /* \"#utility.yul\":7666:7805   */\n  swap1\n  pop\n    /* \"#utility.yul\":7393:7812   */\n  swap2\n  swap1\n  pop\n  jump\t// out\n    /* \"#utility.yul\":7818:7998   */\ntag_23:\n    /* \"#utility.yul\":7866:7943   */\n  0x4e487b7100000000000000000000000000000000000000000000000000000000\n    /* \"#utility.yul\":7863:7864   */\n  0x00\n    /* \"#utility.yul\":7856:7944   */\n  mstore\n    /* \"#utility.yul\":7963:7967   */\n  0x32\n    /* \"#utility.yul\":7960:7961   */\n  0x04\n    /* \"#utility.yul\":7953:7968   */\n  mstore\n    /* \"#utility.yul\":7987:7991   */\n  0x24\n    /* \"#utility.yul\":7984:7985   */\n  0x00\n    /* \"#utility.yul\":7977:7992   */\n  revert\n    /* \"#utility.yul\":8004:8165   */\ntag_62:\n    /* \"#utility.yul\":8144:8157   */\n  0x5a65726f206f7261636c65000000000000000000000000000000000000000000\n    /* \"#utility.yul\":8140:8141   */\n  0x00\n    /* \"#utility.yul\":8132:8138   */\n  dup3\n    /* \"#utility.yul\":8128:8142   */\n  add\n    /* \"#utility.yul\":8121:8158   */\n  mstore\n    /* \"#utility.yul\":8004:8165   */\n  pop\n  jump\t// out\n    /* \"#utility.yul\":8171:8537   */\ntag_63:\n    /* \"#utility.yul\":8313:8316   */\n  0x00\n    /* \"#utility.yul\":8334:8401   */\n  tag_148\n    /* \"#utility.yul\":8398:8400   */\n  0x0b\n    /* \"#utility.yul\":8393:8396   */\n  dup4\n    /* \"#utility.yul\":8334:8401   */\n  tag_54\n  jump\t// in\ntag_148:\n    /* \"#utility.yul\":8327:8401   */\n  swap2\n  pop\n    /* \"#utility.yul\":8410:8503   */\n  tag_149\n    /* \"#utility.yul\":8499:8502   */\n  dup3\n    /* \"#utility.yul\":8410:8503   */\n  tag_62\n  jump\t// in\ntag_149:\n    /* \"#utility.yul\":8528:8530   */\n  0x20\n    /* \"#utility.yul\":8523:8526   */\n  dup3\n    /* \"#utility.yul\":8519:8531   */\n  add\n    /* \"#utility.yul\":8512:8531   */\n  swap1\n  pop\n    /* \"#utility.yul\":8171:8537   */\n  swap2\n  swap1\n  pop\n  jump\t// out\n    /* \"#utility.yul\":8543:8962   */\ntag_26:\n    /* \"#utility.yul\":8709:8713   */\n  0x00\n    /* \"#utility.yul\":8747:8749   */\n  0x20\n    /* \"#utility.yul\":8736:8745   */\n  dup3\n    /* \"#utility.yul\":8732:8750   */\n  add\n    /* \"#utility.yul\":8724:8750   */\n  swap1\n  pop\n    /* \"#utility.yul\":8796:8805   */\n  dup2\n    /* \"#utility.yul\":8790:8794   */\n  dup2\n    /* \"#utility.yul\":8786:8806   */\n  sub\n    /* \"#utility.yul\":8782:8783   */\n  0x00\n    /* \"#utility.yul\":8771:8780   */\n  dup4\n    /* \"#utility.yul\":8767:8784   */\n  add\n    /* \"#utility.yul\":8760:8807   */\n  mstore\n    /* \"#utility.yul\":8824:8955   */\n  tag_151\n    /* \"#utility.yul\":8950:8954   */\n  dup2\n    /* \"#utility.yul\":8824:8955   */\n  tag_63\n  jump\t// in\ntag_151:\n    /* \"#utility.yul\":8816:8955   */\n  swap1\n  pop\n    /* \"#utility.yul\":8543:8962   */\n  swap2\n  swap1\n  pop\n  jump\t// out\n    /* \"#utility.yul\":8968:9134   */\ntag_64:\n    /* \"#utility.yul\":9108:9126   */\n  0x4475706c6963617465206f7261636c6500000000000000000000000000000000\n    /* \"#utility.yul\":9104:9105   */\n  0x00\n    /* \"#utility.yul\":9096:9102   */\n  dup3\n    /* \"#utility.yul\":9092:9106   */\n  add\n    /* \"#utility.yul\":9085:9127   */\n  mstore\n    /* \"#utility.yul\":8968:9134   */\n  pop\n  jump\t// out\n    /* \"#utility.yul\":9140:9506   */\ntag_65:\n    /* \"#utility.yul\":9282:9285   */\n  0x00\n    /* \"#utility.yul\":9303:9370   */\n  tag_154\n    /* \"#utility.yul\":9367:9369   */\n  0x10\n    /* \"#utility.yul\":9362:9365   */\n  dup4\n    /* \"#utility.yul\":9303:9370   */\n  tag_54\n  jump\t// in\ntag_154:\n    /* \"#utility.yul\":9296:9370   */\n  swap2\n  pop\n    /* \"#utility.yul\":9379:9472   */\n  tag_155\n    /* \"#utility.yul\":9468:9471   */\n  dup3\n    /* \"#utility.yul\":9379:9472   */\n  tag_64\n  jump\t// in\ntag_155:\n    /* \"#utility.yul\":9497:9499   */\n  0x20\n    /* \"#utility.yul\":9492:9495   */\n  dup3\n    /* \"#utility.yul\":9488:9500   */\n  add\n    /* \"#utility.yul\":9481:9500   */\n  swap1\n  pop\n    /* \"#utility.yul\":9140:9506   */\n  swap2\n  swap1\n  pop\n  jump\t// out\n    /* \"#utility.yul\":9512:9931   */\ntag_29:\n    /* \"#utility.yul\":9678:9682   */\n  0x00\n    /* \"#utility.yul\":9716:9718   */\n  0x20\n    /* \"#utility.yul\":9705:9714   */\n  dup3\n    /* \"#utility.yul\":9701:9719   */\n  add\n    /* \"#utility.yul\":9693:9719   */\n  swap1\n  pop\n    /* \"#utility.yul\":9765:9774   */\n  dup2\n    /* \"#utility.yul\":9759:9763   */\n  dup2\n    /* \"#utility.yul\":9755:9775   */\n  sub\n    /* \"#utility.yul\":9751:9752   */\n  0x00\n    /* \"#utility.yul\":9740:9749   */\n  dup4\n    /* \"#utility.yul\":9736:9753   */\n  add\n    /* \"#utility.yul\":9729:9776   */\n  mstore\n    /* \"#utility.yul\":9793:9924   */\n  tag_157\n    /* \"#utility.yul\":9919:9923   */\n  dup2\n    /* \"#utility.yul\":9793:9924   */\n  tag_65\n  jump\t// in\ntag_157:\n    /* \"#utility.yul\":9785:9924   */\n  swap1\n  pop\n    /* \"#utility.yul\":9512:9931   */\n  swap2\n  swap1\n  pop\n  jump\t// out\n    /* \"#utility.yul\":9937:10117   */\ntag_66:\n    /* \"#utility.yul\":9985:10062   */\n  0x4e487b7100000000000000000000000000000000000000000000000000000000\n    /* \"#utility.yul\":9982:9983   */\n  0x00\n    /* \"#utility.yul\":9975:10063   */\n  mstore\n    /* \"#utility.yul\":10082:10086   */\n  0x11\n    /* \"#utility.yul\":10079:10080   */\n  0x04\n    /* \"#utility.yul\":10072:10087   */\n  mstore\n    /* \"#utility.yul\":10106:10110   */\n  0x24\n    /* \"#utility.yul\":10103:10104   */\n  0x00\n    /* \"#utility.yul\":10096:10111   */\n  revert\n    /* \"#utility.yul\":10123:10356   */\ntag_31:\n    /* \"#utility.yul\":10162:10165   */\n  0x00\n    /* \"#utility.yul\":10185:10209   */\n  tag_160\n    /* \"#utility.yul\":10203:10208   */\n  dup3\n    /* \"#utility.yul\":10185:10209   */\n  tag_51\n  jump\t// in\ntag_160:\n    /* \"#utility.yul\":10176:10209   */\n  swap2\n  pop\n    /* \"#utility.yul\":10231:10297   */\n  0xffffffffffffffffffffffffffffffffffffffffffffffffffffffffffffffff\n    /* \"#utility.yul\":10224:10229   */\n  dup3\n    /* \"#utility.yul\":10221:10298   */\n  sub\n    /* \"#utility.yul\":10218:10321   */\n  tag_161\n  jumpi\n    /* \"#utility.yul\":10301:10319   */\n  tag_162\n  tag_66\n  jump\t// in\ntag_162:\n    /* \"#utility.yul\":10218:10321   */\ntag_161:\n    /* \"#utility.yul\":10348:10349   */\n  0x01\n    /* \"#utility.yul\":10341:10346   */\n  dup3\n    /* \"#utility.yul\":10337:10350   */\n  add\n    /* \"#utility.yul\":10330:10350   */\n  swap1\n  pop\n    /* \"#utility.yul\":10123:10356   */\n  swap2\n  swap1\n  pop\n  jump\t// out\n    /* \"#utility.yul\":10362:10480   */\ntag_67:\n    /* \"#utility.yul\":10449:10473   */\n  tag_164\n    /* \"#utility.yul\":10467:10472   */\n  dup2\n    /* \"#utility.yul\":10449:10473   */\n  tag_51\n  jump\t// in\ntag_164:\n    /* \"#utility.yul\":10444:10447   */\n  dup3\n    /* \"#utility.yul\":10437:10474   */\n  mstore\n    /* \"#utility.yul\":10362:10480   */\n  pop\n  pop\n  jump\t// out\n    /* \"#utility.yul\":10486:10818   */\ntag_33:\n    /* \"#utility.yul\":10607:10611   */\n  0x00\n    /* \"#utility.yul\":10645:10647   */\n  0x40\n    /* \"#utility.yul\":10634:10643   */\n  dup3\n    /* \"#utility.yul\":10630:10648   */\n  add\n    /* \"#utility.yul\":10622:10648   */\n  swap1\n  pop\n    /* \"#utility.yul\":10658:10729   */\n  tag_166\n    /* \"#utility.yul\":10726:10727   */\n  0x00\n    /* \"#utility.yul\":10715:10724   */\n  dup4\n    /* \"#utility.yul\":10711:10728   */\n  add\n    /* \"#utility.yul\":10702:10708   */\n  dup6\n    /* \"#utility.yul\":10658:10729   */\n  tag_67\n  jump\t// in\ntag_166:\n    /* \"#utility.yul\":10739:10811   */\n  tag_167\n    /* \"#utility.yul\":10807:10809   */\n  0x20\n    /* \"#utility.yul\":10796:10805   */\n  dup4\n    /* \"#utility.yul\":10792:10810   */\n  add\n    /* \"#utility.yul\":10783:10789   */\n  dup5\n    /* \"#utility.yul\":10739:10811   */\n  tag_67\n  jump\t// in\ntag_167:\n    /* \"#utility.yul\":10486:10818   */\n  swap4\n  swap3\n  pop\n  pop\n  pop\n  jump\t// out\n    /* \"PartyA_OCR.sol\":482:8099  contract PartyA_OCR {... */\ntag_34:\n  mload(0x80)\n  codecopy(0x00, dataOffset(sub_0), dataSize(sub_0))\n  0x00\n  assignImmutable(\"0xceebf77a833b30520287ddd9478ff51abbdffa30aa90a8d655dba0e8a79ce0c1\")\n  return(0x00, dataSize(sub_0))\nstop\n\nsub_0: assembly {\n        /* \"PartyA_OCR.sol\":482:8099  contract PartyA_OCR {... */\n      mstore(0x40, 0x80)\n      callvalue\n      dup1\n      iszero\n      tag_1\n      jumpi\n      0x00\n      dup1\n      revert\n    tag_1:\n      pop\n      jumpi(tag_2, lt(calldatasize, 0x04))\n      shr(0xe0, calldataload(0x00))\n      dup1\n      0x668a0f02\n      gt\n      tag_21\n      jumpi\n      dup1\n      0xa97e5c93\n      gt\n      tag_22\n      jumpi\n      dup1\n      0xa97e5c93\n      eq\n      tag_16\n      jumpi\n      dup1\n      0xd486a0d2\n      eq\n      tag_17\n      jumpi\n      dup1\n      0xe966be71\n      eq\n      tag_18\n      jumpi\n      dup1\n      0xec7aaca3\n      eq\n      tag_19\n      jumpi\n      dup1\n      0xfefe0ea0\n      eq\n      tag_20\n      jumpi\n      jump(tag_2)\n    tag_22:\n      dup1\n      0x668a0f02\n      eq\n      tag_12\n      jumpi\n      dup1\n      0x6798699b\n      eq\n      tag_13\n      jumpi\n      dup1\n      0x80475516\n      eq\n      tag_14\n      jumpi\n      dup1\n      0x8cd221c9\n      eq\n      tag_15\n      jumpi\n      jump(tag_2)\n    tag_21:\n      dup1\n      0x3e66a647\n      gt\n      tag_23\n      jumpi\n      dup1\n      0x3e66a647\n      eq\n      tag_7\n      jumpi\n      dup1\n      0x4222c7fb\n      eq\n      tag_8\n      jumpi\n      dup1\n      0x4ab5cc82\n      eq\n      tag_9\n      jumpi\n      dup1\n      0x606deecd\n      eq\n      tag_10\n      jumpi\n      dup1\n      0x613d8fcc\n      eq\n      tag_11\n      jumpi\n      jump(tag_2)\n    tag_23:\n      dup1\n      0x1086bfdc\n      eq\n      tag_3\n      jumpi\n      dup1\n      0x10e1d8ca\n      eq\n      tag_4\n      jumpi\n      dup1\n      0x1d238411\n      eq\n      tag_5\n      jumpi\n      dup1\n      0x36f945cd\n      eq\n      tag_6\n      jumpi\n    tag_2:\n      0x00\n      dup1\n      revert\n        /* \"PartyA_OCR.sol\":7307:7795  function getRoundStatus(uint256 _rid)... */\n    tag_3:\n      tag_24\n      0x04\n      dup1\n      calldatasize\n      sub\n      dup2\n      add\n      swap1\n      tag_25\n      swap2\n      swap1\n      tag_26\n      jump\t// in\n    tag_25:\n      tag_27\n      jump\t// in\n    tag_24:\n      mload(0x40)\n      tag_28\n      swap7\n      swap6\n      swap5\n      swap4\n      swap3\n      swap2\n      swap1\n      tag_29\n      jump\t// in\n    tag_28:\n      mload(0x40)\n      dup1\n      swap2\n      sub\n      swap1\n      return\n        /* \"PartyA_OCR.sol\":605:636  address public immutable partyA */\n    tag_4:\n      tag_30\n      tag_31\n      jump\t// in\n    tag_30:\n      mload(0x40)\n      tag_32\n      swap2\n      swap1\n      tag_33\n      jump\t// in\n    tag_32:\n      mload(0x40)\n      dup1\n      swap2\n      sub\n      swap1\n      return\n        /* \"PartyA_OCR.sol\":880:905  uint256 public thresholdK */\n    tag_5:\n      tag_34\n      tag_35\n      jump\t// in\n    tag_34:\n      mload(0x40)\n      tag_36\n      swap2\n      swap1\n      tag_37\n      jump\t// in\n    tag_36:\n      mload(0x40)\n      dup1\n      swap2\n      sub\n      swap1\n      return\n        /* \"PartyA_OCR.sol\":3761:4021  function setTimeoutSeconds(uint256 _timeoutSeconds) external onlyPartyA {... */\n    tag_6:\n      tag_38\n      0x04\n      dup1\n      calldatasize\n      sub\n      dup2\n      add\n      swap1\n      tag_39\n      swap2\n      swap1\n      tag_26\n      jump\t// in\n    tag_39:\n      tag_40\n      jump\t// in\n    tag_38:\n      stop\n        /* \"PartyA_OCR.sol\":1186:1217  uint256 public requestTimestamp */\n    tag_7:\n      tag_41\n      tag_42\n      jump\t// in\n    tag_41:\n      mload(0x40)\n      tag_43\n      swap2\n      swap1\n      tag_37\n      jump\t// in\n    tag_43:\n      mload(0x40)\n      dup1\n      swap2\n      sub\n      swap1\n      return\n        /* \"PartyA_OCR.sol\":1105:1130  bool public dataRequested */\n    tag_8:\n      tag_44\n      tag_45\n      jump\t// in\n    tag_44:\n      mload(0x40)\n      tag_46\n      swap2\n      swap1\n      tag_47\n      jump\t// in\n    tag_46:\n      mload(0x40)\n      dup1\n      swap2\n      sub\n      swap1\n      return\n        /* \"PartyA_OCR.sol\":1259:1285  uint256 public latestValue */\n    tag_9:\n      tag_48\n      tag_49\n      jump\t// in\n    tag_48:\n      mload(0x40)\n      tag_50\n      swap2\n      swap1\n      tag_37\n      jump\t// in\n    tag_50:\n      mload(0x40)\n      dup1\n      swap2\n      sub\n      swap1\n      return\n        /* \"PartyA_OCR.sol\":4073:4316  function requestData() external onlyPartyA {... */\n    tag_10:\n      tag_51\n      tag_52\n      jump\t// in\n    tag_51:\n      stop\n        /* \"PartyA_OCR.sol\":773:799  uint256 public oracleCount */\n    tag_11:\n      tag_53\n      tag_54\n      jump\t// in\n    tag_53:\n      mload(0x40)\n      tag_55\n      swap2\n      swap1\n      tag_37\n      jump\t// in\n    tag_55:\n      mload(0x40)\n      dup1\n      swap2\n      sub\n      swap1\n      return\n        /* \"PartyA_OCR.sol\":1291:1317  uint256 public latestRound */\n    tag_12:\n      tag_56\n      tag_57\n      jump\t// in\n    tag_56:\n      mload(0x40)\n      tag_58\n      swap2\n      swap1\n      tag_37\n      jump\t// in\n    tag_58:\n      mload(0x40)\n      dup1\n      swap2\n      sub\n      swap1\n      return\n        /* \"PartyA_OCR.sol\":5763:6109  function cancelIfTimeout() external {... */\n    tag_13:\n      tag_59\n      tag_60\n      jump\t// in\n    tag_59:\n      stop\n        /* \"PartyA_OCR.sol\":950:992  uint256 public timeoutSeconds = 30 minutes */\n    tag_14:\n      tag_61\n      tag_62\n      jump\t// in\n    tag_61:\n      mload(0x40)\n      tag_63\n      swap2\n      swap1\n      tag_37\n      jump\t// in\n    tag_63:\n      mload(0x40)\n      dup1\n      swap2\n      sub\n      swap1\n      return\n        /* \"PartyA_OCR.sol\":1048:1070  uint256 public roundId */\n    tag_15:\n      tag_64\n      tag_65\n      jump\t// in\n    tag_64:\n      mload(0x40)\n      tag_66\n      swap2\n      swap1\n      tag_37\n      jump\t// in\n    tag_66:\n      mload(0x40)\n      dup1\n      swap2\n      sub\n      swap1\n      return\n        /* \"PartyA_OCR.sol\":676:716  mapping(address => bool) public isOracle */\n    tag_16:\n      tag_67\n      0x04\n      dup1\n      calldatasize\n      sub\n      dup2\n      add\n      swap1\n      tag_68\n      swap2\n      swap1\n      tag_69\n      jump\t// in\n    tag_68:\n      tag_70\n      jump\t// in\n    tag_67:\n      mload(0x40)\n      tag_71\n      swap2\n      swap1\n      tag_47\n      jump\t// in\n    tag_71:\n      mload(0x40)\n      dup1\n      swap2\n      sub\n      swap1\n      return\n        /* \"PartyA_OCR.sol\":5229:5757  function confirmReport() external onlyOracle {... */\n    tag_17:\n      tag_72\n      tag_73\n      jump\t// in\n    tag_72:\n      stop\n        /* \"PartyA_OCR.sol\":7956:8097  function hasConfirmedReport(uint256 _rid, address oracle) external view returns (bool) {... */\n    tag_18:\n      tag_74\n      0x04\n      dup1\n      calldatasize\n      sub\n      dup2\n      add\n      swap1\n      tag_75\n      swap2\n      swap1\n      tag_76\n      jump\t// in\n    tag_75:\n      tag_77\n      jump\t// in\n    tag_74:\n      mload(0x40)\n      tag_78\n      swap2\n      swap1\n      tag_47\n      jump\t// in\n    tag_78:\n      mload(0x40)\n      dup1\n      swap2\n      sub\n      swap1\n      return\n        /* \"PartyA_OCR.sol\":4397:5168  function submitObservation(uint256 value) external onlyOracle {... */\n    tag_19:\n      tag_79\n      0x04\n      dup1\n      calldatasize\n      sub\n      dup2\n      add\n      swap1\n      tag_80\n      swap2\n      swap1\n      tag_26\n      jump\t// in\n    tag_80:\n      tag_81\n      jump\t// in\n    tag_79:\n      stop\n        /* \"PartyA_OCR.sol\":7801:7950  function hasSubmittedObservation(uint256 _rid, address oracle) external view returns (bool) {... */\n    tag_20:\n      tag_82\n      0x04\n      dup1\n      calldatasize\n      sub\n      dup2\n      add\n      swap1\n      tag_83\n      swap2\n      swap1\n      tag_76\n      jump\t// in\n    tag_83:\n      tag_84\n      jump\t// in\n    tag_82:\n      mload(0x40)\n      tag_85\n      swap2\n      swap1\n      tag_47\n      jump\t// in\n    tag_85:\n      mload(0x40)\n      dup1\n      swap2\n      sub\n      swap1\n      return\n        /* \"PartyA_OCR.sol\":7307:7795  function getRoundStatus(uint256 _rid)... */\n    tag_27:\n        /* \"PartyA_OCR.sol\":7405:7416  bool active */\n      0x00\n        /* \"PartyA_OCR.sol\":7430:7446  bool reportReady */\n      dup1\n        /* \"PartyA_OCR.sol\":7460:7474  bool finalized */\n      0x00\n        /* \"PartyA_OCR.sol\":7488:7504  uint256 obsCount */\n      dup1\n        /* \"PartyA_OCR.sol\":7518:7538  uint256 confirmCount */\n      0x00\n        /* \"PartyA_OCR.sol\":7552:7571  uint256 reportValue */\n      dup1\n        /* \"PartyA_OCR.sol\":7596:7615  RoundData storage r */\n      0x00\n        /* \"PartyA_OCR.sol\":7618:7624  rounds */\n      0x09\n        /* \"PartyA_OCR.sol\":7618:7630  rounds[_rid] */\n      0x00\n        /* \"PartyA_OCR.sol\":7625:7629  _rid */\n      dup10\n        /* \"PartyA_OCR.sol\":7618:7630  rounds[_rid] */\n      dup2\n      mstore\n      0x20\n      add\n      swap1\n      dup2\n      mstore\n      0x20\n      add\n      0x00\n      keccak256\n        /* \"PartyA_OCR.sol\":7596:7630  RoundData storage r = rounds[_rid] */\n      swap1\n      pop\n        /* \"PartyA_OCR.sol\":7640:7653  bool isActive */\n      0x00\n        /* \"PartyA_OCR.sol\":7657:7670  dataRequested */\n      0x05\n      0x00\n      swap1\n      sload\n      swap1\n      0x0100\n      exp\n      swap1\n      div\n      0xff\n      and\n        /* \"PartyA_OCR.sol\":7657:7689  dataRequested && _rid == roundId */\n      dup1\n      iszero\n      tag_87\n      jumpi\n      pop\n        /* \"PartyA_OCR.sol\":7682:7689  roundId */\n      sload(0x04)\n        /* \"PartyA_OCR.sol\":7674:7678  _rid */\n      dup10\n        /* \"PartyA_OCR.sol\":7674:7689  _rid == roundId */\n      eq\n        /* \"PartyA_OCR.sol\":7657:7689  dataRequested && _rid == roundId */\n    tag_87:\n        /* \"PartyA_OCR.sol\":7640:7690  bool isActive = (dataRequested && _rid == roundId) */\n      swap1\n      pop\n        /* \"PartyA_OCR.sol\":7708:7716  isActive */\n      dup1\n        /* \"PartyA_OCR.sol\":7718:7719  r */\n      dup3\n        /* \"PartyA_OCR.sol\":7718:7731  r.reportReady */\n      0x00\n      add\n      0x00\n      swap1\n      sload\n      swap1\n      0x0100\n      exp\n      swap1\n      div\n      0xff\n      and\n        /* \"PartyA_OCR.sol\":7733:7734  r */\n      dup4\n        /* \"PartyA_OCR.sol\":7733:7744  r.finalized */\n      0x00\n      add\n      0x01\n      swap1\n      sload\n      swap1\n      0x0100\n      exp\n      swap1\n      div\n      0xff\n      and\n        /* \"PartyA_OCR.sol\":7746:7747  r */\n      dup5\n        /* \"PartyA_OCR.sol\":7746:7756  r.obsCount */\n      0x01\n      add\n      sload\n        /* \"PartyA_OCR.sol\":7758:7759  r */\n      dup6\n        /* \"PartyA_OCR.sol\":7758:7772  r.confirmCount */\n      0x02\n      add\n      sload\n        /* \"PartyA_OCR.sol\":7774:7775  r */\n      dup7\n        /* \"PartyA_OCR.sol\":7774:7787  r.reportValue */\n      0x03\n      add\n      sload\n        /* \"PartyA_OCR.sol\":7700:7788  return (isActive, r.reportReady, r.finalized, r.obsCount, r.confirmCount, r.reportValue) */\n      swap8\n      pop\n      swap8\n      pop\n      swap8\n      pop\n      swap8\n      pop\n      swap8\n      pop\n      swap8\n      pop\n      pop\n      pop\n        /* \"PartyA_OCR.sol\":7307:7795  function getRoundStatus(uint256 _rid)... */\n      swap2\n      swap4\n      swap6\n      pop\n      swap2\n      swap4\n      swap6\n      jump\t// out\n        /* \"PartyA_OCR.sol\":605:636  address public immutable partyA */\n    tag_31:\n      immutable(\"0xceebf77a833b30520287ddd9478ff51abbdffa30aa90a8d655dba0e8a79ce0c1\")\n      dup2\n      jump\t// out\n        /* \"PartyA_OCR.sol\":880:905  uint256 public thresholdK */\n    tag_35:\n      sload(0x02)\n      dup2\n      jump\t// out\n        /* \"PartyA_OCR.sol\":3761:4021  function setTimeoutSeconds(uint256 _timeoutSeconds) external onlyPartyA {... */\n    tag_40:\n        /* \"PartyA_OCR.sol\":2705:2711  partyA */\n      immutable(\"0xceebf77a833b30520287ddd9478ff51abbdffa30aa90a8d655dba0e8a79ce0c1\")\n        /* \"PartyA_OCR.sol\":2691:2711  msg.sender == partyA */\n      0xffffffffffffffffffffffffffffffffffffffff\n      and\n        /* \"PartyA_OCR.sol\":2691:2701  msg.sender */\n      caller\n        /* \"PartyA_OCR.sol\":2691:2711  msg.sender == partyA */\n      0xffffffffffffffffffffffffffffffffffffffff\n      and\n      eq\n        /* \"PartyA_OCR.sol\":2683:2726  require(msg.sender == partyA, \"Not PartyA\") */\n      tag_89\n      jumpi\n      mload(0x40)\n      0x08c379a000000000000000000000000000000000000000000000000000000000\n      dup2\n      mstore\n      0x04\n      add\n      tag_90\n      swap1\n      tag_91\n      jump\t// in\n    tag_90:\n      mload(0x40)\n      dup1\n      swap2\n      sub\n      swap1\n      revert\n    tag_89:\n        /* \"PartyA_OCR.sol\":3870:3872  60 */\n      0x3c\n        /* \"PartyA_OCR.sol\":3851:3866  _timeoutSeconds */\n      dup2\n        /* \"PartyA_OCR.sol\":3851:3872  _timeoutSeconds >= 60 */\n      lt\n      iszero\n        /* \"PartyA_OCR.sol\":3851:3901  _timeoutSeconds >= 60 && _timeoutSeconds <= 7 days */\n      dup1\n      iszero\n      tag_93\n      jumpi\n      pop\n        /* \"PartyA_OCR.sol\":3895:3901  7 days */\n      0x093a80\n        /* \"PartyA_OCR.sol\":3876:3891  _timeoutSeconds */\n      dup2\n        /* \"PartyA_OCR.sol\":3876:3901  _timeoutSeconds <= 7 days */\n      gt\n      iszero\n        /* \"PartyA_OCR.sol\":3851:3901  _timeoutSeconds >= 60 && _timeoutSeconds <= 7 days */\n    tag_93:\n        /* \"PartyA_OCR.sol\":3843:3926  require(_timeoutSeconds >= 60 && _timeoutSeconds <= 7 days, \"Timeout out of range\") */\n      tag_94\n      jumpi\n      mload(0x40)\n      0x08c379a000000000000000000000000000000000000000000000000000000000\n      dup2\n      mstore\n      0x04\n      add\n      tag_95\n      swap1\n      tag_96\n      jump\t// in\n    tag_95:\n      mload(0x40)\n      dup1\n      swap2\n      sub\n      swap1\n      revert\n    tag_94:\n        /* \"PartyA_OCR.sol\":3953:3968  _timeoutSeconds */\n      dup1\n        /* \"PartyA_OCR.sol\":3936:3950  timeoutSeconds */\n      0x03\n        /* \"PartyA_OCR.sol\":3936:3968  timeoutSeconds = _timeoutSeconds */\n      dup2\n      swap1\n      sstore\n      pop\n        /* \"PartyA_OCR.sol\":3983:4014  TimeoutUpdated(_timeoutSeconds) */\n      0x1a1cd30e223035d872019b55a16a88e0fad18aac07397d463628bf771cc10b94\n        /* \"PartyA_OCR.sol\":3998:4013  _timeoutSeconds */\n      dup2\n        /* \"PartyA_OCR.sol\":3983:4014  TimeoutUpdated(_timeoutSeconds) */\n      mload(0x40)\n      tag_97\n      swap2\n      swap1\n      tag_37\n      jump\t// in\n    tag_97:\n      mload(0x40)\n      dup1\n      swap2\n      sub\n      swap1\n      log1\n        /* \"PartyA_OCR.sol\":3761:4021  function setTimeoutSeconds(uint256 _timeoutSeconds) external onlyPartyA {... */\n      pop\n      jump\t// out\n        /* \"PartyA_OCR.sol\":1186:1217  uint256 public requestTimestamp */\n    tag_42:\n      sload(0x06)\n      dup2\n      jump\t// out\n        /* \"PartyA_OCR.sol\":1105:1130  bool public dataRequested */\n    tag_45:\n      0x05\n      0x00\n      swap1\n      sload\n      swap1\n      0x0100\n      exp\n      swap1\n      div\n      0xff\n      and\n      dup2\n      jump\t// out\n        /* \"PartyA_OCR.sol\":1259:1285  uint256 public latestValue */\n    tag_49:\n      sload(0x07)\n      dup2\n      jump\t// out\n        /* \"PartyA_OCR.sol\":4073:4316  function requestData() external onlyPartyA {... */\n    tag_52:\n        /* \"PartyA_OCR.sol\":2705:2711  partyA */\n      immutable(\"0xceebf77a833b30520287ddd9478ff51abbdffa30aa90a8d655dba0e8a79ce0c1\")\n        /* \"PartyA_OCR.sol\":2691:2711  msg.sender == partyA */\n      0xffffffffffffffffffffffffffffffffffffffff\n      and\n        /* \"PartyA_OCR.sol\":2691:2701  msg.sender */\n      caller\n        /* \"PartyA_OCR.sol\":2691:2711  msg.sender == partyA */\n      0xffffffffffffffffffffffffffffffffffffffff\n      and\n      eq\n        /* \"PartyA_OCR.sol\":2683:2726  require(msg.sender == partyA, \"Not PartyA\") */\n      tag_99\n      jumpi\n      mload(0x40)\n      0x08c379a000000000000000000000000000000000000000000000000000000000\n      dup2\n      mstore\n      0x04\n      add\n      tag_100\n      swap1\n      tag_91\n      jump\t// in\n    tag_100:\n      mload(0x40)\n      dup1\n      swap2\n      sub\n      swap1\n      revert\n    tag_99:\n        /* \"PartyA_OCR.sol\":4135:4148  dataRequested */\n      0x05\n      0x00\n      swap1\n      sload\n      swap1\n      0x0100\n      exp\n      swap1\n      div\n      0xff\n      and\n        /* \"PartyA_OCR.sol\":4134:4148  !dataRequested */\n      iszero\n        /* \"PartyA_OCR.sol\":4126:4174  require(!dataRequested, \"Previous round active\") */\n      tag_102\n      jumpi\n      mload(0x40)\n      0x08c379a000000000000000000000000000000000000000000000000000000000\n      dup2\n      mstore\n      0x04\n      add\n      tag_103\n      swap1\n      tag_104\n      jump\t// in\n    tag_103:\n      mload(0x40)\n      dup1\n      swap2\n      sub\n      swap1\n      revert\n    tag_102:\n        /* \"PartyA_OCR.sol\":4196:4197  1 */\n      0x01\n        /* \"PartyA_OCR.sol\":4185:4192  roundId */\n      0x04\n      0x00\n        /* \"PartyA_OCR.sol\":4185:4197  roundId += 1 */\n      dup3\n      dup3\n      sload\n      tag_105\n      swap2\n      swap1\n      tag_106\n      jump\t// in\n    tag_105:\n      swap3\n      pop\n      pop\n      dup2\n      swap1\n      sstore\n      pop\n        /* \"PartyA_OCR.sol\":4223:4227  true */\n      0x01\n        /* \"PartyA_OCR.sol\":4207:4220  dataRequested */\n      0x05\n      0x00\n        /* \"PartyA_OCR.sol\":4207:4227  dataRequested = true */\n      0x0100\n      exp\n      dup2\n      sload\n      dup2\n      0xff\n      mul\n      not\n      and\n      swap1\n      dup4\n      iszero\n      iszero\n      mul\n      or\n      swap1\n      sstore\n      pop\n        /* \"PartyA_OCR.sol\":4256:4271  block.timestamp */\n      timestamp\n        /* \"PartyA_OCR.sol\":4237:4253  requestTimestamp */\n      0x06\n        /* \"PartyA_OCR.sol\":4237:4271  requestTimestamp = block.timestamp */\n      dup2\n      swap1\n      sstore\n      pop\n        /* \"PartyA_OCR.sol\":4301:4308  roundId */\n      sload(0x04)\n        /* \"PartyA_OCR.sol\":4287:4309  DataRequested(roundId) */\n      0x35627151f04080049c4603628b94879b241dc64b255b7347a7632165d45ee51e\n      mload(0x40)\n      mload(0x40)\n      dup1\n      swap2\n      sub\n      swap1\n      log2\n        /* \"PartyA_OCR.sol\":4073:4316  function requestData() external onlyPartyA {... */\n      jump\t// out\n        /* \"PartyA_OCR.sol\":773:799  uint256 public oracleCount */\n    tag_54:\n      sload(0x01)\n      dup2\n      jump\t// out\n        /* \"PartyA_OCR.sol\":1291:1317  uint256 public latestRound */\n    tag_57:\n      sload(0x08)\n      dup2\n      jump\t// out\n        /* \"PartyA_OCR.sol\":5763:6109  function cancelIfTimeout() external {... */\n    tag_60:\n        /* \"PartyA_OCR.sol\":5817:5830  dataRequested */\n      0x05\n      0x00\n      swap1\n      sload\n      swap1\n      0x0100\n      exp\n      swap1\n      div\n      0xff\n      and\n        /* \"PartyA_OCR.sol\":5809:5852  require(dataRequested, \"No active request\") */\n      tag_108\n      jumpi\n      mload(0x40)\n      0x08c379a000000000000000000000000000000000000000000000000000000000\n      dup2\n      mstore\n      0x04\n      add\n      tag_109\n      swap1\n      tag_110\n      jump\t// in\n    tag_109:\n      mload(0x40)\n      dup1\n      swap2\n      sub\n      swap1\n      revert\n    tag_108:\n        /* \"PartyA_OCR.sol\":5907:5921  timeoutSeconds */\n      sload(0x03)\n        /* \"PartyA_OCR.sol\":5888:5904  requestTimestamp */\n      sload(0x06)\n        /* \"PartyA_OCR.sol\":5888:5921  requestTimestamp + timeoutSeconds */\n      tag_111\n      swap2\n      swap1\n      tag_106\n      jump\t// in\n    tag_111:\n        /* \"PartyA_OCR.sol\":5870:5885  block.timestamp */\n      timestamp\n        /* \"PartyA_OCR.sol\":5870:5921  block.timestamp > requestTimestamp + timeoutSeconds */\n      gt\n        /* \"PartyA_OCR.sol\":5862:5943  require(block.timestamp > requestTimestamp + timeoutSeconds, \"Not timed out yet\") */\n      tag_112\n      jumpi\n      mload(0x40)\n      0x08c379a000000000000000000000000000000000000000000000000000000000\n      dup2\n      mstore\n      0x04\n      add\n      tag_113\n      swap1\n      tag_114\n      jump\t// in\n    tag_113:\n      mload(0x40)\n      dup1\n      swap2\n      sub\n      swap1\n      revert\n    tag_112:\n        /* \"PartyA_OCR.sol\":5970:5975  false */\n      0x00\n        /* \"PartyA_OCR.sol\":5954:5967  dataRequested */\n      0x05\n      0x00\n        /* \"PartyA_OCR.sol\":5954:5975  dataRequested = false */\n      0x0100\n      exp\n      dup2\n      sload\n      dup2\n      0xff\n      mul\n      not\n      and\n      swap1\n      dup4\n      iszero\n      iszero\n      mul\n      or\n      swap1\n      sstore\n      pop\n        /* \"PartyA_OCR.sol\":5985:6004  RoundData storage r */\n      0x00\n        /* \"PartyA_OCR.sol\":6007:6013  rounds */\n      0x09\n        /* \"PartyA_OCR.sol\":6007:6022  rounds[roundId] */\n      0x00\n        /* \"PartyA_OCR.sol\":6014:6021  roundId */\n      sload(0x04)\n        /* \"PartyA_OCR.sol\":6007:6022  rounds[roundId] */\n      dup2\n      mstore\n      0x20\n      add\n      swap1\n      dup2\n      mstore\n      0x20\n      add\n      0x00\n      keccak256\n        /* \"PartyA_OCR.sol\":5985:6022  RoundData storage r = rounds[roundId] */\n      swap1\n      pop\n        /* \"PartyA_OCR.sol\":6046:6050  true */\n      0x01\n        /* \"PartyA_OCR.sol\":6032:6033  r */\n      dup2\n        /* \"PartyA_OCR.sol\":6032:6043  r.finalized */\n      0x00\n      add\n      0x01\n        /* \"PartyA_OCR.sol\":6032:6050  r.finalized = true */\n      0x0100\n      exp\n      dup2\n      sload\n      dup2\n      0xff\n      mul\n      not\n      and\n      swap1\n      dup4\n      iszero\n      iszero\n      mul\n      or\n      swap1\n      sstore\n      pop\n        /* \"PartyA_OCR.sol\":6083:6090  roundId */\n      sload(0x04)\n        /* \"PartyA_OCR.sol\":6066:6102  RequestCancelled(roundId, \"timeout\") */\n      0xbc1f2817c8da8aa582f7fe3340aaa9ab36778feeb860785edf2c078abc221c99\n      mload(0x40)\n      tag_115\n      swap1\n      tag_116\n      jump\t// in\n    tag_115:\n      mload(0x40)\n      dup1\n      swap2\n      sub\n      swap1\n      log2\n        /* \"PartyA_OCR.sol\":5799:6109  {... */\n      pop\n        /* \"PartyA_OCR.sol\":5763:6109  function cancelIfTimeout() external {... */\n      jump\t// out\n        /* \"PartyA_OCR.sol\":950:992  uint256 public timeoutSeconds = 30 minutes */\n    tag_62:\n      sload(0x03)\n      dup2\n      jump\t// out\n        /* \"PartyA_OCR.sol\":1048:1070  uint256 public roundId */\n    tag_65:\n      sload(0x04)\n      dup2\n      jump\t// out\n        /* \"PartyA_OCR.sol\":676:716  mapping(address => bool) public isOracle */\n    tag_70:\n      mstore(0x20, 0x00)\n      dup1\n      0x00\n      mstore\n      keccak256(0x00, 0x40)\n      0x00\n      swap2\n      pop\n      sload\n      swap1\n      0x0100\n      exp\n      swap1\n      div\n      0xff\n      and\n      dup2\n      jump\t// out\n        /* \"PartyA_OCR.sol\":5229:5757  function confirmReport() external onlyOracle {... */\n    tag_73:\n        /* \"PartyA_OCR.sol\":2790:2798  isOracle */\n      0x00\n        /* \"PartyA_OCR.sol\":2790:2810  isOracle[msg.sender] */\n      dup1\n        /* \"PartyA_OCR.sol\":2799:2809  msg.sender */\n      caller\n        /* \"PartyA_OCR.sol\":2790:2810  isOracle[msg.sender] */\n      0xffffffffffffffffffffffffffffffffffffffff\n      and\n      0xffffffffffffffffffffffffffffffffffffffff\n      and\n      dup2\n      mstore\n      0x20\n      add\n      swap1\n      dup2\n      mstore\n      0x20\n      add\n      0x00\n      keccak256\n      0x00\n      swap1\n      sload\n      swap1\n      0x0100\n      exp\n      swap1\n      div\n      0xff\n      and\n        /* \"PartyA_OCR.sol\":2782:2837  require(isOracle[msg.sender], \"Not whitelisted oracle\") */\n      tag_118\n      jumpi\n      mload(0x40)\n      0x08c379a000000000000000000000000000000000000000000000000000000000\n      dup2\n      mstore\n      0x04\n      add\n      tag_119\n      swap1\n      tag_120\n      jump\t// in\n    tag_119:\n      mload(0x40)\n      dup1\n      swap2\n      sub\n      swap1\n      revert\n    tag_118:\n        /* \"PartyA_OCR.sol\":5292:5305  dataRequested */\n      0x05\n      0x00\n      swap1\n      sload\n      swap1\n      0x0100\n      exp\n      swap1\n      div\n      0xff\n      and\n        /* \"PartyA_OCR.sol\":5284:5327  require(dataRequested, \"No active request\") */\n      tag_122\n      jumpi\n      mload(0x40)\n      0x08c379a000000000000000000000000000000000000000000000000000000000\n      dup2\n      mstore\n      0x04\n      add\n      tag_123\n      swap1\n      tag_110\n      jump\t// in\n    tag_123:\n      mload(0x40)\n      dup1\n      swap2\n      sub\n      swap1\n      revert\n    tag_122:\n        /* \"PartyA_OCR.sol\":5338:5357  RoundData storage r */\n      0x00\n        /* \"PartyA_OCR.sol\":5360:5366  rounds */\n      0x09\n        /* \"PartyA_OCR.sol\":5360:5375  rounds[roundId] */\n      0x00\n        /* \"PartyA_OCR.sol\":5367:5374  roundId */\n      sload(0x04)\n        /* \"PartyA_OCR.sol\":5360:5375  rounds[roundId] */\n      dup2\n      mstore\n      0x20\n      add\n      swap1\n      dup2\n      mstore\n      0x20\n      add\n      0x00\n      keccak256\n        /* \"PartyA_OCR.sol\":5338:5375  RoundData storage r = rounds[roundId] */\n      swap1\n      pop\n        /* \"PartyA_OCR.sol\":5393:5394  r */\n      dup1\n        /* \"PartyA_OCR.sol\":5393:5406  r.reportReady */\n      0x00\n      add\n      0x00\n      swap1\n      sload\n      swap1\n      0x0100\n      exp\n      swap1\n      div\n      0xff\n      and\n        /* \"PartyA_OCR.sol\":5385:5427  require(r.reportReady, \"Report not ready\") */\n      tag_124\n      jumpi\n      mload(0x40)\n      0x08c379a000000000000000000000000000000000000000000000000000000000\n      dup2\n      mstore\n      0x04\n      add\n      tag_125\n      swap1\n      tag_126\n      jump\t// in\n    tag_125:\n      mload(0x40)\n      dup1\n      swap2\n      sub\n      swap1\n      revert\n    tag_124:\n        /* \"PartyA_OCR.sol\":5446:5447  r */\n      dup1\n        /* \"PartyA_OCR.sol\":5446:5457  r.finalized */\n      0x00\n      add\n      0x01\n      swap1\n      sload\n      swap1\n      0x0100\n      exp\n      swap1\n      div\n      0xff\n      and\n        /* \"PartyA_OCR.sol\":5445:5457  !r.finalized */\n      iszero\n        /* \"PartyA_OCR.sol\":5437:5477  require(!r.finalized, \"Round finalized\") */\n      tag_127\n      jumpi\n      mload(0x40)\n      0x08c379a000000000000000000000000000000000000000000000000000000000\n      dup2\n      mstore\n      0x04\n      add\n      tag_128\n      swap1\n      tag_129\n      jump\t// in\n    tag_128:\n      mload(0x40)\n      dup1\n      swap2\n      sub\n      swap1\n      revert\n    tag_127:\n        /* \"PartyA_OCR.sol\":5496:5497  r */\n      dup1\n        /* \"PartyA_OCR.sol\":5496:5507  r.confirmed */\n      0x06\n      add\n        /* \"PartyA_OCR.sol\":5496:5519  r.confirmed[msg.sender] */\n      0x00\n        /* \"PartyA_OCR.sol\":5508:5518  msg.sender */\n      caller\n        /* \"PartyA_OCR.sol\":5496:5519  r.confirmed[msg.sender] */\n      0xffffffffffffffffffffffffffffffffffffffff\n      and\n      0xffffffffffffffffffffffffffffffffffffffff\n      and\n      dup2\n      mstore\n      0x20\n      add\n      swap1\n      dup2\n      mstore\n      0x20\n      add\n      0x00\n      keccak256\n      0x00\n      swap1\n      sload\n      swap1\n      0x0100\n      exp\n      swap1\n      div\n      0xff\n      and\n        /* \"PartyA_OCR.sol\":5495:5519  !r.confirmed[msg.sender] */\n      iszero\n        /* \"PartyA_OCR.sol\":5487:5541  require(!r.confirmed[msg.sender], \"Already confirmed\") */\n      tag_130\n      jumpi\n      mload(0x40)\n      0x08c379a000000000000000000000000000000000000000000000000000000000\n      dup2\n      mstore\n      0x04\n      add\n      tag_131\n      swap1\n      tag_132\n      jump\t// in\n    tag_131:\n      mload(0x40)\n      dup1\n      swap2\n      sub\n      swap1\n      revert\n    tag_130:\n        /* \"PartyA_OCR.sol\":5578:5582  true */\n      0x01\n        /* \"PartyA_OCR.sol\":5552:5553  r */\n      dup2\n        /* \"PartyA_OCR.sol\":5552:5563  r.confirmed */\n      0x06\n      add\n        /* \"PartyA_OCR.sol\":5552:5575  r.confirmed[msg.sender] */\n      0x00\n        /* \"PartyA_OCR.sol\":5564:5574  msg.sender */\n      caller\n        /* \"PartyA_OCR.sol\":5552:5575  r.confirmed[msg.sender] */\n      0xffffffffffffffffffffffffffffffffffffffff\n      and\n      0xffffffffffffffffffffffffffffffffffffffff\n      and\n      dup2\n      mstore\n      0x20\n      add\n      swap1\n      dup2\n      mstore\n      0x20\n      add\n      0x00\n      keccak256\n      0x00\n        /* \"PartyA_OCR.sol\":5552:5582  r.confirmed[msg.sender] = true */\n      0x0100\n      exp\n      dup2\n      sload\n      dup2\n      0xff\n      mul\n      not\n      and\n      swap1\n      dup4\n      iszero\n      iszero\n      mul\n      or\n      swap1\n      sstore\n      pop\n        /* \"PartyA_OCR.sol\":5610:5611  1 */\n      0x01\n        /* \"PartyA_OCR.sol\":5592:5593  r */\n      dup2\n        /* \"PartyA_OCR.sol\":5592:5606  r.confirmCount */\n      0x02\n      add\n      0x00\n        /* \"PartyA_OCR.sol\":5592:5611  r.confirmCount += 1 */\n      dup3\n      dup3\n      sload\n      tag_133\n      swap2\n      swap1\n      tag_106\n      jump\t// in\n    tag_133:\n      swap3\n      pop\n      pop\n      dup2\n      swap1\n      sstore\n      pop\n        /* \"PartyA_OCR.sol\":5655:5662  roundId */\n      sload(0x04)\n        /* \"PartyA_OCR.sol\":5643:5653  msg.sender */\n      caller\n        /* \"PartyA_OCR.sol\":5627:5663  ReportConfirmed(msg.sender, roundId) */\n      0xffffffffffffffffffffffffffffffffffffffff\n      and\n      0x752841bb8d9447c749e7137329379cd7f0b7c3321dc84512fd2c36a958c6b486\n      mload(0x40)\n      mload(0x40)\n      dup1\n      swap2\n      sub\n      swap1\n      log3\n        /* \"PartyA_OCR.sol\":5696:5706  thresholdK */\n      sload(0x02)\n        /* \"PartyA_OCR.sol\":5678:5679  r */\n      dup2\n        /* \"PartyA_OCR.sol\":5678:5692  r.confirmCount */\n      0x02\n      add\n      sload\n        /* \"PartyA_OCR.sol\":5678:5706  r.confirmCount >= thresholdK */\n      lt\n        /* \"PartyA_OCR.sol\":5674:5751  if (r.confirmCount >= thresholdK) {... */\n      tag_134\n      jumpi\n        /* \"PartyA_OCR.sol\":5722:5740  _finalize(roundId) */\n      tag_135\n        /* \"PartyA_OCR.sol\":5732:5739  roundId */\n      sload(0x04)\n        /* \"PartyA_OCR.sol\":5722:5731  _finalize */\n      tag_136\n        /* \"PartyA_OCR.sol\":5722:5740  _finalize(roundId) */\n      jump\t// in\n    tag_135:\n        /* \"PartyA_OCR.sol\":5674:5751  if (r.confirmCount >= thresholdK) {... */\n    tag_134:\n        /* \"PartyA_OCR.sol\":5274:5757  {... */\n      pop\n        /* \"PartyA_OCR.sol\":5229:5757  function confirmReport() external onlyOracle {... */\n      jump\t// out\n        /* \"PartyA_OCR.sol\":7956:8097  function hasConfirmedReport(uint256 _rid, address oracle) external view returns (bool) {... */\n    tag_77:\n        /* \"PartyA_OCR.sol\":8037:8041  bool */\n      0x00\n        /* \"PartyA_OCR.sol\":8060:8066  rounds */\n      0x09\n        /* \"PartyA_OCR.sol\":8060:8072  rounds[_rid] */\n      0x00\n        /* \"PartyA_OCR.sol\":8067:8071  _rid */\n      dup5\n        /* \"PartyA_OCR.sol\":8060:8072  rounds[_rid] */\n      dup2\n      mstore\n      0x20\n      add\n      swap1\n      dup2\n      mstore\n      0x20\n      add\n      0x00\n      keccak256\n        /* \"PartyA_OCR.sol\":8060:8082  rounds[_rid].confirmed */\n      0x06\n      add\n        /* \"PartyA_OCR.sol\":8060:8090  rounds[_rid].confirmed[oracle] */\n      0x00\n        /* \"PartyA_OCR.sol\":8083:8089  oracle */\n      dup4\n        /* \"PartyA_OCR.sol\":8060:8090  rounds[_rid].confirmed[oracle] */\n      0xffffffffffffffffffffffffffffffffffffffff\n      and\n      0xffffffffffffffffffffffffffffffffffffffff\n      and\n      dup2\n      mstore\n      0x20\n      add\n      swap1\n      dup2\n      mstore\n      0x20\n      add\n      0x00\n      keccak256\n      0x00\n      swap1\n      sload\n      swap1\n      0x0100\n      exp\n      swap1\n      div\n      0xff\n      and\n        /* \"PartyA_OCR.sol\":8053:8090  return rounds[_rid].confirmed[oracle] */\n      swap1\n      pop\n        /* \"PartyA_OCR.sol\":7956:8097  function hasConfirmedReport(uint256 _rid, address oracle) external view returns (bool) {... */\n      swap3\n      swap2\n      pop\n      pop\n      jump\t// out\n        /* \"PartyA_OCR.sol\":4397:5168  function submitObservation(uint256 value) external onlyOracle {... */\n    tag_81:\n        /* \"PartyA_OCR.sol\":2790:2798  isOracle */\n      0x00\n        /* \"PartyA_OCR.sol\":2790:2810  isOracle[msg.sender] */\n      dup1\n        /* \"PartyA_OCR.sol\":2799:2809  msg.sender */\n      caller\n        /* \"PartyA_OCR.sol\":2790:2810  isOracle[msg.sender] */\n      0xffffffffffffffffffffffffffffffffffffffff\n      and\n      0xffffffffffffffffffffffffffffffffffffffff\n      and\n      dup2\n      mstore\n      0x20\n      add\n      swap1\n      dup2\n      mstore\n      0x20\n      add\n      0x00\n      keccak256\n      0x00\n      swap1\n      sload\n      swap1\n      0x0100\n      exp\n      swap1\n      div\n      0xff\n      and\n        /* \"PartyA_OCR.sol\":2782:2837  require(isOracle[msg.sender], \"Not whitelisted oracle\") */\n      tag_139\n      jumpi\n      mload(0x40)\n      0x08c379a000000000000000000000000000000000000000000000000000000000\n      dup2\n      mstore\n      0x04\n      add\n      tag_140\n      swap1\n      tag_120\n      jump\t// in\n    tag_140:\n      mload(0x40)\n      dup1\n      swap2\n      sub\n      swap1\n      revert\n    tag_139:\n        /* \"PartyA_OCR.sol\":4477:4490  dataRequested */\n      0x05\n      0x00\n      swap1\n      sload\n      swap1\n      0x0100\n      exp\n      swap1\n      div\n      0xff\n      and\n        /* \"PartyA_OCR.sol\":4469:4512  require(dataRequested, \"No active request\") */\n      tag_142\n      jumpi\n      mload(0x40)\n      0x08c379a000000000000000000000000000000000000000000000000000000000\n      dup2\n      mstore\n      0x04\n      add\n      tag_143\n      swap1\n      tag_110\n      jump\t// in\n    tag_143:\n      mload(0x40)\n      dup1\n      swap2\n      sub\n      swap1\n      revert\n    tag_142:\n        /* \"PartyA_OCR.sol\":4523:4542  RoundData storage r */\n      0x00\n        /* \"PartyA_OCR.sol\":4545:4551  rounds */\n      0x09\n        /* \"PartyA_OCR.sol\":4545:4560  rounds[roundId] */\n      0x00\n        /* \"PartyA_OCR.sol\":4552:4559  roundId */\n      sload(0x04)\n        /* \"PartyA_OCR.sol\":4545:4560  rounds[roundId] */\n      dup2\n      mstore\n      0x20\n      add\n      swap1\n      dup2\n      mstore\n      0x20\n      add\n      0x00\n      keccak256\n        /* \"PartyA_OCR.sol\":4523:4560  RoundData storage r = rounds[roundId] */\n      swap1\n      pop\n        /* \"PartyA_OCR.sol\":4579:4580  r */\n      dup1\n        /* \"PartyA_OCR.sol\":4579:4590  r.finalized */\n      0x00\n      add\n      0x01\n      swap1\n      sload\n      swap1\n      0x0100\n      exp\n      swap1\n      div\n      0xff\n      and\n        /* \"PartyA_OCR.sol\":4578:4590  !r.finalized */\n      iszero\n        /* \"PartyA_OCR.sol\":4570:4610  require(!r.finalized, \"Round finalized\") */\n      tag_144\n      jumpi\n      mload(0x40)\n      0x08c379a000000000000000000000000000000000000000000000000000000000\n      dup2\n      mstore\n      0x04\n      add\n      tag_145\n      swap1\n      tag_129\n      jump\t// in\n    tag_145:\n      mload(0x40)\n      dup1\n      swap2\n      sub\n      swap1\n      revert\n    tag_144:\n        /* \"PartyA_OCR.sol\":4629:4630  r */\n      dup1\n        /* \"PartyA_OCR.sol\":4629:4643  r.obsSubmitted */\n      0x05\n      add\n        /* \"PartyA_OCR.sol\":4629:4655  r.obsSubmitted[msg.sender] */\n      0x00\n        /* \"PartyA_OCR.sol\":4644:4654  msg.sender */\n      caller\n        /* \"PartyA_OCR.sol\":4629:4655  r.obsSubmitted[msg.sender] */\n      0xffffffffffffffffffffffffffffffffffffffff\n      and\n      0xffffffffffffffffffffffffffffffffffffffff\n      and\n      dup2\n      mstore\n      0x20\n      add\n      swap1\n      dup2\n      mstore\n      0x20\n      add\n      0x00\n      keccak256\n      0x00\n      swap1\n      sload\n      swap1\n      0x0100\n      exp\n      swap1\n      div\n      0xff\n      and\n        /* \"PartyA_OCR.sol\":4628:4655  !r.obsSubmitted[msg.sender] */\n      iszero\n        /* \"PartyA_OCR.sol\":4620:4689  require(!r.obsSubmitted[msg.sender], \"Observation already submitted\") */\n      tag_146\n      jumpi\n      mload(0x40)\n      0x08c379a000000000000000000000000000000000000000000000000000000000\n      dup2\n      mstore\n      0x04\n      add\n      tag_147\n      swap1\n      tag_148\n      jump\t// in\n    tag_147:\n      mload(0x40)\n      dup1\n      swap2\n      sub\n      swap1\n      revert\n    tag_146:\n        /* \"PartyA_OCR.sol\":4729:4733  true */\n      0x01\n        /* \"PartyA_OCR.sol\":4700:4701  r */\n      dup2\n        /* \"PartyA_OCR.sol\":4700:4714  r.obsSubmitted */\n      0x05\n      add\n        /* \"PartyA_OCR.sol\":4700:4726  r.obsSubmitted[msg.sender] */\n      0x00\n        /* \"PartyA_OCR.sol\":4715:4725  msg.sender */\n      caller\n        /* \"PartyA_OCR.sol\":4700:4726  r.obsSubmitted[msg.sender] */\n      0xffffffffffffffffffffffffffffffffffffffff\n      and\n      0xffffffffffffffffffffffffffffffffffffffff\n      and\n      dup2\n      mstore\n      0x20\n      add\n      swap1\n      dup2\n      mstore\n      0x20\n      add\n      0x00\n      keccak256\n      0x00\n        /* \"PartyA_OCR.sol\":4700:4733  r.obsSubmitted[msg.sender] = true */\n      0x0100\n      exp\n      dup2\n      sload\n      dup2\n      0xff\n      mul\n      not\n      and\n      swap1\n      dup4\n      iszero\n      iszero\n      mul\n      or\n      swap1\n      sstore\n      pop\n        /* \"PartyA_OCR.sol\":4757:4758  1 */\n      0x01\n        /* \"PartyA_OCR.sol\":4743:4744  r */\n      dup2\n        /* \"PartyA_OCR.sol\":4743:4753  r.obsCount */\n      0x01\n      add\n      0x00\n        /* \"PartyA_OCR.sol\":4743:4758  r.obsCount += 1 */\n      dup3\n      dup3\n      sload\n      tag_149\n      swap2\n      swap1\n      tag_106\n      jump\t// in\n    tag_149:\n      swap3\n      pop\n      pop\n      dup2\n      swap1\n      sstore\n      pop\n        /* \"PartyA_OCR.sol\":4768:4769  r */\n      dup1\n        /* \"PartyA_OCR.sol\":4768:4779  r.obsValues */\n      0x04\n      add\n        /* \"PartyA_OCR.sol\":4785:4790  value */\n      dup3\n        /* \"PartyA_OCR.sol\":4768:4791  r.obsValues.push(value) */\n      swap1\n      dup1\n      0x01\n      dup2\n      sload\n      add\n      dup1\n      dup3\n      sstore\n      dup1\n      swap2\n      pop\n      pop\n      0x01\n      swap1\n      sub\n      swap1\n      0x00\n      mstore\n      keccak256(0x00, 0x20)\n      add\n      0x00\n      swap1\n      swap2\n      swap1\n      swap2\n      swap1\n      swap2\n      pop\n      sstore\n        /* \"PartyA_OCR.sol\":4840:4847  roundId */\n      sload(0x04)\n        /* \"PartyA_OCR.sol\":4828:4838  msg.sender */\n      caller\n        /* \"PartyA_OCR.sol\":4807:4855  ObservationSubmitted(msg.sender, roundId, value) */\n      0xffffffffffffffffffffffffffffffffffffffff\n      and\n      0x469a3191359dfdfd5de3f3cd7cd92be8ff1cae1508ef03736457accd35f331af\n        /* \"PartyA_OCR.sol\":4849:4854  value */\n      dup5\n        /* \"PartyA_OCR.sol\":4807:4855  ObservationSubmitted(msg.sender, roundId, value) */\n      mload(0x40)\n      tag_151\n      swap2\n      swap1\n      tag_37\n      jump\t// in\n    tag_151:\n      mload(0x40)\n      dup1\n      swap2\n      sub\n      swap1\n      log3\n        /* \"PartyA_OCR.sol\":4958:4969  oracleCount */\n      sload(0x01)\n        /* \"PartyA_OCR.sol\":4944:4945  r */\n      dup2\n        /* \"PartyA_OCR.sol\":4944:4954  r.obsCount */\n      0x01\n      add\n      sload\n        /* \"PartyA_OCR.sol\":4944:4969  r.obsCount == oracleCount */\n      eq\n        /* \"PartyA_OCR.sol\":4944:4987  r.obsCount == oracleCount && !r.reportReady */\n      dup1\n      iszero\n      tag_152\n      jumpi\n      pop\n        /* \"PartyA_OCR.sol\":4974:4975  r */\n      dup1\n        /* \"PartyA_OCR.sol\":4974:4987  r.reportReady */\n      0x00\n      add\n      0x00\n      swap1\n      sload\n      swap1\n      0x0100\n      exp\n      swap1\n      div\n      0xff\n      and\n        /* \"PartyA_OCR.sol\":4973:4987  !r.reportReady */\n      iszero\n        /* \"PartyA_OCR.sol\":4944:4987  r.obsCount == oracleCount && !r.reportReady */\n    tag_152:\n        /* \"PartyA_OCR.sol\":4940:5162  if (r.obsCount == oracleCount && !r.reportReady) {... */\n      iszero\n      tag_153\n      jumpi\n        /* \"PartyA_OCR.sol\":5003:5014  uint256 med */\n      0x00\n        /* \"PartyA_OCR.sol\":5017:5037  _median(r.obsValues) */\n      tag_154\n        /* \"PartyA_OCR.sol\":5025:5026  r */\n      dup3\n        /* \"PartyA_OCR.sol\":5025:5036  r.obsValues */\n      0x04\n      add\n        /* \"PartyA_OCR.sol\":5017:5024  _median */\n      tag_155\n        /* \"PartyA_OCR.sol\":5017:5037  _median(r.obsValues) */\n      jump\t// in\n    tag_154:\n        /* \"PartyA_OCR.sol\":5003:5037  uint256 med = _median(r.obsValues) */\n      swap1\n      pop\n        /* \"PartyA_OCR.sol\":5067:5070  med */\n      dup1\n        /* \"PartyA_OCR.sol\":5051:5052  r */\n      dup3\n        /* \"PartyA_OCR.sol\":5051:5064  r.reportValue */\n      0x03\n      add\n        /* \"PartyA_OCR.sol\":5051:5070  r.reportValue = med */\n      dup2\n      swap1\n      sstore\n      pop\n        /* \"PartyA_OCR.sol\":5100:5104  true */\n      0x01\n        /* \"PartyA_OCR.sol\":5084:5085  r */\n      dup3\n        /* \"PartyA_OCR.sol\":5084:5097  r.reportReady */\n      0x00\n      add\n      0x00\n        /* \"PartyA_OCR.sol\":5084:5104  r.reportReady = true */\n      0x0100\n      exp\n      dup2\n      sload\n      dup2\n      0xff\n      mul\n      not\n      and\n      swap1\n      dup4\n      iszero\n      iszero\n      mul\n      or\n      swap1\n      sstore\n      pop\n        /* \"PartyA_OCR.sol\":5138:5145  roundId */\n      sload(0x04)\n        /* \"PartyA_OCR.sol\":5123:5151  ReportComputed(roundId, med) */\n      0x953143e8b5ab8e3f4585a4994f5ba2b58c7e78d378d1a156ce67e54374afddee\n        /* \"PartyA_OCR.sol\":5147:5150  med */\n      dup3\n        /* \"PartyA_OCR.sol\":5123:5151  ReportComputed(roundId, med) */\n      mload(0x40)\n      tag_156\n      swap2\n      swap1\n      tag_37\n      jump\t// in\n    tag_156:\n      mload(0x40)\n      dup1\n      swap2\n      sub\n      swap1\n      log2\n        /* \"PartyA_OCR.sol\":4989:5162  {... */\n      pop\n        /* \"PartyA_OCR.sol\":4940:5162  if (r.obsCount == oracleCount && !r.reportReady) {... */\n    tag_153:\n        /* \"PartyA_OCR.sol\":4459:5168  {... */\n      pop\n        /* \"PartyA_OCR.sol\":4397:5168  function submitObservation(uint256 value) external onlyOracle {... */\n      pop\n      jump\t// out\n        /* \"PartyA_OCR.sol\":7801:7950  function hasSubmittedObservation(uint256 _rid, address oracle) external view returns (bool) {... */\n    tag_84:\n        /* \"PartyA_OCR.sol\":7887:7891  bool */\n      0x00\n        /* \"PartyA_OCR.sol\":7910:7916  rounds */\n      0x09\n        /* \"PartyA_OCR.sol\":7910:7922  rounds[_rid] */\n      0x00\n        /* \"PartyA_OCR.sol\":7917:7921  _rid */\n      dup5\n        /* \"PartyA_OCR.sol\":7910:7922  rounds[_rid] */\n      dup2\n      mstore\n      0x20\n      add\n      swap1\n      dup2\n      mstore\n      0x20\n      add\n      0x00\n      keccak256\n        /* \"PartyA_OCR.sol\":7910:7935  rounds[_rid].obsSubmitted */\n      0x05\n      add\n        /* \"PartyA_OCR.sol\":7910:7943  rounds[_rid].obsSubmitted[oracle] */\n      0x00\n        /* \"PartyA_OCR.sol\":7936:7942  oracle */\n      dup4\n        /* \"PartyA_OCR.sol\":7910:7943  rounds[_rid].obsSubmitted[oracle] */\n      0xffffffffffffffffffffffffffffffffffffffff\n      and\n      0xffffffffffffffffffffffffffffffffffffffff\n      and\n      dup2\n      mstore\n      0x20\n      add\n      swap1\n      dup2\n      mstore\n      0x20\n      add\n      0x00\n      keccak256\n      0x00\n      swap1\n      sload\n      swap1\n      0x0100\n      exp\n      swap1\n      div\n      0xff\n      and\n        /* \"PartyA_OCR.sol\":7903:7943  return rounds[_rid].obsSubmitted[oracle] */\n      swap1\n      pop\n        /* \"PartyA_OCR.sol\":7801:7950  function hasSubmittedObservation(uint256 _rid, address oracle) external view returns (bool) {... */\n      swap3\n      swap2\n      pop\n      pop\n      jump\t// out\n        /* \"PartyA_OCR.sol\":6161:6599  function _finalize(uint256 _rid) internal {... */\n    tag_136:\n        /* \"PartyA_OCR.sol\":6213:6232  RoundData storage r */\n      0x00\n        /* \"PartyA_OCR.sol\":6235:6241  rounds */\n      0x09\n        /* \"PartyA_OCR.sol\":6235:6247  rounds[_rid] */\n      0x00\n        /* \"PartyA_OCR.sol\":6242:6246  _rid */\n      dup4\n        /* \"PartyA_OCR.sol\":6235:6247  rounds[_rid] */\n      dup2\n      mstore\n      0x20\n      add\n      swap1\n      dup2\n      mstore\n      0x20\n      add\n      0x00\n      keccak256\n        /* \"PartyA_OCR.sol\":6213:6247  RoundData storage r = rounds[_rid] */\n      swap1\n      pop\n        /* \"PartyA_OCR.sol\":6265:6266  r */\n      dup1\n        /* \"PartyA_OCR.sol\":6265:6278  r.reportReady */\n      0x00\n      add\n      0x00\n      swap1\n      sload\n      swap1\n      0x0100\n      exp\n      swap1\n      div\n      0xff\n      and\n        /* \"PartyA_OCR.sol\":6257:6299  require(r.reportReady, \"Report not ready\") */\n      tag_159\n      jumpi\n      mload(0x40)\n      0x08c379a000000000000000000000000000000000000000000000000000000000\n      dup2\n      mstore\n      0x04\n      add\n      tag_160\n      swap1\n      tag_126\n      jump\t// in\n    tag_160:\n      mload(0x40)\n      dup1\n      swap2\n      sub\n      swap1\n      revert\n    tag_159:\n        /* \"PartyA_OCR.sol\":6318:6319  r */\n      dup1\n        /* \"PartyA_OCR.sol\":6318:6329  r.finalized */\n      0x00\n      add\n      0x01\n      swap1\n      sload\n      swap1\n      0x0100\n      exp\n      swap1\n      div\n      0xff\n      and\n        /* \"PartyA_OCR.sol\":6317:6329  !r.finalized */\n      iszero\n        /* \"PartyA_OCR.sol\":6309:6351  require(!r.finalized, \"Already finalized\") */\n      tag_161\n      jumpi\n      mload(0x40)\n      0x08c379a000000000000000000000000000000000000000000000000000000000\n      dup2\n      mstore\n      0x04\n      add\n      tag_162\n      swap1\n      tag_163\n      jump\t// in\n    tag_162:\n      mload(0x40)\n      dup1\n      swap2\n      sub\n      swap1\n      revert\n    tag_161:\n        /* \"PartyA_OCR.sol\":6387:6397  thresholdK */\n      sload(0x02)\n        /* \"PartyA_OCR.sol\":6369:6370  r */\n      dup2\n        /* \"PartyA_OCR.sol\":6369:6383  r.confirmCount */\n      0x02\n      add\n      sload\n        /* \"PartyA_OCR.sol\":6369:6397  r.confirmCount >= thresholdK */\n      lt\n      iszero\n        /* \"PartyA_OCR.sol\":6361:6420  require(r.confirmCount >= thresholdK, \"Quorum not reached\") */\n      tag_164\n      jumpi\n      mload(0x40)\n      0x08c379a000000000000000000000000000000000000000000000000000000000\n      dup2\n      mstore\n      0x04\n      add\n      tag_165\n      swap1\n      tag_166\n      jump\t// in\n    tag_165:\n      mload(0x40)\n      dup1\n      swap2\n      sub\n      swap1\n      revert\n    tag_164:\n        /* \"PartyA_OCR.sol\":6445:6449  true */\n      0x01\n        /* \"PartyA_OCR.sol\":6431:6432  r */\n      dup2\n        /* \"PartyA_OCR.sol\":6431:6442  r.finalized */\n      0x00\n      add\n      0x01\n        /* \"PartyA_OCR.sol\":6431:6449  r.finalized = true */\n      0x0100\n      exp\n      dup2\n      sload\n      dup2\n      0xff\n      mul\n      not\n      and\n      swap1\n      dup4\n      iszero\n      iszero\n      mul\n      or\n      swap1\n      sstore\n      pop\n        /* \"PartyA_OCR.sol\":6475:6480  false */\n      0x00\n        /* \"PartyA_OCR.sol\":6459:6472  dataRequested */\n      0x05\n      0x00\n        /* \"PartyA_OCR.sol\":6459:6480  dataRequested = false */\n      0x0100\n      exp\n      dup2\n      sload\n      dup2\n      0xff\n      mul\n      not\n      and\n      swap1\n      dup4\n      iszero\n      iszero\n      mul\n      or\n      swap1\n      sstore\n      pop\n        /* \"PartyA_OCR.sol\":6505:6506  r */\n      dup1\n        /* \"PartyA_OCR.sol\":6505:6518  r.reportValue */\n      0x03\n      add\n      sload\n        /* \"PartyA_OCR.sol\":6491:6502  latestValue */\n      0x07\n        /* \"PartyA_OCR.sol\":6491:6518  latestValue = r.reportValue */\n      dup2\n      swap1\n      sstore\n      pop\n        /* \"PartyA_OCR.sol\":6542:6546  _rid */\n      dup2\n        /* \"PartyA_OCR.sol\":6528:6539  latestRound */\n      0x08\n        /* \"PartyA_OCR.sol\":6528:6546  latestRound = _rid */\n      dup2\n      swap1\n      sstore\n      pop\n        /* \"PartyA_OCR.sol\":6572:6576  _rid */\n      dup2\n        /* \"PartyA_OCR.sol\":6562:6592  Finalized(_rid, r.reportValue) */\n      0xb968440accd1ce5fa60b00de8bb8d8487eb2fda3c3701fb30fea3f69aa910a48\n        /* \"PartyA_OCR.sol\":6578:6579  r */\n      dup3\n        /* \"PartyA_OCR.sol\":6578:6591  r.reportValue */\n      0x03\n      add\n      sload\n        /* \"PartyA_OCR.sol\":6562:6592  Finalized(_rid, r.reportValue) */\n      mload(0x40)\n      tag_167\n      swap2\n      swap1\n      tag_37\n      jump\t// in\n    tag_167:\n      mload(0x40)\n      dup1\n      swap2\n      sub\n      swap1\n      log2\n        /* \"PartyA_OCR.sol\":6203:6599  {... */\n      pop\n        /* \"PartyA_OCR.sol\":6161:6599  function _finalize(uint256 _rid) internal {... */\n      pop\n      jump\t// out\n        /* \"PartyA_OCR.sol\":6605:7233  function _median(uint256[] storage valuesStorage) internal view returns (uint256) {... */\n    tag_155:\n        /* \"PartyA_OCR.sol\":6678:6685  uint256 */\n      0x00\n        /* \"PartyA_OCR.sol\":6697:6706  uint256 n */\n      dup1\n        /* \"PartyA_OCR.sol\":6709:6722  valuesStorage */\n      dup3\n        /* \"PartyA_OCR.sol\":6709:6729  valuesStorage.length */\n      dup1\n      sload\n      swap1\n      pop\n        /* \"PartyA_OCR.sol\":6697:6729  uint256 n = valuesStorage.length */\n      swap1\n      pop\n        /* \"PartyA_OCR.sol\":6752:6763  oracleCount */\n      sload(0x01)\n        /* \"PartyA_OCR.sol\":6747:6748  n */\n      dup2\n        /* \"PartyA_OCR.sol\":6747:6763  n == oracleCount */\n      eq\n        /* \"PartyA_OCR.sol\":6739:6790  require(n == oracleCount, \"Need full observations\") */\n      tag_169\n      jumpi\n      mload(0x40)\n      0x08c379a000000000000000000000000000000000000000000000000000000000\n      dup2\n      mstore\n      0x04\n      add\n      tag_170\n      swap1\n      tag_171\n      jump\t// in\n    tag_170:\n      mload(0x40)\n      dup1\n      swap2\n      sub\n      swap1\n      revert\n    tag_169:\n        /* \"PartyA_OCR.sol\":6801:6819  uint256[] memory a */\n      0x00\n        /* \"PartyA_OCR.sol\":6836:6837  n */\n      dup2\n        /* \"PartyA_OCR.sol\":6822:6838  new uint256[](n) */\n      0xffffffffffffffff\n      dup2\n      gt\n      iszero\n      tag_172\n      jumpi\n      tag_173\n      tag_174\n      jump\t// in\n    tag_173:\n    tag_172:\n      mload(0x40)\n      swap1\n      dup1\n      dup3\n      mstore\n      dup1\n      0x20\n      mul\n      0x20\n      add\n      dup3\n      add\n      0x40\n      mstore\n      dup1\n      iszero\n      tag_175\n      jumpi\n      dup2\n      0x20\n      add\n      0x20\n      dup3\n      mul\n      dup1\n      calldatasize\n      dup4\n      calldatacopy\n      dup1\n      dup3\n      add\n      swap2\n      pop\n      pop\n      swap1\n      pop\n    tag_175:\n      pop\n        /* \"PartyA_OCR.sol\":6801:6838  uint256[] memory a = new uint256[](n) */\n      swap1\n      pop\n        /* \"PartyA_OCR.sol\":6853:6862  uint256 i */\n      0x00\n        /* \"PartyA_OCR.sol\":6848:6903  for (uint256 i = 0; i < n; i++) a[i] = valuesStorage[i] */\n    tag_176:\n        /* \"PartyA_OCR.sol\":6872:6873  n */\n      dup3\n        /* \"PartyA_OCR.sol\":6868:6869  i */\n      dup2\n        /* \"PartyA_OCR.sol\":6868:6873  i < n */\n      lt\n        /* \"PartyA_OCR.sol\":6848:6903  for (uint256 i = 0; i < n; i++) a[i] = valuesStorage[i] */\n      iszero\n      tag_177\n      jumpi\n        /* \"PartyA_OCR.sol\":6887:6900  valuesStorage */\n      dup5\n        /* \"PartyA_OCR.sol\":6901:6902  i */\n      dup2\n        /* \"PartyA_OCR.sol\":6887:6903  valuesStorage[i] */\n      dup2\n      sload\n      dup2\n      lt\n      tag_179\n      jumpi\n      tag_180\n      tag_181\n      jump\t// in\n    tag_180:\n    tag_179:\n      swap1\n      0x00\n      mstore\n      keccak256(0x00, 0x20)\n      add\n      sload\n        /* \"PartyA_OCR.sol\":6880:6881  a */\n      dup3\n        /* \"PartyA_OCR.sol\":6882:6883  i */\n      dup3\n        /* \"PartyA_OCR.sol\":6880:6884  a[i] */\n      dup2\n      mload\n      dup2\n      lt\n      tag_183\n      jumpi\n      tag_184\n      tag_181\n      jump\t// in\n    tag_184:\n    tag_183:\n      0x20\n      mul\n      0x20\n      add\n      add\n        /* \"PartyA_OCR.sol\":6880:6903  a[i] = valuesStorage[i] */\n      dup2\n      dup2\n      mstore\n      pop\n      pop\n        /* \"PartyA_OCR.sol\":6875:6878  i++ */\n      dup1\n      dup1\n      tag_185\n      swap1\n      tag_186\n      jump\t// in\n    tag_185:\n      swap2\n      pop\n      pop\n        /* \"PartyA_OCR.sol\":6848:6903  for (uint256 i = 0; i < n; i++) a[i] = valuesStorage[i] */\n      jump(tag_176)\n    tag_177:\n      pop\n        /* \"PartyA_OCR.sol\":6966:6975  uint256 i */\n      0x00\n        /* \"PartyA_OCR.sol\":6978:6979  1 */\n      0x01\n        /* \"PartyA_OCR.sol\":6966:6979  uint256 i = 1 */\n      swap1\n      pop\n        /* \"PartyA_OCR.sol\":6961:7201  for (uint256 i = 1; i < n; i++) {... */\n    tag_187:\n        /* \"PartyA_OCR.sol\":6985:6986  n */\n      dup3\n        /* \"PartyA_OCR.sol\":6981:6982  i */\n      dup2\n        /* \"PartyA_OCR.sol\":6981:6986  i < n */\n      lt\n        /* \"PartyA_OCR.sol\":6961:7201  for (uint256 i = 1; i < n; i++) {... */\n      iszero\n      tag_188\n      jumpi\n        /* \"PartyA_OCR.sol\":7007:7018  uint256 key */\n      0x00\n        /* \"PartyA_OCR.sol\":7021:7022  a */\n      dup3\n        /* \"PartyA_OCR.sol\":7023:7024  i */\n      dup3\n        /* \"PartyA_OCR.sol\":7021:7025  a[i] */\n      dup2\n      mload\n      dup2\n      lt\n      tag_190\n      jumpi\n      tag_191\n      tag_181\n      jump\t// in\n    tag_191:\n    tag_190:\n      0x20\n      mul\n      0x20\n      add\n      add\n      mload\n        /* \"PartyA_OCR.sol\":7007:7025  uint256 key = a[i] */\n      swap1\n      pop\n        /* \"PartyA_OCR.sol\":7039:7048  uint256 j */\n      0x00\n        /* \"PartyA_OCR.sol\":7051:7052  i */\n      dup3\n        /* \"PartyA_OCR.sol\":7039:7052  uint256 j = i */\n      swap1\n      pop\n        /* \"PartyA_OCR.sol\":7066:7167  while (j > 0 && a[j - 1] > key) {... */\n    tag_192:\n        /* \"PartyA_OCR.sol\":7077:7078  0 */\n      0x00\n        /* \"PartyA_OCR.sol\":7073:7074  j */\n      dup2\n        /* \"PartyA_OCR.sol\":7073:7078  j > 0 */\n      gt\n        /* \"PartyA_OCR.sol\":7073:7096  j > 0 && a[j - 1] > key */\n      dup1\n      iszero\n      tag_194\n      jumpi\n      pop\n        /* \"PartyA_OCR.sol\":7093:7096  key */\n      dup2\n        /* \"PartyA_OCR.sol\":7082:7083  a */\n      dup5\n        /* \"PartyA_OCR.sol\":7088:7089  1 */\n      0x01\n        /* \"PartyA_OCR.sol\":7084:7085  j */\n      dup4\n        /* \"PartyA_OCR.sol\":7084:7089  j - 1 */\n      tag_195\n      swap2\n      swap1\n      tag_196\n      jump\t// in\n    tag_195:\n        /* \"PartyA_OCR.sol\":7082:7090  a[j - 1] */\n      dup2\n      mload\n      dup2\n      lt\n      tag_197\n      jumpi\n      tag_198\n      tag_181\n      jump\t// in\n    tag_198:\n    tag_197:\n      0x20\n      mul\n      0x20\n      add\n      add\n      mload\n        /* \"PartyA_OCR.sol\":7082:7096  a[j - 1] > key */\n      gt\n        /* \"PartyA_OCR.sol\":7073:7096  j > 0 && a[j - 1] > key */\n    tag_194:\n        /* \"PartyA_OCR.sol\":7066:7167  while (j > 0 && a[j - 1] > key) {... */\n      iszero\n      tag_193\n      jumpi\n        /* \"PartyA_OCR.sol\":7123:7124  a */\n      dup4\n        /* \"PartyA_OCR.sol\":7129:7130  1 */\n      0x01\n        /* \"PartyA_OCR.sol\":7125:7126  j */\n      dup3\n        /* \"PartyA_OCR.sol\":7125:7130  j - 1 */\n      tag_199\n      swap2\n      swap1\n      tag_196\n      jump\t// in\n    tag_199:\n        /* \"PartyA_OCR.sol\":7123:7131  a[j - 1] */\n      dup2\n      mload\n      dup2\n      lt\n      tag_200\n      jumpi\n      tag_201\n      tag_181\n      jump\t// in\n    tag_201:\n    tag_200:\n      0x20\n      mul\n      0x20\n      add\n      add\n      mload\n        /* \"PartyA_OCR.sol\":7116:7117  a */\n      dup5\n        /* \"PartyA_OCR.sol\":7118:7119  j */\n      dup3\n        /* \"PartyA_OCR.sol\":7116:7120  a[j] */\n      dup2\n      mload\n      dup2\n      lt\n      tag_202\n      jumpi\n      tag_203\n      tag_181\n      jump\t// in\n    tag_203:\n    tag_202:\n      0x20\n      mul\n      0x20\n      add\n      add\n        /* \"PartyA_OCR.sol\":7116:7131  a[j] = a[j - 1] */\n      dup2\n      dup2\n      mstore\n      pop\n      pop\n        /* \"PartyA_OCR.sol\":7149:7152  j-- */\n      dup1\n      dup1\n      tag_204\n      swap1\n      tag_205\n      jump\t// in\n    tag_204:\n      swap2\n      pop\n      pop\n        /* \"PartyA_OCR.sol\":7066:7167  while (j > 0 && a[j - 1] > key) {... */\n      jump(tag_192)\n    tag_193:\n        /* \"PartyA_OCR.sol\":7187:7190  key */\n      dup2\n        /* \"PartyA_OCR.sol\":7180:7181  a */\n      dup5\n        /* \"PartyA_OCR.sol\":7182:7183  j */\n      dup3\n        /* \"PartyA_OCR.sol\":7180:7184  a[j] */\n      dup2\n      mload\n      dup2\n      lt\n      tag_206\n      jumpi\n      tag_207\n      tag_181\n      jump\t// in\n    tag_207:\n    tag_206:\n      0x20\n      mul\n      0x20\n      add\n      add\n        /* \"PartyA_OCR.sol\":7180:7190  a[j] = key */\n      dup2\n      dup2\n      mstore\n      pop\n      pop\n        /* \"PartyA_OCR.sol\":6993:7201  {... */\n      pop\n      pop\n        /* \"PartyA_OCR.sol\":6988:6991  i++ */\n      dup1\n      dup1\n      tag_208\n      swap1\n      tag_186\n      jump\t// in\n    tag_208:\n      swap2\n      pop\n      pop\n        /* \"PartyA_OCR.sol\":6961:7201  for (uint256 i = 1; i < n; i++) {... */\n      jump(tag_187)\n    tag_188:\n      pop\n        /* \"PartyA_OCR.sol\":7218:7219  a */\n      dup1\n        /* \"PartyA_OCR.sol\":7224:7225  2 */\n      0x02\n        /* \"PartyA_OCR.sol\":7220:7221  n */\n      dup4\n        /* \"PartyA_OCR.sol\":7220:7225  n / 2 */\n      tag_209\n      swap2\n      swap1\n      tag_210\n      jump\t// in\n    tag_209:\n        /* \"PartyA_OCR.sol\":7218:7226  a[n / 2] */\n      dup2\n      mload\n      dup2\n      lt\n      tag_211\n      jumpi\n      tag_212\n      tag_181\n      jump\t// in\n    tag_212:\n    tag_211:\n      0x20\n      mul\n      0x20\n      add\n      add\n      mload\n        /* \"PartyA_OCR.sol\":7211:7226  return a[n / 2] */\n      swap3\n      pop\n      pop\n      pop\n        /* \"PartyA_OCR.sol\":6605:7233  function _median(uint256[] storage valuesStorage) internal view returns (uint256) {... */\n      swap2\n      swap1\n      pop\n      jump\t// out\n        /* \"#utility.yul\":88:205   */\n    tag_214:\n        /* \"#utility.yul\":197:198   */\n      0x00\n        /* \"#utility.yul\":194:195   */\n      dup1\n        /* \"#utility.yul\":187:199   */\n      revert\n        /* \"#utility.yul\":334:411   */\n    tag_216:\n        /* \"#utility.yul\":371:378   */\n      0x00\n        /* \"#utility.yul\":400:405   */\n      dup2\n        /* \"#utility.yul\":389:405   */\n      swap1\n      pop\n        /* \"#utility.yul\":334:411   */\n      swap2\n      swap1\n      pop\n      jump\t// out\n        /* \"#utility.yul\":417:539   */\n    tag_217:\n        /* \"#utility.yul\":490:514   */\n      tag_264\n        /* \"#utility.yul\":508:513   */\n      dup2\n        /* \"#utility.yul\":490:514   */\n      tag_216\n      jump\t// in\n    tag_264:\n        /* \"#utility.yul\":483:488   */\n      dup2\n        /* \"#utility.yul\":480:515   */\n      eq\n        /* \"#utility.yul\":470:533   */\n      tag_265\n      jumpi\n        /* \"#utility.yul\":529:530   */\n      0x00\n        /* \"#utility.yul\":526:527   */\n      dup1\n        /* \"#utility.yul\":519:531   */\n      revert\n        /* \"#utility.yul\":470:533   */\n    tag_265:\n        /* \"#utility.yul\":417:539   */\n      pop\n      jump\t// out\n        /* \"#utility.yul\":545:684   */\n    tag_218:\n        /* \"#utility.yul\":591:596   */\n      0x00\n        /* \"#utility.yul\":629:635   */\n      dup2\n        /* \"#utility.yul\":616:636   */\n      calldataload\n        /* \"#utility.yul\":607:636   */\n      swap1\n      pop\n        /* \"#utility.yul\":645:678   */\n      tag_267\n        /* \"#utility.yul\":672:677   */\n      dup2\n        /* \"#utility.yul\":645:678   */\n      tag_217\n      jump\t// in\n    tag_267:\n        /* \"#utility.yul\":545:684   */\n      swap3\n      swap2\n      pop\n      pop\n      jump\t// out\n        /* \"#utility.yul\":690:1019   */\n    tag_26:\n        /* \"#utility.yul\":749:755   */\n      0x00\n        /* \"#utility.yul\":798:800   */\n      0x20\n        /* \"#utility.yul\":786:795   */\n      dup3\n        /* \"#utility.yul\":777:784   */\n      dup5\n        /* \"#utility.yul\":773:796   */\n      sub\n        /* \"#utility.yul\":769:801   */\n      slt\n        /* \"#utility.yul\":766:885   */\n      iszero\n      tag_269\n      jumpi\n        /* \"#utility.yul\":804:883   */\n      tag_270\n      tag_214\n      jump\t// in\n    tag_270:\n        /* \"#utility.yul\":766:885   */\n    tag_269:\n        /* \"#utility.yul\":924:925   */\n      0x00\n        /* \"#utility.yul\":949:1002   */\n      tag_271\n        /* \"#utility.yul\":994:1001   */\n      dup5\n        /* \"#utility.yul\":985:991   */\n      dup3\n        /* \"#utility.yul\":974:983   */\n      dup6\n        /* \"#utility.yul\":970:992   */\n      add\n        /* \"#utility.yul\":949:1002   */\n      tag_218\n      jump\t// in\n    tag_271:\n        /* \"#utility.yul\":939:1002   */\n      swap2\n      pop\n        /* \"#utility.yul\":895:1012   */\n      pop\n        /* \"#utility.yul\":690:1019   */\n      swap3\n      swap2\n      pop\n      pop\n      jump\t// out\n        /* \"#utility.yul\":1025:1115   */\n    tag_219:\n        /* \"#utility.yul\":1059:1066   */\n      0x00\n        /* \"#utility.yul\":1102:1107   */\n      dup2\n        /* \"#utility.yul\":1095:1108   */\n      iszero\n        /* \"#utility.yul\":1088:1109   */\n      iszero\n        /* \"#utility.yul\":1077:1109   */\n      swap1\n      pop\n        /* \"#utility.yul\":1025:1115   */\n      swap2\n      swap1\n      pop\n      jump\t// out\n        /* \"#utility.yul\":1121:1230   */\n    tag_220:\n        /* \"#utility.yul\":1202:1223   */\n      tag_274\n        /* \"#utility.yul\":1217:1222   */\n      dup2\n        /* \"#utility.yul\":1202:1223   */\n      tag_219\n      jump\t// in\n    tag_274:\n        /* \"#utility.yul\":1197:1200   */\n      dup3\n        /* \"#utility.yul\":1190:1224   */\n      mstore\n        /* \"#utility.yul\":1121:1230   */\n      pop\n      pop\n      jump\t// out\n        /* \"#utility.yul\":1236:1354   */\n    tag_221:\n        /* \"#utility.yul\":1323:1347   */\n      tag_276\n        /* \"#utility.yul\":1341:1346   */\n      dup2\n        /* \"#utility.yul\":1323:1347   */\n      tag_216\n      jump\t// in\n    tag_276:\n        /* \"#utility.yul\":1318:1321   */\n      dup3\n        /* \"#utility.yul\":1311:1348   */\n      mstore\n        /* \"#utility.yul\":1236:1354   */\n      pop\n      pop\n      jump\t// out\n        /* \"#utility.yul\":1360:2099   */\n    tag_29:\n        /* \"#utility.yul\":1575:1579   */\n      0x00\n        /* \"#utility.yul\":1613:1616   */\n      0xc0\n        /* \"#utility.yul\":1602:1611   */\n      dup3\n        /* \"#utility.yul\":1598:1617   */\n      add\n        /* \"#utility.yul\":1590:1617   */\n      swap1\n      pop\n        /* \"#utility.yul\":1627:1692   */\n      tag_278\n        /* \"#utility.yul\":1689:1690   */\n      0x00\n        /* \"#utility.yul\":1678:1687   */\n      dup4\n        /* \"#utility.yul\":1674:1691   */\n      add\n        /* \"#utility.yul\":1665:1671   */\n      dup10\n        /* \"#utility.yul\":1627:1692   */\n      tag_220\n      jump\t// in\n    tag_278:\n        /* \"#utility.yul\":1702:1768   */\n      tag_279\n        /* \"#utility.yul\":1764:1766   */\n      0x20\n        /* \"#utility.yul\":1753:1762   */\n      dup4\n        /* \"#utility.yul\":1749:1767   */\n      add\n        /* \"#utility.yul\":1740:1746   */\n      dup9\n        /* \"#utility.yul\":1702:1768   */\n      tag_220\n      jump\t// in\n    tag_279:\n        /* \"#utility.yul\":1778:1844   */\n      tag_280\n        /* \"#utility.yul\":1840:1842   */\n      0x40\n        /* \"#utility.yul\":1829:1838   */\n      dup4\n        /* \"#utility.yul\":1825:1843   */\n      add\n        /* \"#utility.yul\":1816:1822   */\n      dup8\n        /* \"#utility.yul\":1778:1844   */\n      tag_220\n      jump\t// in\n    tag_280:\n        /* \"#utility.yul\":1854:1926   */\n      tag_281\n        /* \"#utility.yul\":1922:1924   */\n      0x60\n        /* \"#utility.yul\":1911:1920   */\n      dup4\n        /* \"#utility.yul\":1907:1925   */\n      add\n        /* \"#utility.yul\":1898:1904   */\n      dup7\n        /* \"#utility.yul\":1854:1926   */\n      tag_221\n      jump\t// in\n    tag_281:\n        /* \"#utility.yul\":1936:2009   */\n      tag_282\n        /* \"#utility.yul\":2004:2007   */\n      0x80\n        /* \"#utility.yul\":1993:2002   */\n      dup4\n        /* \"#utility.yul\":1989:2008   */\n      add\n        /* \"#utility.yul\":1980:1986   */\n      dup6\n        /* \"#utility.yul\":1936:2009   */\n      tag_221\n      jump\t// in\n    tag_282:\n        /* \"#utility.yul\":2019:2092   */\n      tag_283\n        /* \"#utility.yul\":2087:2090   */\n      0xa0\n        /* \"#utility.yul\":2076:2085   */\n      dup4\n        /* \"#utility.yul\":2072:2091   */\n      add\n        /* \"#utility.yul\":2063:2069   */\n      dup5\n        /* \"#utility.yul\":2019:2092   */\n      tag_221\n      jump\t// in\n    tag_283:\n        /* \"#utility.yul\":1360:2099   */\n      swap8\n      swap7\n      pop\n      pop\n      pop\n      pop\n      pop\n      pop\n      pop\n      jump\t// out\n        /* \"#utility.yul\":2105:2231   */\n    tag_222:\n        /* \"#utility.yul\":2142:2149   */\n      0x00\n        /* \"#utility.yul\":2182:2224   */\n      0xffffffffffffffffffffffffffffffffffffffff\n        /* \"#utility.yul\":2175:2180   */\n      dup3\n        /* \"#utility.yul\":2171:2225   */\n      and\n        /* \"#utility.yul\":2160:2225   */\n      swap1\n      pop\n        /* \"#utility.yul\":2105:2231   */\n      swap2\n      swap1\n      pop\n      jump\t// out\n        /* \"#utility.yul\":2237:2333   */\n    tag_223:\n        /* \"#utility.yul\":2274:2281   */\n      0x00\n        /* \"#utility.yul\":2303:2327   */\n      tag_286\n        /* \"#utility.yul\":2321:2326   */\n      dup3\n        /* \"#utility.yul\":2303:2327   */\n      tag_222\n      jump\t// in\n    tag_286:\n        /* \"#utility.yul\":2292:2327   */\n      swap1\n      pop\n        /* \"#utility.yul\":2237:2333   */\n      swap2\n      swap1\n      pop\n      jump\t// out\n        /* \"#utility.yul\":2339:2457   */\n    tag_224:\n        /* \"#utility.yul\":2426:2450   */\n      tag_288\n        /* \"#utility.yul\":2444:2449   */\n      dup2\n        /* \"#utility.yul\":2426:2450   */\n      tag_223\n      jump\t// in\n    tag_288:\n        /* \"#utility.yul\":2421:2424   */\n      dup3\n        /* \"#utility.yul\":2414:2451   */\n      mstore\n        /* \"#utility.yul\":2339:2457   */\n      pop\n      pop\n      jump\t// out\n        /* \"#utility.yul\":2463:2685   */\n    tag_33:\n        /* \"#utility.yul\":2556:2560   */\n      0x00\n        /* \"#utility.yul\":2594:2596   */\n      0x20\n        /* \"#utility.yul\":2583:2592   */\n      dup3\n        /* \"#utility.yul\":2579:2597   */\n      add\n        /* \"#utility.yul\":2571:2597   */\n      swap1\n      pop\n        /* \"#utility.yul\":2607:2678   */\n      tag_290\n        /* \"#utility.yul\":2675:2676   */\n      0x00\n        /* \"#utility.yul\":2664:2673   */\n      dup4\n        /* \"#utility.yul\":2660:2677   */\n      add\n        /* \"#utility.yul\":2651:2657   */\n      dup5\n        /* \"#utility.yul\":2607:2678   */\n      tag_224\n      jump\t// in\n    tag_290:\n        /* \"#utility.yul\":2463:2685   */\n      swap3\n      swap2\n      pop\n      pop\n      jump\t// out\n        /* \"#utility.yul\":2691:2913   */\n    tag_37:\n        /* \"#utility.yul\":2784:2788   */\n      0x00\n        /* \"#utility.yul\":2822:2824   */\n      0x20\n        /* \"#utility.yul\":2811:2820   */\n      dup3\n        /* \"#utility.yul\":2807:2825   */\n      add\n        /* \"#utility.yul\":2799:2825   */\n      swap1\n      pop\n        /* \"#utility.yul\":2835:2906   */\n      tag_292\n        /* \"#utility.yul\":2903:2904   */\n      0x00\n        /* \"#utility.yul\":2892:2901   */\n      dup4\n        /* \"#utility.yul\":2888:2905   */\n      add\n        /* \"#utility.yul\":2879:2885   */\n      dup5\n        /* \"#utility.yul\":2835:2906   */\n      tag_221\n      jump\t// in\n    tag_292:\n        /* \"#utility.yul\":2691:2913   */\n      swap3\n      swap2\n      pop\n      pop\n      jump\t// out\n        /* \"#utility.yul\":2919:3129   */\n    tag_47:\n        /* \"#utility.yul\":3006:3010   */\n      0x00\n        /* \"#utility.yul\":3044:3046   */\n      0x20\n        /* \"#utility.yul\":3033:3042   */\n      dup3\n        /* \"#utility.yul\":3029:3047   */\n      add\n        /* \"#utility.yul\":3021:3047   */\n      swap1\n      pop\n        /* \"#utility.yul\":3057:3122   */\n      tag_294\n        /* \"#utility.yul\":3119:3120   */\n      0x00\n        /* \"#utility.yul\":3108:3117   */\n      dup4\n        /* \"#utility.yul\":3104:3121   */\n      add\n        /* \"#utility.yul\":3095:3101   */\n      dup5\n        /* \"#utility.yul\":3057:3122   */\n      tag_220\n      jump\t// in\n    tag_294:\n        /* \"#utility.yul\":2919:3129   */\n      swap3\n      swap2\n      pop\n      pop\n      jump\t// out\n        /* \"#utility.yul\":3135:3257   */\n    tag_225:\n        /* \"#utility.yul\":3208:3232   */\n      tag_296\n        /* \"#utility.yul\":3226:3231   */\n      dup2\n        /* \"#utility.yul\":3208:3232   */\n      tag_223\n      jump\t// in\n    tag_296:\n        /* \"#utility.yul\":3201:3206   */\n      dup2\n        /* \"#utility.yul\":3198:3233   */\n      eq\n        /* \"#utility.yul\":3188:3251   */\n      tag_297\n      jumpi\n        /* \"#utility.yul\":3247:3248   */\n      0x00\n        /* \"#utility.yul\":3244:3245   */\n      dup1\n        /* \"#utility.yul\":3237:3249   */\n      revert\n        /* \"#utility.yul\":3188:3251   */\n    tag_297:\n        /* \"#utility.yul\":3135:3257   */\n      pop\n      jump\t// out\n        /* \"#utility.yul\":3263:3402   */\n    tag_226:\n        /* \"#utility.yul\":3309:3314   */\n      0x00\n        /* \"#utility.yul\":3347:3353   */\n      dup2\n        /* \"#utility.yul\":3334:3354   */\n      calldataload\n        /* \"#utility.yul\":3325:3354   */\n      swap1\n      pop\n        /* \"#utility.yul\":3363:3396   */\n      tag_299\n        /* \"#utility.yul\":3390:3395   */\n      dup2\n        /* \"#utility.yul\":3363:3396   */\n      tag_225\n      jump\t// in\n    tag_299:\n        /* \"#utility.yul\":3263:3402   */\n      swap3\n      swap2\n      pop\n      pop\n      jump\t// out\n        /* \"#utility.yul\":3408:3737   */\n    tag_69:\n        /* \"#utility.yul\":3467:3473   */\n      0x00\n        /* \"#utility.yul\":3516:3518   */\n      0x20\n        /* \"#utility.yul\":3504:3513   */\n      dup3\n        /* \"#utility.yul\":3495:3502   */\n      dup5\n        /* \"#utility.yul\":3491:3514   */\n      sub\n        /* \"#utility.yul\":3487:3519   */\n      slt\n        /* \"#utility.yul\":3484:3603   */\n      iszero\n      tag_301\n      jumpi\n        /* \"#utility.yul\":3522:3601   */\n      tag_302\n      tag_214\n      jump\t// in\n    tag_302:\n        /* \"#utility.yul\":3484:3603   */\n    tag_301:\n        /* \"#utility.yul\":3642:3643   */\n      0x00\n        /* \"#utility.yul\":3667:3720   */\n      tag_303\n        /* \"#utility.yul\":3712:3719   */\n      dup5\n        /* \"#utility.yul\":3703:3709   */\n      dup3\n        /* \"#utility.yul\":3692:3701   */\n      dup6\n        /* \"#utility.yul\":3688:3710   */\n      add\n        /* \"#utility.yul\":3667:3720   */\n      tag_226\n      jump\t// in\n    tag_303:\n        /* \"#utility.yul\":3657:3720   */\n      swap2\n      pop\n        /* \"#utility.yul\":3613:3730   */\n      pop\n        /* \"#utility.yul\":3408:3737   */\n      swap3\n      swap2\n      pop\n      pop\n      jump\t// out\n        /* \"#utility.yul\":3743:4217   */\n    tag_76:\n        /* \"#utility.yul\":3811:3817   */\n      0x00\n        /* \"#utility.yul\":3819:3825   */\n      dup1\n        /* \"#utility.yul\":3868:3870   */\n      0x40\n        /* \"#utility.yul\":3856:3865   */\n      dup4\n        /* \"#utility.yul\":3847:3854   */\n      dup6\n        /* \"#utility.yul\":3843:3866   */\n      sub\n        /* \"#utility.yul\":3839:3871   */\n      slt\n        /* \"#utility.yul\":3836:3955   */\n      iszero\n      tag_305\n      jumpi\n        /* \"#utility.yul\":3874:3953   */\n      tag_306\n      tag_214\n      jump\t// in\n    tag_306:\n        /* \"#utility.yul\":3836:3955   */\n    tag_305:\n        /* \"#utility.yul\":3994:3995   */\n      0x00\n        /* \"#utility.yul\":4019:4072   */\n      tag_307\n        /* \"#utility.yul\":4064:4071   */\n      dup6\n        /* \"#utility.yul\":4055:4061   */\n      dup3\n        /* \"#utility.yul\":4044:4053   */\n      dup7\n        /* \"#utility.yul\":4040:4062   */\n      add\n        /* \"#utility.yul\":4019:4072   */\n      tag_218\n      jump\t// in\n    tag_307:\n        /* \"#utility.yul\":4009:4072   */\n      swap3\n      pop\n        /* \"#utility.yul\":3965:4082   */\n      pop\n        /* \"#utility.yul\":4121:4123   */\n      0x20\n        /* \"#utility.yul\":4147:4200   */\n      tag_308\n        /* \"#utility.yul\":4192:4199   */\n      dup6\n        /* \"#utility.yul\":4183:4189   */\n      dup3\n        /* \"#utility.yul\":4172:4181   */\n      dup7\n        /* \"#utility.yul\":4168:4190   */\n      add\n        /* \"#utility.yul\":4147:4200   */\n      tag_226\n      jump\t// in\n    tag_308:\n        /* \"#utility.yul\":4137:4200   */\n      swap2\n      pop\n        /* \"#utility.yul\":4092:4210   */\n      pop\n        /* \"#utility.yul\":3743:4217   */\n      swap3\n      pop\n      swap3\n      swap1\n      pop\n      jump\t// out\n        /* \"#utility.yul\":4223:4392   */\n    tag_227:\n        /* \"#utility.yul\":4307:4318   */\n      0x00\n        /* \"#utility.yul\":4341:4347   */\n      dup3\n        /* \"#utility.yul\":4336:4339   */\n      dup3\n        /* \"#utility.yul\":4329:4348   */\n      mstore\n        /* \"#utility.yul\":4381:4385   */\n      0x20\n        /* \"#utility.yul\":4376:4379   */\n      dup3\n        /* \"#utility.yul\":4372:4386   */\n      add\n        /* \"#utility.yul\":4357:4386   */\n      swap1\n      pop\n        /* \"#utility.yul\":4223:4392   */\n      swap3\n      swap2\n      pop\n      pop\n      jump\t// out\n        /* \"#utility.yul\":4398:4558   */\n    tag_228:\n        /* \"#utility.yul\":4538:4550   */\n      0x4e6f742050617274794100000000000000000000000000000000000000000000\n        /* \"#utility.yul\":4534:4535   */\n      0x00\n        /* \"#utility.yul\":4526:4532   */\n      dup3\n        /* \"#utility.yul\":4522:4536   */\n      add\n        /* \"#utility.yul\":4515:4551   */\n      mstore\n        /* \"#utility.yul\":4398:4558   */\n      pop\n      jump\t// out\n        /* \"#utility.yul\":4564:4930   */\n    tag_229:\n        /* \"#utility.yul\":4706:4709   */\n      0x00\n        /* \"#utility.yul\":4727:4794   */\n      tag_312\n        /* \"#utility.yul\":4791:4793   */\n      0x0a\n        /* \"#utility.yul\":4786:4789   */\n      dup4\n        /* \"#utility.yul\":4727:4794   */\n      tag_227\n      jump\t// in\n    tag_312:\n        /* \"#utility.yul\":4720:4794   */\n      swap2\n      pop\n        /* \"#utility.yul\":4803:4896   */\n      tag_313\n        /* \"#utility.yul\":4892:4895   */\n      dup3\n        /* \"#utility.yul\":4803:4896   */\n      tag_228\n      jump\t// in\n    tag_313:\n        /* \"#utility.yul\":4921:4923   */\n      0x20\n        /* \"#utility.yul\":4916:4919   */\n      dup3\n        /* \"#utility.yul\":4912:4924   */\n      add\n        /* \"#utility.yul\":4905:4924   */\n      swap1\n      pop\n        /* \"#utility.yul\":4564:4930   */\n      swap2\n      swap1\n      pop\n      jump\t// out\n        /* \"#utility.yul\":4936:5355   */\n    tag_91:\n        /* \"#utility.yul\":5102:5106   */\n      0x00\n        /* \"#utility.yul\":5140:5142   */\n      0x20\n        /* \"#utility.yul\":5129:5138   */\n      dup3\n        /* \"#utility.yul\":5125:5143   */\n      add\n        /* \"#utility.yul\":5117:5143   */\n      swap1\n      pop\n        /* \"#utility.yul\":5189:5198   */\n      dup2\n        /* \"#utility.yul\":5183:5187   */\n      dup2\n        /* \"#utility.yul\":5179:5199   */\n      sub\n        /* \"#utility.yul\":5175:5176   */\n      0x00\n        /* \"#utility.yul\":5164:5173   */\n      dup4\n        /* \"#utility.yul\":5160:5177   */\n      add\n        /* \"#utility.yul\":5153:5200   */\n      mstore\n        /* \"#utility.yul\":5217:5348   */\n      tag_315\n        /* \"#utility.yul\":5343:5347   */\n      dup2\n        /* \"#utility.yul\":5217:5348   */\n      tag_229\n      jump\t// in\n    tag_315:\n        /* \"#utility.yul\":5209:5348   */\n      swap1\n      pop\n        /* \"#utility.yul\":4936:5355   */\n      swap2\n      swap1\n      pop\n      jump\t// out\n        /* \"#utility.yul\":5361:5531   */\n    tag_230:\n        /* \"#utility.yul\":5501:5523   */\n      0x54696d656f7574206f7574206f662072616e6765000000000000000000000000\n        /* \"#utility.yul\":5497:5498   */\n      0x00\n        /* \"#utility.yul\":5489:5495   */\n      dup3\n        /* \"#utility.yul\":5485:5499   */\n      add\n        /* \"#utility.yul\":5478:5524   */\n      mstore\n        /* \"#utility.yul\":5361:5531   */\n      pop\n      jump\t// out\n        /* \"#utility.yul\":5537:5903   */\n    tag_231:\n        /* \"#utility.yul\":5679:5682   */\n      0x00\n        /* \"#utility.yul\":5700:5767   */\n      tag_318\n        /* \"#utility.yul\":5764:5766   */\n      0x14\n        /* \"#utility.yul\":5759:5762   */\n      dup4\n        /* \"#utility.yul\":5700:5767   */\n      tag_227\n      jump\t// in\n    tag_318:\n        /* \"#utility.yul\":5693:5767   */\n      swap2\n      pop\n        /* \"#utility.yul\":5776:5869   */\n      tag_319\n        /* \"#utility.yul\":5865:5868   */\n      dup3\n        /* \"#utility.yul\":5776:5869   */\n      tag_230\n      jump\t// in\n    tag_319:\n        /* \"#utility.yul\":5894:5896   */\n      0x20\n        /* \"#utility.yul\":5889:5892   */\n      dup3\n        /* \"#utility.yul\":5885:5897   */\n      add\n        /* \"#utility.yul\":5878:5897   */\n      swap1\n      pop\n        /* \"#utility.yul\":5537:5903   */\n      swap2\n      swap1\n      pop\n      jump\t// out\n        /* \"#utility.yul\":5909:6328   */\n    tag_96:\n        /* \"#utility.yul\":6075:6079   */\n      0x00\n        /* \"#utility.yul\":6113:6115   */\n      0x20\n        /* \"#utility.yul\":6102:6111   */\n      dup3\n        /* \"#utility.yul\":6098:6116   */\n      add\n        /* \"#utility.yul\":6090:6116   */\n      swap1\n      pop\n        /* \"#utility.yul\":6162:6171   */\n      dup2\n        /* \"#utility.yul\":6156:6160   */\n      dup2\n        /* \"#utility.yul\":6152:6172   */\n      sub\n        /* \"#utility.yul\":6148:6149   */\n      0x00\n        /* \"#utility.yul\":6137:6146   */\n      dup4\n        /* \"#utility.yul\":6133:6150   */\n      add\n        /* \"#utility.yul\":6126:6173   */\n      mstore\n        /* \"#utility.yul\":6190:6321   */\n      tag_321\n        /* \"#utility.yul\":6316:6320   */\n      dup2\n        /* \"#utility.yul\":6190:6321   */\n      tag_231\n      jump\t// in\n    tag_321:\n        /* \"#utility.yul\":6182:6321   */\n      swap1\n      pop\n        /* \"#utility.yul\":5909:6328   */\n      swap2\n      swap1\n      pop\n      jump\t// out\n        /* \"#utility.yul\":6334:6505   */\n    tag_232:\n        /* \"#utility.yul\":6474:6497   */\n      0x50726576696f757320726f756e64206163746976650000000000000000000000\n        /* \"#utility.yul\":6470:6471   */\n      0x00\n        /* \"#utility.yul\":6462:6468   */\n      dup3\n        /* \"#utility.yul\":6458:6472   */\n      add\n        /* \"#utility.yul\":6451:6498   */\n      mstore\n        /* \"#utility.yul\":6334:6505   */\n      pop\n      jump\t// out\n        /* \"#utility.yul\":6511:6877   */\n    tag_233:\n        /* \"#utility.yul\":6653:6656   */\n      0x00\n        /* \"#utility.yul\":6674:6741   */\n      tag_324\n        /* \"#utility.yul\":6738:6740   */\n      0x15\n        /* \"#utility.yul\":6733:6736   */\n      dup4\n        /* \"#utility.yul\":6674:6741   */\n      tag_227\n      jump\t// in\n    tag_324:\n        /* \"#utility.yul\":6667:6741   */\n      swap2\n      pop\n        /* \"#utility.yul\":6750:6843   */\n      tag_325\n        /* \"#utility.yul\":6839:6842   */\n      dup3\n        /* \"#utility.yul\":6750:6843   */\n      tag_232\n      jump\t// in\n    tag_325:\n        /* \"#utility.yul\":6868:6870   */\n      0x20\n        /* \"#utility.yul\":6863:6866   */\n      dup3\n        /* \"#utility.yul\":6859:6871   */\n      add\n        /* \"#utility.yul\":6852:6871   */\n      swap1\n      pop\n        /* \"#utility.yul\":6511:6877   */\n      swap2\n      swap1\n      pop\n      jump\t// out\n        /* \"#utility.yul\":6883:7302   */\n    tag_104:\n        /* \"#utility.yul\":7049:7053   */\n      0x00\n        /* \"#utility.yul\":7087:7089   */\n      0x20\n        /* \"#utility.yul\":7076:7085   */\n      dup3\n        /* \"#utility.yul\":7072:7090   */\n      add\n        /* \"#utility.yul\":7064:7090   */\n      swap1\n      pop\n        /* \"#utility.yul\":7136:7145   */\n      dup2\n        /* \"#utility.yul\":7130:7134   */\n      dup2\n        /* \"#utility.yul\":7126:7146   */\n      sub\n        /* \"#utility.yul\":7122:7123   */\n      0x00\n        /* \"#utility.yul\":7111:7120   */\n      dup4\n        /* \"#utility.yul\":7107:7124   */\n      add\n        /* \"#utility.yul\":7100:7147   */\n      mstore\n        /* \"#utility.yul\":7164:7295   */\n      tag_327\n        /* \"#utility.yul\":7290:7294   */\n      dup2\n        /* \"#utility.yul\":7164:7295   */\n      tag_233\n      jump\t// in\n    tag_327:\n        /* \"#utility.yul\":7156:7295   */\n      swap1\n      pop\n        /* \"#utility.yul\":6883:7302   */\n      swap2\n      swap1\n      pop\n      jump\t// out\n        /* \"#utility.yul\":7308:7488   */\n    tag_234:\n        /* \"#utility.yul\":7356:7433   */\n      0x4e487b7100000000000000000000000000000000000000000000000000000000\n        /* \"#utility.yul\":7353:7354   */\n      0x00\n        /* \"#utility.yul\":7346:7434   */\n      mstore\n        /* \"#utility.yul\":7453:7457   */\n      0x11\n        /* \"#utility.yul\":7450:7451   */\n      0x04\n        /* \"#utility.yul\":7443:7458   */\n      mstore\n        /* \"#utility.yul\":7477:7481   */\n      0x24\n        /* \"#utility.yul\":7474:7475   */\n      0x00\n        /* \"#utility.yul\":7467:7482   */\n      revert\n        /* \"#utility.yul\":7494:7685   */\n    tag_106:\n        /* \"#utility.yul\":7534:7537   */\n      0x00\n        /* \"#utility.yul\":7553:7573   */\n      tag_330\n        /* \"#utility.yul\":7571:7572   */\n      dup3\n        /* \"#utility.yul\":7553:7573   */\n      tag_216\n      jump\t// in\n    tag_330:\n        /* \"#utility.yul\":7548:7573   */\n      swap2\n      pop\n        /* \"#utility.yul\":7587:7607   */\n      tag_331\n        /* \"#utility.yul\":7605:7606   */\n      dup4\n        /* \"#utility.yul\":7587:7607   */\n      tag_216\n      jump\t// in\n    tag_331:\n        /* \"#utility.yul\":7582:7607   */\n      swap3\n      pop\n        /* \"#utility.yul\":7630:7631   */\n      dup3\n        /* \"#utility.yul\":7627:7628   */\n      dup3\n        /* \"#utility.yul\":7623:7632   */\n      add\n        /* \"#utility.yul\":7616:7632   */\n      swap1\n      pop\n        /* \"#utility.yul\":7651:7654   */\n      dup1\n        /* \"#utility.yul\":7648:7649   */\n      dup3\n        /* \"#utility.yul\":7645:7655   */\n      gt\n        /* \"#utility.yul\":7642:7678   */\n      iszero\n      tag_332\n      jumpi\n        /* \"#utility.yul\":7658:7676   */\n      tag_333\n      tag_234\n      jump\t// in\n    tag_333:\n        /* \"#utility.yul\":7642:7678   */\n    tag_332:\n        /* \"#utility.yul\":7494:7685   */\n      swap3\n      swap2\n      pop\n      pop\n      jump\t// out\n        /* \"#utility.yul\":7691:7858   */\n    tag_235:\n        /* \"#utility.yul\":7831:7850   */\n      0x4e6f206163746976652072657175657374000000000000000000000000000000\n        /* \"#utility.yul\":7827:7828   */\n      0x00\n        /* \"#utility.yul\":7819:7825   */\n      dup3\n        /* \"#utility.yul\":7815:7829   */\n      add\n        /* \"#utility.yul\":7808:7851   */\n      mstore\n        /* \"#utility.yul\":7691:7858   */\n      pop\n      jump\t// out\n        /* \"#utility.yul\":7864:8230   */\n    tag_236:\n        /* \"#utility.yul\":8006:8009   */\n      0x00\n        /* \"#utility.yul\":8027:8094   */\n      tag_336\n        /* \"#utility.yul\":8091:8093   */\n      0x11\n        /* \"#utility.yul\":8086:8089   */\n      dup4\n        /* \"#utility.yul\":8027:8094   */\n      tag_227\n      jump\t// in\n    tag_336:\n        /* \"#utility.yul\":8020:8094   */\n      swap2\n      pop\n        /* \"#utility.yul\":8103:8196   */\n      tag_337\n        /* \"#utility.yul\":8192:8195   */\n      dup3\n        /* \"#utility.yul\":8103:8196   */\n      tag_235\n      jump\t// in\n    tag_337:\n        /* \"#utility.yul\":8221:8223   */\n      0x20\n        /* \"#utility.yul\":8216:8219   */\n      dup3\n        /* \"#utility.yul\":8212:8224   */\n      add\n        /* \"#utility.yul\":8205:8224   */\n      swap1\n      pop\n        /* \"#utility.yul\":7864:8230   */\n      swap2\n      swap1\n      pop\n      jump\t// out\n        /* \"#utility.yul\":8236:8655   */\n    tag_110:\n        /* \"#utility.yul\":8402:8406   */\n      0x00\n        /* \"#utility.yul\":8440:8442   */\n      0x20\n        /* \"#utility.yul\":8429:8438   */\n      dup3\n        /* \"#utility.yul\":8425:8443   */\n      add\n        /* \"#utility.yul\":8417:8443   */\n      swap1\n      pop\n        /* \"#utility.yul\":8489:8498   */\n      dup2\n        /* \"#utility.yul\":8483:8487   */\n      dup2\n        /* \"#utility.yul\":8479:8499   */\n      sub\n        /* \"#utility.yul\":8475:8476   */\n      0x00\n        /* \"#utility.yul\":8464:8473   */\n      dup4\n        /* \"#utility.yul\":8460:8477   */\n      add\n        /* \"#utility.yul\":8453:8500   */\n      mstore\n        /* \"#utility.yul\":8517:8648   */\n      tag_339\n        /* \"#utility.yul\":8643:8647   */\n      dup2\n        /* \"#utility.yul\":8517:8648   */\n      tag_236\n      jump\t// in\n    tag_339:\n        /* \"#utility.yul\":8509:8648   */\n      swap1\n      pop\n        /* \"#utility.yul\":8236:8655   */\n      swap2\n      swap1\n      pop\n      jump\t// out\n        /* \"#utility.yul\":8661:8828   */\n    tag_237:\n        /* \"#utility.yul\":8801:8820   */\n      0x4e6f742074696d6564206f757420796574000000000000000000000000000000\n        /* \"#utility.yul\":8797:8798   */\n      0x00\n        /* \"#utility.yul\":8789:8795   */\n      dup3\n        /* \"#utility.yul\":8785:8799   */\n      add\n        /* \"#utility.yul\":8778:8821   */\n      mstore\n        /* \"#utility.yul\":8661:8828   */\n      pop\n      jump\t// out\n        /* \"#utility.yul\":8834:9200   */\n    tag_238:\n        /* \"#utility.yul\":8976:8979   */\n      0x00\n        /* \"#utility.yul\":8997:9064   */\n      tag_342\n        /* \"#utility.yul\":9061:9063   */\n      0x11\n        /* \"#utility.yul\":9056:9059   */\n      dup4\n        /* \"#utility.yul\":8997:9064   */\n      tag_227\n      jump\t// in\n    tag_342:\n        /* \"#utility.yul\":8990:9064   */\n      swap2\n      pop\n        /* \"#utility.yul\":9073:9166   */\n      tag_343\n        /* \"#utility.yul\":9162:9165   */\n      dup3\n        /* \"#utility.yul\":9073:9166   */\n      tag_237\n      jump\t// in\n    tag_343:\n        /* \"#utility.yul\":9191:9193   */\n      0x20\n        /* \"#utility.yul\":9186:9189   */\n      dup3\n        /* \"#utility.yul\":9182:9194   */\n      add\n        /* \"#utility.yul\":9175:9194   */\n      swap1\n      pop\n        /* \"#utility.yul\":8834:9200   */\n      swap2\n      swap1\n      pop\n      jump\t// out\n        /* \"#utility.yul\":9206:9625   */\n    tag_114:\n        /* \"#utility.yul\":9372:9376   */\n      0x00\n        /* \"#utility.yul\":9410:9412   */\n      0x20\n        /* \"#utility.yul\":9399:9408   */\n      dup3\n        /* \"#utility.yul\":9395:9413   */\n      add\n        /* \"#utility.yul\":9387:9413   */\n      swap1\n      pop\n        /* \"#utility.yul\":9459:9468   */\n      dup2\n        /* \"#utility.yul\":9453:9457   */\n      dup2\n        /* \"#utility.yul\":9449:9469   */\n      sub\n        /* \"#utility.yul\":9445:9446   */\n      0x00\n        /* \"#utility.yul\":9434:9443   */\n      dup4\n        /* \"#utility.yul\":9430:9447   */\n      add\n        /* \"#utility.yul\":9423:9470   */\n      mstore\n        /* \"#utility.yul\":9487:9618   */\n      tag_345\n        /* \"#utility.yul\":9613:9617   */\n      dup2\n        /* \"#utility.yul\":9487:9618   */\n      tag_238\n      jump\t// in\n    tag_345:\n        /* \"#utility.yul\":9479:9618   */\n      swap1\n      pop\n        /* \"#utility.yul\":9206:9625   */\n      swap2\n      swap1\n      pop\n      jump\t// out\n        /* \"#utility.yul\":9631:9788   */\n    tag_239:\n        /* \"#utility.yul\":9771:9780   */\n      0x74696d656f757400000000000000000000000000000000000000000000000000\n        /* \"#utility.yul\":9767:9768   */\n      0x00\n        /* \"#utility.yul\":9759:9765   */\n      dup3\n        /* \"#utility.yul\":9755:9769   */\n      add\n        /* \"#utility.yul\":9748:9781   */\n      mstore\n        /* \"#utility.yul\":9631:9788   */\n      pop\n      jump\t// out\n        /* \"#utility.yul\":9794:10159   */\n    tag_240:\n        /* \"#utility.yul\":9936:9939   */\n      0x00\n        /* \"#utility.yul\":9957:10023   */\n      tag_348\n        /* \"#utility.yul\":10021:10022   */\n      0x07\n        /* \"#utility.yul\":10016:10019   */\n      dup4\n        /* \"#utility.yul\":9957:10023   */\n      tag_227\n      jump\t// in\n    tag_348:\n        /* \"#utility.yul\":9950:10023   */\n      swap2\n      pop\n        /* \"#utility.yul\":10032:10125   */\n      tag_349\n        /* \"#utility.yul\":10121:10124   */\n      dup3\n        /* \"#utility.yul\":10032:10125   */\n      tag_239\n      jump\t// in\n    tag_349:\n        /* \"#utility.yul\":10150:10152   */\n      0x20\n        /* \"#utility.yul\":10145:10148   */\n      dup3\n        /* \"#utility.yul\":10141:10153   */\n      add\n        /* \"#utility.yul\":10134:10153   */\n      swap1\n      pop\n        /* \"#utility.yul\":9794:10159   */\n      swap2\n      swap1\n      pop\n      jump\t// out\n        /* \"#utility.yul\":10165:10584   */\n    tag_116:\n        /* \"#utility.yul\":10331:10335   */\n      0x00\n        /* \"#utility.yul\":10369:10371   */\n      0x20\n        /* \"#utility.yul\":10358:10367   */\n      dup3\n        /* \"#utility.yul\":10354:10372   */\n      add\n        /* \"#utility.yul\":10346:10372   */\n      swap1\n      pop\n        /* \"#utility.yul\":10418:10427   */\n      dup2\n        /* \"#utility.yul\":10412:10416   */\n      dup2\n        /* \"#utility.yul\":10408:10428   */\n      sub\n        /* \"#utility.yul\":10404:10405   */\n      0x00\n        /* \"#utility.yul\":10393:10402   */\n      dup4\n        /* \"#utility.yul\":10389:10406   */\n      add\n        /* \"#utility.yul\":10382:10429   */\n      mstore\n        /* \"#utility.yul\":10446:10577   */\n      tag_351\n        /* \"#utility.yul\":10572:10576   */\n      dup2\n        /* \"#utility.yul\":10446:10577   */\n      tag_240\n      jump\t// in\n    tag_351:\n        /* \"#utility.yul\":10438:10577   */\n      swap1\n      pop\n        /* \"#utility.yul\":10165:10584   */\n      swap2\n      swap1\n      pop\n      jump\t// out\n        /* \"#utility.yul\":10590:10762   */\n    tag_241:\n        /* \"#utility.yul\":10730:10754   */\n      0x4e6f742077686974656c6973746564206f7261636c6500000000000000000000\n        /* \"#utility.yul\":10726:10727   */\n      0x00\n        /* \"#utility.yul\":10718:10724   */\n      dup3\n        /* \"#utility.yul\":10714:10728   */\n      add\n        /* \"#utility.yul\":10707:10755   */\n      mstore\n        /* \"#utility.yul\":10590:10762   */\n      pop\n      jump\t// out\n        /* \"#utility.yul\":10768:11134   */\n    tag_242:\n        /* \"#utility.yul\":10910:10913   */\n      0x00\n        /* \"#utility.yul\":10931:10998   */\n      tag_354\n        /* \"#utility.yul\":10995:10997   */\n      0x16\n        /* \"#utility.yul\":10990:10993   */\n      dup4\n        /* \"#utility.yul\":10931:10998   */\n      tag_227\n      jump\t// in\n    tag_354:\n        /* \"#utility.yul\":10924:10998   */\n      swap2\n      pop\n        /* \"#utility.yul\":11007:11100   */\n      tag_355\n        /* \"#utility.yul\":11096:11099   */\n      dup3\n        /* \"#utility.yul\":11007:11100   */\n      tag_241\n      jump\t// in\n    tag_355:\n        /* \"#utility.yul\":11125:11127   */\n      0x20\n        /* \"#utility.yul\":11120:11123   */\n      dup3\n        /* \"#utility.yul\":11116:11128   */\n      add\n        /* \"#utility.yul\":11109:11128   */\n      swap1\n      pop\n        /* \"#utility.yul\":10768:11134   */\n      swap2\n      swap1\n      pop\n      jump\t// out\n        /* \"#utility.yul\":11140:11559   */\n    tag_120:\n        /* \"#utility.yul\":11306:11310   */\n      0x00\n        /* \"#utility.yul\":11344:11346   */\n      0x20\n        /* \"#utility.yul\":11333:11342   */\n      dup3\n        /* \"#utility.yul\":11329:11347   */\n      add\n        /* \"#utility.yul\":11321:11347   */\n      swap1\n      pop\n        /* \"#utility.yul\":11393:11402   */\n      dup2\n        /* \"#utility.yul\":11387:11391   */\n      dup2\n        /* \"#utility.yul\":11383:11403   */\n      sub\n        /* \"#utility.yul\":11379:11380   */\n      0x00\n        /* \"#utility.yul\":11368:11377   */\n      dup4\n        /* \"#utility.yul\":11364:11381   */\n      add\n        /* \"#utility.yul\":11357:11404   */\n      mstore\n        /* \"#utility.yul\":11421:11552   */\n      tag_357\n        /* \"#utility.yul\":11547:11551   */\n      dup2\n        /* \"#utility.yul\":11421:11552   */\n      tag_242\n      jump\t// in\n    tag_357:\n        /* \"#utility.yul\":11413:11552   */\n      swap1\n      pop\n        /* \"#utility.yul\":11140:11559   */\n      swap2\n      swap1\n      pop\n      jump\t// out\n        /* \"#utility.yul\":11565:11731   */\n    tag_243:\n        /* \"#utility.yul\":11705:11723   */\n      0x5265706f7274206e6f7420726561647900000000000000000000000000000000\n        /* \"#utility.yul\":11701:11702   */\n      0x00\n        /* \"#utility.yul\":11693:11699   */\n      dup3\n        /* \"#utility.yul\":11689:11703   */\n      add\n        /* \"#utility.yul\":11682:11724   */\n      mstore\n        /* \"#utility.yul\":11565:11731   */\n      pop\n      jump\t// out\n        /* \"#utility.yul\":11737:12103   */\n    tag_244:\n        /* \"#utility.yul\":11879:11882   */\n      0x00\n        /* \"#utility.yul\":11900:11967   */\n      tag_360\n        /* \"#utility.yul\":11964:11966   */\n      0x10\n        /* \"#utility.yul\":11959:11962   */\n      dup4\n        /* \"#utility.yul\":11900:11967   */\n      tag_227\n      jump\t// in\n    tag_360:\n        /* \"#utility.yul\":11893:11967   */\n      swap2\n      pop\n        /* \"#utility.yul\":11976:12069   */\n      tag_361\n        /* \"#utility.yul\":12065:12068   */\n      dup3\n        /* \"#utility.yul\":11976:12069   */\n      tag_243\n      jump\t// in\n    tag_361:\n        /* \"#utility.yul\":12094:12096   */\n      0x20\n        /* \"#utility.yul\":12089:12092   */\n      dup3\n        /* \"#utility.yul\":12085:12097   */\n      add\n        /* \"#utility.yul\":12078:12097   */\n      swap1\n      pop\n        /* \"#utility.yul\":11737:12103   */\n      swap2\n      swap1\n      pop\n      jump\t// out\n        /* \"#utility.yul\":12109:12528   */\n    tag_126:\n        /* \"#utility.yul\":12275:12279   */\n      0x00\n        /* \"#utility.yul\":12313:12315   */\n      0x20\n        /* \"#utility.yul\":12302:12311   */\n      dup3\n        /* \"#utility.yul\":12298:12316   */\n      add\n        /* \"#utility.yul\":12290:12316   */\n      swap1\n      pop\n        /* \"#utility.yul\":12362:12371   */\n      dup2\n        /* \"#utility.yul\":12356:12360   */\n      dup2\n        /* \"#utility.yul\":12352:12372   */\n      sub\n        /* \"#utility.yul\":12348:12349   */\n      0x00\n        /* \"#utility.yul\":12337:12346   */\n      dup4\n        /* \"#utility.yul\":12333:12350   */\n      add\n        /* \"#utility.yul\":12326:12373   */\n      mstore\n        /* \"#utility.yul\":12390:12521   */\n      tag_363\n        /* \"#utility.yul\":12516:12520   */\n      dup2\n        /* \"#utility.yul\":12390:12521   */\n      tag_244\n      jump\t// in\n    tag_363:\n        /* \"#utility.yul\":12382:12521   */\n      swap1\n      pop\n        /* \"#utility.yul\":12109:12528   */\n      swap2\n      swap1\n      pop\n      jump\t// out\n        /* \"#utility.yul\":12534:12699   */\n    tag_245:\n        /* \"#utility.yul\":12674:12691   */\n      0x526f756e642066696e616c697a65640000000000000000000000000000000000\n        /* \"#utility.yul\":12670:12671   */\n      0x00\n        /* \"#utility.yul\":12662:12668   */\n      dup3\n        /* \"#utility.yul\":12658:12672   */\n      add\n        /* \"#utility.yul\":12651:12692   */\n      mstore\n        /* \"#utility.yul\":12534:12699   */\n      pop\n      jump\t// out\n        /* \"#utility.yul\":12705:13071   */\n    tag_246:\n        /* \"#utility.yul\":12847:12850   */\n      0x00\n        /* \"#utility.yul\":12868:12935   */\n      tag_366\n        /* \"#utility.yul\":12932:12934   */\n      0x0f\n        /* \"#utility.yul\":12927:12930   */\n      dup4\n        /* \"#utility.yul\":12868:12935   */\n      tag_227\n      jump\t// in\n    tag_366:\n        /* \"#utility.yul\":12861:12935   */\n      swap2\n      pop\n        /* \"#utility.yul\":12944:13037   */\n      tag_367\n        /* \"#utility.yul\":13033:13036   */\n      dup3\n        /* \"#utility.yul\":12944:13037   */\n      tag_245\n      jump\t// in\n    tag_367:\n        /* \"#utility.yul\":13062:13064   */\n      0x20\n        /* \"#utility.yul\":13057:13060   */\n      dup3\n        /* \"#utility.yul\":13053:13065   */\n      add\n        /* \"#utility.yul\":13046:13065   */\n      swap1\n      pop\n        /* \"#utility.yul\":12705:13071   */\n      swap2\n      swap1\n      pop\n      jump\t// out\n        /* \"#utility.yul\":13077:13496   */\n    tag_129:\n        /* \"#utility.yul\":13243:13247   */\n      0x00\n        /* \"#utility.yul\":13281:13283   */\n      0x20\n        /* \"#utility.yul\":13270:13279   */\n      dup3\n        /* \"#utility.yul\":13266:13284   */\n      add\n        /* \"#utility.yul\":13258:13284   */\n      swap1\n      pop\n        /* \"#utility.yul\":13330:13339   */\n      dup2\n        /* \"#utility.yul\":13324:13328   */\n      dup2\n        /* \"#utility.yul\":13320:13340   */\n      sub\n        /* \"#utility.yul\":13316:13317   */\n      0x00\n        /* \"#utility.yul\":13305:13314   */\n      dup4\n        /* \"#utility.yul\":13301:13318   */\n      add\n        /* \"#utility.yul\":13294:13341   */\n      mstore\n        /* \"#utility.yul\":13358:13489   */\n      tag_369\n        /* \"#utility.yul\":13484:13488   */\n      dup2\n        /* \"#utility.yul\":13358:13489   */\n      tag_246\n      jump\t// in\n    tag_369:\n        /* \"#utility.yul\":13350:13489   */\n      swap1\n      pop\n        /* \"#utility.yul\":13077:13496   */\n      swap2\n      swap1\n      pop\n      jump\t// out\n        /* \"#utility.yul\":13502:13669   */\n    tag_247:\n        /* \"#utility.yul\":13642:13661   */\n      0x416c726561647920636f6e6669726d6564000000000000000000000000000000\n        /* \"#utility.yul\":13638:13639   */\n      0x00\n        /* \"#utility.yul\":13630:13636   */\n      dup3\n        /* \"#utility.yul\":13626:13640   */\n      add\n        /* \"#utility.yul\":13619:13662   */\n      mstore\n        /* \"#utility.yul\":13502:13669   */\n      pop\n      jump\t// out\n        /* \"#utility.yul\":13675:14041   */\n    tag_248:\n        /* \"#utility.yul\":13817:13820   */\n      0x00\n        /* \"#utility.yul\":13838:13905   */\n      tag_372\n        /* \"#utility.yul\":13902:13904   */\n      0x11\n        /* \"#utility.yul\":13897:13900   */\n      dup4\n        /* \"#utility.yul\":13838:13905   */\n      tag_227\n      jump\t// in\n    tag_372:\n        /* \"#utility.yul\":13831:13905   */\n      swap2\n      pop\n        /* \"#utility.yul\":13914:14007   */\n      tag_373\n        /* \"#utility.yul\":14003:14006   */\n      dup3\n        /* \"#utility.yul\":13914:14007   */\n      tag_247\n      jump\t// in\n    tag_373:\n        /* \"#utility.yul\":14032:14034   */\n      0x20\n        /* \"#utility.yul\":14027:14030   */\n      dup3\n        /* \"#utility.yul\":14023:14035   */\n      add\n        /* \"#utility.yul\":14016:14035   */\n      swap1\n      pop\n        /* \"#utility.yul\":13675:14041   */\n      swap2\n      swap1\n      pop\n      jump\t// out\n        /* \"#utility.yul\":14047:14466   */\n    tag_132:\n        /* \"#utility.yul\":14213:14217   */\n      0x00\n        /* \"#utility.yul\":14251:14253   */\n      0x20\n        /* \"#utility.yul\":14240:14249   */\n      dup3\n        /* \"#utility.yul\":14236:14254   */\n      add\n        /* \"#utility.yul\":14228:14254   */\n      swap1\n      pop\n        /* \"#utility.yul\":14300:14309   */\n      dup2\n        /* \"#utility.yul\":14294:14298   */\n      dup2\n        /* \"#utility.yul\":14290:14310   */\n      sub\n        /* \"#utility.yul\":14286:14287   */\n      0x00\n        /* \"#utility.yul\":14275:14284   */\n      dup4\n        /* \"#utility.yul\":14271:14288   */\n      add\n        /* \"#utility.yul\":14264:14311   */\n      mstore\n        /* \"#utility.yul\":14328:14459   */\n      tag_375\n        /* \"#utility.yul\":14454:14458   */\n      dup2\n        /* \"#utility.yul\":14328:14459   */\n      tag_248\n      jump\t// in\n    tag_375:\n        /* \"#utility.yul\":14320:14459   */\n      swap1\n      pop\n        /* \"#utility.yul\":14047:14466   */\n      swap2\n      swap1\n      pop\n      jump\t// out\n        /* \"#utility.yul\":14472:14651   */\n    tag_249:\n        /* \"#utility.yul\":14612:14643   */\n      0x4f62736572766174696f6e20616c7265616479207375626d6974746564000000\n        /* \"#utility.yul\":14608:14609   */\n      0x00\n        /* \"#utility.yul\":14600:14606   */\n      dup3\n        /* \"#utility.yul\":14596:14610   */\n      add\n        /* \"#utility.yul\":14589:14644   */\n      mstore\n        /* \"#utility.yul\":14472:14651   */\n      pop\n      jump\t// out\n        /* \"#utility.yul\":14657:15023   */\n    tag_250:\n        /* \"#utility.yul\":14799:14802   */\n      0x00\n        /* \"#utility.yul\":14820:14887   */\n      tag_378\n        /* \"#utility.yul\":14884:14886   */\n      0x1d\n        /* \"#utility.yul\":14879:14882   */\n      dup4\n        /* \"#utility.yul\":14820:14887   */\n      tag_227\n      jump\t// in\n    tag_378:\n        /* \"#utility.yul\":14813:14887   */\n      swap2\n      pop\n        /* \"#utility.yul\":14896:14989   */\n      tag_379\n        /* \"#utility.yul\":14985:14988   */\n      dup3\n        /* \"#utility.yul\":14896:14989   */\n      tag_249\n      jump\t// in\n    tag_379:\n        /* \"#utility.yul\":15014:15016   */\n      0x20\n        /* \"#utility.yul\":15009:15012   */\n      dup3\n        /* \"#utility.yul\":15005:15017   */\n      add\n        /* \"#utility.yul\":14998:15017   */\n      swap1\n      pop\n        /* \"#utility.yul\":14657:15023   */\n      swap2\n      swap1\n      pop\n      jump\t// out\n        /* \"#utility.yul\":15029:15448   */\n    tag_148:\n        /* \"#utility.yul\":15195:15199   */\n      0x00\n        /* \"#utility.yul\":15233:15235   */\n      0x20\n        /* \"#utility.yul\":15222:15231   */\n      dup3\n        /* \"#utility.yul\":15218:15236   */\n      add\n        /* \"#utility.yul\":15210:15236   */\n      swap1\n      pop\n        /* \"#utility.yul\":15282:15291   */\n      dup2\n        /* \"#utility.yul\":15276:15280   */\n      dup2\n        /* \"#utility.yul\":15272:15292   */\n      sub\n        /* \"#utility.yul\":15268:15269   */\n      0x00\n        /* \"#utility.yul\":15257:15266   */\n      dup4\n        /* \"#utility.yul\":15253:15270   */\n      add\n        /* \"#utility.yul\":15246:15293   */\n      mstore\n        /* \"#utility.yul\":15310:15441   */\n      tag_381\n        /* \"#utility.yul\":15436:15440   */\n      dup2\n        /* \"#utility.yul\":15310:15441   */\n      tag_250\n      jump\t// in\n    tag_381:\n        /* \"#utility.yul\":15302:15441   */\n      swap1\n      pop\n        /* \"#utility.yul\":15029:15448   */\n      swap2\n      swap1\n      pop\n      jump\t// out\n        /* \"#utility.yul\":15454:15621   */\n    tag_251:\n        /* \"#utility.yul\":15594:15613   */\n      0x416c72656164792066696e616c697a6564000000000000000000000000000000\n        /* \"#utility.yul\":15590:15591   */\n      0x00\n        /* \"#utility.yul\":15582:15588   */\n      dup3\n        /* \"#utility.yul\":15578:15592   */\n      add\n        /* \"#utility.yul\":15571:15614   */\n      mstore\n        /* \"#utility.yul\":15454:15621   */\n      pop\n      jump\t// out\n        /* \"#utility.yul\":15627:15993   */\n    tag_252:\n        /* \"#utility.yul\":15769:15772   */\n      0x00\n        /* \"#utility.yul\":15790:15857   */\n      tag_384\n        /* \"#utility.yul\":15854:15856   */\n      0x11\n        /* \"#utility.yul\":15849:15852   */\n      dup4\n        /* \"#utility.yul\":15790:15857   */\n      tag_227\n      jump\t// in\n    tag_384:\n        /* \"#utility.yul\":15783:15857   */\n      swap2\n      pop\n        /* \"#utility.yul\":15866:15959   */\n      tag_385\n        /* \"#utility.yul\":15955:15958   */\n      dup3\n        /* \"#utility.yul\":15866:15959   */\n      tag_251\n      jump\t// in\n    tag_385:\n        /* \"#utility.yul\":15984:15986   */\n      0x20\n        /* \"#utility.yul\":15979:15982   */\n      dup3\n        /* \"#utility.yul\":15975:15987   */\n      add\n        /* \"#utility.yul\":15968:15987   */\n      swap1\n      pop\n        /* \"#utility.yul\":15627:15993   */\n      swap2\n      swap1\n      pop\n      jump\t// out\n        /* \"#utility.yul\":15999:16418   */\n    tag_163:\n        /* \"#utility.yul\":16165:16169   */\n      0x00\n        /* \"#utility.yul\":16203:16205   */\n      0x20\n        /* \"#utility.yul\":16192:16201   */\n      dup3\n        /* \"#utility.yul\":16188:16206   */\n      add\n        /* \"#utility.yul\":16180:16206   */\n      swap1\n      pop\n        /* \"#utility.yul\":16252:16261   */\n      dup2\n        /* \"#utility.yul\":16246:16250   */\n      dup2\n        /* \"#utility.yul\":16242:16262   */\n      sub\n        /* \"#utility.yul\":16238:16239   */\n      0x00\n        /* \"#utility.yul\":16227:16236   */\n      dup4\n        /* \"#utility.yul\":16223:16240   */\n      add\n        /* \"#utility.yul\":16216:16263   */\n      mstore\n        /* \"#utility.yul\":16280:16411   */\n      tag_387\n        /* \"#utility.yul\":16406:16410   */\n      dup2\n        /* \"#utility.yul\":16280:16411   */\n      tag_252\n      jump\t// in\n    tag_387:\n        /* \"#utility.yul\":16272:16411   */\n      swap1\n      pop\n        /* \"#utility.yul\":15999:16418   */\n      swap2\n      swap1\n      pop\n      jump\t// out\n        /* \"#utility.yul\":16424:16592   */\n    tag_253:\n        /* \"#utility.yul\":16564:16584   */\n      0x51756f72756d206e6f7420726561636865640000000000000000000000000000\n        /* \"#utility.yul\":16560:16561   */\n      0x00\n        /* \"#utility.yul\":16552:16558   */\n      dup3\n        /* \"#utility.yul\":16548:16562   */\n      add\n        /* \"#utility.yul\":16541:16585   */\n      mstore\n        /* \"#utility.yul\":16424:16592   */\n      pop\n      jump\t// out\n        /* \"#utility.yul\":16598:16964   */\n    tag_254:\n        /* \"#utility.yul\":16740:16743   */\n      0x00\n        /* \"#utility.yul\":16761:16828   */\n      tag_390\n        /* \"#utility.yul\":16825:16827   */\n      0x12\n        /* \"#utility.yul\":16820:16823   */\n      dup4\n        /* \"#utility.yul\":16761:16828   */\n      tag_227\n      jump\t// in\n    tag_390:\n        /* \"#utility.yul\":16754:16828   */\n      swap2\n      pop\n        /* \"#utility.yul\":16837:16930   */\n      tag_391\n        /* \"#utility.yul\":16926:16929   */\n      dup3\n        /* \"#utility.yul\":16837:16930   */\n      tag_253\n      jump\t// in\n    tag_391:\n        /* \"#utility.yul\":16955:16957   */\n      0x20\n        /* \"#utility.yul\":16950:16953   */\n      dup3\n        /* \"#utility.yul\":16946:16958   */\n      add\n        /* \"#utility.yul\":16939:16958   */\n      swap1\n      pop\n        /* \"#utility.yul\":16598:16964   */\n      swap2\n      swap1\n      pop\n      jump\t// out\n        /* \"#utility.yul\":16970:17389   */\n    tag_166:\n        /* \"#utility.yul\":17136:17140   */\n      0x00\n        /* \"#utility.yul\":17174:17176   */\n      0x20\n        /* \"#utility.yul\":17163:17172   */\n      dup3\n        /* \"#utility.yul\":17159:17177   */\n      add\n        /* \"#utility.yul\":17151:17177   */\n      swap1\n      pop\n        /* \"#utility.yul\":17223:17232   */\n      dup2\n        /* \"#utility.yul\":17217:17221   */\n      dup2\n        /* \"#utility.yul\":17213:17233   */\n      sub\n        /* \"#utility.yul\":17209:17210   */\n      0x00\n        /* \"#utility.yul\":17198:17207   */\n      dup4\n        /* \"#utility.yul\":17194:17211   */\n      add\n        /* \"#utility.yul\":17187:17234   */\n      mstore\n        /* \"#utility.yul\":17251:17382   */\n      tag_393\n        /* \"#utility.yul\":17377:17381   */\n      dup2\n        /* \"#utility.yul\":17251:17382   */\n      tag_254\n      jump\t// in\n    tag_393:\n        /* \"#utility.yul\":17243:17382   */\n      swap1\n      pop\n        /* \"#utility.yul\":16970:17389   */\n      swap2\n      swap1\n      pop\n      jump\t// out\n        /* \"#utility.yul\":17395:17567   */\n    tag_255:\n        /* \"#utility.yul\":17535:17559   */\n      0x4e6565642066756c6c206f62736572766174696f6e7300000000000000000000\n        /* \"#utility.yul\":17531:17532   */\n      0x00\n        /* \"#utility.yul\":17523:17529   */\n      dup3\n        /* \"#utility.yul\":17519:17533   */\n      add\n        /* \"#utility.yul\":17512:17560   */\n      mstore\n        /* \"#utility.yul\":17395:17567   */\n      pop\n      jump\t// out\n        /* \"#utility.yul\":17573:17939   */\n    tag_256:\n        /* \"#utility.yul\":17715:17718   */\n      0x00\n        /* \"#utility.yul\":17736:17803   */\n      tag_396\n        /* \"#utility.yul\":17800:17802   */\n      0x16\n        /* \"#utility.yul\":17795:17798   */\n      dup4\n        /* \"#utility.yul\":17736:17803   */\n      tag_227\n      jump\t// in\n    tag_396:\n        /* \"#utility.yul\":17729:17803   */\n      swap2\n      pop\n        /* \"#utility.yul\":17812:17905   */\n      tag_397\n        /* \"#utility.yul\":17901:17904   */\n      dup3\n        /* \"#utility.yul\":17812:17905   */\n      tag_255\n      jump\t// in\n    tag_397:\n        /* \"#utility.yul\":17930:17932   */\n      0x20\n        /* \"#utility.yul\":17925:17928   */\n      dup3\n        /* \"#utility.yul\":17921:17933   */\n      add\n        /* \"#utility.yul\":17914:17933   */\n      swap1\n      pop\n        /* \"#utility.yul\":17573:17939   */\n      swap2\n      swap1\n      pop\n      jump\t// out\n        /* \"#utility.yul\":17945:18364   */\n    tag_171:\n        /* \"#utility.yul\":18111:18115   */\n      0x00\n        /* \"#utility.yul\":18149:18151   */\n      0x20\n        /* \"#utility.yul\":18138:18147   */\n      dup3\n        /* \"#utility.yul\":18134:18152   */\n      add\n        /* \"#utility.yul\":18126:18152   */\n      swap1\n      pop\n        /* \"#utility.yul\":18198:18207   */\n      dup2\n        /* \"#utility.yul\":18192:18196   */\n      dup2\n        /* \"#utility.yul\":18188:18208   */\n      sub\n        /* \"#utility.yul\":18184:18185   */\n      0x00\n        /* \"#utility.yul\":18173:18182   */\n      dup4\n        /* \"#utility.yul\":18169:18186   */\n      add\n        /* \"#utility.yul\":18162:18209   */\n      mstore\n        /* \"#utility.yul\":18226:18357   */\n      tag_399\n        /* \"#utility.yul\":18352:18356   */\n      dup2\n        /* \"#utility.yul\":18226:18357   */\n      tag_256\n      jump\t// in\n    tag_399:\n        /* \"#utility.yul\":18218:18357   */\n      swap1\n      pop\n        /* \"#utility.yul\":17945:18364   */\n      swap2\n      swap1\n      pop\n      jump\t// out\n        /* \"#utility.yul\":18370:18550   */\n    tag_174:\n        /* \"#utility.yul\":18418:18495   */\n      0x4e487b7100000000000000000000000000000000000000000000000000000000\n        /* \"#utility.yul\":18415:18416   */\n      0x00\n        /* \"#utility.yul\":18408:18496   */\n      mstore\n        /* \"#utility.yul\":18515:18519   */\n      0x41\n        /* \"#utility.yul\":18512:18513   */\n      0x04\n        /* \"#utility.yul\":18505:18520   */\n      mstore\n        /* \"#utility.yul\":18539:18543   */\n      0x24\n        /* \"#utility.yul\":18536:18537   */\n      0x00\n        /* \"#utility.yul\":18529:18544   */\n      revert\n        /* \"#utility.yul\":18556:18736   */\n    tag_181:\n        /* \"#utility.yul\":18604:18681   */\n      0x4e487b7100000000000000000000000000000000000000000000000000000000\n        /* \"#utility.yul\":18601:18602   */\n      0x00\n        /* \"#utility.yul\":18594:18682   */\n      mstore\n        /* \"#utility.yul\":18701:18705   */\n      0x32\n        /* \"#utility.yul\":18698:18699   */\n      0x04\n        /* \"#utility.yul\":18691:18706   */\n      mstore\n        /* \"#utility.yul\":18725:18729   */\n      0x24\n        /* \"#utility.yul\":18722:18723   */\n      0x00\n        /* \"#utility.yul\":18715:18730   */\n      revert\n        /* \"#utility.yul\":18742:18975   */\n    tag_186:\n        /* \"#utility.yul\":18781:18784   */\n      0x00\n        /* \"#utility.yul\":18804:18828   */\n      tag_403\n        /* \"#utility.yul\":18822:18827   */\n      dup3\n        /* \"#utility.yul\":18804:18828   */\n      tag_216\n      jump\t// in\n    tag_403:\n        /* \"#utility.yul\":18795:18828   */\n      swap2\n      pop\n        /* \"#utility.yul\":18850:18916   */\n      0xffffffffffffffffffffffffffffffffffffffffffffffffffffffffffffffff\n        /* \"#utility.yul\":18843:18848   */\n      dup3\n        /* \"#utility.yul\":18840:18917   */\n      sub\n        /* \"#utility.yul\":18837:18940   */\n      tag_404\n      jumpi\n        /* \"#utility.yul\":18920:18938   */\n      tag_405\n      tag_234\n      jump\t// in\n    tag_405:\n        /* \"#utility.yul\":18837:18940   */\n    tag_404:\n        /* \"#utility.yul\":18967:18968   */\n      0x01\n        /* \"#utility.yul\":18960:18965   */\n      dup3\n        /* \"#utility.yul\":18956:18969   */\n      add\n        /* \"#utility.yul\":18949:18969   */\n      swap1\n      pop\n        /* \"#utility.yul\":18742:18975   */\n      swap2\n      swap1\n      pop\n      jump\t// out\n        /* \"#utility.yul\":18981:19175   */\n    tag_196:\n        /* \"#utility.yul\":19021:19025   */\n      0x00\n        /* \"#utility.yul\":19041:19061   */\n      tag_407\n        /* \"#utility.yul\":19059:19060   */\n      dup3\n        /* \"#utility.yul\":19041:19061   */\n      tag_216\n      jump\t// in\n    tag_407:\n        /* \"#utility.yul\":19036:19061   */\n      swap2\n      pop\n        /* \"#utility.yul\":19075:19095   */\n      tag_408\n        /* \"#utility.yul\":19093:19094   */\n      dup4\n        /* \"#utility.yul\":19075:19095   */\n      tag_216\n      jump\t// in\n    tag_408:\n        /* \"#utility.yul\":19070:19095   */\n      swap3\n      pop\n        /* \"#utility.yul\":19119:19120   */\n      dup3\n        /* \"#utility.yul\":19116:19117   */\n      dup3\n        /* \"#utility.yul\":19112:19121   */\n      sub\n        /* \"#utility.yul\":19104:19121   */\n      swap1\n      pop\n        /* \"#utility.yul\":19143:19144   */\n      dup2\n        /* \"#utility.yul\":19137:19141   */\n      dup2\n        /* \"#utility.yul\":19134:19145   */\n      gt\n        /* \"#utility.yul\":19131:19168   */\n      iszero\n      tag_409\n      jumpi\n        /* \"#utility.yul\":19148:19166   */\n      tag_410\n      tag_234\n      jump\t// in\n    tag_410:\n        /* \"#utility.yul\":19131:19168   */\n    tag_409:\n        /* \"#utility.yul\":18981:19175   */\n      swap3\n      swap2\n      pop\n      pop\n      jump\t// out\n        /* \"#utility.yul\":19181:19352   */\n    tag_205:\n        /* \"#utility.yul\":19220:19223   */\n      0x00\n        /* \"#utility.yul\":19243:19267   */\n      tag_412\n        /* \"#utility.yul\":19261:19266   */\n      dup3\n        /* \"#utility.yul\":19243:19267   */\n      tag_216\n      jump\t// in\n    tag_412:\n        /* \"#utility.yul\":19234:19267   */\n      swap2\n      pop\n        /* \"#utility.yul\":19289:19293   */\n      0x00\n        /* \"#utility.yul\":19282:19287   */\n      dup3\n        /* \"#utility.yul\":19279:19294   */\n      sub\n        /* \"#utility.yul\":19276:19317   */\n      tag_413\n      jumpi\n        /* \"#utility.yul\":19297:19315   */\n      tag_414\n      tag_234\n      jump\t// in\n    tag_414:\n        /* \"#utility.yul\":19276:19317   */\n    tag_413:\n        /* \"#utility.yul\":19344:19345   */\n      0x01\n        /* \"#utility.yul\":19337:19342   */\n      dup3\n        /* \"#utility.yul\":19333:19346   */\n      sub\n        /* \"#utility.yul\":19326:19346   */\n      swap1\n      pop\n        /* \"#utility.yul\":19181:19352   */\n      swap2\n      swap1\n      pop\n      jump\t// out\n        /* \"#utility.yul\":19358:19538   */\n    tag_257:\n        /* \"#utility.yul\":19406:19483   */\n      0x4e487b7100000000000000000000000000000000000000000000000000000000\n        /* \"#utility.yul\":19403:19404   */\n      0x00\n        /* \"#utility.yul\":19396:19484   */\n      mstore\n        /* \"#utility.yul\":19503:19507   */\n      0x12\n        /* \"#utility.yul\":19500:19501   */\n      0x04\n        /* \"#utility.yul\":19493:19508   */\n      mstore\n        /* \"#utility.yul\":19527:19531   */\n      0x24\n        /* \"#utility.yul\":19524:19525   */\n      0x00\n        /* \"#utility.yul\":19517:19532   */\n      revert\n        /* \"#utility.yul\":19544:19729   */\n    tag_210:\n        /* \"#utility.yul\":19584:19585   */\n      0x00\n        /* \"#utility.yul\":19601:19621   */\n      tag_417\n        /* \"#utility.yul\":19619:19620   */\n      dup3\n        /* \"#utility.yul\":19601:19621   */\n      tag_216\n      jump\t// in\n    tag_417:\n        /* \"#utility.yul\":19596:19621   */\n      swap2\n      pop\n        /* \"#utility.yul\":19635:19655   */\n      tag_418\n        /* \"#utility.yul\":19653:19654   */\n      dup4\n        /* \"#utility.yul\":19635:19655   */\n      tag_216\n      jump\t// in\n    tag_418:\n        /* \"#utility.yul\":19630:19655   */\n      swap3\n      pop\n        /* \"#utility.yul\":19674:19675   */\n      dup3\n        /* \"#utility.yul\":19664:19699   */\n      tag_419\n      jumpi\n        /* \"#utility.yul\":19679:19697   */\n      tag_420\n      tag_257\n      jump\t// in\n    tag_420:\n        /* \"#utility.yul\":19664:19699   */\n    tag_419:\n        /* \"#utility.yul\":19721:19722   */\n      dup3\n        /* \"#utility.yul\":19718:19719   */\n      dup3\n        /* \"#utility.yul\":19714:19723   */\n      div\n        /* \"#utility.yul\":19709:19723   */\n      swap1\n      pop\n        /* \"#utility.yul\":19544:19729   */\n      swap3\n      swap2\n      pop\n      pop\n      jump\t// out\n\n    auxdata: 0xa26469706673582212200adbd1ff8b7033b2ac6b162b9680d4bef9ba46e9342ca05a4a38448fd84a908364736f6c63430008110033\n}\n",
				"bytecode": {
					"linkReferences": {},
					"object": "60a06040526107086003553480156200001757600080fd5b50604051620026923803806200269283398181016040528101906200003d919062000581565b60038251101562000085576040517f08c379a00000000000000000000000000000000000000000000000000000000081526004016200007c9062000648565b60405180910390fd5b60016002835162000097919062000699565b14620000da576040517f08c379a0000000000000000000000000000000000000000000000000000000008152600401620000d19062000721565b60405180910390fd5b60018110158015620000ed575081518111155b6200012f576040517f08c379a0000000000000000000000000000000000000000000000000000000008152600401620001269062000793565b60405180910390fd5b3373ffffffffffffffffffffffffffffffffffffffff1660808173ffffffffffffffffffffffffffffffffffffffff168152505060005b825181101562000301576000838281518110620001885762000187620007b5565b5b60200260200101519050600073ffffffffffffffffffffffffffffffffffffffff168173ffffffffffffffffffffffffffffffffffffffff160362000204576040517f08c379a0000000000000000000000000000000000000000000000000000000008152600401620001fb9062000834565b60405180910390fd5b6000808273ffffffffffffffffffffffffffffffffffffffff1673ffffffffffffffffffffffffffffffffffffffff16815260200190815260200160002060009054906101000a900460ff161562000293576040517f08c379a00000000000000000000000000000000000000000000000000000000081526004016200028a90620008a6565b60405180910390fd5b60016000808373ffffffffffffffffffffffffffffffffffffffff1673ffffffffffffffffffffffffffffffffffffffff16815260200190815260200160002060006101000a81548160ff021916908315150217905550508080620002f890620008f7565b91505062000166565b508151600181905550806002819055507f81bdc869c5bfb1447e9cfc5153244b922480bad88b438b80dc6d92c50de3546c6001546002546040516200034892919062000955565b60405180910390a1505062000982565b6000604051905090565b600080fd5b600080fd5b600080fd5b6000601f19601f8301169050919050565b7f4e487b7100000000000000000000000000000000000000000000000000000000600052604160045260246000fd5b620003bc8262000371565b810181811067ffffffffffffffff82111715620003de57620003dd62000382565b5b80604052505050565b6000620003f362000358565b9050620004018282620003b1565b919050565b600067ffffffffffffffff82111562000424576200042362000382565b5b602082029050602081019050919050565b600080fd5b600073ffffffffffffffffffffffffffffffffffffffff82169050919050565b600062000467826200043a565b9050919050565b62000479816200045a565b81146200048557600080fd5b50565b60008151905062000499816200046e565b92915050565b6000620004b6620004b08462000406565b620003e7565b90508083825260208201905060208402830185811115620004dc57620004db62000435565b5b835b81811015620005095780620004f4888262000488565b845260208401935050602081019050620004de565b5050509392505050565b600082601f8301126200052b576200052a6200036c565b5b81516200053d8482602086016200049f565b91505092915050565b6000819050919050565b6200055b8162000546565b81146200056757600080fd5b50565b6000815190506200057b8162000550565b92915050565b600080604083850312156200059b576200059a62000362565b5b600083015167ffffffffffffffff811115620005bc57620005bb62000367565b5b620005ca8582860162000513565b9250506020620005dd858286016200056a565b9150509250929050565b600082825260208201905092915050565b7f4e656564203e3d33206f7261636c657300000000000000000000000000000000600082015250565b600062000630601083620005e7565b91506200063d82620005f8565b602082019050919050565b60006020820190508181036000830152620006638162000621565b9050919050565b7f4e487b7100000000000000000000000000000000000000000000000000000000600052601260045260246000fd5b6000620006a68262000546565b9150620006b38362000546565b925082620006c657620006c56200066a565b5b828206905092915050565b7f4f7261636c6520636f756e74206d757374206265206f64640000000000000000600082015250565b600062000709601883620005e7565b91506200071682620006d1565b602082019050919050565b600060208201905081810360008301526200073c81620006fa565b9050919050565b7f426164207468726573686f6c6400000000000000000000000000000000000000600082015250565b60006200077b600d83620005e7565b9150620007888262000743565b602082019050919050565b60006020820190508181036000830152620007ae816200076c565b9050919050565b7f4e487b7100000000000000000000000000000000000000000000000000000000600052603260045260246000fd5b7f5a65726f206f7261636c65000000000000000000000000000000000000000000600082015250565b60006200081c600b83620005e7565b91506200082982620007e4565b602082019050919050565b600060208201905081810360008301526200084f816200080d565b9050919050565b7f4475706c6963617465206f7261636c6500000000000000000000000000000000600082015250565b60006200088e601083620005e7565b91506200089b8262000856565b602082019050919050565b60006020820190508181036000830152620008c1816200087f565b9050919050565b7f4e487b7100000000000000000000000000000000000000000000000000000000600052601160045260246000fd5b6000620009048262000546565b91507fffffffffffffffffffffffffffffffffffffffffffffffffffffffffffffffff8203620009395762000938620008c8565b5b600182019050919050565b6200094f8162000546565b82525050565b60006040820190506200096c600083018562000944565b6200097b602083018462000944565b9392505050565b608051611ce6620009ac600039600081816103d2015281816103fc015261053d0152611ce66000f3fe608060405234801561001057600080fd5b50600436106101165760003560e01c8063668a0f02116100a2578063a97e5c9311610071578063a97e5c931461028e578063d486a0d2146102be578063e966be71146102c8578063ec7aaca3146102f8578063fefe0ea01461031457610116565b8063668a0f021461022a5780636798699b1461024857806380475516146102525780638cd221c91461027057610116565b80633e66a647116100e95780633e66a647146101a85780634222c7fb146101c65780634ab5cc82146101e4578063606deecd14610202578063613d8fcc1461020c57610116565b80631086bfdc1461011b57806310e1d8ca146101505780631d2384111461016e57806336f945cd1461018c575b600080fd5b6101356004803603810190610130919061130e565b610344565b60405161014796959493929190611365565b60405180910390f35b6101586103d0565b6040516101659190611407565b60405180910390f35b6101766103f4565b6040516101839190611422565b60405180910390f35b6101a660048036038101906101a1919061130e565b6103fa565b005b6101b061051c565b6040516101bd9190611422565b60405180910390f35b6101ce610522565b6040516101db919061143d565b60405180910390f35b6101ec610535565b6040516101f99190611422565b60405180910390f35b61020a61053b565b005b610214610686565b6040516102219190611422565b60405180910390f35b61023261068c565b60405161023f9190611422565b60405180910390f35b610250610692565b005b61025a6107be565b6040516102679190611422565b60405180910390f35b6102786107c4565b6040516102859190611422565b60405180910390f35b6102a860048036038101906102a39190611484565b6107ca565b6040516102b5919061143d565b60405180910390f35b6102c66107ea565b005b6102e260048036038101906102dd91906114b1565b610ae7565b6040516102ef919061143d565b60405180910390f35b610312600480360381019061030d919061130e565b610b52565b005b61032e600480360381019061032991906114b1565b610eb7565b60405161033b919061143d565b60405180910390f35b60008060008060008060006009600089815260200190815260200160002090506000600560009054906101000a900460ff168015610383575060045489145b9050808260000160009054906101000a900460ff168360000160019054906101000a900460ff16846001015485600201548660030154975097509750975097509750505091939550919395565b7f000000000000000000000000000000000000000000000000000000000000000081565b60025481565b7f000000000000000000000000000000000000000000000000000000000000000073ffffffffffffffffffffffffffffffffffffffff163373ffffffffffffffffffffffffffffffffffffffff1614610488576040517f08c379a000000000000000000000000000000000000000000000000000000000815260040161047f9061154e565b60405180910390fd5b603c811015801561049c575062093a808111155b6104db576040517f08c379a00000000000000000000000000000000000000000000000000000000081526004016104d2906115ba565b60405180910390fd5b806003819055507f1a1cd30e223035d872019b55a16a88e0fad18aac07397d463628bf771cc10b94816040516105119190611422565b60405180910390a150565b60065481565b600560009054906101000a900460ff1681565b60075481565b7f000000000000000000000000000000000000000000000000000000000000000073ffffffffffffffffffffffffffffffffffffffff163373ffffffffffffffffffffffffffffffffffffffff16146105c9576040517f08c379a00000000000000000000000000000000000000000000000000000000081526004016105c09061154e565b60405180910390fd5b600560009054906101000a900460ff1615610619576040517f08c379a000000000000000000000000000000000000000000000000000000000815260040161061090611626565b60405180910390fd5b60016004600082825461062c9190611675565b925050819055506001600560006101000a81548160ff021916908315150217905550426006819055506004547f35627151f04080049c4603628b94879b241dc64b255b7347a7632165d45ee51e60405160405180910390a2565b60015481565b60085481565b600560009054906101000a900460ff166106e1576040517f08c379a00000000000000000000000000000000000000000000000000000000081526004016106d8906116f5565b60405180910390fd5b6003546006546106f19190611675565b4211610732576040517f08c379a000000000000000000000000000000000000000000000000000000000815260040161072990611761565b60405180910390fd5b6000600560006101000a81548160ff0219169083151502179055506000600960006004548152602001908152602001600020905060018160000160016101000a81548160ff0219169083151502179055506004547fbc1f2817c8da8aa582f7fe3340aaa9ab36778feeb860785edf2c078abc221c996040516107b3906117cd565b60405180910390a250565b60035481565b60045481565b60006020528060005260406000206000915054906101000a900460ff1681565b6000803373ffffffffffffffffffffffffffffffffffffffff1673ffffffffffffffffffffffffffffffffffffffff16815260200190815260200160002060009054906101000a900460ff16610875576040517f08c379a000000000000000000000000000000000000000000000000000000000815260040161086c90611839565b60405180910390fd5b600560009054906101000a900460ff166108c4576040517f08c379a00000000000000000000000000000000000000000000000000000000081526004016108bb906116f5565b60405180910390fd5b600060096000600454815260200190815260200160002090508060000160009054906101000a900460ff1661092e576040517f08c379a0000000000000000000000000000000000000000000000000000000008152600401610925906118a5565b60405180910390fd5b8060000160019054906101000a900460ff1615610980576040517f08c379a000000000000000000000000000000000000000000000000000000000815260040161097790611911565b60405180910390fd5b8060060160003373ffffffffffffffffffffffffffffffffffffffff1673ffffffffffffffffffffffffffffffffffffffff16815260200190815260200160002060009054906101000a900460ff1615610a0f576040517f08c379a0000000000000000000000000000000000000000000000000000000008152600401610a069061197d565b60405180910390fd5b60018160060160003373ffffffffffffffffffffffffffffffffffffffff1673ffffffffffffffffffffffffffffffffffffffff16815260200190815260200160002060006101000a81548160ff0219169083151502179055506001816002016000828254610a7e9190611675565b925050819055506004543373ffffffffffffffffffffffffffffffffffffffff167f752841bb8d9447c749e7137329379cd7f0b7c3321dc84512fd2c36a958c6b48660405160405180910390a3600254816002015410610ae457610ae3600454610f22565b5b50565b60006009600084815260200190815260200160002060060160008373ffffffffffffffffffffffffffffffffffffffff1673ffffffffffffffffffffffffffffffffffffffff16815260200190815260200160002060009054906101000a900460ff16905092915050565b6000803373ffffffffffffffffffffffffffffffffffffffff1673ffffffffffffffffffffffffffffffffffffffff16815260200190815260200160002060009054906101000a900460ff16610bdd576040517f08c379a0000000000000000000000000000000000000000000000000000000008152600401610bd490611839565b60405180910390fd5b600560009054906101000a900460ff16610c2c576040517f08c379a0000000000000000000000000000000000000000000000000000000008152600401610c23906116f5565b60405180910390fd5b600060096000600454815260200190815260200160002090508060000160019054906101000a900460ff1615610c97576040517f08c379a0000000000000000000000000000000000000000000000000000000008152600401610c8e90611911565b60405180910390fd5b8060050160003373ffffffffffffffffffffffffffffffffffffffff1673ffffffffffffffffffffffffffffffffffffffff16815260200190815260200160002060009054906101000a900460ff1615610d26576040517f08c379a0000000000000000000000000000000000000000000000000000000008152600401610d1d906119e9565b60405180910390fd5b60018160050160003373ffffffffffffffffffffffffffffffffffffffff1673ffffffffffffffffffffffffffffffffffffffff16815260200190815260200160002060006101000a81548160ff0219169083151502179055506001816001016000828254610d959190611675565b92505081905550806004018290806001815401808255809150506001900390600052602060002001600090919091909150556004543373ffffffffffffffffffffffffffffffffffffffff167f469a3191359dfdfd5de3f3cd7cd92be8ff1cae1508ef03736457accd35f331af84604051610e109190611422565b60405180910390a36001548160010154148015610e3c57508060000160009054906101000a900460ff16155b15610eb3576000610e4f826004016110af565b905080826003018190555060018260000160006101000a81548160ff0219169083151502179055506004547f953143e8b5ab8e3f4585a4994f5ba2b58c7e78d378d1a156ce67e54374afddee82604051610ea99190611422565b60405180910390a2505b5050565b60006009600084815260200190815260200160002060050160008373ffffffffffffffffffffffffffffffffffffffff1673ffffffffffffffffffffffffffffffffffffffff16815260200190815260200160002060009054906101000a900460ff16905092915050565b60006009600083815260200190815260200160002090508060000160009054906101000a900460ff16610f8a576040517f08c379a0000000000000000000000000000000000000000000000000000000008152600401610f81906118a5565b60405180910390fd5b8060000160019054906101000a900460ff1615610fdc576040517f08c379a0000000000000000000000000000000000000000000000000000000008152600401610fd390611a55565b60405180910390fd5b60025481600201541015611025576040517f08c379a000000000000000000000000000000000000000000000000000000000815260040161101c90611ac1565b60405180910390fd5b60018160000160016101000a81548160ff0219169083151502179055506000600560006101000a81548160ff021916908315150217905550806003015460078190555081600881905550817fb968440accd1ce5fa60b00de8bb8d8487eb2fda3c3701fb30fea3f69aa910a4882600301546040516110a39190611422565b60405180910390a25050565b6000808280549050905060015481146110fd576040517f08c379a00000000000000000000000000000000000000000000000000000000081526004016110f490611b2d565b60405180910390fd5b60008167ffffffffffffffff81111561111957611118611b4d565b5b6040519080825280602002602001820160405280156111475781602001602082028036833780820191505090505b50905060005b828110156111a55784818154811061116857611167611b7c565b5b906000526020600020015482828151811061118657611185611b7c565b5b602002602001018181525050808061119d90611bab565b91505061114d565b506000600190505b828110156112a25760008282815181106111ca576111c9611b7c565b5b6020026020010151905060008290505b60008111801561120f575081846001836111f49190611bf3565b8151811061120557611204611b7c565b5b6020026020010151115b1561126d57836001826112229190611bf3565b8151811061123357611232611b7c565b5b602002602001015184828151811061124e5761124d611b7c565b5b602002602001018181525050808061126590611c27565b9150506111da565b8184828151811061128157611280611b7c565b5b6020026020010181815250505050808061129a90611bab565b9150506111ad565b50806002836112b19190611c7f565b815181106112c2576112c1611b7c565b5b602002602001015192505050919050565b600080fd5b6000819050919050565b6112eb816112d8565b81146112f657600080fd5b50565b600081359050611308816112e2565b92915050565b600060208284031215611324576113236112d3565b5b6000611332848285016112f9565b91505092915050565b60008115159050919050565b6113508161133b565b82525050565b61135f816112d8565b82525050565b600060c08201905061137a6000830189611347565b6113876020830188611347565b6113946040830187611347565b6113a16060830186611356565b6113ae6080830185611356565b6113bb60a0830184611356565b979650505050505050565b600073ffffffffffffffffffffffffffffffffffffffff82169050919050565b60006113f1826113c6565b9050919050565b611401816113e6565b82525050565b600060208201905061141c60008301846113f8565b92915050565b60006020820190506114376000830184611356565b92915050565b60006020820190506114526000830184611347565b92915050565b611461816113e6565b811461146c57600080fd5b50565b60008135905061147e81611458565b92915050565b60006020828403121561149a576114996112d3565b5b60006114a88482850161146f565b91505092915050565b600080604083850312156114c8576114c76112d3565b5b60006114d6858286016112f9565b92505060206114e78582860161146f565b9150509250929050565b600082825260208201905092915050565b7f4e6f742050617274794100000000000000000000000000000000000000000000600082015250565b6000611538600a836114f1565b915061154382611502565b602082019050919050565b600060208201905081810360008301526115678161152b565b9050919050565b7f54696d656f7574206f7574206f662072616e6765000000000000000000000000600082015250565b60006115a46014836114f1565b91506115af8261156e565b602082019050919050565b600060208201905081810360008301526115d381611597565b9050919050565b7f50726576696f757320726f756e64206163746976650000000000000000000000600082015250565b60006116106015836114f1565b915061161b826115da565b602082019050919050565b6000602082019050818103600083015261163f81611603565b9050919050565b7f4e487b7100000000000000000000000000000000000000000000000000000000600052601160045260246000fd5b6000611680826112d8565b915061168b836112d8565b92508282019050808211156116a3576116a2611646565b5b92915050565b7f4e6f206163746976652072657175657374000000000000000000000000000000600082015250565b60006116df6011836114f1565b91506116ea826116a9565b602082019050919050565b6000602082019050818103600083015261170e816116d2565b9050919050565b7f4e6f742074696d6564206f757420796574000000000000000000000000000000600082015250565b600061174b6011836114f1565b915061175682611715565b602082019050919050565b6000602082019050818103600083015261177a8161173e565b9050919050565b7f74696d656f757400000000000000000000000000000000000000000000000000600082015250565b60006117b76007836114f1565b91506117c282611781565b602082019050919050565b600060208201905081810360008301526117e6816117aa565b9050919050565b7f4e6f742077686974656c6973746564206f7261636c6500000000000000000000600082015250565b60006118236016836114f1565b915061182e826117ed565b602082019050919050565b6000602082019050818103600083015261185281611816565b9050919050565b7f5265706f7274206e6f7420726561647900000000000000000000000000000000600082015250565b600061188f6010836114f1565b915061189a82611859565b602082019050919050565b600060208201905081810360008301526118be81611882565b9050919050565b7f526f756e642066696e616c697a65640000000000000000000000000000000000600082015250565b60006118fb600f836114f1565b9150611906826118c5565b602082019050919050565b6000602082019050818103600083015261192a816118ee565b9050919050565b7f416c726561647920636f6e6669726d6564000000000000000000000000000000600082015250565b60006119676011836114f1565b915061197282611931565b602082019050919050565b600060208201905081810360008301526119968161195a565b9050919050565b7f4f62736572766174696f6e20616c7265616479207375626d6974746564000000600082015250565b60006119d3601d836114f1565b91506119de8261199d565b602082019050919050565b60006020820190508181036000830152611a02816119c6565b9050919050565b7f416c72656164792066696e616c697a6564000000000000000000000000000000600082015250565b6000611a3f6011836114f1565b9150611a4a82611a09565b602082019050919050565b60006020820190508181036000830152611a6e81611a32565b9050919050565b7f51756f72756d206e6f7420726561636865640000000000000000000000000000600082015250565b6000611aab6012836114f1565b9150611ab682611a75565b602082019050919050565b60006020820190508181036000830152611ada81611a9e565b9050919050565b7f4e6565642066756c6c206f62736572766174696f6e7300000000000000000000600082015250565b6000611b176016836114f1565b9150611b2282611ae1565b602082019050919050565b60006020820190508181036000830152611b4681611b0a565b9050919050565b7f4e487b7100000000000000000000000000000000000000000000000000000000600052604160045260246000fd5b7f4e487b7100000000000000000000000000000000000000000000000000000000600052603260045260246000fd5b6000611bb6826112d8565b91507fffffffffffffffffffffffffffffffffffffffffffffffffffffffffffffffff8203611be857611be7611646565b5b600182019050919050565b6000611bfe826112d8565b9150611c09836112d8565b9250828203905081811115611c2157611c20611646565b5b92915050565b6000611c32826112d8565b915060008203611c4557611c44611646565b5b600182039050919050565b7f4e487b7100000000000000000000000000000000000000000000000000000000600052601260045260246000fd5b6000611c8a826112d8565b9150611c95836112d8565b925082611ca557611ca4611c50565b5b82820490509291505056fea26469706673582212200adbd1ff8b7033b2ac6b162b9680d4bef9ba46e9342ca05a4a38448fd84a908364736f6c63430008110033",
					"opcodes": "PUSH1 0xA0 PUSH1 0x40 MSTORE PUSH2 0x708 PUSH1 0x3 SSTORE CALLVALUE DUP1 ISZERO PUSH3 0x17 JUMPI PUSH1 0x0 DUP1 REVERT JUMPDEST POP PUSH1 0x40 MLOAD PUSH3 0x2692 CODESIZE SUB DUP1 PUSH3 0x2692 DUP4 CODECOPY DUP2 DUP2 ADD PUSH1 0x40 MSTORE DUP2 ADD SWAP1 PUSH3 0x3D SWAP2 SWAP1 PUSH3 0x581 JUMP JUMPDEST PUSH1 0x3 DUP3 MLOAD LT ISZERO PUSH3 0x85 JUMPI PUSH1 0x40 MLOAD PUSH32 0x8C379A000000000000000000000000000000000000000000000000000000000 DUP2 MSTORE PUSH1 0x4 ADD PUSH3 0x7C SWAP1 PUSH3 0x648 JUMP JUMPDEST PUSH1 0x40 MLOAD DUP1 SWAP2 SUB SWAP1 REVERT JUMPDEST PUSH1 0x1 PUSH1 0x2 DUP4 MLOAD PUSH3 0x97 SWAP2 SWAP1 PUSH3 0x699 JUMP JUMPDEST EQ PUSH3 0xDA JUMPI PUSH1 0x40 MLOAD PUSH32 0x8C379A000000000000000000000000000000000000000000000000000000000 DUP2 MSTORE PUSH1 0x4 ADD PUSH3 0xD1 SWAP1 PUSH3 0x721 JUMP JUMPDEST PUSH1 0x40 MLOAD DUP1 SWAP2 SUB SWAP1 REVERT JUMPDEST PUSH1 0x1 DUP2 LT ISZERO DUP1 ISZERO PUSH3 0xED JUMPI POP DUP2 MLOAD DUP2 GT ISZERO JUMPDEST PUSH3 0x12F JUMPI PUSH1 0x40 MLOAD PUSH32 0x8C379A000000000000000000000000000000000000000000000000000000000 DUP2 MSTORE PUSH1 0x4 ADD PUSH3 0x126 SWAP1 PUSH3 0x793 JUMP JUMPDEST PUSH1 0x40 MLOAD DUP1 SWAP2 SUB SWAP1 REVERT JUMPDEST CALLER PUSH20 0xFFFFFFFFFFFFFFFFFFFFFFFFFFFFFFFFFFFFFFFF AND PUSH1 0x80 DUP2 PUSH20 0xFFFFFFFFFFFFFFFFFFFFFFFFFFFFFFFFFFFFFFFF AND DUP2 MSTORE POP POP PUSH1 0x0 JUMPDEST DUP3 MLOAD DUP2 LT ISZERO PUSH3 0x301 JUMPI PUSH1 0x0 DUP4 DUP3 DUP2 MLOAD DUP2 LT PUSH3 0x188 JUMPI PUSH3 0x187 PUSH3 0x7B5 JUMP JUMPDEST JUMPDEST PUSH1 0x20 MUL PUSH1 0x20 ADD ADD MLOAD SWAP1 POP PUSH1 0x0 PUSH20 0xFFFFFFFFFFFFFFFFFFFFFFFFFFFFFFFFFFFFFFFF AND DUP2 PUSH20 0xFFFFFFFFFFFFFFFFFFFFFFFFFFFFFFFFFFFFFFFF AND SUB PUSH3 0x204 JUMPI PUSH1 0x40 MLOAD PUSH32 0x8C379A000000000000000000000000000000000000000000000000000000000 DUP2 MSTORE PUSH1 0x4 ADD PUSH3 0x1FB SWAP1 PUSH3 0x834 JUMP JUMPDEST PUSH1 0x40 MLOAD DUP1 SWAP2 SUB SWAP1 REVERT JUMPDEST PUSH1 0x0 DUP1 DUP3 PUSH20 0xFFFFFFFFFFFFFFFFFFFFFFFFFFFFFFFFFFFFFFFF AND PUSH20 0xFFFFFFFFFFFFFFFFFFFFFFFFFFFFFFFFFFFFFFFF AND DUP2 MSTORE PUSH1 0x20 ADD SWAP1 DUP2 MSTORE PUSH1 0x20 ADD PUSH1 0x0 KECCAK256 PUSH1 0x0 SWAP1 SLOAD SWAP1 PUSH2 0x100 EXP SWAP1 DIV PUSH1 0xFF AND ISZERO PUSH3 0x293 JUMPI PUSH1 0x40 MLOAD PUSH32 0x8C379A000000000000000000000000000000000000000000000000000000000 DUP2 MSTORE PUSH1 0x4 ADD PUSH3 0x28A SWAP1 PUSH3 0x8A6 JUMP JUMPDEST PUSH1 0x40 MLOAD DUP1 SWAP2 SUB SWAP1 REVERT JUMPDEST PUSH1 0x1 PUSH1 0x0 DUP1 DUP4 PUSH20 0xFFFFFFFFFFFFFFFFFFFFFFFFFFFFFFFFFFFFFFFF AND PUSH20 0xFFFFFFFFFFFFFFFFFFFFFFFFFFFFFFFFFFFFFFFF AND DUP2 MSTORE PUSH1 0x20 ADD SWAP1 DUP2 MSTORE PUSH1 0x20 ADD PUSH1 0x0 KECCAK256 PUSH1 0x0 PUSH2 0x100 EXP DUP2 SLOAD DUP2 PUSH1 0xFF MUL NOT AND SWAP1 DUP4 ISZERO ISZERO MUL OR SWAP1 SSTORE POP POP DUP1 DUP1 PUSH3 0x2F8 SWAP1 PUSH3 0x8F7 JUMP JUMPDEST SWAP2 POP POP PUSH3 0x166 JUMP JUMPDEST POP DUP2 MLOAD PUSH1 0x1 DUP2 SWAP1 SSTORE POP DUP1 PUSH1 0x2 DUP2 SWAP1 SSTORE POP PUSH32 0x81BDC869C5BFB1447E9CFC5153244B922480BAD88B438B80DC6D92C50DE3546C PUSH1 0x1 SLOAD PUSH1 0x2 SLOAD PUSH1 0x40 MLOAD PUSH3 0x348 SWAP3 SWAP2 SWAP1 PUSH3 0x955 JUMP JUMPDEST PUSH1 0x40 MLOAD DUP1 SWAP2 SUB SWAP1 LOG1 POP POP PUSH3 0x982 JUMP JUMPDEST PUSH1 0x0 PUSH1 0x40 MLOAD SWAP1 POP SWAP1 JUMP JUMPDEST PUSH1 0x0 DUP1 REVERT JUMPDEST PUSH1 0x0 DUP1 REVERT JUMPDEST PUSH1 0x0 DUP1 REVERT JUMPDEST PUSH1 0x0 PUSH1 0x1F NOT PUSH1 0x1F DUP4 ADD AND SWAP1 POP SWAP2 SWAP1 POP JUMP JUMPDEST PUSH32 0x4E487B7100000000000000000000000000000000000000000000000000000000 PUSH1 0x0 MSTORE PUSH1 0x41 PUSH1 0x4 MSTORE PUSH1 0x24 PUSH1 0x0 REVERT JUMPDEST PUSH3 0x3BC DUP3 PUSH3 0x371 JUMP JUMPDEST DUP2 ADD DUP2 DUP2 LT PUSH8 0xFFFFFFFFFFFFFFFF DUP3 GT OR ISZERO PUSH3 0x3DE JUMPI PUSH3 0x3DD PUSH3 0x382 JUMP JUMPDEST JUMPDEST DUP1 PUSH1 0x40 MSTORE POP POP POP JUMP JUMPDEST PUSH1 0x0 PUSH3 0x3F3 PUSH3 0x358 JUMP JUMPDEST SWAP1 POP PUSH3 0x401 DUP3 DUP3 PUSH3 0x3B1 JUMP JUMPDEST SWAP2 SWAP1 POP JUMP JUMPDEST PUSH1 0x0 PUSH8 0xFFFFFFFFFFFFFFFF DUP3 GT ISZERO PUSH3 0x424 JUMPI PUSH3 0x423 PUSH3 0x382 JUMP JUMPDEST JUMPDEST PUSH1 0x20 DUP3 MUL SWAP1 POP PUSH1 0x20 DUP2 ADD SWAP1 POP SWAP2 SWAP1 POP JUMP JUMPDEST PUSH1 0x0 DUP1 REVERT JUMPDEST PUSH1 0x0 PUSH20 0xFFFFFFFFFFFFFFFFFFFFFFFFFFFFFFFFFFFFFFFF DUP3 AND SWAP1 POP SWAP2 SWAP1 POP JUMP JUMPDEST PUSH1 0x0 PUSH3 0x467 DUP3 PUSH3 0x43A JUMP JUMPDEST SWAP1 POP SWAP2 SWAP1 POP JUMP JUMPDEST PUSH3 0x479 DUP2 PUSH3 0x45A JUMP JUMPDEST DUP2 EQ PUSH3 0x485 JUMPI PUSH1 0x0 DUP1 REVERT JUMPDEST POP JUMP JUMPDEST PUSH1 0x0 DUP2 MLOAD SWAP1 POP PUSH3 0x499 DUP2 PUSH3 0x46E JUMP JUMPDEST SWAP3 SWAP2 POP POP JUMP JUMPDEST PUSH1 0x0 PUSH3 0x4B6 PUSH3 0x4B0 DUP5 PUSH3 0x406 JUMP JUMPDEST PUSH3 0x3E7 JUMP JUMPDEST SWAP1 POP DUP1 DUP4 DUP3 MSTORE PUSH1 0x20 DUP3 ADD SWAP1 POP PUSH1 0x20 DUP5 MUL DUP4 ADD DUP6 DUP2 GT ISZERO PUSH3 0x4DC JUMPI PUSH3 0x4DB PUSH3 0x435 JUMP JUMPDEST JUMPDEST DUP4 JUMPDEST DUP2 DUP2 LT ISZERO PUSH3 0x509 JUMPI DUP1 PUSH3 0x4F4 DUP9 DUP3 PUSH3 0x488 JUMP JUMPDEST DUP5 MSTORE PUSH1 0x20 DUP5 ADD SWAP4 POP POP PUSH1 0x20 DUP2 ADD SWAP1 POP PUSH3 0x4DE JUMP JUMPDEST POP POP POP SWAP4 SWAP3 POP POP POP JUMP JUMPDEST PUSH1 0x0 DUP3 PUSH1 0x1F DUP4 ADD SLT PUSH3 0x52B JUMPI PUSH3 0x52A PUSH3 0x36C JUMP JUMPDEST JUMPDEST DUP2 MLOAD PUSH3 0x53D DUP5 DUP3 PUSH1 0x20 DUP7 ADD PUSH3 0x49F JUMP JUMPDEST SWAP2 POP POP SWAP3 SWAP2 POP POP JUMP JUMPDEST PUSH1 0x0 DUP2 SWAP1 POP SWAP2 SWAP1 POP JUMP JUMPDEST PUSH3 0x55B DUP2 PUSH3 0x546 JUMP JUMPDEST DUP2 EQ PUSH3 0x567 JUMPI PUSH1 0x0 DUP1 REVERT JUMPDEST POP JUMP JUMPDEST PUSH1 0x0 DUP2 MLOAD SWAP1 POP PUSH3 0x57B DUP2 PUSH3 0x550 JUMP JUMPDEST SWAP3 SWAP2 POP POP JUMP JUMPDEST PUSH1 0x0 DUP1 PUSH1 0x40 DUP4 DUP6 SUB SLT ISZERO PUSH3 0x59B JUMPI PUSH3 0x59A PUSH3 0x362 JUMP JUMPDEST JUMPDEST PUSH1 0x0 DUP4 ADD MLOAD PUSH8 0xFFFFFFFFFFFFFFFF DUP2 GT ISZERO PUSH3 0x5BC JUMPI PUSH3 0x5BB PUSH3 0x367 JUMP JUMPDEST JUMPDEST PUSH3 0x5CA DUP6 DUP3 DUP7 ADD PUSH3 0x513 JUMP JUMPDEST SWAP3 POP POP PUSH1 0x20 PUSH3 0x5DD DUP6 DUP3 DUP7 ADD PUSH3 0x56A JUMP JUMPDEST SWAP2 POP POP SWAP3 POP SWAP3 SWAP1 POP JUMP JUMPDEST PUSH1 0x0 DUP3 DUP3 MSTORE PUSH1 0x20 DUP3 ADD SWAP1 POP SWAP3 SWAP2 POP POP JUMP JUMPDEST PUSH32 0x4E656564203E3D33206F7261636C657300000000000000000000000000000000 PUSH1 0x0 DUP3 ADD MSTORE POP JUMP JUMPDEST PUSH1 0x0 PUSH3 0x630 PUSH1 0x10 DUP4 PUSH3 0x5E7 JUMP JUMPDEST SWAP2 POP PUSH3 0x63D DUP3 PUSH3 0x5F8 JUMP JUMPDEST PUSH1 0x20 DUP3 ADD SWAP1 POP SWAP2 SWAP1 POP JUMP JUMPDEST PUSH1 0x0 PUSH1 0x20 DUP3 ADD SWAP1 POP DUP2 DUP2 SUB PUSH1 0x0 DUP4 ADD MSTORE PUSH3 0x663 DUP2 PUSH3 0x621 JUMP JUMPDEST SWAP1 POP SWAP2 SWAP1 POP JUMP JUMPDEST PUSH32 0x4E487B7100000000000000000000000000000000000000000000000000000000 PUSH1 0x0 MSTORE PUSH1 0x12 PUSH1 0x4 MSTORE PUSH1 0x24 PUSH1 0x0 REVERT JUMPDEST PUSH1 0x0 PUSH3 0x6A6 DUP3 PUSH3 0x546 JUMP JUMPDEST SWAP2 POP PUSH3 0x6B3 DUP4 PUSH3 0x546 JUMP JUMPDEST SWAP3 POP DUP3 PUSH3 0x6C6 JUMPI PUSH3 0x6C5 PUSH3 0x66A JUMP JUMPDEST JUMPDEST DUP3 DUP3 MOD SWAP1 POP SWAP3 SWAP2 POP POP JUMP JUMPDEST PUSH32 0x4F7261636C6520636F756E74206D757374206265206F64640000000000000000 PUSH1 0x0 DUP3 ADD MSTORE POP JUMP JUMPDEST PUSH1 0x0 PUSH3 0x709 PUSH1 0x18 DUP4 PUSH3 0x5E7 JUMP JUMPDEST SWAP2 POP PUSH3 0x716 DUP3 PUSH3 0x6D1 JUMP JUMPDEST PUSH1 0x20 DUP3 ADD SWAP1 POP SWAP2 SWAP1 POP JUMP JUMPDEST PUSH1 0x0 PUSH1 0x20 DUP3 ADD SWAP1 POP DUP2 DUP2 SUB PUSH1 0x0 DUP4 ADD MSTORE PUSH3 0x73C DUP2 PUSH3 0x6FA JUMP JUMPDEST SWAP1 POP SWAP2 SWAP1 POP JUMP JUMPDEST PUSH32 0x426164207468726573686F6C6400000000000000000000000000000000000000 PUSH1 0x0 DUP3 ADD MSTORE POP JUMP JUMPDEST PUSH1 0x0 PUSH3 0x77B PUSH1 0xD DUP4 PUSH3 0x5E7 JUMP JUMPDEST SWAP2 POP PUSH3 0x788 DUP3 PUSH3 0x743 JUMP JUMPDEST PUSH1 0x20 DUP3 ADD SWAP1 POP SWAP2 SWAP1 POP JUMP JUMPDEST PUSH1 0x0 PUSH1 0x20 DUP3 ADD SWAP1 POP DUP2 DUP2 SUB PUSH1 0x0 DUP4 ADD MSTORE PUSH3 0x7AE DUP2 PUSH3 0x76C JUMP JUMPDEST SWAP1 POP SWAP2 SWAP1 POP JUMP JUMPDEST PUSH32 0x4E487B7100000000000000000000000000000000000000000000000000000000 PUSH1 0x0 MSTORE PUSH1 0x32 PUSH1 0x4 MSTORE PUSH1 0x24 PUSH1 0x0 REVERT JUMPDEST PUSH32 0x5A65726F206F7261636C65000000000000000000000000000000000000000000 PUSH1 0x0 DUP3 ADD MSTORE POP JUMP JUMPDEST PUSH1 0x0 PUSH3 0x81C PUSH1 0xB DUP4 PUSH3 0x5E7 JUMP JUMPDEST SWAP2 POP PUSH3 0x829 DUP3 PUSH3 0x7E4 JUMP JUMPDEST PUSH1 0x20 DUP3 ADD SWAP1 POP SWAP2 SWAP1 POP JUMP JUMPDEST PUSH1 0x0 PUSH1 0x20 DUP3 ADD SWAP1 POP DUP2 DUP2 SUB PUSH1 0x0 DUP4 ADD MSTORE PUSH3 0x84F DUP2 PUSH3 0x80D JUMP JUMPDEST SWAP1 POP SWAP2 SWAP1 POP JUMP JUMPDEST PUSH32 0x4475706C6963617465206F7261636C6500000000000000000000000000000000 PUSH1 0x0 DUP3 ADD MSTORE POP JUMP JUMPDEST PUSH1 0x0 PUSH3 0x88E PUSH1 0x10 DUP4 PUSH3 0x5E7 JUMP JUMPDEST SWAP2 POP PUSH3 0x89B DUP3 PUSH3 0x856 JUMP JUMPDEST PUSH1 0x20 DUP3 ADD SWAP1 POP SWAP2 SWAP1 POP JUMP JUMPDEST PUSH1 0x0 PUSH1 0x20 DUP3 ADD SWAP1 POP DUP2 DUP2 SUB PUSH1 0x0 DUP4 ADD MSTORE PUSH3 0x8C1 DUP2 PUSH3 0x87F JUMP JUMPDEST SWAP1 POP SWAP2 SWAP1 POP JUMP JUMPDEST PUSH32 0x4E487B7100000000000000000000000000000000000000000000000000000000 PUSH1 0x0 MSTORE PUSH1 0x11 PUSH1 0x4 MSTORE PUSH1 0x24 PUSH1 0x0 REVERT JUMPDEST PUSH1 0x0 PUSH3 0x904 DUP3 PUSH3 0x546 JUMP JUMPDEST SWAP2 POP PUSH32 0xFFFFFFFFFFFFFFFFFFFFFFFFFFFFFFFFFFFFFFFFFFFFFFFFFFFFFFFFFFFFFFFF DUP3 SUB PUSH3 0x939 JUMPI PUSH3 0x938 PUSH3 0x8C8 JUMP JUMPDEST JUMPDEST PUSH1 0x1 DUP3 ADD SWAP1 POP SWAP2 SWAP1 POP JUMP JUMPDEST PUSH3 0x94F DUP2 PUSH3 0x546 JUMP JUMPDEST DUP3 MSTORE POP POP JUMP JUMPDEST PUSH1 0x0 PUSH1 0x40 DUP3 ADD SWAP1 POP PUSH3 0x96C PUSH1 0x0 DUP4 ADD DUP6 PUSH3 0x944 JUMP JUMPDEST PUSH3 0x97B PUSH1 0x20 DUP4 ADD DUP5 PUSH3 0x944 JUMP JUMPDEST SWAP4 SWAP3 POP POP POP JUMP JUMPDEST PUSH1 0x80 MLOAD PUSH2 0x1CE6 PUSH3 0x9AC PUSH1 0x0 CODECOPY PUSH1 0x0 DUP2 DUP2 PUSH2 0x3D2 ADD MSTORE DUP2 DUP2 PUSH2 0x3FC ADD MSTORE PUSH2 0x53D ADD MSTORE PUSH2 0x1CE6 PUSH1 0x0 RETURN INVALID PUSH1 0x80 PUSH1 0x40 MSTORE CALLVALUE DUP1 ISZERO PUSH2 0x10 JUMPI PUSH1 0x0 DUP1 REVERT JUMPDEST POP PUSH1 0x4 CALLDATASIZE LT PUSH2 0x116 JUMPI PUSH1 0x0 CALLDATALOAD PUSH1 0xE0 SHR DUP1 PUSH4 0x668A0F02 GT PUSH2 0xA2 JUMPI DUP1 PUSH4 0xA97E5C93 GT PUSH2 0x71 JUMPI DUP1 PUSH4 0xA97E5C93 EQ PUSH2 0x28E JUMPI DUP1 PUSH4 0xD486A0D2 EQ PUSH2 0x2BE JUMPI DUP1 PUSH4 0xE966BE71 EQ PUSH2 0x2C8 JUMPI DUP1 PUSH4 0xEC7AACA3 EQ PUSH2 0x2F8 JUMPI DUP1 PUSH4 0xFEFE0EA0 EQ PUSH2 0x314 JUMPI PUSH2 0x116 JUMP JUMPDEST DUP1 PUSH4 0x668A0F02 EQ PUSH2 0x22A JUMPI DUP1 PUSH4 0x6798699B EQ PUSH2 0x248 JUMPI DUP1 PUSH4 0x80475516 EQ PUSH2 0x252 JUMPI DUP1 PUSH4 0x8CD221C9 EQ PUSH2 0x270 JUMPI PUSH2 0x116 JUMP JUMPDEST DUP1 PUSH4 0x3E66A647 GT PUSH2 0xE9 JUMPI DUP1 PUSH4 0x3E66A647 EQ PUSH2 0x1A8 JUMPI DUP1 PUSH4 0x4222C7FB EQ PUSH2 0x1C6 JUMPI DUP1 PUSH4 0x4AB5CC82 EQ PUSH2 0x1E4 JUMPI DUP1 PUSH4 0x606DEECD EQ PUSH2 0x202 JUMPI DUP1 PUSH4 0x613D8FCC EQ PUSH2 0x20C JUMPI PUSH2 0x116 JUMP JUMPDEST DUP1 PUSH4 0x1086BFDC EQ PUSH2 0x11B JUMPI DUP1 PUSH4 0x10E1D8CA EQ PUSH2 0x150 JUMPI DUP1 PUSH4 0x1D238411 EQ PUSH2 0x16E JUMPI DUP1 PUSH4 0x36F945CD EQ PUSH2 0x18C JUMPI JUMPDEST PUSH1 0x0 DUP1 REVERT JUMPDEST PUSH2 0x135 PUSH1 0x4 DUP1 CALLDATASIZE SUB DUP2 ADD SWAP1 PUSH2 0x130 SWAP2 SWAP1 PUSH2 0x130E JUMP JUMPDEST PUSH2 0x344 JUMP JUMPDEST PUSH1 0x40 MLOAD PUSH2 0x147 SWAP7 SWAP6 SWAP5 SWAP4 SWAP3 SWAP2 SWAP1 PUSH2 0x1365 JUMP JUMPDEST PUSH1 0x40 MLOAD DUP1 SWAP2 SUB SWAP1 RETURN JUMPDEST PUSH2 0x158 PUSH2 0x3D0 JUMP JUMPDEST PUSH1 0x40 MLOAD PUSH2 0x165 SWAP2 SWAP1 PUSH2 0x1407 JUMP JUMPDEST PUSH1 0x40 MLOAD DUP1 SWAP2 SUB SWAP1 RETURN JUMPDEST PUSH2 0x176 PUSH2 0x3F4 JUMP JUMPDEST PUSH1 0x40 MLOAD PUSH2 0x183 SWAP2 SWAP1 PUSH2 0x1422 JUMP JUMPDEST PUSH1 0x40 MLOAD DUP1 SWAP2 SUB SWAP1 RETURN JUMPDEST PUSH2 0x1A6 PUSH1 0x4 DUP1 CALLDATASIZE SUB DUP2 ADD SWAP1 PUSH2 0x1A1 SWAP2 SWAP1 PUSH2 0x130E JUMP JUMPDEST PUSH2 0x3FA JUMP JUMPDEST STOP JUMPDEST PUSH2 0x1B0 PUSH2 0x51C JUMP JUMPDEST PUSH1 0x40 MLOAD PUSH2 0x1BD SWAP2 SWAP1 PUSH2 0x1422 JUMP JUMPDEST PUSH1 0x40 MLOAD DUP1 SWAP2 SUB SWAP1 RETURN JUMPDEST PUSH2 0x1CE PUSH2 0x522 JUMP JUMPDEST PUSH1 0x40 MLOAD PUSH2 0x1DB SWAP2 SWAP1 PUSH2 0x143D JUMP JUMPDEST PUSH1 0x40 MLOAD DUP1 SWAP2 SUB SWAP1 RETURN JUMPDEST PUSH2 0x1EC PUSH2 0x535 JUMP JUMPDEST PUSH1 0x40 MLOAD PUSH2 0x1F9 SWAP2 SWAP1 PUSH2 0x1422 JUMP JUMPDEST PUSH1 0x40 MLOAD DUP1 SWAP2 SUB SWAP1 RETURN JUMPDEST PUSH2 0x20A PUSH2 0x53B JUMP JUMPDEST STOP JUMPDEST PUSH2 0x214 PUSH2 0x686 JUMP JUMPDEST PUSH1 0x40 MLOAD PUSH2 0x221 SWAP2 SWAP1 PUSH2 0x1422 JUMP JUMPDEST PUSH1 0x40 MLOAD DUP1 SWAP2 SUB SWAP1 RETURN JUMPDEST PUSH2 0x232 PUSH2 0x68C JUMP JUMPDEST PUSH1 0x40 MLOAD PUSH2 0x23F SWAP2 SWAP1 PUSH2 0x1422 JUMP JUMPDEST PUSH1 0x40 MLOAD DUP1 SWAP2 SUB SWAP1 RETURN JUMPDEST PUSH2 0x250 PUSH2 0x692 JUMP JUMPDEST STOP JUMPDEST PUSH2 0x25A PUSH2 0x7BE JUMP JUMPDEST PUSH1 0x40 MLOAD PUSH2 0x267 SWAP2 SWAP1 PUSH2 0x1422 JUMP JUMPDEST PUSH1 0x40 MLOAD DUP1 SWAP2 SUB SWAP1 RETURN JUMPDEST PUSH2 0x278 PUSH2 0x7C4 JUMP JUMPDEST PUSH1 0x40 MLOAD PUSH2 0x285 SWAP2 SWAP1 PUSH2 0x1422 JUMP JUMPDEST PUSH1 0x40 MLOAD DUP1 SWAP2 SUB SWAP1 RETURN JUMPDEST PUSH2 0x2A8 PUSH1 0x4 DUP1 CALLDATASIZE SUB DUP2 ADD SWAP1 PUSH2 0x2A3 SWAP2 SWAP1 PUSH2 0x1484 JUMP JUMPDEST PUSH2 0x7CA JUMP JUMPDEST PUSH1 0x40 MLOAD PUSH2 0x2B5 SWAP2 SWAP1 PUSH2 0x143D JUMP JUMPDEST PUSH1 0x40 MLOAD DUP1 SWAP2 SUB SWAP1 RETURN JUMPDEST PUSH2 0x2C6 PUSH2 0x7EA JUMP JUMPDEST STOP JUMPDEST PUSH2 0x2E2 PUSH1 0x4 DUP1 CALLDATASIZE SUB DUP2 ADD SWAP1 PUSH2 0x2DD SWAP2 SWAP1 PUSH2 0x14B1 JUMP JUMPDEST PUSH2 0xAE7 JUMP JUMPDEST PUSH1 0x40 MLOAD PUSH2 0x2EF SWAP2 SWAP1 PUSH2 0x143D JUMP JUMPDEST PUSH1 0x40 MLOAD DUP1 SWAP2 SUB SWAP1 RETURN JUMPDEST PUSH2 0x312 PUSH1 0x4 DUP1 CALLDATASIZE SUB DUP2 ADD SWAP1 PUSH2 0x30D SWAP2 SWAP1 PUSH2 0x130E JUMP JUMPDEST PUSH2 0xB52 JUMP JUMPDEST STOP JUMPDEST PUSH2 0x32E PUSH1 0x4 DUP1 CALLDATASIZE SUB DUP2 ADD SWAP1 PUSH2 0x329 SWAP2 SWAP1 PUSH2 0x14B1 JUMP JUMPDEST PUSH2 0xEB7 JUMP JUMPDEST PUSH1 0x40 MLOAD PUSH2 0x33B SWAP2 SWAP1 PUSH2 0x143D JUMP JUMPDEST PUSH1 0x40 MLOAD DUP1 SWAP2 SUB SWAP1 RETURN JUMPDEST PUSH1 0x0 DUP1 PUSH1 0x0 DUP1 PUSH1 0x0 DUP1 PUSH1 0x0 PUSH1 0x9 PUSH1 0x0 DUP10 DUP2 MSTORE PUSH1 0x20 ADD SWAP1 DUP2 MSTORE PUSH1 0x20 ADD PUSH1 0x0 KECCAK256 SWAP1 POP PUSH1 0x0 PUSH1 0x5 PUSH1 0x0 SWAP1 SLOAD SWAP1 PUSH2 0x100 EXP SWAP1 DIV PUSH1 0xFF AND DUP1 ISZERO PUSH2 0x383 JUMPI POP PUSH1 0x4 SLOAD DUP10 EQ JUMPDEST SWAP1 POP DUP1 DUP3 PUSH1 0x0 ADD PUSH1 0x0 SWAP1 SLOAD SWAP1 PUSH2 0x100 EXP SWAP1 DIV PUSH1 0xFF AND DUP4 PUSH1 0x0 ADD PUSH1 0x1 SWAP1 SLOAD SWAP1 PUSH2 0x100 EXP SWAP1 DIV PUSH1 0xFF AND DUP5 PUSH1 0x1 ADD SLOAD DUP6 PUSH1 0x2 ADD SLOAD DUP7 PUSH1 0x3 ADD SLOAD SWAP8 POP SWAP8 POP SWAP8 POP SWAP8 POP SWAP8 POP SWAP8 POP POP POP SWAP2 SWAP4 SWAP6 POP SWAP2 SWAP4 SWAP6 JUMP JUMPDEST PUSH32 0x0 DUP2 JUMP JUMPDEST PUSH1 0x2 SLOAD DUP2 JUMP JUMPDEST PUSH32 0x0 PUSH20 0xFFFFFFFFFFFFFFFFFFFFFFFFFFFFFFFFFFFFFFFF AND CALLER PUSH20 0xFFFFFFFFFFFFFFFFFFFFFFFFFFFFFFFFFFFFFFFF AND EQ PUSH2 0x488 JUMPI PUSH1 0x40 MLOAD PUSH32 0x8C379A000000000000000000000000000000000000000000000000000000000 DUP2 MSTORE PUSH1 0x4 ADD PUSH2 0x47F SWAP1 PUSH2 0x154E JUMP JUMPDEST PUSH1 0x40 MLOAD DUP1 SWAP2 SUB SWAP1 REVERT JUMPDEST PUSH1 0x3C DUP2 LT ISZERO DUP1 ISZERO PUSH2 0x49C JUMPI POP PUSH3 0x93A80 DUP2 GT ISZERO JUMPDEST PUSH2 0x4DB JUMPI PUSH1 0x40 MLOAD PUSH32 0x8C379A000000000000000000000000000000000000000000000000000000000 DUP2 MSTORE PUSH1 0x4 ADD PUSH2 0x4D2 SWAP1 PUSH2 0x15BA JUMP JUMPDEST PUSH1 0x40 MLOAD DUP1 SWAP2 SUB SWAP1 REVERT JUMPDEST DUP1 PUSH1 0x3 DUP2 SWAP1 SSTORE POP PUSH32 0x1A1CD30E223035D872019B55A16A88E0FAD18AAC07397D463628BF771CC10B94 DUP2 PUSH1 0x40 MLOAD PUSH2 0x511 SWAP2 SWAP1 PUSH2 0x1422 JUMP JUMPDEST PUSH1 0x40 MLOAD DUP1 SWAP2 SUB SWAP1 LOG1 POP JUMP JUMPDEST PUSH1 0x6 SLOAD DUP2 JUMP JUMPDEST PUSH1 0x5 PUSH1 0x0 SWAP1 SLOAD SWAP1 PUSH2 0x100 EXP SWAP1 DIV PUSH1 0xFF AND DUP2 JUMP JUMPDEST PUSH1 0x7 SLOAD DUP2 JUMP JUMPDEST PUSH32 0x0 PUSH20 0xFFFFFFFFFFFFFFFFFFFFFFFFFFFFFFFFFFFFFFFF AND CALLER PUSH20 0xFFFFFFFFFFFFFFFFFFFFFFFFFFFFFFFFFFFFFFFF AND EQ PUSH2 0x5C9 JUMPI PUSH1 0x40 MLOAD PUSH32 0x8C379A000000000000000000000000000000000000000000000000000000000 DUP2 MSTORE PUSH1 0x4 ADD PUSH2 0x5C0 SWAP1 PUSH2 0x154E JUMP JUMPDEST PUSH1 0x40 MLOAD DUP1 SWAP2 SUB SWAP1 REVERT JUMPDEST PUSH1 0x5 PUSH1 0x0 SWAP1 SLOAD SWAP1 PUSH2 0x100 EXP SWAP1 DIV PUSH1 0xFF AND ISZERO PUSH2 0x619 JUMPI PUSH1 0x40 MLOAD PUSH32 0x8C379A000000000000000000000000000000000000000000000000000000000 DUP2 MSTORE PUSH1 0x4 ADD PUSH2 0x610 SWAP1 PUSH2 0x1626 JUMP JUMPDEST PUSH1 0x40 MLOAD DUP1 SWAP2 SUB SWAP1 REVERT JUMPDEST PUSH1 0x1 PUSH1 0x4 PUSH1 0x0 DUP3 DUP3 SLOAD PUSH2 0x62C SWAP2 SWAP1 PUSH2 0x1675 JUMP JUMPDEST SWAP3 POP POP DUP2 SWAP1 SSTORE POP PUSH1 0x1 PUSH1 0x5 PUSH1 0x0 PUSH2 0x100 EXP DUP2 SLOAD DUP2 PUSH1 0xFF MUL NOT AND SWAP1 DUP4 ISZERO ISZERO MUL OR SWAP1 SSTORE POP TIMESTAMP PUSH1 0x6 DUP2 SWAP1 SSTORE POP PUSH1 0x4 SLOAD PUSH32 0x35627151F04080049C4603628B94879B241DC64B255B7347A7632165D45EE51E PUSH1 0x40 MLOAD PUSH1 0x40 MLOAD DUP1 SWAP2 SUB SWAP1 LOG2 JUMP JUMPDEST PUSH1 0x1 SLOAD DUP2 JUMP JUMPDEST PUSH1 0x8 SLOAD DUP2 JUMP JUMPDEST PUSH1 0x5 PUSH1 0x0 SWAP1 SLOAD SWAP1 PUSH2 0x100 EXP SWAP1 DIV PUSH1 0xFF AND PUSH2 0x6E1 JUMPI PUSH1 0x40 MLOAD PUSH32 0x8C379A000000000000000000000000000000000000000000000000000000000 DUP2 MSTORE PUSH1 0x4 ADD PUSH2 0x6D8 SWAP1 PUSH2 0x16F5 JUMP JUMPDEST PUSH1 0x40 MLOAD DUP1 SWAP2 SUB SWAP1 REVERT JUMPDEST PUSH1 0x3 SLOAD PUSH1 0x6 SLOAD PUSH2 0x6F1 SWAP2 SWAP1 PUSH2 0x1675 JUMP JUMPDEST TIMESTAMP GT PUSH2 0x732 JUMPI PUSH1 0x40 MLOAD PUSH32 0x8C379A000000000000000000000000000000000000000000000000000000000 DUP2 MSTORE PUSH1 0x4 ADD PUSH2 0x729 SWAP1 PUSH2 0x1761 JUMP JUMPDEST PUSH1 0x40 MLOAD DUP1 SWAP2 SUB SWAP1 REVERT JUMPDEST PUSH1 0x0 PUSH1 0x5 PUSH1 0x0 PUSH2 0x100 EXP DUP2 SLOAD DUP2 PUSH1 0xFF MUL NOT AND SWAP1 DUP4 ISZERO ISZERO MUL OR SWAP1 SSTORE POP PUSH1 0x0 PUSH1 0x9 PUSH1 0x0 PUSH1 0x4 SLOAD DUP2 MSTORE PUSH1 0x20 ADD SWAP1 DUP2 MSTORE PUSH1 0x20 ADD PUSH1 0x0 KECCAK256 SWAP1 POP PUSH1 0x1 DUP2 PUSH1 0x0 ADD PUSH1 0x1 PUSH2 0x100 EXP DUP2 SLOAD DUP2 PUSH1 0xFF MUL NOT AND SWAP1 DUP4 ISZERO ISZERO MUL OR SWAP1 SSTORE POP PUSH1 0x4 SLOAD PUSH32 0xBC1F2817C8DA8AA582F7FE3340AAA9AB36778FEEB860785EDF2C078ABC221C99 PUSH1 0x40 MLOAD PUSH2 0x7B3 SWAP1 PUSH2 0x17CD JUMP JUMPDEST PUSH1 0x40 MLOAD DUP1 SWAP2 SUB SWAP1 LOG2 POP JUMP JUMPDEST PUSH1 0x3 SLOAD DUP2 JUMP JUMPDEST PUSH1 0x4 SLOAD DUP2 JUMP JUMPDEST PUSH1 0x0 PUSH1 0x20 MSTORE DUP1 PUSH1 0x0 MSTORE PUSH1 0x40 PUSH1 0x0 KECCAK256 PUSH1 0x0 SWAP2 POP SLOAD SWAP1 PUSH2 0x100 EXP SWAP1 DIV PUSH1 0xFF AND DUP2 JUMP JUMPDEST PUSH1 0x0 DUP1 CALLER PUSH20 0xFFFFFFFFFFFFFFFFFFFFFFFFFFFFFFFFFFFFFFFF AND PUSH20 0xFFFFFFFFFFFFFFFFFFFFFFFFFFFFFFFFFFFFFFFF AND DUP2 MSTORE PUSH1 0x20 ADD SWAP1 DUP2 MSTORE PUSH1 0x20 ADD PUSH1 0x0 KECCAK256 PUSH1 0x0 SWAP1 SLOAD SWAP1 PUSH2 0x100 EXP SWAP1 DIV PUSH1 0xFF AND PUSH2 0x875 JUMPI PUSH1 0x40 MLOAD PUSH32 0x8C379A000000000000000000000000000000000000000000000000000000000 DUP2 MSTORE PUSH1 0x4 ADD PUSH2 0x86C SWAP1 PUSH2 0x1839 JUMP JUMPDEST PUSH1 0x40 MLOAD DUP1 SWAP2 SUB SWAP1 REVERT JUMPDEST PUSH1 0x5 PUSH1 0x0 SWAP1 SLOAD SWAP1 PUSH2 0x100 EXP SWAP1 DIV PUSH1 0xFF AND PUSH2 0x8C4 JUMPI PUSH1 0x40 MLOAD PUSH32 0x8C379A000000000000000000000000000000000000000000000000000000000 DUP2 MSTORE PUSH1 0x4 ADD PUSH2 0x8BB SWAP1 PUSH2 0x16F5 JUMP JUMPDEST PUSH1 0x40 MLOAD DUP1 SWAP2 SUB SWAP1 REVERT JUMPDEST PUSH1 0x0 PUSH1 0x9 PUSH1 0x0 PUSH1 0x4 SLOAD DUP2 MSTORE PUSH1 0x20 ADD SWAP1 DUP2 MSTORE PUSH1 0x20 ADD PUSH1 0x0 KECCAK256 SWAP1 POP DUP1 PUSH1 0x0 ADD PUSH1 0x0 SWAP1 SLOAD SWAP1 PUSH2 0x100 EXP SWAP1 DIV PUSH1 0xFF AND PUSH2 0x92E JUMPI PUSH1 0x40 MLOAD PUSH32 0x8C379A000000000000000000000000000000000000000000000000000000000 DUP2 MSTORE PUSH1 0x4 ADD PUSH2 0x925 SWAP1 PUSH2 0x18A5 JUMP JUMPDEST PUSH1 0x40 MLOAD DUP1 SWAP2 SUB SWAP1 REVERT JUMPDEST DUP1 PUSH1 0x0 ADD PUSH1 0x1 SWAP1 SLOAD SWAP1 PUSH2 0x100 EXP SWAP1 DIV PUSH1 0xFF AND ISZERO PUSH2 0x980 JUMPI PUSH1 0x40 MLOAD PUSH32 0x8C379A000000000000000000000000000000000000000000000000000000000 DUP2 MSTORE PUSH1 0x4 ADD PUSH2 0x977 SWAP1 PUSH2 0x1911 JUMP JUMPDEST PUSH1 0x40 MLOAD DUP1 SWAP2 SUB SWAP1 REVERT JUMPDEST DUP1 PUSH1 0x6 ADD PUSH1 0x0 CALLER PUSH20 0xFFFFFFFFFFFFFFFFFFFFFFFFFFFFFFFFFFFFFFFF AND PUSH20 0xFFFFFFFFFFFFFFFFFFFFFFFFFFFFFFFFFFFFFFFF AND DUP2 MSTORE PUSH1 0x20 ADD SWAP1 DUP2 MSTORE PUSH1 0x20 ADD PUSH1 0x0 KECCAK256 PUSH1 0x0 SWAP1 SLOAD SWAP1 PUSH2 0x100 EXP SWAP1 DIV PUSH1 0xFF AND ISZERO PUSH2 0xA0F JUMPI PUSH1 0x40 MLOAD PUSH32 0x8C379A000000000000000000000000000000000000000000000000000000000 DUP2 MSTORE PUSH1 0x4 ADD PUSH2 0xA06 SWAP1 PUSH2 0x197D JUMP JUMPDEST PUSH1 0x40 MLOAD DUP1 SWAP2 SUB SWAP1 REVERT JUMPDEST PUSH1 0x1 DUP2 PUSH1 0x6 ADD PUSH1 0x0 CALLER PUSH20 0xFFFFFFFFFFFFFFFFFFFFFFFFFFFFFFFFFFFFFFFF AND PUSH20 0xFFFFFFFFFFFFFFFFFFFFFFFFFFFFFFFFFFFFFFFF AND DUP2 MSTORE PUSH1 0x20 ADD SWAP1 DUP2 MSTORE PUSH1 0x20 ADD PUSH1 0x0 KECCAK256 PUSH1 0x0 PUSH2 0x100 EXP DUP2 SLOAD DUP2 PUSH1 0xFF MUL NOT AND SWAP1 DUP4 ISZERO ISZERO MUL OR SWAP1 SSTORE POP PUSH1 0x1 DUP2 PUSH1 0x2 ADD PUSH1 0x0 DUP3 DUP3 SLOAD PUSH2 0xA7E SWAP2 SWAP1 PUSH2 0x1675 JUMP JUMPDEST SWAP3 POP POP DUP2 SWAP1 SSTORE POP PUSH1 0x4 SLOAD CALLER PUSH20 0xFFFFFFFFFFFFFFFFFFFFFFFFFFFFFFFFFFFFFFFF AND PUSH32 0x752841BB8D9447C749E7137329379CD7F0B7C3321DC84512FD2C36A958C6B486 PUSH1 0x40 MLOAD PUSH1 0x40 MLOAD DUP1 SWAP2 SUB SWAP1 LOG3 PUSH1 0x2 SLOAD DUP2 PUSH1 0x2 ADD SLOAD LT PUSH2 0xAE4 JUMPI PUSH2 0xAE3 PUSH1 0x4 SLOAD PUSH2 0xF22 JUMP JUMPDEST JUMPDEST POP JUMP JUMPDEST PUSH1 0x0 PUSH1 0x9 PUSH1 0x0 DUP5 DUP2 MSTORE PUSH1 0x20 ADD SWAP1 DUP2 MSTORE PUSH1 0x20 ADD PUSH1 0x0 KECCAK256 PUSH1 0x6 ADD PUSH1 0x0 DUP4 PUSH20 0xFFFFFFFFFFFFFFFFFFFFFFFFFFFFFFFFFFFFFFFF AND PUSH20 0xFFFFFFFFFFFFFFFFFFFFFFFFFFFFFFFFFFFFFFFF AND DUP2 MSTORE PUSH1 0x20 ADD SWAP1 DUP2 MSTORE PUSH1 0x20 ADD PUSH1 0x0 KECCAK256 PUSH1 0x0 SWAP1 SLOAD SWAP1 PUSH2 0x100 EXP SWAP1 DIV PUSH1 0xFF AND SWAP1 POP SWAP3 SWAP2 POP POP JUMP JUMPDEST PUSH1 0x0 DUP1 CALLER PUSH20 0xFFFFFFFFFFFFFFFFFFFFFFFFFFFFFFFFFFFFFFFF AND PUSH20 0xFFFFFFFFFFFFFFFFFFFFFFFFFFFFFFFFFFFFFFFF AND DUP2 MSTORE PUSH1 0x20 ADD SWAP1 DUP2 MSTORE PUSH1 0x20 ADD PUSH1 0x0 KECCAK256 PUSH1 0x0 SWAP1 SLOAD SWAP1 PUSH2 0x100 EXP SWAP1 DIV PUSH1 0xFF AND PUSH2 0xBDD JUMPI PUSH1 0x40 MLOAD PUSH32 0x8C379A000000000000000000000000000000000000000000000000000000000 DUP2 MSTORE PUSH1 0x4 ADD PUSH2 0xBD4 SWAP1 PUSH2 0x1839 JUMP JUMPDEST PUSH1 0x40 MLOAD DUP1 SWAP2 SUB SWAP1 REVERT JUMPDEST PUSH1 0x5 PUSH1 0x0 SWAP1 SLOAD SWAP1 PUSH2 0x100 EXP SWAP1 DIV PUSH1 0xFF AND PUSH2 0xC2C JUMPI PUSH1 0x40 MLOAD PUSH32 0x8C379A000000000000000000000000000000000000000000000000000000000 DUP2 MSTORE PUSH1 0x4 ADD PUSH2 0xC23 SWAP1 PUSH2 0x16F5 JUMP JUMPDEST PUSH1 0x40 MLOAD DUP1 SWAP2 SUB SWAP1 REVERT JUMPDEST PUSH1 0x0 PUSH1 0x9 PUSH1 0x0 PUSH1 0x4 SLOAD DUP2 MSTORE PUSH1 0x20 ADD SWAP1 DUP2 MSTORE PUSH1 0x20 ADD PUSH1 0x0 KECCAK256 SWAP1 POP DUP1 PUSH1 0x0 ADD PUSH1 0x1 SWAP1 SLOAD SWAP1 PUSH2 0x100 EXP SWAP1 DIV PUSH1 0xFF AND ISZERO PUSH2 0xC97 JUMPI PUSH1 0x40 MLOAD PUSH32 0x8C379A000000000000000000000000000000000000000000000000000000000 DUP2 MSTORE PUSH1 0x4 ADD PUSH2 0xC8E SWAP1 PUSH2 0x1911 JUMP JUMPDEST PUSH1 0x40 MLOAD DUP1 SWAP2 SUB SWAP1 REVERT JUMPDEST DUP1 PUSH1 0x5 ADD PUSH1 0x0 CALLER PUSH20 0xFFFFFFFFFFFFFFFFFFFFFFFFFFFFFFFFFFFFFFFF AND PUSH20 0xFFFFFFFFFFFFFFFFFFFFFFFFFFFFFFFFFFFFFFFF AND DUP2 MSTORE PUSH1 0x20 ADD SWAP1 DUP2 MSTORE PUSH1 0x20 ADD PUSH1 0x0 KECCAK256 PUSH1 0x0 SWAP1 SLOAD SWAP1 PUSH2 0x100 EXP SWAP1 DIV PUSH1 0xFF AND ISZERO PUSH2 0xD26 JUMPI PUSH1 0x40 MLOAD PUSH32 0x8C379A000000000000000000000000000000000000000000000000000000000 DUP2 MSTORE PUSH1 0x4 ADD PUSH2 0xD1D SWAP1 PUSH2 0x19E9 JUMP JUMPDEST PUSH1 0x40 MLOAD DUP1 SWAP2 SUB SWAP1 REVERT JUMPDEST PUSH1 0x1 DUP2 PUSH1 0x5 ADD PUSH1 0x0 CALLER PUSH20 0xFFFFFFFFFFFFFFFFFFFFFFFFFFFFFFFFFFFFFFFF AND PUSH20 0xFFFFFFFFFFFFFFFFFFFFFFFFFFFFFFFFFFFFFFFF AND DUP2 MSTORE PUSH1 0x20 ADD SWAP1 DUP2 MSTORE PUSH1 0x20 ADD PUSH1 0x0 KECCAK256 PUSH1 0x0 PUSH2 0x100 EXP DUP2 SLOAD DUP2 PUSH1 0xFF MUL NOT AND SWAP1 DUP4 ISZERO ISZERO MUL OR SWAP1 SSTORE POP PUSH1 0x1 DUP2 PUSH1 0x1 ADD PUSH1 0x0 DUP3 DUP3 SLOAD PUSH2 0xD95 SWAP2 SWAP1 PUSH2 0x1675 JUMP JUMPDEST SWAP3 POP POP DUP2 SWAP1 SSTORE POP DUP1 PUSH1 0x4 ADD DUP3 SWAP1 DUP1 PUSH1 0x1 DUP2 SLOAD ADD DUP1 DUP3 SSTORE DUP1 SWAP2 POP POP PUSH1 0x1 SWAP1 SUB SWAP1 PUSH1 0x0 MSTORE PUSH1 0x20 PUSH1 0x0 KECCAK256 ADD PUSH1 0x0 SWAP1 SWAP2 SWAP1 SWAP2 SWAP1 SWAP2 POP SSTORE PUSH1 0x4 SLOAD CALLER PUSH20 0xFFFFFFFFFFFFFFFFFFFFFFFFFFFFFFFFFFFFFFFF AND PUSH32 0x469A3191359DFDFD5DE3F3CD7CD92BE8FF1CAE1508EF03736457ACCD35F331AF DUP5 PUSH1 0x40 MLOAD PUSH2 0xE10 SWAP2 SWAP1 PUSH2 0x1422 JUMP JUMPDEST PUSH1 0x40 MLOAD DUP1 SWAP2 SUB SWAP1 LOG3 PUSH1 0x1 SLOAD DUP2 PUSH1 0x1 ADD SLOAD EQ DUP1 ISZERO PUSH2 0xE3C JUMPI POP DUP1 PUSH1 0x0 ADD PUSH1 0x0 SWAP1 SLOAD SWAP1 PUSH2 0x100 EXP SWAP1 DIV PUSH1 0xFF AND ISZERO JUMPDEST ISZERO PUSH2 0xEB3 JUMPI PUSH1 0x0 PUSH2 0xE4F DUP3 PUSH1 0x4 ADD PUSH2 0x10AF JUMP JUMPDEST SWAP1 POP DUP1 DUP3 PUSH1 0x3 ADD DUP2 SWAP1 SSTORE POP PUSH1 0x1 DUP3 PUSH1 0x0 ADD PUSH1 0x0 PUSH2 0x100 EXP DUP2 SLOAD DUP2 PUSH1 0xFF MUL NOT AND SWAP1 DUP4 ISZERO ISZERO MUL OR SWAP1 SSTORE POP PUSH1 0x4 SLOAD PUSH32 0x953143E8B5AB8E3F4585A4994F5BA2B58C7E78D378D1A156CE67E54374AFDDEE DUP3 PUSH1 0x40 MLOAD PUSH2 0xEA9 SWAP2 SWAP1 PUSH2 0x1422 JUMP JUMPDEST PUSH1 0x40 MLOAD DUP1 SWAP2 SUB SWAP1 LOG2 POP JUMPDEST POP POP JUMP JUMPDEST PUSH1 0x0 PUSH1 0x9 PUSH1 0x0 DUP5 DUP2 MSTORE PUSH1 0x20 ADD SWAP1 DUP2 MSTORE PUSH1 0x20 ADD PUSH1 0x0 KECCAK256 PUSH1 0x5 ADD PUSH1 0x0 DUP4 PUSH20 0xFFFFFFFFFFFFFFFFFFFFFFFFFFFFFFFFFFFFFFFF AND PUSH20 0xFFFFFFFFFFFFFFFFFFFFFFFFFFFFFFFFFFFFFFFF AND DUP2 MSTORE PUSH1 0x20 ADD SWAP1 DUP2 MSTORE PUSH1 0x20 ADD PUSH1 0x0 KECCAK256 PUSH1 0x0 SWAP1 SLOAD SWAP1 PUSH2 0x100 EXP SWAP1 DIV PUSH1 0xFF AND SWAP1 POP SWAP3 SWAP2 POP POP JUMP JUMPDEST PUSH1 0x0 PUSH1 0x9 PUSH1 0x0 DUP4 DUP2 MSTORE PUSH1 0x20 ADD SWAP1 DUP2 MSTORE PUSH1 0x20 ADD PUSH1 0x0 KECCAK256 SWAP1 POP DUP1 PUSH1 0x0 ADD PUSH1 0x0 SWAP1 SLOAD SWAP1 PUSH2 0x100 EXP SWAP1 DIV PUSH1 0xFF AND PUSH2 0xF8A JUMPI PUSH1 0x40 MLOAD PUSH32 0x8C379A000000000000000000000000000000000000000000000000000000000 DUP2 MSTORE PUSH1 0x4 ADD PUSH2 0xF81 SWAP1 PUSH2 0x18A5 JUMP JUMPDEST PUSH1 0x40 MLOAD DUP1 SWAP2 SUB SWAP1 REVERT JUMPDEST DUP1 PUSH1 0x0 ADD PUSH1 0x1 SWAP1 SLOAD SWAP1 PUSH2 0x100 EXP SWAP1 DIV PUSH1 0xFF AND ISZERO PUSH2 0xFDC JUMPI PUSH1 0x40 MLOAD PUSH32 0x8C379A000000000000000000000000000000000000000000000000000000000 DUP2 MSTORE PUSH1 0x4 ADD PUSH2 0xFD3 SWAP1 PUSH2 0x1A55 JUMP JUMPDEST PUSH1 0x40 MLOAD DUP1 SWAP2 SUB SWAP1 REVERT JUMPDEST PUSH1 0x2 SLOAD DUP2 PUSH1 0x2 ADD SLOAD LT ISZERO PUSH2 0x1025 JUMPI PUSH1 0x40 MLOAD PUSH32 0x8C379A000000000000000000000000000000000000000000000000000000000 DUP2 MSTORE PUSH1 0x4 ADD PUSH2 0x101C SWAP1 PUSH2 0x1AC1 JUMP JUMPDEST PUSH1 0x40 MLOAD DUP1 SWAP2 SUB SWAP1 REVERT JUMPDEST PUSH1 0x1 DUP2 PUSH1 0x0 ADD PUSH1 0x1 PUSH2 0x100 EXP DUP2 SLOAD DUP2 PUSH1 0xFF MUL NOT AND SWAP1 DUP4 ISZERO ISZERO MUL OR SWAP1 SSTORE POP PUSH1 0x0 PUSH1 0x5 PUSH1 0x0 PUSH2 0x100 EXP DUP2 SLOAD DUP2 PUSH1 0xFF MUL NOT AND SWAP1 DUP4 ISZERO ISZERO MUL OR SWAP1 SSTORE POP DUP1 PUSH1 0x3 ADD SLOAD PUSH1 0x7 DUP2 SWAP1 SSTORE POP DUP2 PUSH1 0x8 DUP2 SWAP1 SSTORE POP DUP2 PUSH32 0xB968440ACCD1CE5FA60B00DE8BB8D8487EB2FDA3C3701FB30FEA3F69AA910A48 DUP3 PUSH1 0x3 ADD SLOAD PUSH1 0x40 MLOAD PUSH2 0x10A3 SWAP2 SWAP1 PUSH2 0x1422 JUMP JUMPDEST PUSH1 0x40 MLOAD DUP1 SWAP2 SUB SWAP1 LOG2 POP POP JUMP JUMPDEST PUSH1 0x0 DUP1 DUP3 DUP1 SLOAD SWAP1 POP SWAP1 POP PUSH1 0x1 SLOAD DUP2 EQ PUSH2 0x10FD JUMPI PUSH1 0x40 MLOAD PUSH32 0x8C379A000000000000000000000000000000000000000000000000000000000 DUP2 MSTORE PUSH1 0x4 ADD PUSH2 0x10F4 SWAP1 PUSH2 0x1B2D JUMP JUMPDEST PUSH1 0x40 MLOAD DUP1 SWAP2 SUB SWAP1 REVERT JUMPDEST PUSH1 0x0 DUP2 PUSH8 0xFFFFFFFFFFFFFFFF DUP2 GT ISZERO PUSH2 0x1119 JUMPI PUSH2 0x1118 PUSH2 0x1B4D JUMP JUMPDEST JUMPDEST PUSH1 0x40 MLOAD SWAP1 DUP1 DUP3 MSTORE DUP1 PUSH1 0x20 MUL PUSH1 0x20 ADD DUP3 ADD PUSH1 0x40 MSTORE DUP1 ISZERO PUSH2 0x1147 JUMPI DUP2 PUSH1 0x20 ADD PUSH1 0x20 DUP3 MUL DUP1 CALLDATASIZE DUP4 CALLDATACOPY DUP1 DUP3 ADD SWAP2 POP POP SWAP1 POP JUMPDEST POP SWAP1 POP PUSH1 0x0 JUMPDEST DUP3 DUP2 LT ISZERO PUSH2 0x11A5 JUMPI DUP5 DUP2 DUP2 SLOAD DUP2 LT PUSH2 0x1168 JUMPI PUSH2 0x1167 PUSH2 0x1B7C JUMP JUMPDEST JUMPDEST SWAP1 PUSH1 0x0 MSTORE PUSH1 0x20 PUSH1 0x0 KECCAK256 ADD SLOAD DUP3 DUP3 DUP2 MLOAD DUP2 LT PUSH2 0x1186 JUMPI PUSH2 0x1185 PUSH2 0x1B7C JUMP JUMPDEST JUMPDEST PUSH1 0x20 MUL PUSH1 0x20 ADD ADD DUP2 DUP2 MSTORE POP POP DUP1 DUP1 PUSH2 0x119D SWAP1 PUSH2 0x1BAB JUMP JUMPDEST SWAP2 POP POP PUSH2 0x114D JUMP JUMPDEST POP PUSH1 0x0 PUSH1 0x1 SWAP1 POP JUMPDEST DUP3 DUP2 LT ISZERO PUSH2 0x12A2 JUMPI PUSH1 0x0 DUP3 DUP3 DUP2 MLOAD DUP2 LT PUSH2 0x11CA JUMPI PUSH2 0x11C9 PUSH2 0x1B7C JUMP JUMPDEST JUMPDEST PUSH1 0x20 MUL PUSH1 0x20 ADD ADD MLOAD SWAP1 POP PUSH1 0x0 DUP3 SWAP1 POP JUMPDEST PUSH1 0x0 DUP2 GT DUP1 ISZERO PUSH2 0x120F JUMPI POP DUP2 DUP5 PUSH1 0x1 DUP4 PUSH2 0x11F4 SWAP2 SWAP1 PUSH2 0x1BF3 JUMP JUMPDEST DUP2 MLOAD DUP2 LT PUSH2 0x1205 JUMPI PUSH2 0x1204 PUSH2 0x1B7C JUMP JUMPDEST JUMPDEST PUSH1 0x20 MUL PUSH1 0x20 ADD ADD MLOAD GT JUMPDEST ISZERO PUSH2 0x126D JUMPI DUP4 PUSH1 0x1 DUP3 PUSH2 0x1222 SWAP2 SWAP1 PUSH2 0x1BF3 JUMP JUMPDEST DUP2 MLOAD DUP2 LT PUSH2 0x1233 JUMPI PUSH2 0x1232 PUSH2 0x1B7C JUMP JUMPDEST JUMPDEST PUSH1 0x20 MUL PUSH1 0x20 ADD ADD MLOAD DUP5 DUP3 DUP2 MLOAD DUP2 LT PUSH2 0x124E JUMPI PUSH2 0x124D PUSH2 0x1B7C JUMP JUMPDEST JUMPDEST PUSH1 0x20 MUL PUSH1 0x20 ADD ADD DUP2 DUP2 MSTORE POP POP DUP1 DUP1 PUSH2 0x1265 SWAP1 PUSH2 0x1C27 JUMP JUMPDEST SWAP2 POP POP PUSH2 0x11DA JUMP JUMPDEST DUP2 DUP5 DUP3 DUP2 MLOAD DUP2 LT PUSH2 0x1281 JUMPI PUSH2 0x1280 PUSH2 0x1B7C JUMP JUMPDEST JUMPDEST PUSH1 0x20 MUL PUSH1 0x20 ADD ADD DUP2 DUP2 MSTORE POP POP POP POP DUP1 DUP1 PUSH2 0x129A SWAP1 PUSH2 0x1BAB JUMP JUMPDEST SWAP2 POP POP PUSH2 0x11AD JUMP JUMPDEST POP DUP1 PUSH1 0x2 DUP4 PUSH2 0x12B1 SWAP2 SWAP1 PUSH2 0x1C7F JUMP JUMPDEST DUP2 MLOAD DUP2 LT PUSH2 0x12C2 JUMPI PUSH2 0x12C1 PUSH2 0x1B7C JUMP JUMPDEST JUMPDEST PUSH1 0x20 MUL PUSH1 0x20 ADD ADD MLOAD SWAP3 POP POP POP SWAP2 SWAP1 POP JUMP JUMPDEST PUSH1 0x0 DUP1 REVERT JUMPDEST PUSH1 0x0 DUP2 SWAP1 POP SWAP2 SWAP1 POP JUMP JUMPDEST PUSH2 0x12EB DUP2 PUSH2 0x12D8 JUMP JUMPDEST DUP2 EQ PUSH2 0x12F6 JUMPI PUSH1 0x0 DUP1 REVERT JUMPDEST POP JUMP JUMPDEST PUSH1 0x0 DUP2 CALLDATALOAD SWAP1 POP PUSH2 0x1308 DUP2 PUSH2 0x12E2 JUMP JUMPDEST SWAP3 SWAP2 POP POP JUMP JUMPDEST PUSH1 0x0 PUSH1 0x20 DUP3 DUP5 SUB SLT ISZERO PUSH2 0x1324 JUMPI PUSH2 0x1323 PUSH2 0x12D3 JUMP JUMPDEST JUMPDEST PUSH1 0x0 PUSH2 0x1332 DUP5 DUP3 DUP6 ADD PUSH2 0x12F9 JUMP JUMPDEST SWAP2 POP POP SWAP3 SWAP2 POP POP JUMP JUMPDEST PUSH1 0x0 DUP2 ISZERO ISZERO SWAP1 POP SWAP2 SWAP1 POP JUMP JUMPDEST PUSH2 0x1350 DUP2 PUSH2 0x133B JUMP JUMPDEST DUP3 MSTORE POP POP JUMP JUMPDEST PUSH2 0x135F DUP2 PUSH2 0x12D8 JUMP JUMPDEST DUP3 MSTORE POP POP JUMP JUMPDEST PUSH1 0x0 PUSH1 0xC0 DUP3 ADD SWAP1 POP PUSH2 0x137A PUSH1 0x0 DUP4 ADD DUP10 PUSH2 0x1347 JUMP JUMPDEST PUSH2 0x1387 PUSH1 0x20 DUP4 ADD DUP9 PUSH2 0x1347 JUMP JUMPDEST PUSH2 0x1394 PUSH1 0x40 DUP4 ADD DUP8 PUSH2 0x1347 JUMP JUMPDEST PUSH2 0x13A1 PUSH1 0x60 DUP4 ADD DUP7 PUSH2 0x1356 JUMP JUMPDEST PUSH2 0x13AE PUSH1 0x80 DUP4 ADD DUP6 PUSH2 0x1356 JUMP JUMPDEST PUSH2 0x13BB PUSH1 0xA0 DUP4 ADD DUP5 PUSH2 0x1356 JUMP JUMPDEST SWAP8 SWAP7 POP POP POP POP POP POP POP JUMP JUMPDEST PUSH1 0x0 PUSH20 0xFFFFFFFFFFFFFFFFFFFFFFFFFFFFFFFFFFFFFFFF DUP3 AND SWAP1 POP SWAP2 SWAP1 POP JUMP JUMPDEST PUSH1 0x0 PUSH2 0x13F1 DUP3 PUSH2 0x13C6 JUMP JUMPDEST SWAP1 POP SWAP2 SWAP1 POP JUMP JUMPDEST PUSH2 0x1401 DUP2 PUSH2 0x13E6 JUMP JUMPDEST DUP3 MSTORE POP POP JUMP JUMPDEST PUSH1 0x0 PUSH1 0x20 DUP3 ADD SWAP1 POP PUSH2 0x141C PUSH1 0x0 DUP4 ADD DUP5 PUSH2 0x13F8 JUMP JUMPDEST SWAP3 SWAP2 POP POP JUMP JUMPDEST PUSH1 0x0 PUSH1 0x20 DUP3 ADD SWAP1 POP PUSH2 0x1437 PUSH1 0x0 DUP4 ADD DUP5 PUSH2 0x1356 JUMP JUMPDEST SWAP3 SWAP2 POP POP JUMP JUMPDEST PUSH1 0x0 PUSH1 0x20 DUP3 ADD SWAP1 POP PUSH2 0x1452 PUSH1 0x0 DUP4 ADD DUP5 PUSH2 0x1347 JUMP JUMPDEST SWAP3 SWAP2 POP POP JUMP JUMPDEST PUSH2 0x1461 DUP2 PUSH2 0x13E6 JUMP JUMPDEST DUP2 EQ PUSH2 0x146C JUMPI PUSH1 0x0 DUP1 REVERT JUMPDEST POP JUMP JUMPDEST PUSH1 0x0 DUP2 CALLDATALOAD SWAP1 POP PUSH2 0x147E DUP2 PUSH2 0x1458 JUMP JUMPDEST SWAP3 SWAP2 POP POP JUMP JUMPDEST PUSH1 0x0 PUSH1 0x20 DUP3 DUP5 SUB SLT ISZERO PUSH2 0x149A JUMPI PUSH2 0x1499 PUSH2 0x12D3 JUMP JUMPDEST JUMPDEST PUSH1 0x0 PUSH2 0x14A8 DUP5 DUP3 DUP6 ADD PUSH2 0x146F JUMP JUMPDEST SWAP2 POP POP SWAP3 SWAP2 POP POP JUMP JUMPDEST PUSH1 0x0 DUP1 PUSH1 0x40 DUP4 DUP6 SUB SLT ISZERO PUSH2 0x14C8 JUMPI PUSH2 0x14C7 PUSH2 0x12D3 JUMP JUMPDEST JUMPDEST PUSH1 0x0 PUSH2 0x14D6 DUP6 DUP3 DUP7 ADD PUSH2 0x12F9 JUMP JUMPDEST SWAP3 POP POP PUSH1 0x20 PUSH2 0x14E7 DUP6 DUP3 DUP7 ADD PUSH2 0x146F JUMP JUMPDEST SWAP2 POP POP SWAP3 POP SWAP3 SWAP1 POP JUMP JUMPDEST PUSH1 0x0 DUP3 DUP3 MSTORE PUSH1 0x20 DUP3 ADD SWAP1 POP SWAP3 SWAP2 POP POP JUMP JUMPDEST PUSH32 0x4E6F742050617274794100000000000000000000000000000000000000000000 PUSH1 0x0 DUP3 ADD MSTORE POP JUMP JUMPDEST PUSH1 0x0 PUSH2 0x1538 PUSH1 0xA DUP4 PUSH2 0x14F1 JUMP JUMPDEST SWAP2 POP PUSH2 0x1543 DUP3 PUSH2 0x1502 JUMP JUMPDEST PUSH1 0x20 DUP3 ADD SWAP1 POP SWAP2 SWAP1 POP JUMP JUMPDEST PUSH1 0x0 PUSH1 0x20 DUP3 ADD SWAP1 POP DUP2 DUP2 SUB PUSH1 0x0 DUP4 ADD MSTORE PUSH2 0x1567 DUP2 PUSH2 0x152B JUMP JUMPDEST SWAP1 POP SWAP2 SWAP1 POP JUMP JUMPDEST PUSH32 0x54696D656F7574206F7574206F662072616E6765000000000000000000000000 PUSH1 0x0 DUP3 ADD MSTORE POP JUMP JUMPDEST PUSH1 0x0 PUSH2 0x15A4 PUSH1 0x14 DUP4 PUSH2 0x14F1 JUMP JUMPDEST SWAP2 POP PUSH2 0x15AF DUP3 PUSH2 0x156E JUMP JUMPDEST PUSH1 0x20 DUP3 ADD SWAP1 POP SWAP2 SWAP1 POP JUMP JUMPDEST PUSH1 0x0 PUSH1 0x20 DUP3 ADD SWAP1 POP DUP2 DUP2 SUB PUSH1 0x0 DUP4 ADD MSTORE PUSH2 0x15D3 DUP2 PUSH2 0x1597 JUMP JUMPDEST SWAP1 POP SWAP2 SWAP1 POP JUMP JUMPDEST PUSH32 0x50726576696F757320726F756E64206163746976650000000000000000000000 PUSH1 0x0 DUP3 ADD MSTORE POP JUMP JUMPDEST PUSH1 0x0 PUSH2 0x1610 PUSH1 0x15 DUP4 PUSH2 0x14F1 JUMP JUMPDEST SWAP2 POP PUSH2 0x161B DUP3 PUSH2 0x15DA JUMP JUMPDEST PUSH1 0x20 DUP3 ADD SWAP1 POP SWAP2 SWAP1 POP JUMP JUMPDEST PUSH1 0x0 PUSH1 0x20 DUP3 ADD SWAP1 POP DUP2 DUP2 SUB PUSH1 0x0 DUP4 ADD MSTORE PUSH2 0x163F DUP2 PUSH2 0x1603 JUMP JUMPDEST SWAP1 POP SWAP2 SWAP1 POP JUMP JUMPDEST PUSH32 0x4E487B7100000000000000000000000000000000000000000000000000000000 PUSH1 0x0 MSTORE PUSH1 0x11 PUSH1 0x4 MSTORE PUSH1 0x24 PUSH1 0x0 REVERT JUMPDEST PUSH1 0x0 PUSH2 0x1680 DUP3 PUSH2 0x12D8 JUMP JUMPDEST SWAP2 POP PUSH2 0x168B DUP4 PUSH2 0x12D8 JUMP JUMPDEST SWAP3 POP DUP3 DUP3 ADD SWAP1 POP DUP1 DUP3 GT ISZERO PUSH2 0x16A3 JUMPI PUSH2 0x16A2 PUSH2 0x1646 JUMP JUMPDEST JUMPDEST SWAP3 SWAP2 POP POP JUMP JUMPDEST PUSH32 0x4E6F206163746976652072657175657374000000000000000000000000000000 PUSH1 0x0 DUP3 ADD MSTORE POP JUMP JUMPDEST PUSH1 0x0 PUSH2 0x16DF PUSH1 0x11 DUP4 PUSH2 0x14F1 JUMP JUMPDEST SWAP2 POP PUSH2 0x16EA DUP3 PUSH2 0x16A9 JUMP JUMPDEST PUSH1 0x20 DUP3 ADD SWAP1 POP SWAP2 SWAP1 POP JUMP JUMPDEST PUSH1 0x0 PUSH1 0x20 DUP3 ADD SWAP1 POP DUP2 DUP2 SUB PUSH1 0x0 DUP4 ADD MSTORE PUSH2 0x170E DUP2 PUSH2 0x16D2 JUMP JUMPDEST SWAP1 POP SWAP2 SWAP1 POP JUMP JUMPDEST PUSH32 0x4E6F742074696D6564206F757420796574000000000000000000000000000000 PUSH1 0x0 DUP3 ADD MSTORE POP JUMP JUMPDEST PUSH1 0x0 PUSH2 0x174B PUSH1 0x11 DUP4 PUSH2 0x14F1 JUMP JUMPDEST SWAP2 POP PUSH2 0x1756 DUP3 PUSH2 0x1715 JUMP JUMPDEST PUSH1 0x20 DUP3 ADD SWAP1 POP SWAP2 SWAP1 POP JUMP JUMPDEST PUSH1 0x0 PUSH1 0x20 DUP3 ADD SWAP1 POP DUP2 DUP2 SUB PUSH1 0x0 DUP4 ADD MSTORE PUSH2 0x177A DUP2 PUSH2 0x173E JUMP JUMPDEST SWAP1 POP SWAP2 SWAP1 POP JUMP JUMPDEST PUSH32 0x74696D656F757400000000000000000000000000000000000000000000000000 PUSH1 0x0 DUP3 ADD MSTORE POP JUMP JUMPDEST PUSH1 0x0 PUSH2 0x17B7 PUSH1 0x7 DUP4 PUSH2 0x14F1 JUMP JUMPDEST SWAP2 POP PUSH2 0x17C2 DUP3 PUSH2 0x1781 JUMP JUMPDEST PUSH1 0x20 DUP3 ADD SWAP1 POP SWAP2 SWAP1 POP JUMP JUMPDEST PUSH1 0x0 PUSH1 0x20 DUP3 ADD SWAP1 POP DUP2 DUP2 SUB PUSH1 0x0 DUP4 ADD MSTORE PUSH2 0x17E6 DUP2 PUSH2 0x17AA JUMP JUMPDEST SWAP1 POP SWAP2 SWAP1 POP JUMP JUMPDEST PUSH32 0x4E6F742077686974656C6973746564206F7261636C6500000000000000000000 PUSH1 0x0 DUP3 ADD MSTORE POP JUMP JUMPDEST PUSH1 0x0 PUSH2 0x1823 PUSH1 0x16 DUP4 PUSH2 0x14F1 JUMP JUMPDEST SWAP2 POP PUSH2 0x182E DUP3 PUSH2 0x17ED JUMP JUMPDEST PUSH1 0x20 DUP3 ADD SWAP1 POP SWAP2 SWAP1 POP JUMP JUMPDEST PUSH1 0x0 PUSH1 0x20 DUP3 ADD SWAP1 POP DUP2 DUP2 SUB PUSH1 0x0 DUP4 ADD MSTORE PUSH2 0x1852 DUP2 PUSH2 0x1816 JUMP JUMPDEST SWAP1 POP SWAP2 SWAP1 POP JUMP JUMPDEST PUSH32 0x5265706F7274206E6F7420726561647900000000000000000000000000000000 PUSH1 0x0 DUP3 ADD MSTORE POP JUMP JUMPDEST PUSH1 0x0 PUSH2 0x188F PUSH1 0x10 DUP4 PUSH2 0x14F1 JUMP JUMPDEST SWAP2 POP PUSH2 0x189A DUP3 PUSH2 0x1859 JUMP JUMPDEST PUSH1 0x20 DUP3 ADD SWAP1 POP SWAP2 SWAP1 POP JUMP JUMPDEST PUSH1 0x0 PUSH1 0x20 DUP3 ADD SWAP1 POP DUP2 DUP2 SUB PUSH1 0x0 DUP4 ADD MSTORE PUSH2 0x18BE DUP2 PUSH2 0x1882 JUMP JUMPDEST SWAP1 POP SWAP2 SWAP1 POP JUMP JUMPDEST PUSH32 0x526F756E642066696E616C697A65640000000000000000000000000000000000 PUSH1 0x0 DUP3 ADD MSTORE POP JUMP JUMPDEST PUSH1 0x0 PUSH2 0x18FB PUSH1 0xF DUP4 PUSH2 0x14F1 JUMP JUMPDEST SWAP2 POP PUSH2 0x1906 DUP3 PUSH2 0x18C5 JUMP JUMPDEST PUSH1 0x20 DUP3 ADD SWAP1 POP SWAP2 SWAP1 POP JUMP JUMPDEST PUSH1 0x0 PUSH1 0x20 DUP3 ADD SWAP1 POP DUP2 DUP2 SUB PUSH1 0x0 DUP4 ADD MSTORE PUSH2 0x192A DUP2 PUSH2 0x18EE JUMP JUMPDEST SWAP1 POP SWAP2 SWAP1 POP JUMP JUMPDEST PUSH32 0x416C726561647920636F6E6669726D6564000000000000000000000000000000 PUSH1 0x0 DUP3 ADD MSTORE POP JUMP JUMPDEST PUSH1 0x0 PUSH2 0x1967 PUSH1 0x11 DUP4 PUSH2 0x14F1 JUMP JUMPDEST SWAP2 POP PUSH2 0x1972 DUP3 PUSH2 0x1931 JUMP JUMPDEST PUSH1 0x20 DUP3 ADD SWAP1 POP SWAP2 SWAP1 POP JUMP JUMPDEST PUSH1 0x0 PUSH1 0x20 DUP3 ADD SWAP1 POP DUP2 DUP2 SUB PUSH1 0x0 DUP4 ADD MSTORE PUSH2 0x1996 DUP2 PUSH2 0x195A JUMP JUMPDEST SWAP1 POP SWAP2 SWAP1 POP JUMP JUMPDEST PUSH32 0x4F62736572766174696F6E20616C7265616479207375626D6974746564000000 PUSH1 0x0 DUP3 ADD MSTORE POP JUMP JUMPDEST PUSH1 0x0 PUSH2 0x19D3 PUSH1 0x1D DUP4 PUSH2 0x14F1 JUMP JUMPDEST SWAP2 POP PUSH2 0x19DE DUP3 PUSH2 0x199D JUMP JUMPDEST PUSH1 0x20 DUP3 ADD SWAP1 POP SWAP2 SWAP1 POP JUMP JUMPDEST PUSH1 0x0 PUSH1 0x20 DUP3 ADD SWAP1 POP DUP2 DUP2 SUB PUSH1 0x0 DUP4 ADD MSTORE PUSH2 0x1A02 DUP2 PUSH2 0x19C6 JUMP JUMPDEST SWAP1 POP SWAP2 SWAP1 POP JUMP JUMPDEST PUSH32 0x416C72656164792066696E616C697A6564000000000000000000000000000000 PUSH1 0x0 DUP3 ADD MSTORE POP JUMP JUMPDEST PUSH1 0x0 PUSH2 0x1A3F PUSH1 0x11 DUP4 PUSH2 0x14F1 JUMP JUMPDEST SWAP2 POP PUSH2 0x1A4A DUP3 PUSH2 0x1A09 JUMP JUMPDEST PUSH1 0x20 DUP3 ADD SWAP1 POP SWAP2 SWAP1 POP JUMP JUMPDEST PUSH1 0x0 PUSH1 0x20 DUP3 ADD SWAP1 POP DUP2 DUP2 SUB PUSH1 0x0 DUP4 ADD MSTORE PUSH2 0x1A6E DUP2 PUSH2 0x1A32 JUMP JUMPDEST SWAP1 POP SWAP2 SWAP1 POP JUMP JUMPDEST PUSH32 0x51756F72756D206E6F7420726561636865640000000000000000000000000000 PUSH1 0x0 DUP3 ADD MSTORE POP JUMP JUMPDEST PUSH1 0x0 PUSH2 0x1AAB PUSH1 0x12 DUP4 PUSH2 0x14F1 JUMP JUMPDEST SWAP2 POP PUSH2 0x1AB6 DUP3 PUSH2 0x1A75 JUMP JUMPDEST PUSH1 0x20 DUP3 ADD SWAP1 POP SWAP2 SWAP1 POP JUMP JUMPDEST PUSH1 0x0 PUSH1 0x20 DUP3 ADD SWAP1 POP DUP2 DUP2 SUB PUSH1 0x0 DUP4 ADD MSTORE PUSH2 0x1ADA DUP2 PUSH2 0x1A9E JUMP JUMPDEST SWAP1 POP SWAP2 SWAP1 POP JUMP JUMPDEST PUSH32 0x4E6565642066756C6C206F62736572766174696F6E7300000000000000000000 PUSH1 0x0 DUP3 ADD MSTORE POP JUMP JUMPDEST PUSH1 0x0 PUSH2 0x1B17 PUSH1 0x16 DUP4 PUSH2 0x14F1 JUMP JUMPDEST SWAP2 POP PUSH2 0x1B22 DUP3 PUSH2 0x1AE1 JUMP JUMPDEST PUSH1 0x20 DUP3 ADD SWAP1 POP SWAP2 SWAP1 POP JUMP JUMPDEST PUSH1 0x0 PUSH1 0x20 DUP3 ADD SWAP1 POP DUP2 DUP2 SUB PUSH1 0x0 DUP4 ADD MSTORE PUSH2 0x1B46 DUP2 PUSH2 0x1B0A JUMP JUMPDEST SWAP1 POP SWAP2 SWAP1 POP JUMP JUMPDEST PUSH32 0x4E487B7100000000000000000000000000000000000000000000000000000000 PUSH1 0x0 MSTORE PUSH1 0x41 PUSH1 0x4 MSTORE PUSH1 0x24 PUSH1 0x0 REVERT JUMPDEST PUSH32 0x4E487B7100000000000000000000000000000000000000000000000000000000 PUSH1 0x0 MSTORE PUSH1 0x32 PUSH1 0x4 MSTORE PUSH1 0x24 PUSH1 0x0 REVERT JUMPDEST PUSH1 0x0 PUSH2 0x1BB6 DUP3 PUSH2 0x12D8 JUMP JUMPDEST SWAP2 POP PUSH32 0xFFFFFFFFFFFFFFFFFFFFFFFFFFFFFFFFFFFFFFFFFFFFFFFFFFFFFFFFFFFFFFFF DUP3 SUB PUSH2 0x1BE8 JUMPI PUSH2 0x1BE7 PUSH2 0x1646 JUMP JUMPDEST JUMPDEST PUSH1 0x1 DUP3 ADD SWAP1 POP SWAP2 SWAP1 POP JUMP JUMPDEST PUSH1 0x0 PUSH2 0x1BFE DUP3 PUSH2 0x12D8 JUMP JUMPDEST SWAP2 POP PUSH2 0x1C09 DUP4 PUSH2 0x12D8 JUMP JUMPDEST SWAP3 POP DUP3 DUP3 SUB SWAP1 POP DUP2 DUP2 GT ISZERO PUSH2 0x1C21 JUMPI PUSH2 0x1C20 PUSH2 0x1646 JUMP JUMPDEST JUMPDEST SWAP3 SWAP2 POP POP JUMP JUMPDEST PUSH1 0x0 PUSH2 0x1C32 DUP3 PUSH2 0x12D8 JUMP JUMPDEST SWAP2 POP PUSH1 0x0 DUP3 SUB PUSH2 0x1C45 JUMPI PUSH2 0x1C44 PUSH2 0x1646 JUMP JUMPDEST JUMPDEST PUSH1 0x1 DUP3 SUB SWAP1 POP SWAP2 SWAP1 POP JUMP JUMPDEST PUSH32 0x4E487B7100000000000000000000000000000000000000000000000000000000 PUSH1 0x0 MSTORE PUSH1 0x12 PUSH1 0x4 MSTORE PUSH1 0x24 PUSH1 0x0 REVERT JUMPDEST PUSH1 0x0 PUSH2 0x1C8A DUP3 PUSH2 0x12D8 JUMP JUMPDEST SWAP2 POP PUSH2 0x1C95 DUP4 PUSH2 0x12D8 JUMP JUMPDEST SWAP3 POP DUP3 PUSH2 0x1CA5 JUMPI PUSH2 0x1CA4 PUSH2 0x1C50 JUMP JUMPDEST JUMPDEST DUP3 DUP3 DIV SWAP1 POP SWAP3 SWAP2 POP POP JUMP INVALID LOG2 PUSH5 0x6970667358 0x22 SLT KECCAK256 EXP 0xDB 0xD1 SELFDESTRUCT DUP12 PUSH17 0x33B2AC6B162B9680D4BEF9BA46E9342CA0 GAS 0x4A CODESIZE DIFFICULTY DUP16 0xD8 0x4A SWAP1 DUP4 PUSH5 0x736F6C6343 STOP ADDMOD GT STOP CALLER "
				},
				"gasEstimates": {
					"creation": {
						"codeDepositCost": "1479600",
						"executionCost": "infinite",
						"totalCost": "infinite"
					},
					"external": {
						"cancelIfTimeout()": "infinite",
						"confirmReport()": "infinite",
						"dataRequested()": "2516",
						"getRoundStatus(uint256)": "infinite",
						"hasConfirmedReport(uint256,address)": "3206",
						"hasSubmittedObservation(uint256,address)": "3250",
						"isOracle(address)": "2867",
						"latestRound()": "2452",
						"latestValue()": "2496",
						"oracleCount()": "2540",
						"partyA()": "infinite",
						"requestData()": "infinite",
						"requestTimestamp()": "2452",
						"roundId()": "2518",
						"setTimeoutSeconds(uint256)": "infinite",
						"submitObservation(uint256)": "infinite",
						"thresholdK()": "2497",
						"timeoutSeconds()": "2496"
					},
					"internal": {
						"_finalize(uint256)": "infinite",
						"_median(uint256[] storage pointer)": "infinite"
					}
				},
				"methodIdentifiers": {
					"cancelIfTimeout()": "6798699b",
					"confirmReport()": "d486a0d2",
					"dataRequested()": "4222c7fb",
					"getRoundStatus(uint256)": "1086bfdc",
					"hasConfirmedReport(uint256,address)": "e966be71",
					"hasSubmittedObservation(uint256,address)": "fefe0ea0",
					"isOracle(address)": "a97e5c93",
					"latestRound()": "668a0f02",
					"latestValue()": "4ab5cc82",
					"oracleCount()": "613d8fcc",
					"partyA()": "10e1d8ca",
					"requestData()": "606deecd",
					"requestTimestamp()": "3e66a647",
					"roundId()": "8cd221c9",
					"setTimeoutSeconds(uint256)": "36f945cd",
					"submitObservation(uint256)": "ec7aaca3",
					"thresholdK()": "1d238411",
					"timeoutSeconds()": "80475516"
				}
			},
			"storageLayout": {
				"storage": [
					{
						"astId": 10,
						"contract": "PartyA_OCR.sol:PartyA_OCR",
						"label": "isOracle",
						"offset": 0,
						"slot": "0",
						"type": "t_mapping(t_address,t_bool)"
					},
					{
						"astId": 13,
						"contract": "PartyA_OCR.sol:PartyA_OCR",
						"label": "oracleCount",
						"offset": 0,
						"slot": "1",
						"type": "t_uint256"
					},
					{
						"astId": 16,
						"contract": "PartyA_OCR.sol:PartyA_OCR",
						"label": "thresholdK",
						"offset": 0,
						"slot": "2",
						"type": "t_uint256"
					},
					{
						"astId": 20,
						"contract": "PartyA_OCR.sol:PartyA_OCR",
						"label": "timeoutSeconds",
						"offset": 0,
						"slot": "3",
						"type": "t_uint256"
					},
					{
						"astId": 22,
						"contract": "PartyA_OCR.sol:PartyA_OCR",
						"label": "roundId",
						"offset": 0,
						"slot": "4",
						"type": "t_uint256"
					},
					{
						"astId": 24,
						"contract": "PartyA_OCR.sol:PartyA_OCR",
						"label": "dataRequested",
						"offset": 0,
						"slot": "5",
						"type": "t_bool"
					},
					{
						"astId": 26,
						"contract": "PartyA_OCR.sol:PartyA_OCR",
						"label": "requestTimestamp",
						"offset": 0,
						"slot": "6",
						"type": "t_uint256"
					},
					{
						"astId": 29,
						"contract": "PartyA_OCR.sol:PartyA_OCR",
						"label": "latestValue",
						"offset": 0,
						"slot": "7",
						"type": "t_uint256"
					},
					{
						"astId": 31,
						"contract": "PartyA_OCR.sol:PartyA_OCR",
						"label": "latestRound",
						"offset": 0,
						"slot": "8",
						"type": "t_uint256"
					},
					{
						"astId": 58,
						"contract": "PartyA_OCR.sol:PartyA_OCR",
						"label": "rounds",
						"offset": 0,
						"slot": "9",
						"type": "t_mapping(t_uint256,t_struct(RoundData)53_storage)"
					}
				],
				"types": {
					"t_address": {
						"encoding": "inplace",
						"label": "address",
						"numberOfBytes": "20"
					},
					"t_array(t_uint256)dyn_storage": {
						"base": "t_uint256",
						"encoding": "dynamic_array",
						"label": "uint256[]",
						"numberOfBytes": "32"
					},
					"t_bool": {
						"encoding": "inplace",
						"label": "bool",
						"numberOfBytes": "1"
					},
					"t_mapping(t_address,t_bool)": {
						"encoding": "mapping",
						"key": "t_address",
						"label": "mapping(address => bool)",
						"numberOfBytes": "32",
						"value": "t_bool"
					},
					"t_mapping(t_uint256,t_struct(RoundData)53_storage)": {
						"encoding": "mapping",
						"key": "t_uint256",
						"label": "mapping(uint256 => struct PartyA_OCR.RoundData)",
						"numberOfBytes": "32",
						"value": "t_struct(RoundData)53_storage"
					},
					"t_struct(RoundData)53_storage": {
						"encoding": "inplace",
						"label": "struct PartyA_OCR.RoundData",
						"members": [
							{
								"astId": 33,
								"contract": "PartyA_OCR.sol:PartyA_OCR",
								"label": "reportReady",
								"offset": 0,
								"slot": "0",
								"type": "t_bool"
							},
							{
								"astId": 35,
								"contract": "PartyA_OCR.sol:PartyA_OCR",
								"label": "finalized",
								"offset": 1,
								"slot": "0",
								"type": "t_bool"
							},
							{
								"astId": 37,
								"contract": "PartyA_OCR.sol:PartyA_OCR",
								"label": "obsCount",
								"offset": 0,
								"slot": "1",
								"type": "t_uint256"
							},
							{
								"astId": 39,
								"contract": "PartyA_OCR.sol:PartyA_OCR",
								"label": "confirmCount",
								"offset": 0,
								"slot": "2",
								"type": "t_uint256"
							},
							{
								"astId": 41,
								"contract": "PartyA_OCR.sol:PartyA_OCR",
								"label": "reportValue",
								"offset": 0,
								"slot": "3",
								"type": "t_uint256"
							},
							{
								"astId": 44,
								"contract": "PartyA_OCR.sol:PartyA_OCR",
								"label": "obsValues",
								"offset": 0,
								"slot": "4",
								"type": "t_array(t_uint256)dyn_storage"
							},
							{
								"astId": 48,
								"contract": "PartyA_OCR.sol:PartyA_OCR",
								"label": "obsSubmitted",
								"offset": 0,
								"slot": "5",
								"type": "t_mapping(t_address,t_bool)"
							},
							{
								"astId": 52,
								"contract": "PartyA_OCR.sol:PartyA_OCR",
								"label": "confirmed",
								"offset": 0,
								"slot": "6",
								"type": "t_mapping(t_address,t_bool)"
							}
						],
						"numberOfBytes": "224"
					},
					"t_uint256": {
						"encoding": "inplace",
						"label": "uint256",
						"numberOfBytes": "32"
					}
				}
			},
			"userdoc": {
				"kind": "user",
				"methods": {
					"confirmReport()": {
						"notice": "oracle 确认（认可）本轮 report"
					},
					"isOracle(address)": {
						"notice": "oracle 白名单"
					},
					"latestValue()": {
						"notice": "最新落地结果"
					},
					"oracleCount()": {
						"notice": "oracle 总数（建议 3 或 5）"
					},
					"partyA()": {
						"notice": "PartyA 管理员（部署者）"
					},
					"submitObservation(uint256)": {
						"notice": "oracle 提交 observation（各自独立拉到的数据）"
					},
					"thresholdK()": {
						"notice": "阈值 K（至少多少个 oracle confirm 才 finalize）"
					},
					"timeoutSeconds()": {
						"notice": "超时（防卡死）"
					}
				},
				"notice": "流程：PartyA 发起 round -> 多个 oracle 提交 observation -> 合约计算 report（median）         -> oracle 对 report 进行 confirm（认可）-> 达到 K-of-N 阈值后 finalize 落地",
				"version": 1
			}
		}
	}
}