{
	"Day1PartyA_v2.sol": {
		"Day1PartyA": {
			"abi": [
				{
					"inputs": [
						{
							"internalType": "bytes32",
							"name": "_commitment",
							"type": "bytes32"
						}
					],
					"stateMutability": "nonpayable",
					"type": "constructor"
				},
				{
					"anonymous": false,
					"inputs": [
						{
							"indexed": true,
							"internalType": "address",
							"name": "partyA",
							"type": "address"
						}
					],
					"name": "DataRequested",
					"type": "event"
				},
				{
					"inputs": [],
					"name": "commit",
					"outputs": [],
					"stateMutability": "nonpayable",
					"type": "function"
				},
				{
					"inputs": [],
					"name": "commitment",
					"outputs": [
						{
							"internalType": "bytes32",
							"name": "",
							"type": "bytes32"
						}
					],
					"stateMutability": "view",
					"type": "function"
				},
				{
					"inputs": [],
					"name": "committed",
					"outputs": [
						{
							"internalType": "bool",
							"name": "",
							"type": "bool"
						}
					],
					"stateMutability": "view",
					"type": "function"
				},
				{
					"inputs": [],
					"name": "dataRequested",
					"outputs": [
						{
							"internalType": "bool",
							"name": "",
							"type": "bool"
						}
					],
					"stateMutability": "view",
					"type": "function"
				},
				{
					"inputs": [],
					"name": "partyA",
					"outputs": [
						{
							"internalType": "address",
							"name": "",
							"type": "address"
						}
					],
					"stateMutability": "view",
					"type": "function"
				},
				{
					"inputs": [],
					"name": "requestData",
					"outputs": [],
					"stateMutability": "nonpayable",
					"type": "function"
				}
			],
			"devdoc": {
				"kind": "dev",
				"methods": {},
				"version": 1
			},
			"evm": {
				"assembly": "    /* \"Day1PartyA_v2.sol\":58:789  contract Day1PartyA {... */\n  mstore(0x40, 0x80)\n    /* \"Day1PartyA_v2.sol\":252:355  constructor(bytes32 _commitment) {... */\n  callvalue\n  dup1\n  iszero\n  tag_1\n  jumpi\n  0x00\n  dup1\n  revert\ntag_1:\n  pop\n  mload(0x40)\n  sub(codesize, bytecodeSize)\n  dup1\n  bytecodeSize\n  dup4\n  codecopy\n  dup2\n  dup2\n  add\n  0x40\n  mstore\n  dup2\n  add\n  swap1\n  tag_2\n  swap2\n  swap1\n  tag_3\n  jump\t// in\ntag_2:\n    /* \"Day1PartyA_v2.sol\":304:314  msg.sender */\n  caller\n    /* \"Day1PartyA_v2.sol\":295:301  partyA */\n  0x00\n  dup1\n    /* \"Day1PartyA_v2.sol\":295:314  partyA = msg.sender */\n  0x0100\n  exp\n  dup2\n  sload\n  dup2\n  0xffffffffffffffffffffffffffffffffffffffff\n  mul\n  not\n  and\n  swap1\n  dup4\n  0xffffffffffffffffffffffffffffffffffffffff\n  and\n  mul\n  or\n  swap1\n  sstore\n  pop\n    /* \"Day1PartyA_v2.sol\":337:348  _commitment */\n  dup1\n    /* \"Day1PartyA_v2.sol\":324:334  commitment */\n  0x01\n    /* \"Day1PartyA_v2.sol\":324:348  commitment = _commitment */\n  dup2\n  swap1\n  sstore\n  pop\n    /* \"Day1PartyA_v2.sol\":252:355  constructor(bytes32 _commitment) {... */\n  pop\n    /* \"Day1PartyA_v2.sol\":58:789  contract Day1PartyA {... */\n  jump(tag_6)\n    /* \"#utility.yul\":88:205   */\ntag_8:\n    /* \"#utility.yul\":197:198   */\n  0x00\n    /* \"#utility.yul\":194:195   */\n  dup1\n    /* \"#utility.yul\":187:199   */\n  revert\n    /* \"#utility.yul\":334:411   */\ntag_10:\n    /* \"#utility.yul\":371:378   */\n  0x00\n    /* \"#utility.yul\":400:405   */\n  dup2\n    /* \"#utility.yul\":389:405   */\n  swap1\n  pop\n    /* \"#utility.yul\":334:411   */\n  swap2\n  swap1\n  pop\n  jump\t// out\n    /* \"#utility.yul\":417:539   */\ntag_11:\n    /* \"#utility.yul\":490:514   */\n  tag_19\n    /* \"#utility.yul\":508:513   */\n  dup2\n    /* \"#utility.yul\":490:514   */\n  tag_10\n  jump\t// in\ntag_19:\n    /* \"#utility.yul\":483:488   */\n  dup2\n    /* \"#utility.yul\":480:515   */\n  eq\n    /* \"#utility.yul\":470:533   */\n  tag_20\n  jumpi\n    /* \"#utility.yul\":529:530   */\n  0x00\n    /* \"#utility.yul\":526:527   */\n  dup1\n    /* \"#utility.yul\":519:531   */\n  revert\n    /* \"#utility.yul\":470:533   */\ntag_20:\n    /* \"#utility.yul\":417:539   */\n  pop\n  jump\t// out\n    /* \"#utility.yul\":545:688   */\ntag_12:\n    /* \"#utility.yul\":602:607   */\n  0x00\n    /* \"#utility.yul\":633:639   */\n  dup2\n    /* \"#utility.yul\":627:640   */\n  mload\n    /* \"#utility.yul\":618:640   */\n  swap1\n  pop\n    /* \"#utility.yul\":649:682   */\n  tag_22\n    /* \"#utility.yul\":676:681   */\n  dup2\n    /* \"#utility.yul\":649:682   */\n  tag_11\n  jump\t// in\ntag_22:\n    /* \"#utility.yul\":545:688   */\n  swap3\n  swap2\n  pop\n  pop\n  jump\t// out\n    /* \"#utility.yul\":694:1045   */\ntag_3:\n    /* \"#utility.yul\":764:770   */\n  0x00\n    /* \"#utility.yul\":813:815   */\n  0x20\n    /* \"#utility.yul\":801:810   */\n  dup3\n    /* \"#utility.yul\":792:799   */\n  dup5\n    /* \"#utility.yul\":788:811   */\n  sub\n    /* \"#utility.yul\":784:816   */\n  slt\n    /* \"#utility.yul\":781:900   */\n  iszero\n  tag_24\n  jumpi\n    /* \"#utility.yul\":819:898   */\n  tag_25\n  tag_8\n  jump\t// in\ntag_25:\n    /* \"#utility.yul\":781:900   */\ntag_24:\n    /* \"#utility.yul\":939:940   */\n  0x00\n    /* \"#utility.yul\":964:1028   */\n  tag_26\n    /* \"#utility.yul\":1020:1027   */\n  dup5\n    /* \"#utility.yul\":1011:1017   */\n  dup3\n    /* \"#utility.yul\":1000:1009   */\n  dup6\n    /* \"#utility.yul\":996:1018   */\n  add\n    /* \"#utility.yul\":964:1028   */\n  tag_12\n  jump\t// in\ntag_26:\n    /* \"#utility.yul\":954:1028   */\n  swap2\n  pop\n    /* \"#utility.yul\":910:1038   */\n  pop\n    /* \"#utility.yul\":694:1045   */\n  swap3\n  swap2\n  pop\n  pop\n  jump\t// out\n    /* \"Day1PartyA_v2.sol\":58:789  contract Day1PartyA {... */\ntag_6:\n  dataSize(sub_0)\n  dup1\n  dataOffset(sub_0)\n  0x00\n  codecopy\n  0x00\n  return\nstop\n\nsub_0: assembly {\n        /* \"Day1PartyA_v2.sol\":58:789  contract Day1PartyA {... */\n      mstore(0x40, 0x80)\n      callvalue\n      dup1\n      iszero\n      tag_1\n      jumpi\n      0x00\n      dup1\n      revert\n    tag_1:\n      pop\n      jumpi(tag_2, lt(calldatasize, 0x04))\n      shr(0xe0, calldataload(0x00))\n      dup1\n      0x10e1d8ca\n      eq\n      tag_3\n      jumpi\n      dup1\n      0x1303a484\n      eq\n      tag_4\n      jumpi\n      dup1\n      0x3c7a3aff\n      eq\n      tag_5\n      jumpi\n      dup1\n      0x4222c7fb\n      eq\n      tag_6\n      jumpi\n      dup1\n      0x606deecd\n      eq\n      tag_7\n      jumpi\n      dup1\n      0x9b6b9664\n      eq\n      tag_8\n      jumpi\n    tag_2:\n      0x00\n      dup1\n      revert\n        /* \"Day1PartyA_v2.sol\":84:105  address public partyA */\n    tag_3:\n      tag_9\n      tag_10\n      jump\t// in\n    tag_9:\n      mload(0x40)\n      tag_11\n      swap2\n      swap1\n      tag_12\n      jump\t// in\n    tag_11:\n      mload(0x40)\n      dup1\n      swap2\n      sub\n      swap1\n      return\n        /* \"Day1PartyA_v2.sol\":111:136  bytes32 public commitment */\n    tag_4:\n      tag_13\n      tag_14\n      jump\t// in\n    tag_13:\n      mload(0x40)\n      tag_15\n      swap2\n      swap1\n      tag_16\n      jump\t// in\n    tag_15:\n      mload(0x40)\n      dup1\n      swap2\n      sub\n      swap1\n      return\n        /* \"Day1PartyA_v2.sol\":361:524  function commit() external {... */\n    tag_5:\n      tag_17\n      tag_18\n      jump\t// in\n    tag_17:\n      stop\n        /* \"Day1PartyA_v2.sol\":170:195  bool public dataRequested */\n    tag_6:\n      tag_19\n      tag_20\n      jump\t// in\n    tag_19:\n      mload(0x40)\n      tag_21\n      swap2\n      swap1\n      tag_22\n      jump\t// in\n    tag_21:\n      mload(0x40)\n      dup1\n      swap2\n      sub\n      swap1\n      return\n        /* \"Day1PartyA_v2.sol\":530:787  function requestData() external {... */\n    tag_7:\n      tag_23\n      tag_24\n      jump\t// in\n    tag_23:\n      stop\n        /* \"Day1PartyA_v2.sol\":142:163  bool public committed */\n    tag_8:\n      tag_25\n      tag_26\n      jump\t// in\n    tag_25:\n      mload(0x40)\n      tag_27\n      swap2\n      swap1\n      tag_22\n      jump\t// in\n    tag_27:\n      mload(0x40)\n      dup1\n      swap2\n      sub\n      swap1\n      return\n        /* \"Day1PartyA_v2.sol\":84:105  address public partyA */\n    tag_10:\n      0x00\n      dup1\n      sload\n      swap1\n      0x0100\n      exp\n      swap1\n      div\n      0xffffffffffffffffffffffffffffffffffffffff\n      and\n      dup2\n      jump\t// out\n        /* \"Day1PartyA_v2.sol\":111:136  bytes32 public commitment */\n    tag_14:\n      sload(0x01)\n      dup2\n      jump\t// out\n        /* \"Day1PartyA_v2.sol\":361:524  function commit() external {... */\n    tag_18:\n        /* \"Day1PartyA_v2.sol\":420:426  partyA */\n      0x00\n      dup1\n      sload\n      swap1\n      0x0100\n      exp\n      swap1\n      div\n      0xffffffffffffffffffffffffffffffffffffffff\n      and\n        /* \"Day1PartyA_v2.sol\":406:426  msg.sender == partyA */\n      0xffffffffffffffffffffffffffffffffffffffff\n      and\n        /* \"Day1PartyA_v2.sol\":406:416  msg.sender */\n      caller\n        /* \"Day1PartyA_v2.sol\":406:426  msg.sender == partyA */\n      0xffffffffffffffffffffffffffffffffffffffff\n      and\n      eq\n        /* \"Day1PartyA_v2.sol\":398:441  require(msg.sender == partyA, \"Not PartyA\") */\n      tag_29\n      jumpi\n      mload(0x40)\n      0x08c379a000000000000000000000000000000000000000000000000000000000\n      dup2\n      mstore\n      0x04\n      add\n      tag_30\n      swap1\n      tag_31\n      jump\t// in\n    tag_30:\n      mload(0x40)\n      dup1\n      swap2\n      sub\n      swap1\n      revert\n    tag_29:\n        /* \"Day1PartyA_v2.sol\":460:469  committed */\n      0x02\n      0x00\n      swap1\n      sload\n      swap1\n      0x0100\n      exp\n      swap1\n      div\n      0xff\n      and\n        /* \"Day1PartyA_v2.sol\":459:469  !committed */\n      iszero\n        /* \"Day1PartyA_v2.sol\":451:491  require(!committed, \"Already committed\") */\n      tag_32\n      jumpi\n      mload(0x40)\n      0x08c379a000000000000000000000000000000000000000000000000000000000\n      dup2\n      mstore\n      0x04\n      add\n      tag_33\n      swap1\n      tag_34\n      jump\t// in\n    tag_33:\n      mload(0x40)\n      dup1\n      swap2\n      sub\n      swap1\n      revert\n    tag_32:\n        /* \"Day1PartyA_v2.sol\":513:517  true */\n      0x01\n        /* \"Day1PartyA_v2.sol\":501:510  committed */\n      0x02\n      0x00\n        /* \"Day1PartyA_v2.sol\":501:517  committed = true */\n      0x0100\n      exp\n      dup2\n      sload\n      dup2\n      0xff\n      mul\n      not\n      and\n      swap1\n      dup4\n      iszero\n      iszero\n      mul\n      or\n      swap1\n      sstore\n      pop\n        /* \"Day1PartyA_v2.sol\":361:524  function commit() external {... */\n      jump\t// out\n        /* \"Day1PartyA_v2.sol\":170:195  bool public dataRequested */\n    tag_20:\n      0x02\n      0x01\n      swap1\n      sload\n      swap1\n      0x0100\n      exp\n      swap1\n      div\n      0xff\n      and\n      dup2\n      jump\t// out\n        /* \"Day1PartyA_v2.sol\":530:787  function requestData() external {... */\n    tag_24:\n        /* \"Day1PartyA_v2.sol\":594:600  partyA */\n      0x00\n      dup1\n      sload\n      swap1\n      0x0100\n      exp\n      swap1\n      div\n      0xffffffffffffffffffffffffffffffffffffffff\n      and\n        /* \"Day1PartyA_v2.sol\":580:600  msg.sender == partyA */\n      0xffffffffffffffffffffffffffffffffffffffff\n      and\n        /* \"Day1PartyA_v2.sol\":580:590  msg.sender */\n      caller\n        /* \"Day1PartyA_v2.sol\":580:600  msg.sender == partyA */\n      0xffffffffffffffffffffffffffffffffffffffff\n      and\n      eq\n        /* \"Day1PartyA_v2.sol\":572:615  require(msg.sender == partyA, \"Not PartyA\") */\n      tag_36\n      jumpi\n      mload(0x40)\n      0x08c379a000000000000000000000000000000000000000000000000000000000\n      dup2\n      mstore\n      0x04\n      add\n      tag_37\n      swap1\n      tag_31\n      jump\t// in\n    tag_37:\n      mload(0x40)\n      dup1\n      swap2\n      sub\n      swap1\n      revert\n    tag_36:\n        /* \"Day1PartyA_v2.sol\":633:642  committed */\n      0x02\n      0x00\n      swap1\n      sload\n      swap1\n      0x0100\n      exp\n      swap1\n      div\n      0xff\n      and\n        /* \"Day1PartyA_v2.sol\":625:659  require(committed, \"Commit first\") */\n      tag_38\n      jumpi\n      mload(0x40)\n      0x08c379a000000000000000000000000000000000000000000000000000000000\n      dup2\n      mstore\n      0x04\n      add\n      tag_39\n      swap1\n      tag_40\n      jump\t// in\n    tag_39:\n      mload(0x40)\n      dup1\n      swap2\n      sub\n      swap1\n      revert\n    tag_38:\n        /* \"Day1PartyA_v2.sol\":678:691  dataRequested */\n      0x02\n      0x01\n      swap1\n      sload\n      swap1\n      0x0100\n      exp\n      swap1\n      div\n      0xff\n      and\n        /* \"Day1PartyA_v2.sol\":677:691  !dataRequested */\n      iszero\n        /* \"Day1PartyA_v2.sol\":669:713  require(!dataRequested, \"Already requested\") */\n      tag_41\n      jumpi\n      mload(0x40)\n      0x08c379a000000000000000000000000000000000000000000000000000000000\n      dup2\n      mstore\n      0x04\n      add\n      tag_42\n      swap1\n      tag_43\n      jump\t// in\n    tag_42:\n      mload(0x40)\n      dup1\n      swap2\n      sub\n      swap1\n      revert\n    tag_41:\n        /* \"Day1PartyA_v2.sol\":740:744  true */\n      0x01\n        /* \"Day1PartyA_v2.sol\":724:737  dataRequested */\n      0x02\n      0x01\n        /* \"Day1PartyA_v2.sol\":724:744  dataRequested = true */\n      0x0100\n      exp\n      dup2\n      sload\n      dup2\n      0xff\n      mul\n      not\n      and\n      swap1\n      dup4\n      iszero\n      iszero\n      mul\n      or\n      swap1\n      sstore\n      pop\n        /* \"Day1PartyA_v2.sol\":773:779  partyA */\n      0x00\n      dup1\n      sload\n      swap1\n      0x0100\n      exp\n      swap1\n      div\n      0xffffffffffffffffffffffffffffffffffffffff\n      and\n        /* \"Day1PartyA_v2.sol\":759:780  DataRequested(partyA) */\n      0xffffffffffffffffffffffffffffffffffffffff\n      and\n      0x8d7c4e9d9310df2c3d969c8de3b2b04b96ef2d58bfc4ac9418bee119c8c7879f\n      mload(0x40)\n      mload(0x40)\n      dup1\n      swap2\n      sub\n      swap1\n      log2\n        /* \"Day1PartyA_v2.sol\":530:787  function requestData() external {... */\n      jump\t// out\n        /* \"Day1PartyA_v2.sol\":142:163  bool public committed */\n    tag_26:\n      0x02\n      0x00\n      swap1\n      sload\n      swap1\n      0x0100\n      exp\n      swap1\n      div\n      0xff\n      and\n      dup2\n      jump\t// out\n        /* \"#utility.yul\":7:133   */\n    tag_44:\n        /* \"#utility.yul\":44:51   */\n      0x00\n        /* \"#utility.yul\":84:126   */\n      0xffffffffffffffffffffffffffffffffffffffff\n        /* \"#utility.yul\":77:82   */\n      dup3\n        /* \"#utility.yul\":73:127   */\n      and\n        /* \"#utility.yul\":62:127   */\n      swap1\n      pop\n        /* \"#utility.yul\":7:133   */\n      swap2\n      swap1\n      pop\n      jump\t// out\n        /* \"#utility.yul\":139:235   */\n    tag_45:\n        /* \"#utility.yul\":176:183   */\n      0x00\n        /* \"#utility.yul\":205:229   */\n      tag_63\n        /* \"#utility.yul\":223:228   */\n      dup3\n        /* \"#utility.yul\":205:229   */\n      tag_44\n      jump\t// in\n    tag_63:\n        /* \"#utility.yul\":194:229   */\n      swap1\n      pop\n        /* \"#utility.yul\":139:235   */\n      swap2\n      swap1\n      pop\n      jump\t// out\n        /* \"#utility.yul\":241:359   */\n    tag_46:\n        /* \"#utility.yul\":328:352   */\n      tag_65\n        /* \"#utility.yul\":346:351   */\n      dup2\n        /* \"#utility.yul\":328:352   */\n      tag_45\n      jump\t// in\n    tag_65:\n        /* \"#utility.yul\":323:326   */\n      dup3\n        /* \"#utility.yul\":316:353   */\n      mstore\n        /* \"#utility.yul\":241:359   */\n      pop\n      pop\n      jump\t// out\n        /* \"#utility.yul\":365:587   */\n    tag_12:\n        /* \"#utility.yul\":458:462   */\n      0x00\n        /* \"#utility.yul\":496:498   */\n      0x20\n        /* \"#utility.yul\":485:494   */\n      dup3\n        /* \"#utility.yul\":481:499   */\n      add\n        /* \"#utility.yul\":473:499   */\n      swap1\n      pop\n        /* \"#utility.yul\":509:580   */\n      tag_67\n        /* \"#utility.yul\":577:578   */\n      0x00\n        /* \"#utility.yul\":566:575   */\n      dup4\n        /* \"#utility.yul\":562:579   */\n      add\n        /* \"#utility.yul\":553:559   */\n      dup5\n        /* \"#utility.yul\":509:580   */\n      tag_46\n      jump\t// in\n    tag_67:\n        /* \"#utility.yul\":365:587   */\n      swap3\n      swap2\n      pop\n      pop\n      jump\t// out\n        /* \"#utility.yul\":593:670   */\n    tag_47:\n        /* \"#utility.yul\":630:637   */\n      0x00\n        /* \"#utility.yul\":659:664   */\n      dup2\n        /* \"#utility.yul\":648:664   */\n      swap1\n      pop\n        /* \"#utility.yul\":593:670   */\n      swap2\n      swap1\n      pop\n      jump\t// out\n        /* \"#utility.yul\":676:794   */\n    tag_48:\n        /* \"#utility.yul\":763:787   */\n      tag_70\n        /* \"#utility.yul\":781:786   */\n      dup2\n        /* \"#utility.yul\":763:787   */\n      tag_47\n      jump\t// in\n    tag_70:\n        /* \"#utility.yul\":758:761   */\n      dup3\n        /* \"#utility.yul\":751:788   */\n      mstore\n        /* \"#utility.yul\":676:794   */\n      pop\n      pop\n      jump\t// out\n        /* \"#utility.yul\":800:1022   */\n    tag_16:\n        /* \"#utility.yul\":893:897   */\n      0x00\n        /* \"#utility.yul\":931:933   */\n      0x20\n        /* \"#utility.yul\":920:929   */\n      dup3\n        /* \"#utility.yul\":916:934   */\n      add\n        /* \"#utility.yul\":908:934   */\n      swap1\n      pop\n        /* \"#utility.yul\":944:1015   */\n      tag_72\n        /* \"#utility.yul\":1012:1013   */\n      0x00\n        /* \"#utility.yul\":1001:1010   */\n      dup4\n        /* \"#utility.yul\":997:1014   */\n      add\n        /* \"#utility.yul\":988:994   */\n      dup5\n        /* \"#utility.yul\":944:1015   */\n      tag_48\n      jump\t// in\n    tag_72:\n        /* \"#utility.yul\":800:1022   */\n      swap3\n      swap2\n      pop\n      pop\n      jump\t// out\n        /* \"#utility.yul\":1028:1118   */\n    tag_49:\n        /* \"#utility.yul\":1062:1069   */\n      0x00\n        /* \"#utility.yul\":1105:1110   */\n      dup2\n        /* \"#utility.yul\":1098:1111   */\n      iszero\n        /* \"#utility.yul\":1091:1112   */\n      iszero\n        /* \"#utility.yul\":1080:1112   */\n      swap1\n      pop\n        /* \"#utility.yul\":1028:1118   */\n      swap2\n      swap1\n      pop\n      jump\t// out\n        /* \"#utility.yul\":1124:1233   */\n    tag_50:\n        /* \"#utility.yul\":1205:1226   */\n      tag_75\n        /* \"#utility.yul\":1220:1225   */\n      dup2\n        /* \"#utility.yul\":1205:1226   */\n      tag_49\n      jump\t// in\n    tag_75:\n        /* \"#utility.yul\":1200:1203   */\n      dup3\n        /* \"#utility.yul\":1193:1227   */\n      mstore\n        /* \"#utility.yul\":1124:1233   */\n      pop\n      pop\n      jump\t// out\n        /* \"#utility.yul\":1239:1449   */\n    tag_22:\n        /* \"#utility.yul\":1326:1330   */\n      0x00\n        /* \"#utility.yul\":1364:1366   */\n      0x20\n        /* \"#utility.yul\":1353:1362   */\n      dup3\n        /* \"#utility.yul\":1349:1367   */\n      add\n        /* \"#utility.yul\":1341:1367   */\n      swap1\n      pop\n        /* \"#utility.yul\":1377:1442   */\n      tag_77\n        /* \"#utility.yul\":1439:1440   */\n      0x00\n        /* \"#utility.yul\":1428:1437   */\n      dup4\n        /* \"#utility.yul\":1424:1441   */\n      add\n        /* \"#utility.yul\":1415:1421   */\n      dup5\n        /* \"#utility.yul\":1377:1442   */\n      tag_50\n      jump\t// in\n    tag_77:\n        /* \"#utility.yul\":1239:1449   */\n      swap3\n      swap2\n      pop\n      pop\n      jump\t// out\n        /* \"#utility.yul\":1455:1624   */\n    tag_51:\n        /* \"#utility.yul\":1539:1550   */\n      0x00\n        /* \"#utility.yul\":1573:1579   */\n      dup3\n        /* \"#utility.yul\":1568:1571   */\n      dup3\n        /* \"#utility.yul\":1561:1580   */\n      mstore\n        /* \"#utility.yul\":1613:1617   */\n      0x20\n        /* \"#utility.yul\":1608:1611   */\n      dup3\n        /* \"#utility.yul\":1604:1618   */\n      add\n        /* \"#utility.yul\":1589:1618   */\n      swap1\n      pop\n        /* \"#utility.yul\":1455:1624   */\n      swap3\n      swap2\n      pop\n      pop\n      jump\t// out\n        /* \"#utility.yul\":1630:1790   */\n    tag_52:\n        /* \"#utility.yul\":1770:1782   */\n      0x4e6f742050617274794100000000000000000000000000000000000000000000\n        /* \"#utility.yul\":1766:1767   */\n      0x00\n        /* \"#utility.yul\":1758:1764   */\n      dup3\n        /* \"#utility.yul\":1754:1768   */\n      add\n        /* \"#utility.yul\":1747:1783   */\n      mstore\n        /* \"#utility.yul\":1630:1790   */\n      pop\n      jump\t// out\n        /* \"#utility.yul\":1796:2162   */\n    tag_53:\n        /* \"#utility.yul\":1938:1941   */\n      0x00\n        /* \"#utility.yul\":1959:2026   */\n      tag_81\n        /* \"#utility.yul\":2023:2025   */\n      0x0a\n        /* \"#utility.yul\":2018:2021   */\n      dup4\n        /* \"#utility.yul\":1959:2026   */\n      tag_51\n      jump\t// in\n    tag_81:\n        /* \"#utility.yul\":1952:2026   */\n      swap2\n      pop\n        /* \"#utility.yul\":2035:2128   */\n      tag_82\n        /* \"#utility.yul\":2124:2127   */\n      dup3\n        /* \"#utility.yul\":2035:2128   */\n      tag_52\n      jump\t// in\n    tag_82:\n        /* \"#utility.yul\":2153:2155   */\n      0x20\n        /* \"#utility.yul\":2148:2151   */\n      dup3\n        /* \"#utility.yul\":2144:2156   */\n      add\n        /* \"#utility.yul\":2137:2156   */\n      swap1\n      pop\n        /* \"#utility.yul\":1796:2162   */\n      swap2\n      swap1\n      pop\n      jump\t// out\n        /* \"#utility.yul\":2168:2587   */\n    tag_31:\n        /* \"#utility.yul\":2334:2338   */\n      0x00\n        /* \"#utility.yul\":2372:2374   */\n      0x20\n        /* \"#utility.yul\":2361:2370   */\n      dup3\n        /* \"#utility.yul\":2357:2375   */\n      add\n        /* \"#utility.yul\":2349:2375   */\n      swap1\n      pop\n        /* \"#utility.yul\":2421:2430   */\n      dup2\n        /* \"#utility.yul\":2415:2419   */\n      dup2\n        /* \"#utility.yul\":2411:2431   */\n      sub\n        /* \"#utility.yul\":2407:2408   */\n      0x00\n        /* \"#utility.yul\":2396:2405   */\n      dup4\n        /* \"#utility.yul\":2392:2409   */\n      add\n        /* \"#utility.yul\":2385:2432   */\n      mstore\n        /* \"#utility.yul\":2449:2580   */\n      tag_84\n        /* \"#utility.yul\":2575:2579   */\n      dup2\n        /* \"#utility.yul\":2449:2580   */\n      tag_53\n      jump\t// in\n    tag_84:\n        /* \"#utility.yul\":2441:2580   */\n      swap1\n      pop\n        /* \"#utility.yul\":2168:2587   */\n      swap2\n      swap1\n      pop\n      jump\t// out\n        /* \"#utility.yul\":2593:2760   */\n    tag_54:\n        /* \"#utility.yul\":2733:2752   */\n      0x416c726561647920636f6d6d6974746564000000000000000000000000000000\n        /* \"#utility.yul\":2729:2730   */\n      0x00\n        /* \"#utility.yul\":2721:2727   */\n      dup3\n        /* \"#utility.yul\":2717:2731   */\n      add\n        /* \"#utility.yul\":2710:2753   */\n      mstore\n        /* \"#utility.yul\":2593:2760   */\n      pop\n      jump\t// out\n        /* \"#utility.yul\":2766:3132   */\n    tag_55:\n        /* \"#utility.yul\":2908:2911   */\n      0x00\n        /* \"#utility.yul\":2929:2996   */\n      tag_87\n        /* \"#utility.yul\":2993:2995   */\n      0x11\n        /* \"#utility.yul\":2988:2991   */\n      dup4\n        /* \"#utility.yul\":2929:2996   */\n      tag_51\n      jump\t// in\n    tag_87:\n        /* \"#utility.yul\":2922:2996   */\n      swap2\n      pop\n        /* \"#utility.yul\":3005:3098   */\n      tag_88\n        /* \"#utility.yul\":3094:3097   */\n      dup3\n        /* \"#utility.yul\":3005:3098   */\n      tag_54\n      jump\t// in\n    tag_88:\n        /* \"#utility.yul\":3123:3125   */\n      0x20\n        /* \"#utility.yul\":3118:3121   */\n      dup3\n        /* \"#utility.yul\":3114:3126   */\n      add\n        /* \"#utility.yul\":3107:3126   */\n      swap1\n      pop\n        /* \"#utility.yul\":2766:3132   */\n      swap2\n      swap1\n      pop\n      jump\t// out\n        /* \"#utility.yul\":3138:3557   */\n    tag_34:\n        /* \"#utility.yul\":3304:3308   */\n      0x00\n        /* \"#utility.yul\":3342:3344   */\n      0x20\n        /* \"#utility.yul\":3331:3340   */\n      dup3\n        /* \"#utility.yul\":3327:3345   */\n      add\n        /* \"#utility.yul\":3319:3345   */\n      swap1\n      pop\n        /* \"#utility.yul\":3391:3400   */\n      dup2\n        /* \"#utility.yul\":3385:3389   */\n      dup2\n        /* \"#utility.yul\":3381:3401   */\n      sub\n        /* \"#utility.yul\":3377:3378   */\n      0x00\n        /* \"#utility.yul\":3366:3375   */\n      dup4\n        /* \"#utility.yul\":3362:3379   */\n      add\n        /* \"#utility.yul\":3355:3402   */\n      mstore\n        /* \"#utility.yul\":3419:3550   */\n      tag_90\n        /* \"#utility.yul\":3545:3549   */\n      dup2\n        /* \"#utility.yul\":3419:3550   */\n      tag_55\n      jump\t// in\n    tag_90:\n        /* \"#utility.yul\":3411:3550   */\n      swap1\n      pop\n        /* \"#utility.yul\":3138:3557   */\n      swap2\n      swap1\n      pop\n      jump\t// out\n        /* \"#utility.yul\":3563:3725   */\n    tag_56:\n        /* \"#utility.yul\":3703:3717   */\n      0x436f6d6d69742066697273740000000000000000000000000000000000000000\n        /* \"#utility.yul\":3699:3700   */\n      0x00\n        /* \"#utility.yul\":3691:3697   */\n      dup3\n        /* \"#utility.yul\":3687:3701   */\n      add\n        /* \"#utility.yul\":3680:3718   */\n      mstore\n        /* \"#utility.yul\":3563:3725   */\n      pop\n      jump\t// out\n        /* \"#utility.yul\":3731:4097   */\n    tag_57:\n        /* \"#utility.yul\":3873:3876   */\n      0x00\n        /* \"#utility.yul\":3894:3961   */\n      tag_93\n        /* \"#utility.yul\":3958:3960   */\n      0x0c\n        /* \"#utility.yul\":3953:3956   */\n      dup4\n        /* \"#utility.yul\":3894:3961   */\n      tag_51\n      jump\t// in\n    tag_93:\n        /* \"#utility.yul\":3887:3961   */\n      swap2\n      pop\n        /* \"#utility.yul\":3970:4063   */\n      tag_94\n        /* \"#utility.yul\":4059:4062   */\n      dup3\n        /* \"#utility.yul\":3970:4063   */\n      tag_56\n      jump\t// in\n    tag_94:\n        /* \"#utility.yul\":4088:4090   */\n      0x20\n        /* \"#utility.yul\":4083:4086   */\n      dup3\n        /* \"#utility.yul\":4079:4091   */\n      add\n        /* \"#utility.yul\":4072:4091   */\n      swap1\n      pop\n        /* \"#utility.yul\":3731:4097   */\n      swap2\n      swap1\n      pop\n      jump\t// out\n        /* \"#utility.yul\":4103:4522   */\n    tag_40:\n        /* \"#utility.yul\":4269:4273   */\n      0x00\n        /* \"#utility.yul\":4307:4309   */\n      0x20\n        /* \"#utility.yul\":4296:4305   */\n      dup3\n        /* \"#utility.yul\":4292:4310   */\n      add\n        /* \"#utility.yul\":4284:4310   */\n      swap1\n      pop\n        /* \"#utility.yul\":4356:4365   */\n      dup2\n        /* \"#utility.yul\":4350:4354   */\n      dup2\n        /* \"#utility.yul\":4346:4366   */\n      sub\n        /* \"#utility.yul\":4342:4343   */\n      0x00\n        /* \"#utility.yul\":4331:4340   */\n      dup4\n        /* \"#utility.yul\":4327:4344   */\n      add\n        /* \"#utility.yul\":4320:4367   */\n      mstore\n        /* \"#utility.yul\":4384:4515   */\n      tag_96\n        /* \"#utility.yul\":4510:4514   */\n      dup2\n        /* \"#utility.yul\":4384:4515   */\n      tag_57\n      jump\t// in\n    tag_96:\n        /* \"#utility.yul\":4376:4515   */\n      swap1\n      pop\n        /* \"#utility.yul\":4103:4522   */\n      swap2\n      swap1\n      pop\n      jump\t// out\n        /* \"#utility.yul\":4528:4695   */\n    tag_58:\n        /* \"#utility.yul\":4668:4687   */\n      0x416c726561647920726571756573746564000000000000000000000000000000\n        /* \"#utility.yul\":4664:4665   */\n      0x00\n        /* \"#utility.yul\":4656:4662   */\n      dup3\n        /* \"#utility.yul\":4652:4666   */\n      add\n        /* \"#utility.yul\":4645:4688   */\n      mstore\n        /* \"#utility.yul\":4528:4695   */\n      pop\n      jump\t// out\n        /* \"#utility.yul\":4701:5067   */\n    tag_59:\n        /* \"#utility.yul\":4843:4846   */\n      0x00\n        /* \"#utility.yul\":4864:4931   */\n      tag_99\n        /* \"#utility.yul\":4928:4930   */\n      0x11\n        /* \"#utility.yul\":4923:4926   */\n      dup4\n        /* \"#utility.yul\":4864:4931   */\n      tag_51\n      jump\t// in\n    tag_99:\n        /* \"#utility.yul\":4857:4931   */\n      swap2\n      pop\n        /* \"#utility.yul\":4940:5033   */\n      tag_100\n        /* \"#utility.yul\":5029:5032   */\n      dup3\n        /* \"#utility.yul\":4940:5033   */\n      tag_58\n      jump\t// in\n    tag_100:\n        /* \"#utility.yul\":5058:5060   */\n      0x20\n        /* \"#utility.yul\":5053:5056   */\n      dup3\n        /* \"#utility.yul\":5049:5061   */\n      add\n        /* \"#utility.yul\":5042:5061   */\n      swap1\n      pop\n        /* \"#utility.yul\":4701:5067   */\n      swap2\n      swap1\n      pop\n      jump\t// out\n        /* \"#utility.yul\":5073:5492   */\n    tag_43:\n        /* \"#utility.yul\":5239:5243   */\n      0x00\n        /* \"#utility.yul\":5277:5279   */\n      0x20\n        /* \"#utility.yul\":5266:5275   */\n      dup3\n        /* \"#utility.yul\":5262:5280   */\n      add\n        /* \"#utility.yul\":5254:5280   */\n      swap1\n      pop\n        /* \"#utility.yul\":5326:5335   */\n      dup2\n        /* \"#utility.yul\":5320:5324   */\n      dup2\n        /* \"#utility.yul\":5316:5336   */\n      sub\n        /* \"#utility.yul\":5312:5313   */\n      0x00\n        /* \"#utility.yul\":5301:5310   */\n      dup4\n        /* \"#utility.yul\":5297:5314   */\n      add\n        /* \"#utility.yul\":5290:5337   */\n      mstore\n        /* \"#utility.yul\":5354:5485   */\n      tag_102\n        /* \"#utility.yul\":5480:5484   */\n      dup2\n        /* \"#utility.yul\":5354:5485   */\n      tag_59\n      jump\t// in\n    tag_102:\n        /* \"#utility.yul\":5346:5485   */\n      swap1\n      pop\n        /* \"#utility.yul\":5073:5492   */\n      swap2\n      swap1\n      pop\n      jump\t// out\n\n    auxdata: 0xa2646970667358221220fd6c090808d2a6ae1a0f86b3f8eb05807aadcf1442a54d367f3982f2229f292764736f6c63430008110033\n}\n",
				"bytecode": {
					"linkReferences": {},
					"object": "608060405234801561001057600080fd5b5060405161079e38038061079e833981810160405281019061003291906100ba565b336000806101000a81548173ffffffffffffffffffffffffffffffffffffffff021916908373ffffffffffffffffffffffffffffffffffffffff16021790555080600181905550506100e7565b600080fd5b6000819050919050565b61009781610084565b81146100a257600080fd5b50565b6000815190506100b48161008e565b92915050565b6000602082840312156100d0576100cf61007f565b5b60006100de848285016100a5565b91505092915050565b6106a8806100f66000396000f3fe608060405234801561001057600080fd5b50600436106100625760003560e01c806310e1d8ca146100675780631303a484146100855780633c7a3aff146100a35780634222c7fb146100ad578063606deecd146100cb5780639b6b9664146100d5575b600080fd5b61006f6100f3565b60405161007c919061042c565b60405180910390f35b61008d610117565b60405161009a9190610460565b60405180910390f35b6100ab61011d565b005b6100b5610218565b6040516100c29190610496565b60405180910390f35b6100d361022b565b005b6100dd6103d8565b6040516100ea9190610496565b60405180910390f35b60008054906101000a900473ffffffffffffffffffffffffffffffffffffffff1681565b60015481565b60008054906101000a900473ffffffffffffffffffffffffffffffffffffffff1673ffffffffffffffffffffffffffffffffffffffff163373ffffffffffffffffffffffffffffffffffffffff16146101ab576040517f08c379a00000000000000000000000000000000000000000000000000000000081526004016101a29061050e565b60405180910390fd5b600260009054906101000a900460ff16156101fb576040517f08c379a00000000000000000000000000000000000000000000000000000000081526004016101f29061057a565b60405180910390fd5b6001600260006101000a81548160ff021916908315150217905550565b600260019054906101000a900460ff1681565b60008054906101000a900473ffffffffffffffffffffffffffffffffffffffff1673ffffffffffffffffffffffffffffffffffffffff163373ffffffffffffffffffffffffffffffffffffffff16146102b9576040517f08c379a00000000000000000000000000000000000000000000000000000000081526004016102b09061050e565b60405180910390fd5b600260009054906101000a900460ff16610308576040517f08c379a00000000000000000000000000000000000000000000000000000000081526004016102ff906105e6565b60405180910390fd5b600260019054906101000a900460ff1615610358576040517f08c379a000000000000000000000000000000000000000000000000000000000815260040161034f90610652565b60405180910390fd5b6001600260016101000a81548160ff02191690831515021790555060008054906101000a900473ffffffffffffffffffffffffffffffffffffffff1673ffffffffffffffffffffffffffffffffffffffff167f8d7c4e9d9310df2c3d969c8de3b2b04b96ef2d58bfc4ac9418bee119c8c7879f60405160405180910390a2565b600260009054906101000a900460ff1681565b600073ffffffffffffffffffffffffffffffffffffffff82169050919050565b6000610416826103eb565b9050919050565b6104268161040b565b82525050565b6000602082019050610441600083018461041d565b92915050565b6000819050919050565b61045a81610447565b82525050565b60006020820190506104756000830184610451565b92915050565b60008115159050919050565b6104908161047b565b82525050565b60006020820190506104ab6000830184610487565b92915050565b600082825260208201905092915050565b7f4e6f742050617274794100000000000000000000000000000000000000000000600082015250565b60006104f8600a836104b1565b9150610503826104c2565b602082019050919050565b60006020820190508181036000830152610527816104eb565b9050919050565b7f416c726561647920636f6d6d6974746564000000000000000000000000000000600082015250565b60006105646011836104b1565b915061056f8261052e565b602082019050919050565b6000602082019050818103600083015261059381610557565b9050919050565b7f436f6d6d69742066697273740000000000000000000000000000000000000000600082015250565b60006105d0600c836104b1565b91506105db8261059a565b602082019050919050565b600060208201905081810360008301526105ff816105c3565b9050919050565b7f416c726561647920726571756573746564000000000000000000000000000000600082015250565b600061063c6011836104b1565b915061064782610606565b602082019050919050565b6000602082019050818103600083015261066b8161062f565b905091905056fea2646970667358221220fd6c090808d2a6ae1a0f86b3f8eb05807aadcf1442a54d367f3982f2229f292764736f6c63430008110033",
					"opcodes": "PUSH1 0x80 PUSH1 0x40 MSTORE CALLVALUE DUP1 ISZERO PUSH2 0x10 JUMPI PUSH1 0x0 DUP1 REVERT JUMPDEST POP PUSH1 0x40 MLOAD PUSH2 0x79E CODESIZE SUB DUP1 PUSH2 0x79E DUP4 CODECOPY DUP2 DUP2 ADD PUSH1 0x40 MSTORE DUP2 ADD SWAP1 PUSH2 0x32 SWAP2 SWAP1 PUSH2 0xBA JUMP JUMPDEST CALLER PUSH1 0x0 DUP1 PUSH2 0x100 EXP DUP2 SLOAD DUP2 PUSH20 0xFFFFFFFFFFFFFFFFFFFFFFFFFFFFFFFFFFFFFFFF MUL NOT AND SWAP1 DUP4 PUSH20 0xFFFFFFFFFFFFFFFFFFFFFFFFFFFFFFFFFFFFFFFF AND MUL OR SWAP1 SSTORE POP DUP1 PUSH1 0x1 DUP2 SWAP1 SSTORE POP POP PUSH2 0xE7 JUMP JUMPDEST PUSH1 0x0 DUP1 REVERT JUMPDEST PUSH1 0x0 DUP2 SWAP1 POP SWAP2 SWAP1 POP JUMP JUMPDEST PUSH2 0x97 DUP2 PUSH2 0x84 JUMP JUMPDEST DUP2 EQ PUSH2 0xA2 JUMPI PUSH1 0x0 DUP1 REVERT JUMPDEST POP JUMP JUMPDEST PUSH1 0x0 DUP2 MLOAD SWAP1 POP PUSH2 0xB4 DUP2 PUSH2 0x8E JUMP JUMPDEST SWAP3 SWAP2 POP POP JUMP JUMPDEST PUSH1 0x0 PUSH1 0x20 DUP3 DUP5 SUB SLT ISZERO PUSH2 0xD0 JUMPI PUSH2 0xCF PUSH2 0x7F JUMP JUMPDEST JUMPDEST PUSH1 0x0 PUSH2 0xDE DUP5 DUP3 DUP6 ADD PUSH2 0xA5 JUMP JUMPDEST SWAP2 POP POP SWAP3 SWAP2 POP POP JUMP JUMPDEST PUSH2 0x6A8 DUP1 PUSH2 0xF6 PUSH1 0x0 CODECOPY PUSH1 0x0 RETURN INVALID PUSH1 0x80 PUSH1 0x40 MSTORE CALLVALUE DUP1 ISZERO PUSH2 0x10 JUMPI PUSH1 0x0 DUP1 REVERT JUMPDEST POP PUSH1 0x4 CALLDATASIZE LT PUSH2 0x62 JUMPI PUSH1 0x0 CALLDATALOAD PUSH1 0xE0 SHR DUP1 PUSH4 0x10E1D8CA EQ PUSH2 0x67 JUMPI DUP1 PUSH4 0x1303A484 EQ PUSH2 0x85 JUMPI DUP1 PUSH4 0x3C7A3AFF EQ PUSH2 0xA3 JUMPI DUP1 PUSH4 0x4222C7FB EQ PUSH2 0xAD JUMPI DUP1 PUSH4 0x606DEECD EQ PUSH2 0xCB JUMPI DUP1 PUSH4 0x9B6B9664 EQ PUSH2 0xD5 JUMPI JUMPDEST PUSH1 0x0 DUP1 REVERT JUMPDEST PUSH2 0x6F PUSH2 0xF3 JUMP JUMPDEST PUSH1 0x40 MLOAD PUSH2 0x7C SWAP2 SWAP1 PUSH2 0x42C JUMP JUMPDEST PUSH1 0x40 MLOAD DUP1 SWAP2 SUB SWAP1 RETURN JUMPDEST PUSH2 0x8D PUSH2 0x117 JUMP JUMPDEST PUSH1 0x40 MLOAD PUSH2 0x9A SWAP2 SWAP1 PUSH2 0x460 JUMP JUMPDEST PUSH1 0x40 MLOAD DUP1 SWAP2 SUB SWAP1 RETURN JUMPDEST PUSH2 0xAB PUSH2 0x11D JUMP JUMPDEST STOP JUMPDEST PUSH2 0xB5 PUSH2 0x218 JUMP JUMPDEST PUSH1 0x40 MLOAD PUSH2 0xC2 SWAP2 SWAP1 PUSH2 0x496 JUMP JUMPDEST PUSH1 0x40 MLOAD DUP1 SWAP2 SUB SWAP1 RETURN JUMPDEST PUSH2 0xD3 PUSH2 0x22B JUMP JUMPDEST STOP JUMPDEST PUSH2 0xDD PUSH2 0x3D8 JUMP JUMPDEST PUSH1 0x40 MLOAD PUSH2 0xEA SWAP2 SWAP1 PUSH2 0x496 JUMP JUMPDEST PUSH1 0x40 MLOAD DUP1 SWAP2 SUB SWAP1 RETURN JUMPDEST PUSH1 0x0 DUP1 SLOAD SWAP1 PUSH2 0x100 EXP SWAP1 DIV PUSH20 0xFFFFFFFFFFFFFFFFFFFFFFFFFFFFFFFFFFFFFFFF AND DUP2 JUMP JUMPDEST PUSH1 0x1 SLOAD DUP2 JUMP JUMPDEST PUSH1 0x0 DUP1 SLOAD SWAP1 PUSH2 0x100 EXP SWAP1 DIV PUSH20 0xFFFFFFFFFFFFFFFFFFFFFFFFFFFFFFFFFFFFFFFF AND PUSH20 0xFFFFFFFFFFFFFFFFFFFFFFFFFFFFFFFFFFFFFFFF AND CALLER PUSH20 0xFFFFFFFFFFFFFFFFFFFFFFFFFFFFFFFFFFFFFFFF AND EQ PUSH2 0x1AB JUMPI PUSH1 0x40 MLOAD PUSH32 0x8C379A000000000000000000000000000000000000000000000000000000000 DUP2 MSTORE PUSH1 0x4 ADD PUSH2 0x1A2 SWAP1 PUSH2 0x50E JUMP JUMPDEST PUSH1 0x40 MLOAD DUP1 SWAP2 SUB SWAP1 REVERT JUMPDEST PUSH1 0x2 PUSH1 0x0 SWAP1 SLOAD SWAP1 PUSH2 0x100 EXP SWAP1 DIV PUSH1 0xFF AND ISZERO PUSH2 0x1FB JUMPI PUSH1 0x40 MLOAD PUSH32 0x8C379A000000000000000000000000000000000000000000000000000000000 DUP2 MSTORE PUSH1 0x4 ADD PUSH2 0x1F2 SWAP1 PUSH2 0x57A JUMP JUMPDEST PUSH1 0x40 MLOAD DUP1 SWAP2 SUB SWAP1 REVERT JUMPDEST PUSH1 0x1 PUSH1 0x2 PUSH1 0x0 PUSH2 0x100 EXP DUP2 SLOAD DUP2 PUSH1 0xFF MUL NOT AND SWAP1 DUP4 ISZERO ISZERO MUL OR SWAP1 SSTORE POP JUMP JUMPDEST PUSH1 0x2 PUSH1 0x1 SWAP1 SLOAD SWAP1 PUSH2 0x100 EXP SWAP1 DIV PUSH1 0xFF AND DUP2 JUMP JUMPDEST PUSH1 0x0 DUP1 SLOAD SWAP1 PUSH2 0x100 EXP SWAP1 DIV PUSH20 0xFFFFFFFFFFFFFFFFFFFFFFFFFFFFFFFFFFFFFFFF AND PUSH20 0xFFFFFFFFFFFFFFFFFFFFFFFFFFFFFFFFFFFFFFFF AND CALLER PUSH20 0xFFFFFFFFFFFFFFFFFFFFFFFFFFFFFFFFFFFFFFFF AND EQ PUSH2 0x2B9 JUMPI PUSH1 0x40 MLOAD PUSH32 0x8C379A000000000000000000000000000000000000000000000000000000000 DUP2 MSTORE PUSH1 0x4 ADD PUSH2 0x2B0 SWAP1 PUSH2 0x50E JUMP JUMPDEST PUSH1 0x40 MLOAD DUP1 SWAP2 SUB SWAP1 REVERT JUMPDEST PUSH1 0x2 PUSH1 0x0 SWAP1 SLOAD SWAP1 PUSH2 0x100 EXP SWAP1 DIV PUSH1 0xFF AND PUSH2 0x308 JUMPI PUSH1 0x40 MLOAD PUSH32 0x8C379A000000000000000000000000000000000000000000000000000000000 DUP2 MSTORE PUSH1 0x4 ADD PUSH2 0x2FF SWAP1 PUSH2 0x5E6 JUMP JUMPDEST PUSH1 0x40 MLOAD DUP1 SWAP2 SUB SWAP1 REVERT JUMPDEST PUSH1 0x2 PUSH1 0x1 SWAP1 SLOAD SWAP1 PUSH2 0x100 EXP SWAP1 DIV PUSH1 0xFF AND ISZERO PUSH2 0x358 JUMPI PUSH1 0x40 MLOAD PUSH32 0x8C379A000000000000000000000000000000000000000000000000000000000 DUP2 MSTORE PUSH1 0x4 ADD PUSH2 0x34F SWAP1 PUSH2 0x652 JUMP JUMPDEST PUSH1 0x40 MLOAD DUP1 SWAP2 SUB SWAP1 REVERT JUMPDEST PUSH1 0x1 PUSH1 0x2 PUSH1 0x1 PUSH2 0x100 EXP DUP2 SLOAD DUP2 PUSH1 0xFF MUL NOT AND SWAP1 DUP4 ISZERO ISZERO MUL OR SWAP1 SSTORE POP PUSH1 0x0 DUP1 SLOAD SWAP1 PUSH2 0x100 EXP SWAP1 DIV PUSH20 0xFFFFFFFFFFFFFFFFFFFFFFFFFFFFFFFFFFFFFFFF AND PUSH20 0xFFFFFFFFFFFFFFFFFFFFFFFFFFFFFFFFFFFFFFFF AND PUSH32 0x8D7C4E9D9310DF2C3D969C8DE3B2B04B96EF2D58BFC4AC9418BEE119C8C7879F PUSH1 0x40 MLOAD PUSH1 0x40 MLOAD DUP1 SWAP2 SUB SWAP1 LOG2 JUMP JUMPDEST PUSH1 0x2 PUSH1 0x0 SWAP1 SLOAD SWAP1 PUSH2 0x100 EXP SWAP1 DIV PUSH1 0xFF AND DUP2 JUMP JUMPDEST PUSH1 0x0 PUSH20 0xFFFFFFFFFFFFFFFFFFFFFFFFFFFFFFFFFFFFFFFF DUP3 AND SWAP1 POP SWAP2 SWAP1 POP JUMP JUMPDEST PUSH1 0x0 PUSH2 0x416 DUP3 PUSH2 0x3EB JUMP JUMPDEST SWAP1 POP SWAP2 SWAP1 POP JUMP JUMPDEST PUSH2 0x426 DUP2 PUSH2 0x40B JUMP JUMPDEST DUP3 MSTORE POP POP JUMP JUMPDEST PUSH1 0x0 PUSH1 0x20 DUP3 ADD SWAP1 POP PUSH2 0x441 PUSH1 0x0 DUP4 ADD DUP5 PUSH2 0x41D JUMP JUMPDEST SWAP3 SWAP2 POP POP JUMP JUMPDEST PUSH1 0x0 DUP2 SWAP1 POP SWAP2 SWAP1 POP JUMP JUMPDEST PUSH2 0x45A DUP2 PUSH2 0x447 JUMP JUMPDEST DUP3 MSTORE POP POP JUMP JUMPDEST PUSH1 0x0 PUSH1 0x20 DUP3 ADD SWAP1 POP PUSH2 0x475 PUSH1 0x0 DUP4 ADD DUP5 PUSH2 0x451 JUMP JUMPDEST SWAP3 SWAP2 POP POP JUMP JUMPDEST PUSH1 0x0 DUP2 ISZERO ISZERO SWAP1 POP SWAP2 SWAP1 POP JUMP JUMPDEST PUSH2 0x490 DUP2 PUSH2 0x47B JUMP JUMPDEST DUP3 MSTORE POP POP JUMP JUMPDEST PUSH1 0x0 PUSH1 0x20 DUP3 ADD SWAP1 POP PUSH2 0x4AB PUSH1 0x0 DUP4 ADD DUP5 PUSH2 0x487 JUMP JUMPDEST SWAP3 SWAP2 POP POP JUMP JUMPDEST PUSH1 0x0 DUP3 DUP3 MSTORE PUSH1 0x20 DUP3 ADD SWAP1 POP SWAP3 SWAP2 POP POP JUMP JUMPDEST PUSH32 0x4E6F742050617274794100000000000000000000000000000000000000000000 PUSH1 0x0 DUP3 ADD MSTORE POP JUMP JUMPDEST PUSH1 0x0 PUSH2 0x4F8 PUSH1 0xA DUP4 PUSH2 0x4B1 JUMP JUMPDEST SWAP2 POP PUSH2 0x503 DUP3 PUSH2 0x4C2 JUMP JUMPDEST PUSH1 0x20 DUP3 ADD SWAP1 POP SWAP2 SWAP1 POP JUMP JUMPDEST PUSH1 0x0 PUSH1 0x20 DUP3 ADD SWAP1 POP DUP2 DUP2 SUB PUSH1 0x0 DUP4 ADD MSTORE PUSH2 0x527 DUP2 PUSH2 0x4EB JUMP JUMPDEST SWAP1 POP SWAP2 SWAP1 POP JUMP JUMPDEST PUSH32 0x416C726561647920636F6D6D6974746564000000000000000000000000000000 PUSH1 0x0 DUP3 ADD MSTORE POP JUMP JUMPDEST PUSH1 0x0 PUSH2 0x564 PUSH1 0x11 DUP4 PUSH2 0x4B1 JUMP JUMPDEST SWAP2 POP PUSH2 0x56F DUP3 PUSH2 0x52E JUMP JUMPDEST PUSH1 0x20 DUP3 ADD SWAP1 POP SWAP2 SWAP1 POP JUMP JUMPDEST PUSH1 0x0 PUSH1 0x20 DUP3 ADD SWAP1 POP DUP2 DUP2 SUB PUSH1 0x0 DUP4 ADD MSTORE PUSH2 0x593 DUP2 PUSH2 0x557 JUMP JUMPDEST SWAP1 POP SWAP2 SWAP1 POP JUMP JUMPDEST PUSH32 0x436F6D6D69742066697273740000000000000000000000000000000000000000 PUSH1 0x0 DUP3 ADD MSTORE POP JUMP JUMPDEST PUSH1 0x0 PUSH2 0x5D0 PUSH1 0xC DUP4 PUSH2 0x4B1 JUMP JUMPDEST SWAP2 POP PUSH2 0x5DB DUP3 PUSH2 0x59A JUMP JUMPDEST PUSH1 0x20 DUP3 ADD SWAP1 POP SWAP2 SWAP1 POP JUMP JUMPDEST PUSH1 0x0 PUSH1 0x20 DUP3 ADD SWAP1 POP DUP2 DUP2 SUB PUSH1 0x0 DUP4 ADD MSTORE PUSH2 0x5FF DUP2 PUSH2 0x5C3 JUMP JUMPDEST SWAP1 POP SWAP2 SWAP1 POP JUMP JUMPDEST PUSH32 0x416C726561647920726571756573746564000000000000000000000000000000 PUSH1 0x0 DUP3 ADD MSTORE POP JUMP JUMPDEST PUSH1 0x0 PUSH2 0x63C PUSH1 0x11 DUP4 PUSH2 0x4B1 JUMP JUMPDEST SWAP2 POP PUSH2 0x647 DUP3 PUSH2 0x606 JUMP JUMPDEST PUSH1 0x20 DUP3 ADD SWAP1 POP SWAP2 SWAP1 POP JUMP JUMPDEST PUSH1 0x0 PUSH1 0x20 DUP3 ADD SWAP1 POP DUP2 DUP2 SUB PUSH1 0x0 DUP4 ADD MSTORE PUSH2 0x66B DUP2 PUSH2 0x62F JUMP JUMPDEST SWAP1 POP SWAP2 SWAP1 POP JUMP INVALID LOG2 PUSH5 0x6970667358 0x22 SLT KECCAK256 REVERT PUSH13 0x90808D2A6AE1A0F86B3F8EB05 DUP1 PUSH27 0xADCF1442A54D367F3982F2229F292764736F6C6343000811003300 "
				},
				"gasEstimates": {
					"creation": {
						"codeDepositCost": "340800",
						"executionCost": "infinite",
						"totalCost": "infinite"
					},
					"external": {
						"commit()": "28756",
						"commitment()": "2429",
						"committed()": "2559",
						"dataRequested()": "2565",
						"partyA()": "2489",
						"requestData()": "34347"
					}
				},
				"methodIdentifiers": {
					"commit()": "3c7a3aff",
					"commitment()": "1303a484",
					"committed()": "9b6b9664",
					"dataRequested()": "4222c7fb",
					"partyA()": "10e1d8ca",
					"requestData()": "606deecd"
				}
			},
			"storageLayout": {
				"storage": [
					{
						"astId": 3,
						"contract": "Day1PartyA_v2.sol:Day1PartyA",
						"label": "partyA",
						"offset": 0,
						"slot": "0",
						"type": "t_address"
					},
					{
						"astId": 5,
						"contract": "Day1PartyA_v2.sol:Day1PartyA",
						"label": "commitment",
						"offset": 0,
						"slot": "1",
						"type": "t_bytes32"
					},
					{
						"astId": 7,
						"contract": "Day1PartyA_v2.sol:Day1PartyA",
						"label": "committed",
						"offset": 0,
						"slot": "2",
						"type": "t_bool"
					},
					{
						"astId": 9,
						"contract": "Day1PartyA_v2.sol:Day1PartyA",
						"label": "dataRequested",
						"offset": 1,
						"slot": "2",
						"type": "t_bool"
					}
				],
				"types": {
					"t_address": {
						"encoding": "inplace",
						"label": "address",
						"numberOfBytes": "20"
					},
					"t_bool": {
						"encoding": "inplace",
						"label": "bool",
						"numberOfBytes": "1"
					},
					"t_bytes32": {
						"encoding": "inplace",
						"label": "bytes32",
						"numberOfBytes": "32"
					}
				}
			},
			"userdoc": {
				"kind": "user",
				"methods": {},
				"version": 1
			}
		}
	}
}