{
	"PartyA_multiOracle.sol": {
		"PartyA_multiOracle": {
			"abi": [
				{
					"inputs": [
						{
							"internalType": "bytes32",
							"name": "_commitment",
							"type": "bytes32"
						},
						{
							"internalType": "address",
							"name": "_oracle1",
							"type": "address"
						},
						{
							"internalType": "address",
							"name": "_oracle2",
							"type": "address"
						}
					],
					"stateMutability": "nonpayable",
					"type": "constructor"
				},
				{
					"anonymous": false,
					"inputs": [
						{
							"indexed": true,
							"internalType": "address",
							"name": "partyA",
							"type": "address"
						}
					],
					"name": "Committed",
					"type": "event"
				},
				{
					"anonymous": false,
					"inputs": [
						{
							"indexed": true,
							"internalType": "uint256",
							"name": "roundId",
							"type": "uint256"
						},
						{
							"indexed": false,
							"internalType": "uint256",
							"name": "avgValue",
							"type": "uint256"
						}
					],
					"name": "DataAggregated",
					"type": "event"
				},
				{
					"anonymous": false,
					"inputs": [
						{
							"indexed": true,
							"internalType": "address",
							"name": "partyA",
							"type": "address"
						},
						{
							"indexed": true,
							"internalType": "uint256",
							"name": "roundId",
							"type": "uint256"
						}
					],
					"name": "DataRequested",
					"type": "event"
				},
				{
					"anonymous": false,
					"inputs": [
						{
							"indexed": true,
							"internalType": "address",
							"name": "oracle",
							"type": "address"
						},
						{
							"indexed": true,
							"internalType": "uint256",
							"name": "roundId",
							"type": "uint256"
						},
						{
							"indexed": false,
							"internalType": "uint256",
							"name": "value",
							"type": "uint256"
						}
					],
					"name": "OracleSubmitted",
					"type": "event"
				},
				{
					"anonymous": false,
					"inputs": [
						{
							"indexed": true,
							"internalType": "address",
							"name": "oracle1",
							"type": "address"
						},
						{
							"indexed": true,
							"internalType": "address",
							"name": "oracle2",
							"type": "address"
						}
					],
					"name": "OraclesUpdated",
					"type": "event"
				},
				{
					"anonymous": false,
					"inputs": [
						{
							"indexed": true,
							"internalType": "uint256",
							"name": "roundId",
							"type": "uint256"
						},
						{
							"indexed": false,
							"internalType": "string",
							"name": "reason",
							"type": "string"
						}
					],
					"name": "RequestCancelled",
					"type": "event"
				},
				{
					"anonymous": false,
					"inputs": [
						{
							"indexed": false,
							"internalType": "uint256",
							"name": "timeoutSeconds",
							"type": "uint256"
						}
					],
					"name": "TimeoutUpdated",
					"type": "event"
				},
				{
					"inputs": [],
					"name": "cancelIfTimeout",
					"outputs": [],
					"stateMutability": "nonpayable",
					"type": "function"
				},
				{
					"inputs": [],
					"name": "commit",
					"outputs": [],
					"stateMutability": "nonpayable",
					"type": "function"
				},
				{
					"inputs": [],
					"name": "commitment",
					"outputs": [
						{
							"internalType": "bytes32",
							"name": "",
							"type": "bytes32"
						}
					],
					"stateMutability": "view",
					"type": "function"
				},
				{
					"inputs": [],
					"name": "committed",
					"outputs": [
						{
							"internalType": "bool",
							"name": "",
							"type": "bool"
						}
					],
					"stateMutability": "view",
					"type": "function"
				},
				{
					"inputs": [],
					"name": "currentRoundStatus",
					"outputs": [
						{
							"internalType": "uint256",
							"name": "currentRound",
							"type": "uint256"
						},
						{
							"internalType": "bool",
							"name": "active",
							"type": "bool"
						},
						{
							"internalType": "uint256",
							"name": "ts",
							"type": "uint256"
						},
						{
							"internalType": "uint8",
							"name": "count",
							"type": "uint8"
						},
						{
							"internalType": "bool",
							"name": "oracle1Submitted",
							"type": "bool"
						},
						{
							"internalType": "bool",
							"name": "oracle2Submitted",
							"type": "bool"
						},
						{
							"internalType": "bool",
							"name": "finalized",
							"type": "bool"
						}
					],
					"stateMutability": "view",
					"type": "function"
				},
				{
					"inputs": [],
					"name": "dataRequested",
					"outputs": [
						{
							"internalType": "bool",
							"name": "",
							"type": "bool"
						}
					],
					"stateMutability": "view",
					"type": "function"
				},
				{
					"inputs": [
						{
							"internalType": "uint256",
							"name": "value",
							"type": "uint256"
						}
					],
					"name": "fulfillData",
					"outputs": [],
					"stateMutability": "nonpayable",
					"type": "function"
				},
				{
					"inputs": [],
					"name": "latestAggregated",
					"outputs": [
						{
							"internalType": "uint256",
							"name": "",
							"type": "uint256"
						}
					],
					"stateMutability": "view",
					"type": "function"
				},
				{
					"inputs": [],
					"name": "latestAggregatedRound",
					"outputs": [
						{
							"internalType": "uint256",
							"name": "",
							"type": "uint256"
						}
					],
					"stateMutability": "view",
					"type": "function"
				},
				{
					"inputs": [],
					"name": "latestDataBytes32",
					"outputs": [
						{
							"internalType": "bytes32",
							"name": "",
							"type": "bytes32"
						}
					],
					"stateMutability": "view",
					"type": "function"
				},
				{
					"inputs": [],
					"name": "oracle1",
					"outputs": [
						{
							"internalType": "address",
							"name": "",
							"type": "address"
						}
					],
					"stateMutability": "view",
					"type": "function"
				},
				{
					"inputs": [],
					"name": "oracle2",
					"outputs": [
						{
							"internalType": "address",
							"name": "",
							"type": "address"
						}
					],
					"stateMutability": "view",
					"type": "function"
				},
				{
					"inputs": [],
					"name": "partyA",
					"outputs": [
						{
							"internalType": "address",
							"name": "",
							"type": "address"
						}
					],
					"stateMutability": "view",
					"type": "function"
				},
				{
					"inputs": [],
					"name": "requestData",
					"outputs": [],
					"stateMutability": "nonpayable",
					"type": "function"
				},
				{
					"inputs": [],
					"name": "requestTimestamp",
					"outputs": [
						{
							"internalType": "uint256",
							"name": "",
							"type": "uint256"
						}
					],
					"stateMutability": "view",
					"type": "function"
				},
				{
					"inputs": [],
					"name": "roundId",
					"outputs": [
						{
							"internalType": "uint256",
							"name": "",
							"type": "uint256"
						}
					],
					"stateMutability": "view",
					"type": "function"
				},
				{
					"inputs": [
						{
							"internalType": "address",
							"name": "_oracle1",
							"type": "address"
						},
						{
							"internalType": "address",
							"name": "_oracle2",
							"type": "address"
						}
					],
					"name": "setOracles",
					"outputs": [],
					"stateMutability": "nonpayable",
					"type": "function"
				},
				{
					"inputs": [
						{
							"internalType": "uint256",
							"name": "_timeoutSeconds",
							"type": "uint256"
						}
					],
					"name": "setTimeoutSeconds",
					"outputs": [],
					"stateMutability": "nonpayable",
					"type": "function"
				},
				{
					"inputs": [
						{
							"internalType": "uint256",
							"name": "",
							"type": "uint256"
						}
					],
					"name": "submissions",
					"outputs": [
						{
							"internalType": "uint256",
							"name": "v1",
							"type": "uint256"
						},
						{
							"internalType": "uint256",
							"name": "v2",
							"type": "uint256"
						},
						{
							"internalType": "bool",
							"name": "s1",
							"type": "bool"
						},
						{
							"internalType": "bool",
							"name": "s2",
							"type": "bool"
						},
						{
							"internalType": "bool",
							"name": "finalized",
							"type": "bool"
						},
						{
							"internalType": "uint8",
							"name": "count",
							"type": "uint8"
						}
					],
					"stateMutability": "view",
					"type": "function"
				},
				{
					"inputs": [],
					"name": "timeoutSeconds",
					"outputs": [
						{
							"internalType": "uint256",
							"name": "",
							"type": "uint256"
						}
					],
					"stateMutability": "view",
					"type": "function"
				}
			],
			"devdoc": {
				"details": "Chinese comments are used; require() messages stay English to avoid Solidity Unicode string issues.",
				"kind": "dev",
				"methods": {
					"cancelIfTimeout()": {
						"details": "这里采取“取消并终止本轮”，不对部分数据进行聚合"
					},
					"constructor": {
						"params": {
							"_commitment": "你原本的承诺值（可选门控）",
							"_oracle1": "第一个 oracle 地址",
							"_oracle2": "第二个 oracle 地址"
						}
					},
					"fulfillData(uint256)": {
						"details": "两个 oracle 都提交后，合约自动聚合（平均值）"
					}
				},
				"title": "Day1 PartyA Two-Oracle Aggregator (production-friendly PoC)",
				"version": 1
			},
			"evm": {
				"assembly": "    /* \"PartyA_multiOracle.sol\":352:7772  contract PartyA_multiOracle {... */\n  mstore(0x40, 0xa0)\n    /* \"PartyA_multiOracle.sol\":1278:1288  30 minutes */\n  0x0708\n    /* \"PartyA_multiOracle.sol\":1246:1288  uint256 public timeoutSeconds = 30 minutes */\n  0x07\n  sstore\n    /* \"PartyA_multiOracle.sol\":3206:3599  constructor(bytes32 _commitment, address _oracle1, address _oracle2) {... */\n  callvalue\n  dup1\n  iszero\n  tag_1\n  jumpi\n  0x00\n  dup1\n  revert\ntag_1:\n  pop\n  mload(0x40)\n  sub(codesize, bytecodeSize)\n  dup1\n  bytecodeSize\n  dup4\n  codecopy\n  dup2\n  dup2\n  add\n  0x40\n  mstore\n  dup2\n  add\n  swap1\n  tag_2\n  swap2\n  swap1\n  tag_3\n  jump\t// in\ntag_2:\n    /* \"PartyA_multiOracle.sol\":3313:3314  0 */\n  0x00\n    /* \"PartyA_multiOracle.sol\":3293:3315  _oracle1 != address(0) */\n  0xffffffffffffffffffffffffffffffffffffffff\n  and\n    /* \"PartyA_multiOracle.sol\":3293:3301  _oracle1 */\n  dup3\n    /* \"PartyA_multiOracle.sol\":3293:3315  _oracle1 != address(0) */\n  0xffffffffffffffffffffffffffffffffffffffff\n  and\n  eq\n  iszero\n    /* \"PartyA_multiOracle.sol\":3293:3341  _oracle1 != address(0) && _oracle2 != address(0) */\n  dup1\n  iszero\n  tag_6\n  jumpi\n  pop\n    /* \"PartyA_multiOracle.sol\":3339:3340  0 */\n  0x00\n    /* \"PartyA_multiOracle.sol\":3319:3341  _oracle2 != address(0) */\n  0xffffffffffffffffffffffffffffffffffffffff\n  and\n    /* \"PartyA_multiOracle.sol\":3319:3327  _oracle2 */\n  dup2\n    /* \"PartyA_multiOracle.sol\":3319:3341  _oracle2 != address(0) */\n  0xffffffffffffffffffffffffffffffffffffffff\n  and\n  eq\n  iszero\n    /* \"PartyA_multiOracle.sol\":3293:3341  _oracle1 != address(0) && _oracle2 != address(0) */\ntag_6:\n    /* \"PartyA_multiOracle.sol\":3285:3360  require(_oracle1 != address(0) && _oracle2 != address(0), \"Oracle is zero\") */\n  tag_7\n  jumpi\n  mload(0x40)\n  0x08c379a000000000000000000000000000000000000000000000000000000000\n  dup2\n  mstore\n  0x04\n  add\n  tag_8\n  swap1\n  tag_9\n  jump\t// in\ntag_8:\n  mload(0x40)\n  dup1\n  swap2\n  sub\n  swap1\n  revert\ntag_7:\n    /* \"PartyA_multiOracle.sol\":3390:3398  _oracle2 */\n  dup1\n    /* \"PartyA_multiOracle.sol\":3378:3398  _oracle1 != _oracle2 */\n  0xffffffffffffffffffffffffffffffffffffffff\n  and\n    /* \"PartyA_multiOracle.sol\":3378:3386  _oracle1 */\n  dup3\n    /* \"PartyA_multiOracle.sol\":3378:3398  _oracle1 != _oracle2 */\n  0xffffffffffffffffffffffffffffffffffffffff\n  and\n  sub\n    /* \"PartyA_multiOracle.sol\":3370:3422  require(_oracle1 != _oracle2, \"Oracles must differ\") */\n  tag_10\n  jumpi\n  mload(0x40)\n  0x08c379a000000000000000000000000000000000000000000000000000000000\n  dup2\n  mstore\n  0x04\n  add\n  tag_11\n  swap1\n  tag_12\n  jump\t// in\ntag_11:\n  mload(0x40)\n  dup1\n  swap2\n  sub\n  swap1\n  revert\ntag_10:\n    /* \"PartyA_multiOracle.sol\":3442:3452  msg.sender */\n  caller\n    /* \"PartyA_multiOracle.sol\":3433:3452  partyA = msg.sender */\n  0xffffffffffffffffffffffffffffffffffffffff\n  and\n  0x80\n  dup2\n  0xffffffffffffffffffffffffffffffffffffffff\n  and\n  dup2\n  mstore\n  pop\n  pop\n    /* \"PartyA_multiOracle.sol\":3475:3486  _commitment */\n  dup3\n    /* \"PartyA_multiOracle.sol\":3462:3472  commitment */\n  0x02\n    /* \"PartyA_multiOracle.sol\":3462:3486  commitment = _commitment */\n  dup2\n  swap1\n  sstore\n  pop\n    /* \"PartyA_multiOracle.sol\":3506:3514  _oracle1 */\n  dup2\n    /* \"PartyA_multiOracle.sol\":3496:3503  oracle1 */\n  0x00\n  dup1\n    /* \"PartyA_multiOracle.sol\":3496:3514  oracle1 = _oracle1 */\n  0x0100\n  exp\n  dup2\n  sload\n  dup2\n  0xffffffffffffffffffffffffffffffffffffffff\n  mul\n  not\n  and\n  swap1\n  dup4\n  0xffffffffffffffffffffffffffffffffffffffff\n  and\n  mul\n  or\n  swap1\n  sstore\n  pop\n    /* \"PartyA_multiOracle.sol\":3534:3542  _oracle2 */\n  dup1\n    /* \"PartyA_multiOracle.sol\":3524:3531  oracle2 */\n  0x01\n  0x00\n    /* \"PartyA_multiOracle.sol\":3524:3542  oracle2 = _oracle2 */\n  0x0100\n  exp\n  dup2\n  sload\n  dup2\n  0xffffffffffffffffffffffffffffffffffffffff\n  mul\n  not\n  and\n  swap1\n  dup4\n  0xffffffffffffffffffffffffffffffffffffffff\n  and\n  mul\n  or\n  swap1\n  sstore\n  pop\n    /* \"PartyA_multiOracle.sol\":3583:3591  _oracle2 */\n  dup1\n    /* \"PartyA_multiOracle.sol\":3558:3592  OraclesUpdated(_oracle1, _oracle2) */\n  0xffffffffffffffffffffffffffffffffffffffff\n  and\n    /* \"PartyA_multiOracle.sol\":3573:3581  _oracle1 */\n  dup3\n    /* \"PartyA_multiOracle.sol\":3558:3592  OraclesUpdated(_oracle1, _oracle2) */\n  0xffffffffffffffffffffffffffffffffffffffff\n  and\n  0x77b9c343ee7f106dc3307e5d6d46358cac531140c9b7f1862f8c5c7fed426953\n  mload(0x40)\n  mload(0x40)\n  dup1\n  swap2\n  sub\n  swap1\n  log3\n    /* \"PartyA_multiOracle.sol\":3206:3599  constructor(bytes32 _commitment, address _oracle1, address _oracle2) {... */\n  pop\n  pop\n  pop\n    /* \"PartyA_multiOracle.sol\":352:7772  contract PartyA_multiOracle {... */\n  jump(tag_13)\n    /* \"#utility.yul\":88:205   */\ntag_15:\n    /* \"#utility.yul\":197:198   */\n  0x00\n    /* \"#utility.yul\":194:195   */\n  dup1\n    /* \"#utility.yul\":187:199   */\n  revert\n    /* \"#utility.yul\":334:411   */\ntag_17:\n    /* \"#utility.yul\":371:378   */\n  0x00\n    /* \"#utility.yul\":400:405   */\n  dup2\n    /* \"#utility.yul\":389:405   */\n  swap1\n  pop\n    /* \"#utility.yul\":334:411   */\n  swap2\n  swap1\n  pop\n  jump\t// out\n    /* \"#utility.yul\":417:539   */\ntag_18:\n    /* \"#utility.yul\":490:514   */\n  tag_35\n    /* \"#utility.yul\":508:513   */\n  dup2\n    /* \"#utility.yul\":490:514   */\n  tag_17\n  jump\t// in\ntag_35:\n    /* \"#utility.yul\":483:488   */\n  dup2\n    /* \"#utility.yul\":480:515   */\n  eq\n    /* \"#utility.yul\":470:533   */\n  tag_36\n  jumpi\n    /* \"#utility.yul\":529:530   */\n  0x00\n    /* \"#utility.yul\":526:527   */\n  dup1\n    /* \"#utility.yul\":519:531   */\n  revert\n    /* \"#utility.yul\":470:533   */\ntag_36:\n    /* \"#utility.yul\":417:539   */\n  pop\n  jump\t// out\n    /* \"#utility.yul\":545:688   */\ntag_19:\n    /* \"#utility.yul\":602:607   */\n  0x00\n    /* \"#utility.yul\":633:639   */\n  dup2\n    /* \"#utility.yul\":627:640   */\n  mload\n    /* \"#utility.yul\":618:640   */\n  swap1\n  pop\n    /* \"#utility.yul\":649:682   */\n  tag_38\n    /* \"#utility.yul\":676:681   */\n  dup2\n    /* \"#utility.yul\":649:682   */\n  tag_18\n  jump\t// in\ntag_38:\n    /* \"#utility.yul\":545:688   */\n  swap3\n  swap2\n  pop\n  pop\n  jump\t// out\n    /* \"#utility.yul\":694:820   */\ntag_20:\n    /* \"#utility.yul\":731:738   */\n  0x00\n    /* \"#utility.yul\":771:813   */\n  0xffffffffffffffffffffffffffffffffffffffff\n    /* \"#utility.yul\":764:769   */\n  dup3\n    /* \"#utility.yul\":760:814   */\n  and\n    /* \"#utility.yul\":749:814   */\n  swap1\n  pop\n    /* \"#utility.yul\":694:820   */\n  swap2\n  swap1\n  pop\n  jump\t// out\n    /* \"#utility.yul\":826:922   */\ntag_21:\n    /* \"#utility.yul\":863:870   */\n  0x00\n    /* \"#utility.yul\":892:916   */\n  tag_41\n    /* \"#utility.yul\":910:915   */\n  dup3\n    /* \"#utility.yul\":892:916   */\n  tag_20\n  jump\t// in\ntag_41:\n    /* \"#utility.yul\":881:916   */\n  swap1\n  pop\n    /* \"#utility.yul\":826:922   */\n  swap2\n  swap1\n  pop\n  jump\t// out\n    /* \"#utility.yul\":928:1050   */\ntag_22:\n    /* \"#utility.yul\":1001:1025   */\n  tag_43\n    /* \"#utility.yul\":1019:1024   */\n  dup2\n    /* \"#utility.yul\":1001:1025   */\n  tag_21\n  jump\t// in\ntag_43:\n    /* \"#utility.yul\":994:999   */\n  dup2\n    /* \"#utility.yul\":991:1026   */\n  eq\n    /* \"#utility.yul\":981:1044   */\n  tag_44\n  jumpi\n    /* \"#utility.yul\":1040:1041   */\n  0x00\n    /* \"#utility.yul\":1037:1038   */\n  dup1\n    /* \"#utility.yul\":1030:1042   */\n  revert\n    /* \"#utility.yul\":981:1044   */\ntag_44:\n    /* \"#utility.yul\":928:1050   */\n  pop\n  jump\t// out\n    /* \"#utility.yul\":1056:1199   */\ntag_23:\n    /* \"#utility.yul\":1113:1118   */\n  0x00\n    /* \"#utility.yul\":1144:1150   */\n  dup2\n    /* \"#utility.yul\":1138:1151   */\n  mload\n    /* \"#utility.yul\":1129:1151   */\n  swap1\n  pop\n    /* \"#utility.yul\":1160:1193   */\n  tag_46\n    /* \"#utility.yul\":1187:1192   */\n  dup2\n    /* \"#utility.yul\":1160:1193   */\n  tag_22\n  jump\t// in\ntag_46:\n    /* \"#utility.yul\":1056:1199   */\n  swap3\n  swap2\n  pop\n  pop\n  jump\t// out\n    /* \"#utility.yul\":1205:1868   */\ntag_3:\n    /* \"#utility.yul\":1293:1299   */\n  0x00\n    /* \"#utility.yul\":1301:1307   */\n  dup1\n    /* \"#utility.yul\":1309:1315   */\n  0x00\n    /* \"#utility.yul\":1358:1360   */\n  0x60\n    /* \"#utility.yul\":1346:1355   */\n  dup5\n    /* \"#utility.yul\":1337:1344   */\n  dup7\n    /* \"#utility.yul\":1333:1356   */\n  sub\n    /* \"#utility.yul\":1329:1361   */\n  slt\n    /* \"#utility.yul\":1326:1445   */\n  iszero\n  tag_48\n  jumpi\n    /* \"#utility.yul\":1364:1443   */\n  tag_49\n  tag_15\n  jump\t// in\ntag_49:\n    /* \"#utility.yul\":1326:1445   */\ntag_48:\n    /* \"#utility.yul\":1484:1485   */\n  0x00\n    /* \"#utility.yul\":1509:1573   */\n  tag_50\n    /* \"#utility.yul\":1565:1572   */\n  dup7\n    /* \"#utility.yul\":1556:1562   */\n  dup3\n    /* \"#utility.yul\":1545:1554   */\n  dup8\n    /* \"#utility.yul\":1541:1563   */\n  add\n    /* \"#utility.yul\":1509:1573   */\n  tag_19\n  jump\t// in\ntag_50:\n    /* \"#utility.yul\":1499:1573   */\n  swap4\n  pop\n    /* \"#utility.yul\":1455:1583   */\n  pop\n    /* \"#utility.yul\":1622:1624   */\n  0x20\n    /* \"#utility.yul\":1648:1712   */\n  tag_51\n    /* \"#utility.yul\":1704:1711   */\n  dup7\n    /* \"#utility.yul\":1695:1701   */\n  dup3\n    /* \"#utility.yul\":1684:1693   */\n  dup8\n    /* \"#utility.yul\":1680:1702   */\n  add\n    /* \"#utility.yul\":1648:1712   */\n  tag_23\n  jump\t// in\ntag_51:\n    /* \"#utility.yul\":1638:1712   */\n  swap3\n  pop\n    /* \"#utility.yul\":1593:1722   */\n  pop\n    /* \"#utility.yul\":1761:1763   */\n  0x40\n    /* \"#utility.yul\":1787:1851   */\n  tag_52\n    /* \"#utility.yul\":1843:1850   */\n  dup7\n    /* \"#utility.yul\":1834:1840   */\n  dup3\n    /* \"#utility.yul\":1823:1832   */\n  dup8\n    /* \"#utility.yul\":1819:1841   */\n  add\n    /* \"#utility.yul\":1787:1851   */\n  tag_23\n  jump\t// in\ntag_52:\n    /* \"#utility.yul\":1777:1851   */\n  swap2\n  pop\n    /* \"#utility.yul\":1732:1861   */\n  pop\n    /* \"#utility.yul\":1205:1868   */\n  swap3\n  pop\n  swap3\n  pop\n  swap3\n  jump\t// out\n    /* \"#utility.yul\":1874:2043   */\ntag_24:\n    /* \"#utility.yul\":1958:1969   */\n  0x00\n    /* \"#utility.yul\":1992:1998   */\n  dup3\n    /* \"#utility.yul\":1987:1990   */\n  dup3\n    /* \"#utility.yul\":1980:1999   */\n  mstore\n    /* \"#utility.yul\":2032:2036   */\n  0x20\n    /* \"#utility.yul\":2027:2030   */\n  dup3\n    /* \"#utility.yul\":2023:2037   */\n  add\n    /* \"#utility.yul\":2008:2037   */\n  swap1\n  pop\n    /* \"#utility.yul\":1874:2043   */\n  swap3\n  swap2\n  pop\n  pop\n  jump\t// out\n    /* \"#utility.yul\":2049:2213   */\ntag_25:\n    /* \"#utility.yul\":2189:2205   */\n  0x4f7261636c65206973207a65726f000000000000000000000000000000000000\n    /* \"#utility.yul\":2185:2186   */\n  0x00\n    /* \"#utility.yul\":2177:2183   */\n  dup3\n    /* \"#utility.yul\":2173:2187   */\n  add\n    /* \"#utility.yul\":2166:2206   */\n  mstore\n    /* \"#utility.yul\":2049:2213   */\n  pop\n  jump\t// out\n    /* \"#utility.yul\":2219:2585   */\ntag_26:\n    /* \"#utility.yul\":2361:2364   */\n  0x00\n    /* \"#utility.yul\":2382:2449   */\n  tag_56\n    /* \"#utility.yul\":2446:2448   */\n  0x0e\n    /* \"#utility.yul\":2441:2444   */\n  dup4\n    /* \"#utility.yul\":2382:2449   */\n  tag_24\n  jump\t// in\ntag_56:\n    /* \"#utility.yul\":2375:2449   */\n  swap2\n  pop\n    /* \"#utility.yul\":2458:2551   */\n  tag_57\n    /* \"#utility.yul\":2547:2550   */\n  dup3\n    /* \"#utility.yul\":2458:2551   */\n  tag_25\n  jump\t// in\ntag_57:\n    /* \"#utility.yul\":2576:2578   */\n  0x20\n    /* \"#utility.yul\":2571:2574   */\n  dup3\n    /* \"#utility.yul\":2567:2579   */\n  add\n    /* \"#utility.yul\":2560:2579   */\n  swap1\n  pop\n    /* \"#utility.yul\":2219:2585   */\n  swap2\n  swap1\n  pop\n  jump\t// out\n    /* \"#utility.yul\":2591:3010   */\ntag_9:\n    /* \"#utility.yul\":2757:2761   */\n  0x00\n    /* \"#utility.yul\":2795:2797   */\n  0x20\n    /* \"#utility.yul\":2784:2793   */\n  dup3\n    /* \"#utility.yul\":2780:2798   */\n  add\n    /* \"#utility.yul\":2772:2798   */\n  swap1\n  pop\n    /* \"#utility.yul\":2844:2853   */\n  dup2\n    /* \"#utility.yul\":2838:2842   */\n  dup2\n    /* \"#utility.yul\":2834:2854   */\n  sub\n    /* \"#utility.yul\":2830:2831   */\n  0x00\n    /* \"#utility.yul\":2819:2828   */\n  dup4\n    /* \"#utility.yul\":2815:2832   */\n  add\n    /* \"#utility.yul\":2808:2855   */\n  mstore\n    /* \"#utility.yul\":2872:3003   */\n  tag_59\n    /* \"#utility.yul\":2998:3002   */\n  dup2\n    /* \"#utility.yul\":2872:3003   */\n  tag_26\n  jump\t// in\ntag_59:\n    /* \"#utility.yul\":2864:3003   */\n  swap1\n  pop\n    /* \"#utility.yul\":2591:3010   */\n  swap2\n  swap1\n  pop\n  jump\t// out\n    /* \"#utility.yul\":3016:3185   */\ntag_27:\n    /* \"#utility.yul\":3156:3177   */\n  0x4f7261636c6573206d7573742064696666657200000000000000000000000000\n    /* \"#utility.yul\":3152:3153   */\n  0x00\n    /* \"#utility.yul\":3144:3150   */\n  dup3\n    /* \"#utility.yul\":3140:3154   */\n  add\n    /* \"#utility.yul\":3133:3178   */\n  mstore\n    /* \"#utility.yul\":3016:3185   */\n  pop\n  jump\t// out\n    /* \"#utility.yul\":3191:3557   */\ntag_28:\n    /* \"#utility.yul\":3333:3336   */\n  0x00\n    /* \"#utility.yul\":3354:3421   */\n  tag_62\n    /* \"#utility.yul\":3418:3420   */\n  0x13\n    /* \"#utility.yul\":3413:3416   */\n  dup4\n    /* \"#utility.yul\":3354:3421   */\n  tag_24\n  jump\t// in\ntag_62:\n    /* \"#utility.yul\":3347:3421   */\n  swap2\n  pop\n    /* \"#utility.yul\":3430:3523   */\n  tag_63\n    /* \"#utility.yul\":3519:3522   */\n  dup3\n    /* \"#utility.yul\":3430:3523   */\n  tag_27\n  jump\t// in\ntag_63:\n    /* \"#utility.yul\":3548:3550   */\n  0x20\n    /* \"#utility.yul\":3543:3546   */\n  dup3\n    /* \"#utility.yul\":3539:3551   */\n  add\n    /* \"#utility.yul\":3532:3551   */\n  swap1\n  pop\n    /* \"#utility.yul\":3191:3557   */\n  swap2\n  swap1\n  pop\n  jump\t// out\n    /* \"#utility.yul\":3563:3982   */\ntag_12:\n    /* \"#utility.yul\":3729:3733   */\n  0x00\n    /* \"#utility.yul\":3767:3769   */\n  0x20\n    /* \"#utility.yul\":3756:3765   */\n  dup3\n    /* \"#utility.yul\":3752:3770   */\n  add\n    /* \"#utility.yul\":3744:3770   */\n  swap1\n  pop\n    /* \"#utility.yul\":3816:3825   */\n  dup2\n    /* \"#utility.yul\":3810:3814   */\n  dup2\n    /* \"#utility.yul\":3806:3826   */\n  sub\n    /* \"#utility.yul\":3802:3803   */\n  0x00\n    /* \"#utility.yul\":3791:3800   */\n  dup4\n    /* \"#utility.yul\":3787:3804   */\n  add\n    /* \"#utility.yul\":3780:3827   */\n  mstore\n    /* \"#utility.yul\":3844:3975   */\n  tag_65\n    /* \"#utility.yul\":3970:3974   */\n  dup2\n    /* \"#utility.yul\":3844:3975   */\n  tag_28\n  jump\t// in\ntag_65:\n    /* \"#utility.yul\":3836:3975   */\n  swap1\n  pop\n    /* \"#utility.yul\":3563:3982   */\n  swap2\n  swap1\n  pop\n  jump\t// out\n    /* \"PartyA_multiOracle.sol\":352:7772  contract PartyA_multiOracle {... */\ntag_13:\n  mload(0x80)\n  codecopy(0x00, dataOffset(sub_0), dataSize(sub_0))\n  0x00\n  assignImmutable(\"0xceebf77a833b30520287ddd9478ff51abbdffa30aa90a8d655dba0e8a79ce0c1\")\n  return(0x00, dataSize(sub_0))\nstop\n\nsub_0: assembly {\n        /* \"PartyA_multiOracle.sol\":352:7772  contract PartyA_multiOracle {... */\n      mstore(0x40, 0x80)\n      callvalue\n      dup1\n      iszero\n      tag_1\n      jumpi\n      0x00\n      dup1\n      revert\n    tag_1:\n      pop\n      jumpi(tag_2, lt(calldatasize, 0x04))\n      shr(0xe0, calldataload(0x00))\n      dup1\n      0x572a9302\n      gt\n      tag_23\n      jumpi\n      dup1\n      0x8cd221c9\n      gt\n      tag_24\n      jumpi\n      dup1\n      0x8cd221c9\n      eq\n      tag_18\n      jumpi\n      dup1\n      0x996f7d3a\n      eq\n      tag_19\n      jumpi\n      dup1\n      0x9b6b9664\n      eq\n      tag_20\n      jumpi\n      dup1\n      0xad73349e\n      eq\n      tag_21\n      jumpi\n      dup1\n      0xc195cd6d\n      eq\n      tag_22\n      jumpi\n      jump(tag_2)\n    tag_24:\n      dup1\n      0x572a9302\n      eq\n      tag_13\n      jumpi\n      dup1\n      0x606deecd\n      eq\n      tag_14\n      jumpi\n      dup1\n      0x6798699b\n      eq\n      tag_15\n      jumpi\n      dup1\n      0x747a0c3a\n      eq\n      tag_16\n      jumpi\n      dup1\n      0x80475516\n      eq\n      tag_17\n      jumpi\n      jump(tag_2)\n    tag_23:\n      dup1\n      0x3c7a3aff\n      gt\n      tag_25\n      jumpi\n      dup1\n      0x3c7a3aff\n      eq\n      tag_8\n      jumpi\n      dup1\n      0x3e66a647\n      eq\n      tag_9\n      jumpi\n      dup1\n      0x4222c7fb\n      eq\n      tag_10\n      jumpi\n      dup1\n      0x485d2f6c\n      eq\n      tag_11\n      jumpi\n      dup1\n      0x4a151fa8\n      eq\n      tag_12\n      jumpi\n      jump(tag_2)\n    tag_25:\n      dup1\n      0x10e1d8ca\n      eq\n      tag_3\n      jumpi\n      dup1\n      0x1303a484\n      eq\n      tag_4\n      jumpi\n      dup1\n      0x1d26190a\n      eq\n      tag_5\n      jumpi\n      dup1\n      0x36f945cd\n      eq\n      tag_6\n      jumpi\n      dup1\n      0x3968ecec\n      eq\n      tag_7\n      jumpi\n    tag_2:\n      0x00\n      dup1\n      revert\n        /* \"PartyA_multiOracle.sol\":499:530  address public immutable partyA */\n    tag_3:\n      tag_26\n      tag_27\n      jump\t// in\n    tag_26:\n      mload(0x40)\n      tag_28\n      swap2\n      swap1\n      tag_29\n      jump\t// in\n    tag_28:\n      mload(0x40)\n      dup1\n      swap2\n      sub\n      swap1\n      return\n        /* \"PartyA_multiOracle.sol\":724:749  bytes32 public commitment */\n    tag_4:\n      tag_30\n      tag_31\n      jump\t// in\n    tag_30:\n      mload(0x40)\n      tag_32\n      swap2\n      swap1\n      tag_33\n      jump\t// in\n    tag_32:\n      mload(0x40)\n      dup1\n      swap2\n      sub\n      swap1\n      return\n        /* \"PartyA_multiOracle.sol\":1646:1682  uint256 public latestAggregatedRound */\n    tag_5:\n      tag_34\n      tag_35\n      jump\t// in\n    tag_34:\n      mload(0x40)\n      tag_36\n      swap2\n      swap1\n      tag_37\n      jump\t// in\n    tag_36:\n      mload(0x40)\n      dup1\n      swap2\n      sub\n      swap1\n      return\n        /* \"PartyA_multiOracle.sol\":4373:4633  function setTimeoutSeconds(uint256 _timeoutSeconds) external onlyPartyA {... */\n    tag_6:\n      tag_38\n      0x04\n      dup1\n      calldatasize\n      sub\n      dup2\n      add\n      swap1\n      tag_39\n      swap2\n      swap1\n      tag_40\n      jump\t// in\n    tag_39:\n      tag_41\n      jump\t// in\n    tag_38:\n      stop\n        /* \"PartyA_multiOracle.sol\":7221:7770  function currentRoundStatus()... */\n    tag_7:\n      tag_42\n      tag_43\n      jump\t// in\n    tag_42:\n      mload(0x40)\n      tag_44\n      swap8\n      swap7\n      swap6\n      swap5\n      swap4\n      swap3\n      swap2\n      swap1\n      tag_45\n      jump\t// in\n    tag_44:\n      mload(0x40)\n      dup1\n      swap2\n      sub\n      swap1\n      return\n        /* \"PartyA_multiOracle.sol\":3736:3893  function commit() external onlyPartyA {... */\n    tag_8:\n      tag_46\n      tag_47\n      jump\t// in\n    tag_46:\n      stop\n        /* \"PartyA_multiOracle.sol\":1148:1179  uint256 public requestTimestamp */\n    tag_9:\n      tag_48\n      tag_49\n      jump\t// in\n    tag_48:\n      mload(0x40)\n      tag_50\n      swap2\n      swap1\n      tag_37\n      jump\t// in\n    tag_50:\n      mload(0x40)\n      dup1\n      swap2\n      sub\n      swap1\n      return\n        /* \"PartyA_multiOracle.sol\":1027:1052  bool public dataRequested */\n    tag_10:\n      tag_51\n      tag_52\n      jump\t// in\n    tag_51:\n      mload(0x40)\n      tag_53\n      swap2\n      swap1\n      tag_54\n      jump\t// in\n    tag_53:\n      mload(0x40)\n      dup1\n      swap2\n      sub\n      swap1\n      return\n        /* \"PartyA_multiOracle.sol\":1557:1589  bytes32 public latestDataBytes32 */\n    tag_11:\n      tag_55\n      tag_56\n      jump\t// in\n    tag_55:\n      mload(0x40)\n      tag_57\n      swap2\n      swap1\n      tag_33\n      jump\t// in\n    tag_57:\n      mload(0x40)\n      dup1\n      swap2\n      sub\n      swap1\n      return\n        /* \"PartyA_multiOracle.sol\":1415:1446  uint256 public latestAggregated */\n    tag_12:\n      tag_58\n      tag_59\n      jump\t// in\n    tag_58:\n      mload(0x40)\n      tag_60\n      swap2\n      swap1\n      tag_37\n      jump\t// in\n    tag_60:\n      mload(0x40)\n      dup1\n      swap2\n      sub\n      swap1\n      return\n        /* \"PartyA_multiOracle.sol\":3980:4317  function setOracles(address _oracle1, address _oracle2) external onlyPartyA {... */\n    tag_13:\n      tag_61\n      0x04\n      dup1\n      calldatasize\n      sub\n      dup2\n      add\n      swap1\n      tag_62\n      swap2\n      swap1\n      tag_63\n      jump\t// in\n    tag_62:\n      tag_64\n      jump\t// in\n    tag_61:\n      stop\n        /* \"PartyA_multiOracle.sol\":4763:5066  function requestData() external onlyPartyA {... */\n    tag_14:\n      tag_65\n      tag_66\n      jump\t// in\n    tag_65:\n      stop\n        /* \"PartyA_multiOracle.sol\":6171:6544  function cancelIfTimeout() external {... */\n    tag_15:\n      tag_67\n      tag_68\n      jump\t// in\n    tag_67:\n      stop\n        /* \"PartyA_multiOracle.sol\":582:604  address public oracle1 */\n    tag_16:\n      tag_69\n      tag_70\n      jump\t// in\n    tag_69:\n      mload(0x40)\n      tag_71\n      swap2\n      swap1\n      tag_29\n      jump\t// in\n    tag_71:\n      mload(0x40)\n      dup1\n      swap2\n      sub\n      swap1\n      return\n        /* \"PartyA_multiOracle.sol\":1246:1288  uint256 public timeoutSeconds = 30 minutes */\n    tag_17:\n      tag_72\n      tag_73\n      jump\t// in\n    tag_72:\n      mload(0x40)\n      tag_74\n      swap2\n      swap1\n      tag_37\n      jump\t// in\n    tag_74:\n      mload(0x40)\n      dup1\n      swap2\n      sub\n      swap1\n      return\n        /* \"PartyA_multiOracle.sol\":903:925  uint256 public roundId */\n    tag_18:\n      tag_75\n      tag_76\n      jump\t// in\n    tag_75:\n      mload(0x40)\n      tag_77\n      swap2\n      swap1\n      tag_37\n      jump\t// in\n    tag_77:\n      mload(0x40)\n      dup1\n      swap2\n      sub\n      swap1\n      return\n        /* \"PartyA_multiOracle.sol\":610:632  address public oracle2 */\n    tag_19:\n      tag_78\n      tag_79\n      jump\t// in\n    tag_78:\n      mload(0x40)\n      tag_80\n      swap2\n      swap1\n      tag_29\n      jump\t// in\n    tag_80:\n      mload(0x40)\n      dup1\n      swap2\n      sub\n      swap1\n      return\n        /* \"PartyA_multiOracle.sol\":755:776  bool public committed */\n    tag_20:\n      tag_81\n      tag_82\n      jump\t// in\n    tag_81:\n      mload(0x40)\n      tag_83\n      swap2\n      swap1\n      tag_54\n      jump\t// in\n    tag_83:\n      mload(0x40)\n      dup1\n      swap2\n      sub\n      swap1\n      return\n        /* \"PartyA_multiOracle.sol\":2142:2196  mapping(uint256 => RoundSubmission) public submissions */\n    tag_21:\n      tag_84\n      0x04\n      dup1\n      calldatasize\n      sub\n      dup2\n      add\n      swap1\n      tag_85\n      swap2\n      swap1\n      tag_40\n      jump\t// in\n    tag_85:\n      tag_86\n      jump\t// in\n    tag_84:\n      mload(0x40)\n      tag_87\n      swap7\n      swap6\n      swap5\n      swap4\n      swap3\n      swap2\n      swap1\n      tag_88\n      jump\t// in\n    tag_87:\n      mload(0x40)\n      dup1\n      swap2\n      sub\n      swap1\n      return\n        /* \"PartyA_multiOracle.sol\":5228:5982  function fulfillData(uint256 value) external onlyOracle {... */\n    tag_22:\n      tag_89\n      0x04\n      dup1\n      calldatasize\n      sub\n      dup2\n      add\n      swap1\n      tag_90\n      swap2\n      swap1\n      tag_40\n      jump\t// in\n    tag_90:\n      tag_91\n      jump\t// in\n    tag_89:\n      stop\n        /* \"PartyA_multiOracle.sol\":499:530  address public immutable partyA */\n    tag_27:\n      immutable(\"0xceebf77a833b30520287ddd9478ff51abbdffa30aa90a8d655dba0e8a79ce0c1\")\n      dup2\n      jump\t// out\n        /* \"PartyA_multiOracle.sol\":724:749  bytes32 public commitment */\n    tag_31:\n      sload(0x02)\n      dup2\n      jump\t// out\n        /* \"PartyA_multiOracle.sol\":1646:1682  uint256 public latestAggregatedRound */\n    tag_35:\n      sload(0x0a)\n      dup2\n      jump\t// out\n        /* \"PartyA_multiOracle.sol\":4373:4633  function setTimeoutSeconds(uint256 _timeoutSeconds) external onlyPartyA {... */\n    tag_41:\n        /* \"PartyA_multiOracle.sol\":2815:2821  partyA */\n      immutable(\"0xceebf77a833b30520287ddd9478ff51abbdffa30aa90a8d655dba0e8a79ce0c1\")\n        /* \"PartyA_multiOracle.sol\":2801:2821  msg.sender == partyA */\n      0xffffffffffffffffffffffffffffffffffffffff\n      and\n        /* \"PartyA_multiOracle.sol\":2801:2811  msg.sender */\n      caller\n        /* \"PartyA_multiOracle.sol\":2801:2821  msg.sender == partyA */\n      0xffffffffffffffffffffffffffffffffffffffff\n      and\n      eq\n        /* \"PartyA_multiOracle.sol\":2793:2836  require(msg.sender == partyA, \"Not PartyA\") */\n      tag_93\n      jumpi\n      mload(0x40)\n      0x08c379a000000000000000000000000000000000000000000000000000000000\n      dup2\n      mstore\n      0x04\n      add\n      tag_94\n      swap1\n      tag_95\n      jump\t// in\n    tag_94:\n      mload(0x40)\n      dup1\n      swap2\n      sub\n      swap1\n      revert\n    tag_93:\n        /* \"PartyA_multiOracle.sol\":4482:4484  60 */\n      0x3c\n        /* \"PartyA_multiOracle.sol\":4463:4478  _timeoutSeconds */\n      dup2\n        /* \"PartyA_multiOracle.sol\":4463:4484  _timeoutSeconds >= 60 */\n      lt\n      iszero\n        /* \"PartyA_multiOracle.sol\":4463:4513  _timeoutSeconds >= 60 && _timeoutSeconds <= 7 days */\n      dup1\n      iszero\n      tag_97\n      jumpi\n      pop\n        /* \"PartyA_multiOracle.sol\":4507:4513  7 days */\n      0x093a80\n        /* \"PartyA_multiOracle.sol\":4488:4503  _timeoutSeconds */\n      dup2\n        /* \"PartyA_multiOracle.sol\":4488:4513  _timeoutSeconds <= 7 days */\n      gt\n      iszero\n        /* \"PartyA_multiOracle.sol\":4463:4513  _timeoutSeconds >= 60 && _timeoutSeconds <= 7 days */\n    tag_97:\n        /* \"PartyA_multiOracle.sol\":4455:4538  require(_timeoutSeconds >= 60 && _timeoutSeconds <= 7 days, \"Timeout out of range\") */\n      tag_98\n      jumpi\n      mload(0x40)\n      0x08c379a000000000000000000000000000000000000000000000000000000000\n      dup2\n      mstore\n      0x04\n      add\n      tag_99\n      swap1\n      tag_100\n      jump\t// in\n    tag_99:\n      mload(0x40)\n      dup1\n      swap2\n      sub\n      swap1\n      revert\n    tag_98:\n        /* \"PartyA_multiOracle.sol\":4565:4580  _timeoutSeconds */\n      dup1\n        /* \"PartyA_multiOracle.sol\":4548:4562  timeoutSeconds */\n      0x07\n        /* \"PartyA_multiOracle.sol\":4548:4580  timeoutSeconds = _timeoutSeconds */\n      dup2\n      swap1\n      sstore\n      pop\n        /* \"PartyA_multiOracle.sol\":4595:4626  TimeoutUpdated(_timeoutSeconds) */\n      0x1a1cd30e223035d872019b55a16a88e0fad18aac07397d463628bf771cc10b94\n        /* \"PartyA_multiOracle.sol\":4610:4625  _timeoutSeconds */\n      dup2\n        /* \"PartyA_multiOracle.sol\":4595:4626  TimeoutUpdated(_timeoutSeconds) */\n      mload(0x40)\n      tag_101\n      swap2\n      swap1\n      tag_37\n      jump\t// in\n    tag_101:\n      mload(0x40)\n      dup1\n      swap2\n      sub\n      swap1\n      log1\n        /* \"PartyA_multiOracle.sol\":4373:4633  function setTimeoutSeconds(uint256 _timeoutSeconds) external onlyPartyA {... */\n      pop\n      jump\t// out\n        /* \"PartyA_multiOracle.sol\":7221:7770  function currentRoundStatus()... */\n    tag_43:\n        /* \"PartyA_multiOracle.sol\":7311:7331  uint256 currentRound */\n      0x00\n        /* \"PartyA_multiOracle.sol\":7345:7356  bool active */\n      dup1\n        /* \"PartyA_multiOracle.sol\":7370:7380  uint256 ts */\n      0x00\n        /* \"PartyA_multiOracle.sol\":7394:7405  uint8 count */\n      dup1\n        /* \"PartyA_multiOracle.sol\":7419:7440  bool oracle1Submitted */\n      0x00\n        /* \"PartyA_multiOracle.sol\":7454:7475  bool oracle2Submitted */\n      dup1\n        /* \"PartyA_multiOracle.sol\":7489:7503  bool finalized */\n      0x00\n        /* \"PartyA_multiOracle.sol\":7528:7553  RoundSubmission storage r */\n      dup1\n        /* \"PartyA_multiOracle.sol\":7556:7567  submissions */\n      0x0b\n        /* \"PartyA_multiOracle.sol\":7556:7576  submissions[roundId] */\n      0x00\n        /* \"PartyA_multiOracle.sol\":7568:7575  roundId */\n      sload(0x04)\n        /* \"PartyA_multiOracle.sol\":7556:7576  submissions[roundId] */\n      dup2\n      mstore\n      0x20\n      add\n      swap1\n      dup2\n      mstore\n      0x20\n      add\n      0x00\n      keccak256\n        /* \"PartyA_multiOracle.sol\":7528:7576  RoundSubmission storage r = submissions[roundId] */\n      swap1\n      pop\n        /* \"PartyA_multiOracle.sol\":7607:7614  roundId */\n      sload(0x04)\n        /* \"PartyA_multiOracle.sol\":7628:7641  dataRequested */\n      0x05\n      0x00\n      swap1\n      sload\n      swap1\n      0x0100\n      exp\n      swap1\n      div\n      0xff\n      and\n        /* \"PartyA_multiOracle.sol\":7655:7671  requestTimestamp */\n      sload(0x06)\n        /* \"PartyA_multiOracle.sol\":7685:7686  r */\n      dup4\n        /* \"PartyA_multiOracle.sol\":7685:7692  r.count */\n      0x02\n      add\n      0x03\n      swap1\n      sload\n      swap1\n      0x0100\n      exp\n      swap1\n      div\n      0xff\n      and\n        /* \"PartyA_multiOracle.sol\":7706:7707  r */\n      dup5\n        /* \"PartyA_multiOracle.sol\":7706:7710  r.s1 */\n      0x02\n      add\n      0x00\n      swap1\n      sload\n      swap1\n      0x0100\n      exp\n      swap1\n      div\n      0xff\n      and\n        /* \"PartyA_multiOracle.sol\":7724:7725  r */\n      dup6\n        /* \"PartyA_multiOracle.sol\":7724:7728  r.s2 */\n      0x02\n      add\n      0x01\n      swap1\n      sload\n      swap1\n      0x0100\n      exp\n      swap1\n      div\n      0xff\n      and\n        /* \"PartyA_multiOracle.sol\":7742:7743  r */\n      dup7\n        /* \"PartyA_multiOracle.sol\":7742:7753  r.finalized */\n      0x02\n      add\n      0x02\n      swap1\n      sload\n      swap1\n      0x0100\n      exp\n      swap1\n      div\n      0xff\n      and\n        /* \"PartyA_multiOracle.sol\":7586:7763  return (... */\n      swap8\n      pop\n      swap8\n      pop\n      swap8\n      pop\n      swap8\n      pop\n      swap8\n      pop\n      swap8\n      pop\n      swap8\n      pop\n      pop\n        /* \"PartyA_multiOracle.sol\":7221:7770  function currentRoundStatus()... */\n      swap1\n      swap2\n      swap3\n      swap4\n      swap5\n      swap6\n      swap7\n      jump\t// out\n        /* \"PartyA_multiOracle.sol\":3736:3893  function commit() external onlyPartyA {... */\n    tag_47:\n        /* \"PartyA_multiOracle.sol\":2815:2821  partyA */\n      immutable(\"0xceebf77a833b30520287ddd9478ff51abbdffa30aa90a8d655dba0e8a79ce0c1\")\n        /* \"PartyA_multiOracle.sol\":2801:2821  msg.sender == partyA */\n      0xffffffffffffffffffffffffffffffffffffffff\n      and\n        /* \"PartyA_multiOracle.sol\":2801:2811  msg.sender */\n      caller\n        /* \"PartyA_multiOracle.sol\":2801:2821  msg.sender == partyA */\n      0xffffffffffffffffffffffffffffffffffffffff\n      and\n      eq\n        /* \"PartyA_multiOracle.sol\":2793:2836  require(msg.sender == partyA, \"Not PartyA\") */\n      tag_104\n      jumpi\n      mload(0x40)\n      0x08c379a000000000000000000000000000000000000000000000000000000000\n      dup2\n      mstore\n      0x04\n      add\n      tag_105\n      swap1\n      tag_95\n      jump\t// in\n    tag_105:\n      mload(0x40)\n      dup1\n      swap2\n      sub\n      swap1\n      revert\n    tag_104:\n        /* \"PartyA_multiOracle.sol\":3793:3802  committed */\n      0x03\n      0x00\n      swap1\n      sload\n      swap1\n      0x0100\n      exp\n      swap1\n      div\n      0xff\n      and\n        /* \"PartyA_multiOracle.sol\":3792:3802  !committed */\n      iszero\n        /* \"PartyA_multiOracle.sol\":3784:3824  require(!committed, \"Already committed\") */\n      tag_107\n      jumpi\n      mload(0x40)\n      0x08c379a000000000000000000000000000000000000000000000000000000000\n      dup2\n      mstore\n      0x04\n      add\n      tag_108\n      swap1\n      tag_109\n      jump\t// in\n    tag_108:\n      mload(0x40)\n      dup1\n      swap2\n      sub\n      swap1\n      revert\n    tag_107:\n        /* \"PartyA_multiOracle.sol\":3846:3850  true */\n      0x01\n        /* \"PartyA_multiOracle.sol\":3834:3843  committed */\n      0x03\n      0x00\n        /* \"PartyA_multiOracle.sol\":3834:3850  committed = true */\n      0x0100\n      exp\n      dup2\n      sload\n      dup2\n      0xff\n      mul\n      not\n      and\n      swap1\n      dup4\n      iszero\n      iszero\n      mul\n      or\n      swap1\n      sstore\n      pop\n        /* \"PartyA_multiOracle.sol\":3875:3885  msg.sender */\n      caller\n        /* \"PartyA_multiOracle.sol\":3865:3886  Committed(msg.sender) */\n      0xffffffffffffffffffffffffffffffffffffffff\n      and\n      0x385d85909904c479680cfb49104dd25dd686a79a13b842e5ab5f1fab8fa0fb2a\n      mload(0x40)\n      mload(0x40)\n      dup1\n      swap2\n      sub\n      swap1\n      log2\n        /* \"PartyA_multiOracle.sol\":3736:3893  function commit() external onlyPartyA {... */\n      jump\t// out\n        /* \"PartyA_multiOracle.sol\":1148:1179  uint256 public requestTimestamp */\n    tag_49:\n      sload(0x06)\n      dup2\n      jump\t// out\n        /* \"PartyA_multiOracle.sol\":1027:1052  bool public dataRequested */\n    tag_52:\n      0x05\n      0x00\n      swap1\n      sload\n      swap1\n      0x0100\n      exp\n      swap1\n      div\n      0xff\n      and\n      dup2\n      jump\t// out\n        /* \"PartyA_multiOracle.sol\":1557:1589  bytes32 public latestDataBytes32 */\n    tag_56:\n      sload(0x09)\n      dup2\n      jump\t// out\n        /* \"PartyA_multiOracle.sol\":1415:1446  uint256 public latestAggregated */\n    tag_59:\n      sload(0x08)\n      dup2\n      jump\t// out\n        /* \"PartyA_multiOracle.sol\":3980:4317  function setOracles(address _oracle1, address _oracle2) external onlyPartyA {... */\n    tag_64:\n        /* \"PartyA_multiOracle.sol\":2815:2821  partyA */\n      immutable(\"0xceebf77a833b30520287ddd9478ff51abbdffa30aa90a8d655dba0e8a79ce0c1\")\n        /* \"PartyA_multiOracle.sol\":2801:2821  msg.sender == partyA */\n      0xffffffffffffffffffffffffffffffffffffffff\n      and\n        /* \"PartyA_multiOracle.sol\":2801:2811  msg.sender */\n      caller\n        /* \"PartyA_multiOracle.sol\":2801:2821  msg.sender == partyA */\n      0xffffffffffffffffffffffffffffffffffffffff\n      and\n      eq\n        /* \"PartyA_multiOracle.sol\":2793:2836  require(msg.sender == partyA, \"Not PartyA\") */\n      tag_111\n      jumpi\n      mload(0x40)\n      0x08c379a000000000000000000000000000000000000000000000000000000000\n      dup2\n      mstore\n      0x04\n      add\n      tag_112\n      swap1\n      tag_95\n      jump\t// in\n    tag_112:\n      mload(0x40)\n      dup1\n      swap2\n      sub\n      swap1\n      revert\n    tag_111:\n        /* \"PartyA_multiOracle.sol\":4094:4095  0 */\n      0x00\n        /* \"PartyA_multiOracle.sol\":4074:4096  _oracle1 != address(0) */\n      0xffffffffffffffffffffffffffffffffffffffff\n      and\n        /* \"PartyA_multiOracle.sol\":4074:4082  _oracle1 */\n      dup3\n        /* \"PartyA_multiOracle.sol\":4074:4096  _oracle1 != address(0) */\n      0xffffffffffffffffffffffffffffffffffffffff\n      and\n      eq\n      iszero\n        /* \"PartyA_multiOracle.sol\":4074:4122  _oracle1 != address(0) && _oracle2 != address(0) */\n      dup1\n      iszero\n      tag_114\n      jumpi\n      pop\n        /* \"PartyA_multiOracle.sol\":4120:4121  0 */\n      0x00\n        /* \"PartyA_multiOracle.sol\":4100:4122  _oracle2 != address(0) */\n      0xffffffffffffffffffffffffffffffffffffffff\n      and\n        /* \"PartyA_multiOracle.sol\":4100:4108  _oracle2 */\n      dup2\n        /* \"PartyA_multiOracle.sol\":4100:4122  _oracle2 != address(0) */\n      0xffffffffffffffffffffffffffffffffffffffff\n      and\n      eq\n      iszero\n        /* \"PartyA_multiOracle.sol\":4074:4122  _oracle1 != address(0) && _oracle2 != address(0) */\n    tag_114:\n        /* \"PartyA_multiOracle.sol\":4066:4141  require(_oracle1 != address(0) && _oracle2 != address(0), \"Oracle is zero\") */\n      tag_115\n      jumpi\n      mload(0x40)\n      0x08c379a000000000000000000000000000000000000000000000000000000000\n      dup2\n      mstore\n      0x04\n      add\n      tag_116\n      swap1\n      tag_117\n      jump\t// in\n    tag_116:\n      mload(0x40)\n      dup1\n      swap2\n      sub\n      swap1\n      revert\n    tag_115:\n        /* \"PartyA_multiOracle.sol\":4171:4179  _oracle2 */\n      dup1\n        /* \"PartyA_multiOracle.sol\":4159:4179  _oracle1 != _oracle2 */\n      0xffffffffffffffffffffffffffffffffffffffff\n      and\n        /* \"PartyA_multiOracle.sol\":4159:4167  _oracle1 */\n      dup3\n        /* \"PartyA_multiOracle.sol\":4159:4179  _oracle1 != _oracle2 */\n      0xffffffffffffffffffffffffffffffffffffffff\n      and\n      sub\n        /* \"PartyA_multiOracle.sol\":4151:4203  require(_oracle1 != _oracle2, \"Oracles must differ\") */\n      tag_118\n      jumpi\n      mload(0x40)\n      0x08c379a000000000000000000000000000000000000000000000000000000000\n      dup2\n      mstore\n      0x04\n      add\n      tag_119\n      swap1\n      tag_120\n      jump\t// in\n    tag_119:\n      mload(0x40)\n      dup1\n      swap2\n      sub\n      swap1\n      revert\n    tag_118:\n        /* \"PartyA_multiOracle.sol\":4224:4232  _oracle1 */\n      dup2\n        /* \"PartyA_multiOracle.sol\":4214:4221  oracle1 */\n      0x00\n      dup1\n        /* \"PartyA_multiOracle.sol\":4214:4232  oracle1 = _oracle1 */\n      0x0100\n      exp\n      dup2\n      sload\n      dup2\n      0xffffffffffffffffffffffffffffffffffffffff\n      mul\n      not\n      and\n      swap1\n      dup4\n      0xffffffffffffffffffffffffffffffffffffffff\n      and\n      mul\n      or\n      swap1\n      sstore\n      pop\n        /* \"PartyA_multiOracle.sol\":4252:4260  _oracle2 */\n      dup1\n        /* \"PartyA_multiOracle.sol\":4242:4249  oracle2 */\n      0x01\n      0x00\n        /* \"PartyA_multiOracle.sol\":4242:4260  oracle2 = _oracle2 */\n      0x0100\n      exp\n      dup2\n      sload\n      dup2\n      0xffffffffffffffffffffffffffffffffffffffff\n      mul\n      not\n      and\n      swap1\n      dup4\n      0xffffffffffffffffffffffffffffffffffffffff\n      and\n      mul\n      or\n      swap1\n      sstore\n      pop\n        /* \"PartyA_multiOracle.sol\":4301:4309  _oracle2 */\n      dup1\n        /* \"PartyA_multiOracle.sol\":4276:4310  OraclesUpdated(_oracle1, _oracle2) */\n      0xffffffffffffffffffffffffffffffffffffffff\n      and\n        /* \"PartyA_multiOracle.sol\":4291:4299  _oracle1 */\n      dup3\n        /* \"PartyA_multiOracle.sol\":4276:4310  OraclesUpdated(_oracle1, _oracle2) */\n      0xffffffffffffffffffffffffffffffffffffffff\n      and\n      0x77b9c343ee7f106dc3307e5d6d46358cac531140c9b7f1862f8c5c7fed426953\n      mload(0x40)\n      mload(0x40)\n      dup1\n      swap2\n      sub\n      swap1\n      log3\n        /* \"PartyA_multiOracle.sol\":3980:4317  function setOracles(address _oracle1, address _oracle2) external onlyPartyA {... */\n      pop\n      pop\n      jump\t// out\n        /* \"PartyA_multiOracle.sol\":4763:5066  function requestData() external onlyPartyA {... */\n    tag_66:\n        /* \"PartyA_multiOracle.sol\":2815:2821  partyA */\n      immutable(\"0xceebf77a833b30520287ddd9478ff51abbdffa30aa90a8d655dba0e8a79ce0c1\")\n        /* \"PartyA_multiOracle.sol\":2801:2821  msg.sender == partyA */\n      0xffffffffffffffffffffffffffffffffffffffff\n      and\n        /* \"PartyA_multiOracle.sol\":2801:2811  msg.sender */\n      caller\n        /* \"PartyA_multiOracle.sol\":2801:2821  msg.sender == partyA */\n      0xffffffffffffffffffffffffffffffffffffffff\n      and\n      eq\n        /* \"PartyA_multiOracle.sol\":2793:2836  require(msg.sender == partyA, \"Not PartyA\") */\n      tag_122\n      jumpi\n      mload(0x40)\n      0x08c379a000000000000000000000000000000000000000000000000000000000\n      dup2\n      mstore\n      0x04\n      add\n      tag_123\n      swap1\n      tag_95\n      jump\t// in\n    tag_123:\n      mload(0x40)\n      dup1\n      swap2\n      sub\n      swap1\n      revert\n    tag_122:\n        /* \"PartyA_multiOracle.sol\":4824:4833  committed */\n      0x03\n      0x00\n      swap1\n      sload\n      swap1\n      0x0100\n      exp\n      swap1\n      div\n      0xff\n      and\n        /* \"PartyA_multiOracle.sol\":4816:4850  require(committed, \"Commit first\") */\n      tag_125\n      jumpi\n      mload(0x40)\n      0x08c379a000000000000000000000000000000000000000000000000000000000\n      dup2\n      mstore\n      0x04\n      add\n      tag_126\n      swap1\n      tag_127\n      jump\t// in\n    tag_126:\n      mload(0x40)\n      dup1\n      swap2\n      sub\n      swap1\n      revert\n    tag_125:\n        /* \"PartyA_multiOracle.sol\":4869:4882  dataRequested */\n      0x05\n      0x00\n      swap1\n      sload\n      swap1\n      0x0100\n      exp\n      swap1\n      div\n      0xff\n      and\n        /* \"PartyA_multiOracle.sol\":4868:4882  !dataRequested */\n      iszero\n        /* \"PartyA_multiOracle.sol\":4860:4916  require(!dataRequested, \"Previous request still active\") */\n      tag_128\n      jumpi\n      mload(0x40)\n      0x08c379a000000000000000000000000000000000000000000000000000000000\n      dup2\n      mstore\n      0x04\n      add\n      tag_129\n      swap1\n      tag_130\n      jump\t// in\n    tag_129:\n      mload(0x40)\n      dup1\n      swap2\n      sub\n      swap1\n      revert\n    tag_128:\n        /* \"PartyA_multiOracle.sol\":4938:4939  1 */\n      0x01\n        /* \"PartyA_multiOracle.sol\":4927:4934  roundId */\n      0x04\n      0x00\n        /* \"PartyA_multiOracle.sol\":4927:4939  roundId += 1 */\n      dup3\n      dup3\n      sload\n      tag_131\n      swap2\n      swap1\n      tag_132\n      jump\t// in\n    tag_131:\n      swap3\n      pop\n      pop\n      dup2\n      swap1\n      sstore\n      pop\n        /* \"PartyA_multiOracle.sol\":4965:4969  true */\n      0x01\n        /* \"PartyA_multiOracle.sol\":4949:4962  dataRequested */\n      0x05\n      0x00\n        /* \"PartyA_multiOracle.sol\":4949:4969  dataRequested = true */\n      0x0100\n      exp\n      dup2\n      sload\n      dup2\n      0xff\n      mul\n      not\n      and\n      swap1\n      dup4\n      iszero\n      iszero\n      mul\n      or\n      swap1\n      sstore\n      pop\n        /* \"PartyA_multiOracle.sol\":4998:5013  block.timestamp */\n      timestamp\n        /* \"PartyA_multiOracle.sol\":4979:4995  requestTimestamp */\n      0x06\n        /* \"PartyA_multiOracle.sol\":4979:5013  requestTimestamp = block.timestamp */\n      dup2\n      swap1\n      sstore\n      pop\n        /* \"PartyA_multiOracle.sol\":5051:5058  roundId */\n      sload(0x04)\n        /* \"PartyA_multiOracle.sol\":5043:5049  partyA */\n      immutable(\"0xceebf77a833b30520287ddd9478ff51abbdffa30aa90a8d655dba0e8a79ce0c1\")\n        /* \"PartyA_multiOracle.sol\":5029:5059  DataRequested(partyA, roundId) */\n      0xffffffffffffffffffffffffffffffffffffffff\n      and\n      0x3fe96a3ccc27bc4c37d7fc553fdca8e6c351f415b8fd16c0c7f49cc57a40a178\n      mload(0x40)\n      mload(0x40)\n      dup1\n      swap2\n      sub\n      swap1\n      log3\n        /* \"PartyA_multiOracle.sol\":4763:5066  function requestData() external onlyPartyA {... */\n      jump\t// out\n        /* \"PartyA_multiOracle.sol\":6171:6544  function cancelIfTimeout() external {... */\n    tag_68:\n        /* \"PartyA_multiOracle.sol\":6225:6238  dataRequested */\n      0x05\n      0x00\n      swap1\n      sload\n      swap1\n      0x0100\n      exp\n      swap1\n      div\n      0xff\n      and\n        /* \"PartyA_multiOracle.sol\":6217:6260  require(dataRequested, \"No active request\") */\n      tag_134\n      jumpi\n      mload(0x40)\n      0x08c379a000000000000000000000000000000000000000000000000000000000\n      dup2\n      mstore\n      0x04\n      add\n      tag_135\n      swap1\n      tag_136\n      jump\t// in\n    tag_135:\n      mload(0x40)\n      dup1\n      swap2\n      sub\n      swap1\n      revert\n    tag_134:\n        /* \"PartyA_multiOracle.sol\":6315:6329  timeoutSeconds */\n      sload(0x07)\n        /* \"PartyA_multiOracle.sol\":6296:6312  requestTimestamp */\n      sload(0x06)\n        /* \"PartyA_multiOracle.sol\":6296:6329  requestTimestamp + timeoutSeconds */\n      tag_137\n      swap2\n      swap1\n      tag_132\n      jump\t// in\n    tag_137:\n        /* \"PartyA_multiOracle.sol\":6278:6293  block.timestamp */\n      timestamp\n        /* \"PartyA_multiOracle.sol\":6278:6329  block.timestamp > requestTimestamp + timeoutSeconds */\n      gt\n        /* \"PartyA_multiOracle.sol\":6270:6351  require(block.timestamp > requestTimestamp + timeoutSeconds, \"Not timed out yet\") */\n      tag_138\n      jumpi\n      mload(0x40)\n      0x08c379a000000000000000000000000000000000000000000000000000000000\n      dup2\n      mstore\n      0x04\n      add\n      tag_139\n      swap1\n      tag_140\n      jump\t// in\n    tag_139:\n      mload(0x40)\n      dup1\n      swap2\n      sub\n      swap1\n      revert\n    tag_138:\n        /* \"PartyA_multiOracle.sol\":6378:6383  false */\n      0x00\n        /* \"PartyA_multiOracle.sol\":6362:6375  dataRequested */\n      0x05\n      0x00\n        /* \"PartyA_multiOracle.sol\":6362:6383  dataRequested = false */\n      0x0100\n      exp\n      dup2\n      sload\n      dup2\n      0xff\n      mul\n      not\n      and\n      swap1\n      dup4\n      iszero\n      iszero\n      mul\n      or\n      swap1\n      sstore\n      pop\n        /* \"PartyA_multiOracle.sol\":6481:6485  true */\n      0x01\n        /* \"PartyA_multiOracle.sol\":6448:6459  submissions */\n      0x0b\n        /* \"PartyA_multiOracle.sol\":6448:6468  submissions[roundId] */\n      0x00\n        /* \"PartyA_multiOracle.sol\":6460:6467  roundId */\n      sload(0x04)\n        /* \"PartyA_multiOracle.sol\":6448:6468  submissions[roundId] */\n      dup2\n      mstore\n      0x20\n      add\n      swap1\n      dup2\n      mstore\n      0x20\n      add\n      0x00\n      keccak256\n        /* \"PartyA_multiOracle.sol\":6448:6478  submissions[roundId].finalized */\n      0x02\n      add\n      0x02\n        /* \"PartyA_multiOracle.sol\":6448:6485  submissions[roundId].finalized = true */\n      0x0100\n      exp\n      dup2\n      sload\n      dup2\n      0xff\n      mul\n      not\n      and\n      swap1\n      dup4\n      iszero\n      iszero\n      mul\n      or\n      swap1\n      sstore\n      pop\n        /* \"PartyA_multiOracle.sol\":6518:6525  roundId */\n      sload(0x04)\n        /* \"PartyA_multiOracle.sol\":6501:6537  RequestCancelled(roundId, \"timeout\") */\n      0xbc1f2817c8da8aa582f7fe3340aaa9ab36778feeb860785edf2c078abc221c99\n      mload(0x40)\n      tag_141\n      swap1\n      tag_142\n      jump\t// in\n    tag_141:\n      mload(0x40)\n      dup1\n      swap2\n      sub\n      swap1\n      log2\n        /* \"PartyA_multiOracle.sol\":6171:6544  function cancelIfTimeout() external {... */\n      jump\t// out\n        /* \"PartyA_multiOracle.sol\":582:604  address public oracle1 */\n    tag_70:\n      0x00\n      dup1\n      sload\n      swap1\n      0x0100\n      exp\n      swap1\n      div\n      0xffffffffffffffffffffffffffffffffffffffff\n      and\n      dup2\n      jump\t// out\n        /* \"PartyA_multiOracle.sol\":1246:1288  uint256 public timeoutSeconds = 30 minutes */\n    tag_73:\n      sload(0x07)\n      dup2\n      jump\t// out\n        /* \"PartyA_multiOracle.sol\":903:925  uint256 public roundId */\n    tag_76:\n      sload(0x04)\n      dup2\n      jump\t// out\n        /* \"PartyA_multiOracle.sol\":610:632  address public oracle2 */\n    tag_79:\n      0x01\n      0x00\n      swap1\n      sload\n      swap1\n      0x0100\n      exp\n      swap1\n      div\n      0xffffffffffffffffffffffffffffffffffffffff\n      and\n      dup2\n      jump\t// out\n        /* \"PartyA_multiOracle.sol\":755:776  bool public committed */\n    tag_82:\n      0x03\n      0x00\n      swap1\n      sload\n      swap1\n      0x0100\n      exp\n      swap1\n      div\n      0xff\n      and\n      dup2\n      jump\t// out\n        /* \"PartyA_multiOracle.sol\":2142:2196  mapping(uint256 => RoundSubmission) public submissions */\n    tag_86:\n      mstore(0x20, 0x0b)\n      dup1\n      0x00\n      mstore\n      keccak256(0x00, 0x40)\n      0x00\n      swap2\n      pop\n      swap1\n      pop\n      dup1\n      0x00\n      add\n      sload\n      swap1\n      dup1\n      0x01\n      add\n      sload\n      swap1\n      dup1\n      0x02\n      add\n      0x00\n      swap1\n      sload\n      swap1\n      0x0100\n      exp\n      swap1\n      div\n      0xff\n      and\n      swap1\n      dup1\n      0x02\n      add\n      0x01\n      swap1\n      sload\n      swap1\n      0x0100\n      exp\n      swap1\n      div\n      0xff\n      and\n      swap1\n      dup1\n      0x02\n      add\n      0x02\n      swap1\n      sload\n      swap1\n      0x0100\n      exp\n      swap1\n      div\n      0xff\n      and\n      swap1\n      dup1\n      0x02\n      add\n      0x03\n      swap1\n      sload\n      swap1\n      0x0100\n      exp\n      swap1\n      div\n      0xff\n      and\n      swap1\n      pop\n      dup7\n      jump\t// out\n        /* \"PartyA_multiOracle.sol\":5228:5982  function fulfillData(uint256 value) external onlyOracle {... */\n    tag_91:\n        /* \"PartyA_multiOracle.sol\":2914:2921  oracle1 */\n      0x00\n      dup1\n      sload\n      swap1\n      0x0100\n      exp\n      swap1\n      div\n      0xffffffffffffffffffffffffffffffffffffffff\n      and\n        /* \"PartyA_multiOracle.sol\":2900:2921  msg.sender == oracle1 */\n      0xffffffffffffffffffffffffffffffffffffffff\n      and\n        /* \"PartyA_multiOracle.sol\":2900:2910  msg.sender */\n      caller\n        /* \"PartyA_multiOracle.sol\":2900:2921  msg.sender == oracle1 */\n      0xffffffffffffffffffffffffffffffffffffffff\n      and\n      eq\n        /* \"PartyA_multiOracle.sol\":2900:2946  msg.sender == oracle1 || msg.sender == oracle2 */\n      dup1\n      tag_144\n      jumpi\n      pop\n        /* \"PartyA_multiOracle.sol\":2939:2946  oracle2 */\n      0x01\n      0x00\n      swap1\n      sload\n      swap1\n      0x0100\n      exp\n      swap1\n      div\n      0xffffffffffffffffffffffffffffffffffffffff\n      and\n        /* \"PartyA_multiOracle.sol\":2925:2946  msg.sender == oracle2 */\n      0xffffffffffffffffffffffffffffffffffffffff\n      and\n        /* \"PartyA_multiOracle.sol\":2925:2935  msg.sender */\n      caller\n        /* \"PartyA_multiOracle.sol\":2925:2946  msg.sender == oracle2 */\n      0xffffffffffffffffffffffffffffffffffffffff\n      and\n      eq\n        /* \"PartyA_multiOracle.sol\":2900:2946  msg.sender == oracle1 || msg.sender == oracle2 */\n    tag_144:\n        /* \"PartyA_multiOracle.sol\":2892:2973  require(msg.sender == oracle1 || msg.sender == oracle2, \"Not whitelisted oracle\") */\n      tag_145\n      jumpi\n      mload(0x40)\n      0x08c379a000000000000000000000000000000000000000000000000000000000\n      dup2\n      mstore\n      0x04\n      add\n      tag_146\n      swap1\n      tag_147\n      jump\t// in\n    tag_146:\n      mload(0x40)\n      dup1\n      swap2\n      sub\n      swap1\n      revert\n    tag_145:\n        /* \"PartyA_multiOracle.sol\":5302:5315  dataRequested */\n      0x05\n      0x00\n      swap1\n      sload\n      swap1\n      0x0100\n      exp\n      swap1\n      div\n      0xff\n      and\n        /* \"PartyA_multiOracle.sol\":5294:5337  require(dataRequested, \"No active request\") */\n      tag_149\n      jumpi\n      mload(0x40)\n      0x08c379a000000000000000000000000000000000000000000000000000000000\n      dup2\n      mstore\n      0x04\n      add\n      tag_150\n      swap1\n      tag_136\n      jump\t// in\n    tag_150:\n      mload(0x40)\n      dup1\n      swap2\n      sub\n      swap1\n      revert\n    tag_149:\n        /* \"PartyA_multiOracle.sol\":5348:5373  RoundSubmission storage r */\n      0x00\n        /* \"PartyA_multiOracle.sol\":5376:5387  submissions */\n      0x0b\n        /* \"PartyA_multiOracle.sol\":5376:5396  submissions[roundId] */\n      0x00\n        /* \"PartyA_multiOracle.sol\":5388:5395  roundId */\n      sload(0x04)\n        /* \"PartyA_multiOracle.sol\":5376:5396  submissions[roundId] */\n      dup2\n      mstore\n      0x20\n      add\n      swap1\n      dup2\n      mstore\n      0x20\n      add\n      0x00\n      keccak256\n        /* \"PartyA_multiOracle.sol\":5348:5396  RoundSubmission storage r = submissions[roundId] */\n      swap1\n      pop\n        /* \"PartyA_multiOracle.sol\":5415:5416  r */\n      dup1\n        /* \"PartyA_multiOracle.sol\":5415:5426  r.finalized */\n      0x02\n      add\n      0x02\n      swap1\n      sload\n      swap1\n      0x0100\n      exp\n      swap1\n      div\n      0xff\n      and\n        /* \"PartyA_multiOracle.sol\":5414:5426  !r.finalized */\n      iszero\n        /* \"PartyA_multiOracle.sol\":5406:5454  require(!r.finalized, \"Round already finalized\") */\n      tag_151\n      jumpi\n      mload(0x40)\n      0x08c379a000000000000000000000000000000000000000000000000000000000\n      dup2\n      mstore\n      0x04\n      add\n      tag_152\n      swap1\n      tag_153\n      jump\t// in\n    tag_152:\n      mload(0x40)\n      dup1\n      swap2\n      sub\n      swap1\n      revert\n    tag_151:\n        /* \"PartyA_multiOracle.sol\":5483:5490  oracle1 */\n      0x00\n      dup1\n      sload\n      swap1\n      0x0100\n      exp\n      swap1\n      div\n      0xffffffffffffffffffffffffffffffffffffffff\n      and\n        /* \"PartyA_multiOracle.sol\":5469:5490  msg.sender == oracle1 */\n      0xffffffffffffffffffffffffffffffffffffffff\n      and\n        /* \"PartyA_multiOracle.sol\":5469:5479  msg.sender */\n      caller\n        /* \"PartyA_multiOracle.sol\":5469:5490  msg.sender == oracle1 */\n      0xffffffffffffffffffffffffffffffffffffffff\n      and\n      sub\n        /* \"PartyA_multiOracle.sol\":5465:5788  if (msg.sender == oracle1) {... */\n      tag_154\n      jumpi\n        /* \"PartyA_multiOracle.sol\":5515:5516  r */\n      dup1\n        /* \"PartyA_multiOracle.sol\":5515:5519  r.s1 */\n      0x02\n      add\n      0x00\n      swap1\n      sload\n      swap1\n      0x0100\n      exp\n      swap1\n      div\n      0xff\n      and\n        /* \"PartyA_multiOracle.sol\":5514:5519  !r.s1 */\n      iszero\n        /* \"PartyA_multiOracle.sol\":5506:5549  require(!r.s1, \"Oracle1 already submitted\") */\n      tag_155\n      jumpi\n      mload(0x40)\n      0x08c379a000000000000000000000000000000000000000000000000000000000\n      dup2\n      mstore\n      0x04\n      add\n      tag_156\n      swap1\n      tag_157\n      jump\t// in\n    tag_156:\n      mload(0x40)\n      dup1\n      swap2\n      sub\n      swap1\n      revert\n    tag_155:\n        /* \"PartyA_multiOracle.sol\":5570:5575  value */\n      dup2\n        /* \"PartyA_multiOracle.sol\":5563:5564  r */\n      dup2\n        /* \"PartyA_multiOracle.sol\":5563:5567  r.v1 */\n      0x00\n      add\n        /* \"PartyA_multiOracle.sol\":5563:5575  r.v1 = value */\n      dup2\n      swap1\n      sstore\n      pop\n        /* \"PartyA_multiOracle.sol\":5596:5600  true */\n      0x01\n        /* \"PartyA_multiOracle.sol\":5589:5590  r */\n      dup2\n        /* \"PartyA_multiOracle.sol\":5589:5593  r.s1 */\n      0x02\n      add\n      0x00\n        /* \"PartyA_multiOracle.sol\":5589:5600  r.s1 = true */\n      0x0100\n      exp\n      dup2\n      sload\n      dup2\n      0xff\n      mul\n      not\n      and\n      swap1\n      dup4\n      iszero\n      iszero\n      mul\n      or\n      swap1\n      sstore\n      pop\n        /* \"PartyA_multiOracle.sol\":5625:5626  1 */\n      0x01\n        /* \"PartyA_multiOracle.sol\":5614:5615  r */\n      dup2\n        /* \"PartyA_multiOracle.sol\":5614:5621  r.count */\n      0x02\n      add\n      0x03\n        /* \"PartyA_multiOracle.sol\":5614:5626  r.count += 1 */\n      dup3\n      dup3\n      dup3\n      swap1\n      sload\n      swap1\n      0x0100\n      exp\n      swap1\n      div\n      0xff\n      and\n      tag_158\n      swap2\n      swap1\n      tag_159\n      jump\t// in\n    tag_158:\n      swap3\n      pop\n      0x0100\n      exp\n      dup2\n      sload\n      dup2\n      0xff\n      mul\n      not\n      and\n      swap1\n      dup4\n      0xff\n      and\n      mul\n      or\n      swap1\n      sstore\n      pop\n        /* \"PartyA_multiOracle.sol\":5465:5788  if (msg.sender == oracle1) {... */\n      jump(tag_160)\n    tag_154:\n        /* \"PartyA_multiOracle.sol\":5666:5667  r */\n      dup1\n        /* \"PartyA_multiOracle.sol\":5666:5670  r.s2 */\n      0x02\n      add\n      0x01\n      swap1\n      sload\n      swap1\n      0x0100\n      exp\n      swap1\n      div\n      0xff\n      and\n        /* \"PartyA_multiOracle.sol\":5665:5670  !r.s2 */\n      iszero\n        /* \"PartyA_multiOracle.sol\":5657:5700  require(!r.s2, \"Oracle2 already submitted\") */\n      tag_161\n      jumpi\n      mload(0x40)\n      0x08c379a000000000000000000000000000000000000000000000000000000000\n      dup2\n      mstore\n      0x04\n      add\n      tag_162\n      swap1\n      tag_163\n      jump\t// in\n    tag_162:\n      mload(0x40)\n      dup1\n      swap2\n      sub\n      swap1\n      revert\n    tag_161:\n        /* \"PartyA_multiOracle.sol\":5721:5726  value */\n      dup2\n        /* \"PartyA_multiOracle.sol\":5714:5715  r */\n      dup2\n        /* \"PartyA_multiOracle.sol\":5714:5718  r.v2 */\n      0x01\n      add\n        /* \"PartyA_multiOracle.sol\":5714:5726  r.v2 = value */\n      dup2\n      swap1\n      sstore\n      pop\n        /* \"PartyA_multiOracle.sol\":5747:5751  true */\n      0x01\n        /* \"PartyA_multiOracle.sol\":5740:5741  r */\n      dup2\n        /* \"PartyA_multiOracle.sol\":5740:5744  r.s2 */\n      0x02\n      add\n      0x01\n        /* \"PartyA_multiOracle.sol\":5740:5751  r.s2 = true */\n      0x0100\n      exp\n      dup2\n      sload\n      dup2\n      0xff\n      mul\n      not\n      and\n      swap1\n      dup4\n      iszero\n      iszero\n      mul\n      or\n      swap1\n      sstore\n      pop\n        /* \"PartyA_multiOracle.sol\":5776:5777  1 */\n      0x01\n        /* \"PartyA_multiOracle.sol\":5765:5766  r */\n      dup2\n        /* \"PartyA_multiOracle.sol\":5765:5772  r.count */\n      0x02\n      add\n      0x03\n        /* \"PartyA_multiOracle.sol\":5765:5777  r.count += 1 */\n      dup3\n      dup3\n      dup3\n      swap1\n      sload\n      swap1\n      0x0100\n      exp\n      swap1\n      div\n      0xff\n      and\n      tag_164\n      swap2\n      swap1\n      tag_159\n      jump\t// in\n    tag_164:\n      swap3\n      pop\n      0x0100\n      exp\n      dup2\n      sload\n      dup2\n      0xff\n      mul\n      not\n      and\n      swap1\n      dup4\n      0xff\n      and\n      mul\n      or\n      swap1\n      sstore\n      pop\n        /* \"PartyA_multiOracle.sol\":5465:5788  if (msg.sender == oracle1) {... */\n    tag_160:\n        /* \"PartyA_multiOracle.sol\":5831:5838  roundId */\n      sload(0x04)\n        /* \"PartyA_multiOracle.sol\":5819:5829  msg.sender */\n      caller\n        /* \"PartyA_multiOracle.sol\":5803:5846  OracleSubmitted(msg.sender, roundId, value) */\n      0xffffffffffffffffffffffffffffffffffffffff\n      and\n      0x4a4aef11802d4cbec5b5520552ce8aa8995a74f076415d72b8a4a0344f90c932\n        /* \"PartyA_multiOracle.sol\":5840:5845  value */\n      dup5\n        /* \"PartyA_multiOracle.sol\":5803:5846  OracleSubmitted(msg.sender, roundId, value) */\n      mload(0x40)\n      tag_165\n      swap2\n      swap1\n      tag_37\n      jump\t// in\n    tag_165:\n      mload(0x40)\n      dup1\n      swap2\n      sub\n      swap1\n      log3\n        /* \"PartyA_multiOracle.sol\":5925:5926  2 */\n      0x02\n        /* \"PartyA_multiOracle.sol\":5914:5915  r */\n      dup2\n        /* \"PartyA_multiOracle.sol\":5914:5921  r.count */\n      0x02\n      add\n      0x03\n      swap1\n      sload\n      swap1\n      0x0100\n      exp\n      swap1\n      div\n      0xff\n      and\n        /* \"PartyA_multiOracle.sol\":5914:5926  r.count == 2 */\n      0xff\n      and\n      sub\n        /* \"PartyA_multiOracle.sol\":5910:5976  if (r.count == 2) {... */\n      tag_166\n      jumpi\n        /* \"PartyA_multiOracle.sol\":5942:5965  _finalizeRound(roundId) */\n      tag_167\n        /* \"PartyA_multiOracle.sol\":5957:5964  roundId */\n      sload(0x04)\n        /* \"PartyA_multiOracle.sol\":5942:5956  _finalizeRound */\n      tag_168\n        /* \"PartyA_multiOracle.sol\":5942:5965  _finalizeRound(roundId) */\n      jump\t// in\n    tag_167:\n        /* \"PartyA_multiOracle.sol\":5910:5976  if (r.count == 2) {... */\n    tag_166:\n        /* \"PartyA_multiOracle.sol\":5284:5982  {... */\n      pop\n        /* \"PartyA_multiOracle.sol\":5228:5982  function fulfillData(uint256 value) external onlyOracle {... */\n      pop\n      jump\t// out\n        /* \"PartyA_multiOracle.sol\":6602:7147  function _finalizeRound(uint256 _rid) internal {... */\n    tag_168:\n        /* \"PartyA_multiOracle.sol\":6659:6684  RoundSubmission storage r */\n      0x00\n        /* \"PartyA_multiOracle.sol\":6687:6698  submissions */\n      0x0b\n        /* \"PartyA_multiOracle.sol\":6687:6704  submissions[_rid] */\n      0x00\n        /* \"PartyA_multiOracle.sol\":6699:6703  _rid */\n      dup4\n        /* \"PartyA_multiOracle.sol\":6687:6704  submissions[_rid] */\n      dup2\n      mstore\n      0x20\n      add\n      swap1\n      dup2\n      mstore\n      0x20\n      add\n      0x00\n      keccak256\n        /* \"PartyA_multiOracle.sol\":6659:6704  RoundSubmission storage r = submissions[_rid] */\n      swap1\n      pop\n        /* \"PartyA_multiOracle.sol\":6733:6734  2 */\n      0x02\n        /* \"PartyA_multiOracle.sol\":6722:6723  r */\n      dup2\n        /* \"PartyA_multiOracle.sol\":6722:6729  r.count */\n      0x02\n      add\n      0x03\n      swap1\n      sload\n      swap1\n      0x0100\n      exp\n      swap1\n      div\n      0xff\n      and\n        /* \"PartyA_multiOracle.sol\":6722:6734  r.count == 2 */\n      0xff\n      and\n      eq\n        /* \"PartyA_multiOracle.sol\":6714:6759  require(r.count == 2, \"Need two submissions\") */\n      tag_170\n      jumpi\n      mload(0x40)\n      0x08c379a000000000000000000000000000000000000000000000000000000000\n      dup2\n      mstore\n      0x04\n      add\n      tag_171\n      swap1\n      tag_172\n      jump\t// in\n    tag_171:\n      mload(0x40)\n      dup1\n      swap2\n      sub\n      swap1\n      revert\n    tag_170:\n        /* \"PartyA_multiOracle.sol\":6778:6779  r */\n      dup1\n        /* \"PartyA_multiOracle.sol\":6778:6789  r.finalized */\n      0x02\n      add\n      0x02\n      swap1\n      sload\n      swap1\n      0x0100\n      exp\n      swap1\n      div\n      0xff\n      and\n        /* \"PartyA_multiOracle.sol\":6777:6789  !r.finalized */\n      iszero\n        /* \"PartyA_multiOracle.sol\":6769:6811  require(!r.finalized, \"Already finalized\") */\n      tag_173\n      jumpi\n      mload(0x40)\n      0x08c379a000000000000000000000000000000000000000000000000000000000\n      dup2\n      mstore\n      0x04\n      add\n      tag_174\n      swap1\n      tag_175\n      jump\t// in\n    tag_174:\n      mload(0x40)\n      dup1\n      swap2\n      sub\n      swap1\n      revert\n    tag_173:\n        /* \"PartyA_multiOracle.sol\":6868:6879  uint256 avg */\n      0x00\n        /* \"PartyA_multiOracle.sol\":6898:6899  2 */\n      0x02\n        /* \"PartyA_multiOracle.sol\":6890:6891  r */\n      dup3\n        /* \"PartyA_multiOracle.sol\":6890:6894  r.v2 */\n      0x01\n      add\n      sload\n        /* \"PartyA_multiOracle.sol\":6883:6884  r */\n      dup4\n        /* \"PartyA_multiOracle.sol\":6883:6887  r.v1 */\n      0x00\n      add\n      sload\n        /* \"PartyA_multiOracle.sol\":6883:6894  r.v1 + r.v2 */\n      tag_176\n      swap2\n      swap1\n      tag_132\n      jump\t// in\n    tag_176:\n        /* \"PartyA_multiOracle.sol\":6882:6899  (r.v1 + r.v2) / 2 */\n      tag_177\n      swap2\n      swap1\n      tag_178\n      jump\t// in\n    tag_177:\n        /* \"PartyA_multiOracle.sol\":6868:6899  uint256 avg = (r.v1 + r.v2) / 2 */\n      swap1\n      pop\n        /* \"PartyA_multiOracle.sol\":6929:6932  avg */\n      dup1\n        /* \"PartyA_multiOracle.sol\":6910:6926  latestAggregated */\n      0x08\n        /* \"PartyA_multiOracle.sol\":6910:6932  latestAggregated = avg */\n      dup2\n      swap1\n      sstore\n      pop\n        /* \"PartyA_multiOracle.sol\":6970:6973  avg */\n      dup1\n        /* \"PartyA_multiOracle.sol\":6962:6974  bytes32(avg) */\n      0x00\n      shl\n        /* \"PartyA_multiOracle.sol\":6942:6959  latestDataBytes32 */\n      0x09\n        /* \"PartyA_multiOracle.sol\":6942:6974  latestDataBytes32 = bytes32(avg) */\n      dup2\n      swap1\n      sstore\n      pop\n        /* \"PartyA_multiOracle.sol\":7035:7039  _rid */\n      dup3\n        /* \"PartyA_multiOracle.sol\":7011:7032  latestAggregatedRound */\n      0x0a\n        /* \"PartyA_multiOracle.sol\":7011:7039  latestAggregatedRound = _rid */\n      dup2\n      swap1\n      sstore\n      pop\n        /* \"PartyA_multiOracle.sol\":7064:7068  true */\n      0x01\n        /* \"PartyA_multiOracle.sol\":7050:7051  r */\n      dup3\n        /* \"PartyA_multiOracle.sol\":7050:7061  r.finalized */\n      0x02\n      add\n      0x02\n        /* \"PartyA_multiOracle.sol\":7050:7068  r.finalized = true */\n      0x0100\n      exp\n      dup2\n      sload\n      dup2\n      0xff\n      mul\n      not\n      and\n      swap1\n      dup4\n      iszero\n      iszero\n      mul\n      or\n      swap1\n      sstore\n      pop\n        /* \"PartyA_multiOracle.sol\":7094:7099  false */\n      0x00\n        /* \"PartyA_multiOracle.sol\":7078:7091  dataRequested */\n      0x05\n      0x00\n        /* \"PartyA_multiOracle.sol\":7078:7099  dataRequested = false */\n      0x0100\n      exp\n      dup2\n      sload\n      dup2\n      0xff\n      mul\n      not\n      and\n      swap1\n      dup4\n      iszero\n      iszero\n      mul\n      or\n      swap1\n      sstore\n      pop\n        /* \"PartyA_multiOracle.sol\":7130:7134  _rid */\n      dup3\n        /* \"PartyA_multiOracle.sol\":7115:7140  DataAggregated(_rid, avg) */\n      0x7d0b66134fa67d827ade897b74d8188a5d4bf8f648339633b4c453667ddcba8e\n        /* \"PartyA_multiOracle.sol\":7136:7139  avg */\n      dup3\n        /* \"PartyA_multiOracle.sol\":7115:7140  DataAggregated(_rid, avg) */\n      mload(0x40)\n      tag_179\n      swap2\n      swap1\n      tag_37\n      jump\t// in\n    tag_179:\n      mload(0x40)\n      dup1\n      swap2\n      sub\n      swap1\n      log2\n        /* \"PartyA_multiOracle.sol\":6649:7147  {... */\n      pop\n      pop\n        /* \"PartyA_multiOracle.sol\":6602:7147  function _finalizeRound(uint256 _rid) internal {... */\n      pop\n      jump\t// out\n        /* \"#utility.yul\":7:133   */\n    tag_180:\n        /* \"#utility.yul\":44:51   */\n      0x00\n        /* \"#utility.yul\":84:126   */\n      0xffffffffffffffffffffffffffffffffffffffff\n        /* \"#utility.yul\":77:82   */\n      dup3\n        /* \"#utility.yul\":73:127   */\n      and\n        /* \"#utility.yul\":62:127   */\n      swap1\n      pop\n        /* \"#utility.yul\":7:133   */\n      swap2\n      swap1\n      pop\n      jump\t// out\n        /* \"#utility.yul\":139:235   */\n    tag_181:\n        /* \"#utility.yul\":176:183   */\n      0x00\n        /* \"#utility.yul\":205:229   */\n      tag_236\n        /* \"#utility.yul\":223:228   */\n      dup3\n        /* \"#utility.yul\":205:229   */\n      tag_180\n      jump\t// in\n    tag_236:\n        /* \"#utility.yul\":194:229   */\n      swap1\n      pop\n        /* \"#utility.yul\":139:235   */\n      swap2\n      swap1\n      pop\n      jump\t// out\n        /* \"#utility.yul\":241:359   */\n    tag_182:\n        /* \"#utility.yul\":328:352   */\n      tag_238\n        /* \"#utility.yul\":346:351   */\n      dup2\n        /* \"#utility.yul\":328:352   */\n      tag_181\n      jump\t// in\n    tag_238:\n        /* \"#utility.yul\":323:326   */\n      dup3\n        /* \"#utility.yul\":316:353   */\n      mstore\n        /* \"#utility.yul\":241:359   */\n      pop\n      pop\n      jump\t// out\n        /* \"#utility.yul\":365:587   */\n    tag_29:\n        /* \"#utility.yul\":458:462   */\n      0x00\n        /* \"#utility.yul\":496:498   */\n      0x20\n        /* \"#utility.yul\":485:494   */\n      dup3\n        /* \"#utility.yul\":481:499   */\n      add\n        /* \"#utility.yul\":473:499   */\n      swap1\n      pop\n        /* \"#utility.yul\":509:580   */\n      tag_240\n        /* \"#utility.yul\":577:578   */\n      0x00\n        /* \"#utility.yul\":566:575   */\n      dup4\n        /* \"#utility.yul\":562:579   */\n      add\n        /* \"#utility.yul\":553:559   */\n      dup5\n        /* \"#utility.yul\":509:580   */\n      tag_182\n      jump\t// in\n    tag_240:\n        /* \"#utility.yul\":365:587   */\n      swap3\n      swap2\n      pop\n      pop\n      jump\t// out\n        /* \"#utility.yul\":593:670   */\n    tag_183:\n        /* \"#utility.yul\":630:637   */\n      0x00\n        /* \"#utility.yul\":659:664   */\n      dup2\n        /* \"#utility.yul\":648:664   */\n      swap1\n      pop\n        /* \"#utility.yul\":593:670   */\n      swap2\n      swap1\n      pop\n      jump\t// out\n        /* \"#utility.yul\":676:794   */\n    tag_184:\n        /* \"#utility.yul\":763:787   */\n      tag_243\n        /* \"#utility.yul\":781:786   */\n      dup2\n        /* \"#utility.yul\":763:787   */\n      tag_183\n      jump\t// in\n    tag_243:\n        /* \"#utility.yul\":758:761   */\n      dup3\n        /* \"#utility.yul\":751:788   */\n      mstore\n        /* \"#utility.yul\":676:794   */\n      pop\n      pop\n      jump\t// out\n        /* \"#utility.yul\":800:1022   */\n    tag_33:\n        /* \"#utility.yul\":893:897   */\n      0x00\n        /* \"#utility.yul\":931:933   */\n      0x20\n        /* \"#utility.yul\":920:929   */\n      dup3\n        /* \"#utility.yul\":916:934   */\n      add\n        /* \"#utility.yul\":908:934   */\n      swap1\n      pop\n        /* \"#utility.yul\":944:1015   */\n      tag_245\n        /* \"#utility.yul\":1012:1013   */\n      0x00\n        /* \"#utility.yul\":1001:1010   */\n      dup4\n        /* \"#utility.yul\":997:1014   */\n      add\n        /* \"#utility.yul\":988:994   */\n      dup5\n        /* \"#utility.yul\":944:1015   */\n      tag_184\n      jump\t// in\n    tag_245:\n        /* \"#utility.yul\":800:1022   */\n      swap3\n      swap2\n      pop\n      pop\n      jump\t// out\n        /* \"#utility.yul\":1028:1105   */\n    tag_185:\n        /* \"#utility.yul\":1065:1072   */\n      0x00\n        /* \"#utility.yul\":1094:1099   */\n      dup2\n        /* \"#utility.yul\":1083:1099   */\n      swap1\n      pop\n        /* \"#utility.yul\":1028:1105   */\n      swap2\n      swap1\n      pop\n      jump\t// out\n        /* \"#utility.yul\":1111:1229   */\n    tag_186:\n        /* \"#utility.yul\":1198:1222   */\n      tag_248\n        /* \"#utility.yul\":1216:1221   */\n      dup2\n        /* \"#utility.yul\":1198:1222   */\n      tag_185\n      jump\t// in\n    tag_248:\n        /* \"#utility.yul\":1193:1196   */\n      dup3\n        /* \"#utility.yul\":1186:1223   */\n      mstore\n        /* \"#utility.yul\":1111:1229   */\n      pop\n      pop\n      jump\t// out\n        /* \"#utility.yul\":1235:1457   */\n    tag_37:\n        /* \"#utility.yul\":1328:1332   */\n      0x00\n        /* \"#utility.yul\":1366:1368   */\n      0x20\n        /* \"#utility.yul\":1355:1364   */\n      dup3\n        /* \"#utility.yul\":1351:1369   */\n      add\n        /* \"#utility.yul\":1343:1369   */\n      swap1\n      pop\n        /* \"#utility.yul\":1379:1450   */\n      tag_250\n        /* \"#utility.yul\":1447:1448   */\n      0x00\n        /* \"#utility.yul\":1436:1445   */\n      dup4\n        /* \"#utility.yul\":1432:1449   */\n      add\n        /* \"#utility.yul\":1423:1429   */\n      dup5\n        /* \"#utility.yul\":1379:1450   */\n      tag_186\n      jump\t// in\n    tag_250:\n        /* \"#utility.yul\":1235:1457   */\n      swap3\n      swap2\n      pop\n      pop\n      jump\t// out\n        /* \"#utility.yul\":1544:1661   */\n    tag_188:\n        /* \"#utility.yul\":1653:1654   */\n      0x00\n        /* \"#utility.yul\":1650:1651   */\n      dup1\n        /* \"#utility.yul\":1643:1655   */\n      revert\n        /* \"#utility.yul\":1790:1912   */\n    tag_190:\n        /* \"#utility.yul\":1863:1887   */\n      tag_255\n        /* \"#utility.yul\":1881:1886   */\n      dup2\n        /* \"#utility.yul\":1863:1887   */\n      tag_185\n      jump\t// in\n    tag_255:\n        /* \"#utility.yul\":1856:1861   */\n      dup2\n        /* \"#utility.yul\":1853:1888   */\n      eq\n        /* \"#utility.yul\":1843:1906   */\n      tag_256\n      jumpi\n        /* \"#utility.yul\":1902:1903   */\n      0x00\n        /* \"#utility.yul\":1899:1900   */\n      dup1\n        /* \"#utility.yul\":1892:1904   */\n      revert\n        /* \"#utility.yul\":1843:1906   */\n    tag_256:\n        /* \"#utility.yul\":1790:1912   */\n      pop\n      jump\t// out\n        /* \"#utility.yul\":1918:2057   */\n    tag_191:\n        /* \"#utility.yul\":1964:1969   */\n      0x00\n        /* \"#utility.yul\":2002:2008   */\n      dup2\n        /* \"#utility.yul\":1989:2009   */\n      calldataload\n        /* \"#utility.yul\":1980:2009   */\n      swap1\n      pop\n        /* \"#utility.yul\":2018:2051   */\n      tag_258\n        /* \"#utility.yul\":2045:2050   */\n      dup2\n        /* \"#utility.yul\":2018:2051   */\n      tag_190\n      jump\t// in\n    tag_258:\n        /* \"#utility.yul\":1918:2057   */\n      swap3\n      swap2\n      pop\n      pop\n      jump\t// out\n        /* \"#utility.yul\":2063:2392   */\n    tag_40:\n        /* \"#utility.yul\":2122:2128   */\n      0x00\n        /* \"#utility.yul\":2171:2173   */\n      0x20\n        /* \"#utility.yul\":2159:2168   */\n      dup3\n        /* \"#utility.yul\":2150:2157   */\n      dup5\n        /* \"#utility.yul\":2146:2169   */\n      sub\n        /* \"#utility.yul\":2142:2174   */\n      slt\n        /* \"#utility.yul\":2139:2258   */\n      iszero\n      tag_260\n      jumpi\n        /* \"#utility.yul\":2177:2256   */\n      tag_261\n      tag_188\n      jump\t// in\n    tag_261:\n        /* \"#utility.yul\":2139:2258   */\n    tag_260:\n        /* \"#utility.yul\":2297:2298   */\n      0x00\n        /* \"#utility.yul\":2322:2375   */\n      tag_262\n        /* \"#utility.yul\":2367:2374   */\n      dup5\n        /* \"#utility.yul\":2358:2364   */\n      dup3\n        /* \"#utility.yul\":2347:2356   */\n      dup6\n        /* \"#utility.yul\":2343:2365   */\n      add\n        /* \"#utility.yul\":2322:2375   */\n      tag_191\n      jump\t// in\n    tag_262:\n        /* \"#utility.yul\":2312:2375   */\n      swap2\n      pop\n        /* \"#utility.yul\":2268:2385   */\n      pop\n        /* \"#utility.yul\":2063:2392   */\n      swap3\n      swap2\n      pop\n      pop\n      jump\t// out\n        /* \"#utility.yul\":2398:2488   */\n    tag_192:\n        /* \"#utility.yul\":2432:2439   */\n      0x00\n        /* \"#utility.yul\":2475:2480   */\n      dup2\n        /* \"#utility.yul\":2468:2481   */\n      iszero\n        /* \"#utility.yul\":2461:2482   */\n      iszero\n        /* \"#utility.yul\":2450:2482   */\n      swap1\n      pop\n        /* \"#utility.yul\":2398:2488   */\n      swap2\n      swap1\n      pop\n      jump\t// out\n        /* \"#utility.yul\":2494:2603   */\n    tag_193:\n        /* \"#utility.yul\":2575:2596   */\n      tag_265\n        /* \"#utility.yul\":2590:2595   */\n      dup2\n        /* \"#utility.yul\":2575:2596   */\n      tag_192\n      jump\t// in\n    tag_265:\n        /* \"#utility.yul\":2570:2573   */\n      dup3\n        /* \"#utility.yul\":2563:2597   */\n      mstore\n        /* \"#utility.yul\":2494:2603   */\n      pop\n      pop\n      jump\t// out\n        /* \"#utility.yul\":2609:2695   */\n    tag_194:\n        /* \"#utility.yul\":2644:2651   */\n      0x00\n        /* \"#utility.yul\":2684:2688   */\n      0xff\n        /* \"#utility.yul\":2677:2682   */\n      dup3\n        /* \"#utility.yul\":2673:2689   */\n      and\n        /* \"#utility.yul\":2662:2689   */\n      swap1\n      pop\n        /* \"#utility.yul\":2609:2695   */\n      swap2\n      swap1\n      pop\n      jump\t// out\n        /* \"#utility.yul\":2701:2813   */\n    tag_195:\n        /* \"#utility.yul\":2784:2806   */\n      tag_268\n        /* \"#utility.yul\":2800:2805   */\n      dup2\n        /* \"#utility.yul\":2784:2806   */\n      tag_194\n      jump\t// in\n    tag_268:\n        /* \"#utility.yul\":2779:2782   */\n      dup3\n        /* \"#utility.yul\":2772:2807   */\n      mstore\n        /* \"#utility.yul\":2701:2813   */\n      pop\n      pop\n      jump\t// out\n        /* \"#utility.yul\":2819:3649   */\n    tag_45:\n        /* \"#utility.yul\":3052:3056   */\n      0x00\n        /* \"#utility.yul\":3090:3093   */\n      0xe0\n        /* \"#utility.yul\":3079:3088   */\n      dup3\n        /* \"#utility.yul\":3075:3094   */\n      add\n        /* \"#utility.yul\":3067:3094   */\n      swap1\n      pop\n        /* \"#utility.yul\":3104:3175   */\n      tag_270\n        /* \"#utility.yul\":3172:3173   */\n      0x00\n        /* \"#utility.yul\":3161:3170   */\n      dup4\n        /* \"#utility.yul\":3157:3174   */\n      add\n        /* \"#utility.yul\":3148:3154   */\n      dup11\n        /* \"#utility.yul\":3104:3175   */\n      tag_186\n      jump\t// in\n    tag_270:\n        /* \"#utility.yul\":3185:3251   */\n      tag_271\n        /* \"#utility.yul\":3247:3249   */\n      0x20\n        /* \"#utility.yul\":3236:3245   */\n      dup4\n        /* \"#utility.yul\":3232:3250   */\n      add\n        /* \"#utility.yul\":3223:3229   */\n      dup10\n        /* \"#utility.yul\":3185:3251   */\n      tag_193\n      jump\t// in\n    tag_271:\n        /* \"#utility.yul\":3261:3333   */\n      tag_272\n        /* \"#utility.yul\":3329:3331   */\n      0x40\n        /* \"#utility.yul\":3318:3327   */\n      dup4\n        /* \"#utility.yul\":3314:3332   */\n      add\n        /* \"#utility.yul\":3305:3311   */\n      dup9\n        /* \"#utility.yul\":3261:3333   */\n      tag_186\n      jump\t// in\n    tag_272:\n        /* \"#utility.yul\":3343:3411   */\n      tag_273\n        /* \"#utility.yul\":3407:3409   */\n      0x60\n        /* \"#utility.yul\":3396:3405   */\n      dup4\n        /* \"#utility.yul\":3392:3410   */\n      add\n        /* \"#utility.yul\":3383:3389   */\n      dup8\n        /* \"#utility.yul\":3343:3411   */\n      tag_195\n      jump\t// in\n    tag_273:\n        /* \"#utility.yul\":3421:3488   */\n      tag_274\n        /* \"#utility.yul\":3483:3486   */\n      0x80\n        /* \"#utility.yul\":3472:3481   */\n      dup4\n        /* \"#utility.yul\":3468:3487   */\n      add\n        /* \"#utility.yul\":3459:3465   */\n      dup7\n        /* \"#utility.yul\":3421:3488   */\n      tag_193\n      jump\t// in\n    tag_274:\n        /* \"#utility.yul\":3498:3565   */\n      tag_275\n        /* \"#utility.yul\":3560:3563   */\n      0xa0\n        /* \"#utility.yul\":3549:3558   */\n      dup4\n        /* \"#utility.yul\":3545:3564   */\n      add\n        /* \"#utility.yul\":3536:3542   */\n      dup6\n        /* \"#utility.yul\":3498:3565   */\n      tag_193\n      jump\t// in\n    tag_275:\n        /* \"#utility.yul\":3575:3642   */\n      tag_276\n        /* \"#utility.yul\":3637:3640   */\n      0xc0\n        /* \"#utility.yul\":3626:3635   */\n      dup4\n        /* \"#utility.yul\":3622:3641   */\n      add\n        /* \"#utility.yul\":3613:3619   */\n      dup5\n        /* \"#utility.yul\":3575:3642   */\n      tag_193\n      jump\t// in\n    tag_276:\n        /* \"#utility.yul\":2819:3649   */\n      swap9\n      swap8\n      pop\n      pop\n      pop\n      pop\n      pop\n      pop\n      pop\n      pop\n      jump\t// out\n        /* \"#utility.yul\":3655:3865   */\n    tag_54:\n        /* \"#utility.yul\":3742:3746   */\n      0x00\n        /* \"#utility.yul\":3780:3782   */\n      0x20\n        /* \"#utility.yul\":3769:3778   */\n      dup3\n        /* \"#utility.yul\":3765:3783   */\n      add\n        /* \"#utility.yul\":3757:3783   */\n      swap1\n      pop\n        /* \"#utility.yul\":3793:3858   */\n      tag_278\n        /* \"#utility.yul\":3855:3856   */\n      0x00\n        /* \"#utility.yul\":3844:3853   */\n      dup4\n        /* \"#utility.yul\":3840:3857   */\n      add\n        /* \"#utility.yul\":3831:3837   */\n      dup5\n        /* \"#utility.yul\":3793:3858   */\n      tag_193\n      jump\t// in\n    tag_278:\n        /* \"#utility.yul\":3655:3865   */\n      swap3\n      swap2\n      pop\n      pop\n      jump\t// out\n        /* \"#utility.yul\":3871:3993   */\n    tag_196:\n        /* \"#utility.yul\":3944:3968   */\n      tag_280\n        /* \"#utility.yul\":3962:3967   */\n      dup2\n        /* \"#utility.yul\":3944:3968   */\n      tag_181\n      jump\t// in\n    tag_280:\n        /* \"#utility.yul\":3937:3942   */\n      dup2\n        /* \"#utility.yul\":3934:3969   */\n      eq\n        /* \"#utility.yul\":3924:3987   */\n      tag_281\n      jumpi\n        /* \"#utility.yul\":3983:3984   */\n      0x00\n        /* \"#utility.yul\":3980:3981   */\n      dup1\n        /* \"#utility.yul\":3973:3985   */\n      revert\n        /* \"#utility.yul\":3924:3987   */\n    tag_281:\n        /* \"#utility.yul\":3871:3993   */\n      pop\n      jump\t// out\n        /* \"#utility.yul\":3999:4138   */\n    tag_197:\n        /* \"#utility.yul\":4045:4050   */\n      0x00\n        /* \"#utility.yul\":4083:4089   */\n      dup2\n        /* \"#utility.yul\":4070:4090   */\n      calldataload\n        /* \"#utility.yul\":4061:4090   */\n      swap1\n      pop\n        /* \"#utility.yul\":4099:4132   */\n      tag_283\n        /* \"#utility.yul\":4126:4131   */\n      dup2\n        /* \"#utility.yul\":4099:4132   */\n      tag_196\n      jump\t// in\n    tag_283:\n        /* \"#utility.yul\":3999:4138   */\n      swap3\n      swap2\n      pop\n      pop\n      jump\t// out\n        /* \"#utility.yul\":4144:4618   */\n    tag_63:\n        /* \"#utility.yul\":4212:4218   */\n      0x00\n        /* \"#utility.yul\":4220:4226   */\n      dup1\n        /* \"#utility.yul\":4269:4271   */\n      0x40\n        /* \"#utility.yul\":4257:4266   */\n      dup4\n        /* \"#utility.yul\":4248:4255   */\n      dup6\n        /* \"#utility.yul\":4244:4267   */\n      sub\n        /* \"#utility.yul\":4240:4272   */\n      slt\n        /* \"#utility.yul\":4237:4356   */\n      iszero\n      tag_285\n      jumpi\n        /* \"#utility.yul\":4275:4354   */\n      tag_286\n      tag_188\n      jump\t// in\n    tag_286:\n        /* \"#utility.yul\":4237:4356   */\n    tag_285:\n        /* \"#utility.yul\":4395:4396   */\n      0x00\n        /* \"#utility.yul\":4420:4473   */\n      tag_287\n        /* \"#utility.yul\":4465:4472   */\n      dup6\n        /* \"#utility.yul\":4456:4462   */\n      dup3\n        /* \"#utility.yul\":4445:4454   */\n      dup7\n        /* \"#utility.yul\":4441:4463   */\n      add\n        /* \"#utility.yul\":4420:4473   */\n      tag_197\n      jump\t// in\n    tag_287:\n        /* \"#utility.yul\":4410:4473   */\n      swap3\n      pop\n        /* \"#utility.yul\":4366:4483   */\n      pop\n        /* \"#utility.yul\":4522:4524   */\n      0x20\n        /* \"#utility.yul\":4548:4601   */\n      tag_288\n        /* \"#utility.yul\":4593:4600   */\n      dup6\n        /* \"#utility.yul\":4584:4590   */\n      dup3\n        /* \"#utility.yul\":4573:4582   */\n      dup7\n        /* \"#utility.yul\":4569:4591   */\n      add\n        /* \"#utility.yul\":4548:4601   */\n      tag_197\n      jump\t// in\n    tag_288:\n        /* \"#utility.yul\":4538:4601   */\n      swap2\n      pop\n        /* \"#utility.yul\":4493:4611   */\n      pop\n        /* \"#utility.yul\":4144:4618   */\n      swap3\n      pop\n      swap3\n      swap1\n      pop\n      jump\t// out\n        /* \"#utility.yul\":4624:5355   */\n    tag_88:\n        /* \"#utility.yul\":4835:4839   */\n      0x00\n        /* \"#utility.yul\":4873:4876   */\n      0xc0\n        /* \"#utility.yul\":4862:4871   */\n      dup3\n        /* \"#utility.yul\":4858:4877   */\n      add\n        /* \"#utility.yul\":4850:4877   */\n      swap1\n      pop\n        /* \"#utility.yul\":4887:4958   */\n      tag_290\n        /* \"#utility.yul\":4955:4956   */\n      0x00\n        /* \"#utility.yul\":4944:4953   */\n      dup4\n        /* \"#utility.yul\":4940:4957   */\n      add\n        /* \"#utility.yul\":4931:4937   */\n      dup10\n        /* \"#utility.yul\":4887:4958   */\n      tag_186\n      jump\t// in\n    tag_290:\n        /* \"#utility.yul\":4968:5040   */\n      tag_291\n        /* \"#utility.yul\":5036:5038   */\n      0x20\n        /* \"#utility.yul\":5025:5034   */\n      dup4\n        /* \"#utility.yul\":5021:5039   */\n      add\n        /* \"#utility.yul\":5012:5018   */\n      dup9\n        /* \"#utility.yul\":4968:5040   */\n      tag_186\n      jump\t// in\n    tag_291:\n        /* \"#utility.yul\":5050:5116   */\n      tag_292\n        /* \"#utility.yul\":5112:5114   */\n      0x40\n        /* \"#utility.yul\":5101:5110   */\n      dup4\n        /* \"#utility.yul\":5097:5115   */\n      add\n        /* \"#utility.yul\":5088:5094   */\n      dup8\n        /* \"#utility.yul\":5050:5116   */\n      tag_193\n      jump\t// in\n    tag_292:\n        /* \"#utility.yul\":5126:5192   */\n      tag_293\n        /* \"#utility.yul\":5188:5190   */\n      0x60\n        /* \"#utility.yul\":5177:5186   */\n      dup4\n        /* \"#utility.yul\":5173:5191   */\n      add\n        /* \"#utility.yul\":5164:5170   */\n      dup7\n        /* \"#utility.yul\":5126:5192   */\n      tag_193\n      jump\t// in\n    tag_293:\n        /* \"#utility.yul\":5202:5269   */\n      tag_294\n        /* \"#utility.yul\":5264:5267   */\n      0x80\n        /* \"#utility.yul\":5253:5262   */\n      dup4\n        /* \"#utility.yul\":5249:5268   */\n      add\n        /* \"#utility.yul\":5240:5246   */\n      dup6\n        /* \"#utility.yul\":5202:5269   */\n      tag_193\n      jump\t// in\n    tag_294:\n        /* \"#utility.yul\":5279:5348   */\n      tag_295\n        /* \"#utility.yul\":5343:5346   */\n      0xa0\n        /* \"#utility.yul\":5332:5341   */\n      dup4\n        /* \"#utility.yul\":5328:5347   */\n      add\n        /* \"#utility.yul\":5319:5325   */\n      dup5\n        /* \"#utility.yul\":5279:5348   */\n      tag_195\n      jump\t// in\n    tag_295:\n        /* \"#utility.yul\":4624:5355   */\n      swap8\n      swap7\n      pop\n      pop\n      pop\n      pop\n      pop\n      pop\n      pop\n      jump\t// out\n        /* \"#utility.yul\":5361:5530   */\n    tag_198:\n        /* \"#utility.yul\":5445:5456   */\n      0x00\n        /* \"#utility.yul\":5479:5485   */\n      dup3\n        /* \"#utility.yul\":5474:5477   */\n      dup3\n        /* \"#utility.yul\":5467:5486   */\n      mstore\n        /* \"#utility.yul\":5519:5523   */\n      0x20\n        /* \"#utility.yul\":5514:5517   */\n      dup3\n        /* \"#utility.yul\":5510:5524   */\n      add\n        /* \"#utility.yul\":5495:5524   */\n      swap1\n      pop\n        /* \"#utility.yul\":5361:5530   */\n      swap3\n      swap2\n      pop\n      pop\n      jump\t// out\n        /* \"#utility.yul\":5536:5696   */\n    tag_199:\n        /* \"#utility.yul\":5676:5688   */\n      0x4e6f742050617274794100000000000000000000000000000000000000000000\n        /* \"#utility.yul\":5672:5673   */\n      0x00\n        /* \"#utility.yul\":5664:5670   */\n      dup3\n        /* \"#utility.yul\":5660:5674   */\n      add\n        /* \"#utility.yul\":5653:5689   */\n      mstore\n        /* \"#utility.yul\":5536:5696   */\n      pop\n      jump\t// out\n        /* \"#utility.yul\":5702:6068   */\n    tag_200:\n        /* \"#utility.yul\":5844:5847   */\n      0x00\n        /* \"#utility.yul\":5865:5932   */\n      tag_299\n        /* \"#utility.yul\":5929:5931   */\n      0x0a\n        /* \"#utility.yul\":5924:5927   */\n      dup4\n        /* \"#utility.yul\":5865:5932   */\n      tag_198\n      jump\t// in\n    tag_299:\n        /* \"#utility.yul\":5858:5932   */\n      swap2\n      pop\n        /* \"#utility.yul\":5941:6034   */\n      tag_300\n        /* \"#utility.yul\":6030:6033   */\n      dup3\n        /* \"#utility.yul\":5941:6034   */\n      tag_199\n      jump\t// in\n    tag_300:\n        /* \"#utility.yul\":6059:6061   */\n      0x20\n        /* \"#utility.yul\":6054:6057   */\n      dup3\n        /* \"#utility.yul\":6050:6062   */\n      add\n        /* \"#utility.yul\":6043:6062   */\n      swap1\n      pop\n        /* \"#utility.yul\":5702:6068   */\n      swap2\n      swap1\n      pop\n      jump\t// out\n        /* \"#utility.yul\":6074:6493   */\n    tag_95:\n        /* \"#utility.yul\":6240:6244   */\n      0x00\n        /* \"#utility.yul\":6278:6280   */\n      0x20\n        /* \"#utility.yul\":6267:6276   */\n      dup3\n        /* \"#utility.yul\":6263:6281   */\n      add\n        /* \"#utility.yul\":6255:6281   */\n      swap1\n      pop\n        /* \"#utility.yul\":6327:6336   */\n      dup2\n        /* \"#utility.yul\":6321:6325   */\n      dup2\n        /* \"#utility.yul\":6317:6337   */\n      sub\n        /* \"#utility.yul\":6313:6314   */\n      0x00\n        /* \"#utility.yul\":6302:6311   */\n      dup4\n        /* \"#utility.yul\":6298:6315   */\n      add\n        /* \"#utility.yul\":6291:6338   */\n      mstore\n        /* \"#utility.yul\":6355:6486   */\n      tag_302\n        /* \"#utility.yul\":6481:6485   */\n      dup2\n        /* \"#utility.yul\":6355:6486   */\n      tag_200\n      jump\t// in\n    tag_302:\n        /* \"#utility.yul\":6347:6486   */\n      swap1\n      pop\n        /* \"#utility.yul\":6074:6493   */\n      swap2\n      swap1\n      pop\n      jump\t// out\n        /* \"#utility.yul\":6499:6669   */\n    tag_201:\n        /* \"#utility.yul\":6639:6661   */\n      0x54696d656f7574206f7574206f662072616e6765000000000000000000000000\n        /* \"#utility.yul\":6635:6636   */\n      0x00\n        /* \"#utility.yul\":6627:6633   */\n      dup3\n        /* \"#utility.yul\":6623:6637   */\n      add\n        /* \"#utility.yul\":6616:6662   */\n      mstore\n        /* \"#utility.yul\":6499:6669   */\n      pop\n      jump\t// out\n        /* \"#utility.yul\":6675:7041   */\n    tag_202:\n        /* \"#utility.yul\":6817:6820   */\n      0x00\n        /* \"#utility.yul\":6838:6905   */\n      tag_305\n        /* \"#utility.yul\":6902:6904   */\n      0x14\n        /* \"#utility.yul\":6897:6900   */\n      dup4\n        /* \"#utility.yul\":6838:6905   */\n      tag_198\n      jump\t// in\n    tag_305:\n        /* \"#utility.yul\":6831:6905   */\n      swap2\n      pop\n        /* \"#utility.yul\":6914:7007   */\n      tag_306\n        /* \"#utility.yul\":7003:7006   */\n      dup3\n        /* \"#utility.yul\":6914:7007   */\n      tag_201\n      jump\t// in\n    tag_306:\n        /* \"#utility.yul\":7032:7034   */\n      0x20\n        /* \"#utility.yul\":7027:7030   */\n      dup3\n        /* \"#utility.yul\":7023:7035   */\n      add\n        /* \"#utility.yul\":7016:7035   */\n      swap1\n      pop\n        /* \"#utility.yul\":6675:7041   */\n      swap2\n      swap1\n      pop\n      jump\t// out\n        /* \"#utility.yul\":7047:7466   */\n    tag_100:\n        /* \"#utility.yul\":7213:7217   */\n      0x00\n        /* \"#utility.yul\":7251:7253   */\n      0x20\n        /* \"#utility.yul\":7240:7249   */\n      dup3\n        /* \"#utility.yul\":7236:7254   */\n      add\n        /* \"#utility.yul\":7228:7254   */\n      swap1\n      pop\n        /* \"#utility.yul\":7300:7309   */\n      dup2\n        /* \"#utility.yul\":7294:7298   */\n      dup2\n        /* \"#utility.yul\":7290:7310   */\n      sub\n        /* \"#utility.yul\":7286:7287   */\n      0x00\n        /* \"#utility.yul\":7275:7284   */\n      dup4\n        /* \"#utility.yul\":7271:7288   */\n      add\n        /* \"#utility.yul\":7264:7311   */\n      mstore\n        /* \"#utility.yul\":7328:7459   */\n      tag_308\n        /* \"#utility.yul\":7454:7458   */\n      dup2\n        /* \"#utility.yul\":7328:7459   */\n      tag_202\n      jump\t// in\n    tag_308:\n        /* \"#utility.yul\":7320:7459   */\n      swap1\n      pop\n        /* \"#utility.yul\":7047:7466   */\n      swap2\n      swap1\n      pop\n      jump\t// out\n        /* \"#utility.yul\":7472:7639   */\n    tag_203:\n        /* \"#utility.yul\":7612:7631   */\n      0x416c726561647920636f6d6d6974746564000000000000000000000000000000\n        /* \"#utility.yul\":7608:7609   */\n      0x00\n        /* \"#utility.yul\":7600:7606   */\n      dup3\n        /* \"#utility.yul\":7596:7610   */\n      add\n        /* \"#utility.yul\":7589:7632   */\n      mstore\n        /* \"#utility.yul\":7472:7639   */\n      pop\n      jump\t// out\n        /* \"#utility.yul\":7645:8011   */\n    tag_204:\n        /* \"#utility.yul\":7787:7790   */\n      0x00\n        /* \"#utility.yul\":7808:7875   */\n      tag_311\n        /* \"#utility.yul\":7872:7874   */\n      0x11\n        /* \"#utility.yul\":7867:7870   */\n      dup4\n        /* \"#utility.yul\":7808:7875   */\n      tag_198\n      jump\t// in\n    tag_311:\n        /* \"#utility.yul\":7801:7875   */\n      swap2\n      pop\n        /* \"#utility.yul\":7884:7977   */\n      tag_312\n        /* \"#utility.yul\":7973:7976   */\n      dup3\n        /* \"#utility.yul\":7884:7977   */\n      tag_203\n      jump\t// in\n    tag_312:\n        /* \"#utility.yul\":8002:8004   */\n      0x20\n        /* \"#utility.yul\":7997:8000   */\n      dup3\n        /* \"#utility.yul\":7993:8005   */\n      add\n        /* \"#utility.yul\":7986:8005   */\n      swap1\n      pop\n        /* \"#utility.yul\":7645:8011   */\n      swap2\n      swap1\n      pop\n      jump\t// out\n        /* \"#utility.yul\":8017:8436   */\n    tag_109:\n        /* \"#utility.yul\":8183:8187   */\n      0x00\n        /* \"#utility.yul\":8221:8223   */\n      0x20\n        /* \"#utility.yul\":8210:8219   */\n      dup3\n        /* \"#utility.yul\":8206:8224   */\n      add\n        /* \"#utility.yul\":8198:8224   */\n      swap1\n      pop\n        /* \"#utility.yul\":8270:8279   */\n      dup2\n        /* \"#utility.yul\":8264:8268   */\n      dup2\n        /* \"#utility.yul\":8260:8280   */\n      sub\n        /* \"#utility.yul\":8256:8257   */\n      0x00\n        /* \"#utility.yul\":8245:8254   */\n      dup4\n        /* \"#utility.yul\":8241:8258   */\n      add\n        /* \"#utility.yul\":8234:8281   */\n      mstore\n        /* \"#utility.yul\":8298:8429   */\n      tag_314\n        /* \"#utility.yul\":8424:8428   */\n      dup2\n        /* \"#utility.yul\":8298:8429   */\n      tag_204\n      jump\t// in\n    tag_314:\n        /* \"#utility.yul\":8290:8429   */\n      swap1\n      pop\n        /* \"#utility.yul\":8017:8436   */\n      swap2\n      swap1\n      pop\n      jump\t// out\n        /* \"#utility.yul\":8442:8606   */\n    tag_205:\n        /* \"#utility.yul\":8582:8598   */\n      0x4f7261636c65206973207a65726f000000000000000000000000000000000000\n        /* \"#utility.yul\":8578:8579   */\n      0x00\n        /* \"#utility.yul\":8570:8576   */\n      dup3\n        /* \"#utility.yul\":8566:8580   */\n      add\n        /* \"#utility.yul\":8559:8599   */\n      mstore\n        /* \"#utility.yul\":8442:8606   */\n      pop\n      jump\t// out\n        /* \"#utility.yul\":8612:8978   */\n    tag_206:\n        /* \"#utility.yul\":8754:8757   */\n      0x00\n        /* \"#utility.yul\":8775:8842   */\n      tag_317\n        /* \"#utility.yul\":8839:8841   */\n      0x0e\n        /* \"#utility.yul\":8834:8837   */\n      dup4\n        /* \"#utility.yul\":8775:8842   */\n      tag_198\n      jump\t// in\n    tag_317:\n        /* \"#utility.yul\":8768:8842   */\n      swap2\n      pop\n        /* \"#utility.yul\":8851:8944   */\n      tag_318\n        /* \"#utility.yul\":8940:8943   */\n      dup3\n        /* \"#utility.yul\":8851:8944   */\n      tag_205\n      jump\t// in\n    tag_318:\n        /* \"#utility.yul\":8969:8971   */\n      0x20\n        /* \"#utility.yul\":8964:8967   */\n      dup3\n        /* \"#utility.yul\":8960:8972   */\n      add\n        /* \"#utility.yul\":8953:8972   */\n      swap1\n      pop\n        /* \"#utility.yul\":8612:8978   */\n      swap2\n      swap1\n      pop\n      jump\t// out\n        /* \"#utility.yul\":8984:9403   */\n    tag_117:\n        /* \"#utility.yul\":9150:9154   */\n      0x00\n        /* \"#utility.yul\":9188:9190   */\n      0x20\n        /* \"#utility.yul\":9177:9186   */\n      dup3\n        /* \"#utility.yul\":9173:9191   */\n      add\n        /* \"#utility.yul\":9165:9191   */\n      swap1\n      pop\n        /* \"#utility.yul\":9237:9246   */\n      dup2\n        /* \"#utility.yul\":9231:9235   */\n      dup2\n        /* \"#utility.yul\":9227:9247   */\n      sub\n        /* \"#utility.yul\":9223:9224   */\n      0x00\n        /* \"#utility.yul\":9212:9221   */\n      dup4\n        /* \"#utility.yul\":9208:9225   */\n      add\n        /* \"#utility.yul\":9201:9248   */\n      mstore\n        /* \"#utility.yul\":9265:9396   */\n      tag_320\n        /* \"#utility.yul\":9391:9395   */\n      dup2\n        /* \"#utility.yul\":9265:9396   */\n      tag_206\n      jump\t// in\n    tag_320:\n        /* \"#utility.yul\":9257:9396   */\n      swap1\n      pop\n        /* \"#utility.yul\":8984:9403   */\n      swap2\n      swap1\n      pop\n      jump\t// out\n        /* \"#utility.yul\":9409:9578   */\n    tag_207:\n        /* \"#utility.yul\":9549:9570   */\n      0x4f7261636c6573206d7573742064696666657200000000000000000000000000\n        /* \"#utility.yul\":9545:9546   */\n      0x00\n        /* \"#utility.yul\":9537:9543   */\n      dup3\n        /* \"#utility.yul\":9533:9547   */\n      add\n        /* \"#utility.yul\":9526:9571   */\n      mstore\n        /* \"#utility.yul\":9409:9578   */\n      pop\n      jump\t// out\n        /* \"#utility.yul\":9584:9950   */\n    tag_208:\n        /* \"#utility.yul\":9726:9729   */\n      0x00\n        /* \"#utility.yul\":9747:9814   */\n      tag_323\n        /* \"#utility.yul\":9811:9813   */\n      0x13\n        /* \"#utility.yul\":9806:9809   */\n      dup4\n        /* \"#utility.yul\":9747:9814   */\n      tag_198\n      jump\t// in\n    tag_323:\n        /* \"#utility.yul\":9740:9814   */\n      swap2\n      pop\n        /* \"#utility.yul\":9823:9916   */\n      tag_324\n        /* \"#utility.yul\":9912:9915   */\n      dup3\n        /* \"#utility.yul\":9823:9916   */\n      tag_207\n      jump\t// in\n    tag_324:\n        /* \"#utility.yul\":9941:9943   */\n      0x20\n        /* \"#utility.yul\":9936:9939   */\n      dup3\n        /* \"#utility.yul\":9932:9944   */\n      add\n        /* \"#utility.yul\":9925:9944   */\n      swap1\n      pop\n        /* \"#utility.yul\":9584:9950   */\n      swap2\n      swap1\n      pop\n      jump\t// out\n        /* \"#utility.yul\":9956:10375   */\n    tag_120:\n        /* \"#utility.yul\":10122:10126   */\n      0x00\n        /* \"#utility.yul\":10160:10162   */\n      0x20\n        /* \"#utility.yul\":10149:10158   */\n      dup3\n        /* \"#utility.yul\":10145:10163   */\n      add\n        /* \"#utility.yul\":10137:10163   */\n      swap1\n      pop\n        /* \"#utility.yul\":10209:10218   */\n      dup2\n        /* \"#utility.yul\":10203:10207   */\n      dup2\n        /* \"#utility.yul\":10199:10219   */\n      sub\n        /* \"#utility.yul\":10195:10196   */\n      0x00\n        /* \"#utility.yul\":10184:10193   */\n      dup4\n        /* \"#utility.yul\":10180:10197   */\n      add\n        /* \"#utility.yul\":10173:10220   */\n      mstore\n        /* \"#utility.yul\":10237:10368   */\n      tag_326\n        /* \"#utility.yul\":10363:10367   */\n      dup2\n        /* \"#utility.yul\":10237:10368   */\n      tag_208\n      jump\t// in\n    tag_326:\n        /* \"#utility.yul\":10229:10368   */\n      swap1\n      pop\n        /* \"#utility.yul\":9956:10375   */\n      swap2\n      swap1\n      pop\n      jump\t// out\n        /* \"#utility.yul\":10381:10543   */\n    tag_209:\n        /* \"#utility.yul\":10521:10535   */\n      0x436f6d6d69742066697273740000000000000000000000000000000000000000\n        /* \"#utility.yul\":10517:10518   */\n      0x00\n        /* \"#utility.yul\":10509:10515   */\n      dup3\n        /* \"#utility.yul\":10505:10519   */\n      add\n        /* \"#utility.yul\":10498:10536   */\n      mstore\n        /* \"#utility.yul\":10381:10543   */\n      pop\n      jump\t// out\n        /* \"#utility.yul\":10549:10915   */\n    tag_210:\n        /* \"#utility.yul\":10691:10694   */\n      0x00\n        /* \"#utility.yul\":10712:10779   */\n      tag_329\n        /* \"#utility.yul\":10776:10778   */\n      0x0c\n        /* \"#utility.yul\":10771:10774   */\n      dup4\n        /* \"#utility.yul\":10712:10779   */\n      tag_198\n      jump\t// in\n    tag_329:\n        /* \"#utility.yul\":10705:10779   */\n      swap2\n      pop\n        /* \"#utility.yul\":10788:10881   */\n      tag_330\n        /* \"#utility.yul\":10877:10880   */\n      dup3\n        /* \"#utility.yul\":10788:10881   */\n      tag_209\n      jump\t// in\n    tag_330:\n        /* \"#utility.yul\":10906:10908   */\n      0x20\n        /* \"#utility.yul\":10901:10904   */\n      dup3\n        /* \"#utility.yul\":10897:10909   */\n      add\n        /* \"#utility.yul\":10890:10909   */\n      swap1\n      pop\n        /* \"#utility.yul\":10549:10915   */\n      swap2\n      swap1\n      pop\n      jump\t// out\n        /* \"#utility.yul\":10921:11340   */\n    tag_127:\n        /* \"#utility.yul\":11087:11091   */\n      0x00\n        /* \"#utility.yul\":11125:11127   */\n      0x20\n        /* \"#utility.yul\":11114:11123   */\n      dup3\n        /* \"#utility.yul\":11110:11128   */\n      add\n        /* \"#utility.yul\":11102:11128   */\n      swap1\n      pop\n        /* \"#utility.yul\":11174:11183   */\n      dup2\n        /* \"#utility.yul\":11168:11172   */\n      dup2\n        /* \"#utility.yul\":11164:11184   */\n      sub\n        /* \"#utility.yul\":11160:11161   */\n      0x00\n        /* \"#utility.yul\":11149:11158   */\n      dup4\n        /* \"#utility.yul\":11145:11162   */\n      add\n        /* \"#utility.yul\":11138:11185   */\n      mstore\n        /* \"#utility.yul\":11202:11333   */\n      tag_332\n        /* \"#utility.yul\":11328:11332   */\n      dup2\n        /* \"#utility.yul\":11202:11333   */\n      tag_210\n      jump\t// in\n    tag_332:\n        /* \"#utility.yul\":11194:11333   */\n      swap1\n      pop\n        /* \"#utility.yul\":10921:11340   */\n      swap2\n      swap1\n      pop\n      jump\t// out\n        /* \"#utility.yul\":11346:11525   */\n    tag_211:\n        /* \"#utility.yul\":11486:11517   */\n      0x50726576696f75732072657175657374207374696c6c20616374697665000000\n        /* \"#utility.yul\":11482:11483   */\n      0x00\n        /* \"#utility.yul\":11474:11480   */\n      dup3\n        /* \"#utility.yul\":11470:11484   */\n      add\n        /* \"#utility.yul\":11463:11518   */\n      mstore\n        /* \"#utility.yul\":11346:11525   */\n      pop\n      jump\t// out\n        /* \"#utility.yul\":11531:11897   */\n    tag_212:\n        /* \"#utility.yul\":11673:11676   */\n      0x00\n        /* \"#utility.yul\":11694:11761   */\n      tag_335\n        /* \"#utility.yul\":11758:11760   */\n      0x1d\n        /* \"#utility.yul\":11753:11756   */\n      dup4\n        /* \"#utility.yul\":11694:11761   */\n      tag_198\n      jump\t// in\n    tag_335:\n        /* \"#utility.yul\":11687:11761   */\n      swap2\n      pop\n        /* \"#utility.yul\":11770:11863   */\n      tag_336\n        /* \"#utility.yul\":11859:11862   */\n      dup3\n        /* \"#utility.yul\":11770:11863   */\n      tag_211\n      jump\t// in\n    tag_336:\n        /* \"#utility.yul\":11888:11890   */\n      0x20\n        /* \"#utility.yul\":11883:11886   */\n      dup3\n        /* \"#utility.yul\":11879:11891   */\n      add\n        /* \"#utility.yul\":11872:11891   */\n      swap1\n      pop\n        /* \"#utility.yul\":11531:11897   */\n      swap2\n      swap1\n      pop\n      jump\t// out\n        /* \"#utility.yul\":11903:12322   */\n    tag_130:\n        /* \"#utility.yul\":12069:12073   */\n      0x00\n        /* \"#utility.yul\":12107:12109   */\n      0x20\n        /* \"#utility.yul\":12096:12105   */\n      dup3\n        /* \"#utility.yul\":12092:12110   */\n      add\n        /* \"#utility.yul\":12084:12110   */\n      swap1\n      pop\n        /* \"#utility.yul\":12156:12165   */\n      dup2\n        /* \"#utility.yul\":12150:12154   */\n      dup2\n        /* \"#utility.yul\":12146:12166   */\n      sub\n        /* \"#utility.yul\":12142:12143   */\n      0x00\n        /* \"#utility.yul\":12131:12140   */\n      dup4\n        /* \"#utility.yul\":12127:12144   */\n      add\n        /* \"#utility.yul\":12120:12167   */\n      mstore\n        /* \"#utility.yul\":12184:12315   */\n      tag_338\n        /* \"#utility.yul\":12310:12314   */\n      dup2\n        /* \"#utility.yul\":12184:12315   */\n      tag_212\n      jump\t// in\n    tag_338:\n        /* \"#utility.yul\":12176:12315   */\n      swap1\n      pop\n        /* \"#utility.yul\":11903:12322   */\n      swap2\n      swap1\n      pop\n      jump\t// out\n        /* \"#utility.yul\":12328:12508   */\n    tag_213:\n        /* \"#utility.yul\":12376:12453   */\n      0x4e487b7100000000000000000000000000000000000000000000000000000000\n        /* \"#utility.yul\":12373:12374   */\n      0x00\n        /* \"#utility.yul\":12366:12454   */\n      mstore\n        /* \"#utility.yul\":12473:12477   */\n      0x11\n        /* \"#utility.yul\":12470:12471   */\n      0x04\n        /* \"#utility.yul\":12463:12478   */\n      mstore\n        /* \"#utility.yul\":12497:12501   */\n      0x24\n        /* \"#utility.yul\":12494:12495   */\n      0x00\n        /* \"#utility.yul\":12487:12502   */\n      revert\n        /* \"#utility.yul\":12514:12705   */\n    tag_132:\n        /* \"#utility.yul\":12554:12557   */\n      0x00\n        /* \"#utility.yul\":12573:12593   */\n      tag_341\n        /* \"#utility.yul\":12591:12592   */\n      dup3\n        /* \"#utility.yul\":12573:12593   */\n      tag_185\n      jump\t// in\n    tag_341:\n        /* \"#utility.yul\":12568:12593   */\n      swap2\n      pop\n        /* \"#utility.yul\":12607:12627   */\n      tag_342\n        /* \"#utility.yul\":12625:12626   */\n      dup4\n        /* \"#utility.yul\":12607:12627   */\n      tag_185\n      jump\t// in\n    tag_342:\n        /* \"#utility.yul\":12602:12627   */\n      swap3\n      pop\n        /* \"#utility.yul\":12650:12651   */\n      dup3\n        /* \"#utility.yul\":12647:12648   */\n      dup3\n        /* \"#utility.yul\":12643:12652   */\n      add\n        /* \"#utility.yul\":12636:12652   */\n      swap1\n      pop\n        /* \"#utility.yul\":12671:12674   */\n      dup1\n        /* \"#utility.yul\":12668:12669   */\n      dup3\n        /* \"#utility.yul\":12665:12675   */\n      gt\n        /* \"#utility.yul\":12662:12698   */\n      iszero\n      tag_343\n      jumpi\n        /* \"#utility.yul\":12678:12696   */\n      tag_344\n      tag_213\n      jump\t// in\n    tag_344:\n        /* \"#utility.yul\":12662:12698   */\n    tag_343:\n        /* \"#utility.yul\":12514:12705   */\n      swap3\n      swap2\n      pop\n      pop\n      jump\t// out\n        /* \"#utility.yul\":12711:12878   */\n    tag_214:\n        /* \"#utility.yul\":12851:12870   */\n      0x4e6f206163746976652072657175657374000000000000000000000000000000\n        /* \"#utility.yul\":12847:12848   */\n      0x00\n        /* \"#utility.yul\":12839:12845   */\n      dup3\n        /* \"#utility.yul\":12835:12849   */\n      add\n        /* \"#utility.yul\":12828:12871   */\n      mstore\n        /* \"#utility.yul\":12711:12878   */\n      pop\n      jump\t// out\n        /* \"#utility.yul\":12884:13250   */\n    tag_215:\n        /* \"#utility.yul\":13026:13029   */\n      0x00\n        /* \"#utility.yul\":13047:13114   */\n      tag_347\n        /* \"#utility.yul\":13111:13113   */\n      0x11\n        /* \"#utility.yul\":13106:13109   */\n      dup4\n        /* \"#utility.yul\":13047:13114   */\n      tag_198\n      jump\t// in\n    tag_347:\n        /* \"#utility.yul\":13040:13114   */\n      swap2\n      pop\n        /* \"#utility.yul\":13123:13216   */\n      tag_348\n        /* \"#utility.yul\":13212:13215   */\n      dup3\n        /* \"#utility.yul\":13123:13216   */\n      tag_214\n      jump\t// in\n    tag_348:\n        /* \"#utility.yul\":13241:13243   */\n      0x20\n        /* \"#utility.yul\":13236:13239   */\n      dup3\n        /* \"#utility.yul\":13232:13244   */\n      add\n        /* \"#utility.yul\":13225:13244   */\n      swap1\n      pop\n        /* \"#utility.yul\":12884:13250   */\n      swap2\n      swap1\n      pop\n      jump\t// out\n        /* \"#utility.yul\":13256:13675   */\n    tag_136:\n        /* \"#utility.yul\":13422:13426   */\n      0x00\n        /* \"#utility.yul\":13460:13462   */\n      0x20\n        /* \"#utility.yul\":13449:13458   */\n      dup3\n        /* \"#utility.yul\":13445:13463   */\n      add\n        /* \"#utility.yul\":13437:13463   */\n      swap1\n      pop\n        /* \"#utility.yul\":13509:13518   */\n      dup2\n        /* \"#utility.yul\":13503:13507   */\n      dup2\n        /* \"#utility.yul\":13499:13519   */\n      sub\n        /* \"#utility.yul\":13495:13496   */\n      0x00\n        /* \"#utility.yul\":13484:13493   */\n      dup4\n        /* \"#utility.yul\":13480:13497   */\n      add\n        /* \"#utility.yul\":13473:13520   */\n      mstore\n        /* \"#utility.yul\":13537:13668   */\n      tag_350\n        /* \"#utility.yul\":13663:13667   */\n      dup2\n        /* \"#utility.yul\":13537:13668   */\n      tag_215\n      jump\t// in\n    tag_350:\n        /* \"#utility.yul\":13529:13668   */\n      swap1\n      pop\n        /* \"#utility.yul\":13256:13675   */\n      swap2\n      swap1\n      pop\n      jump\t// out\n        /* \"#utility.yul\":13681:13848   */\n    tag_216:\n        /* \"#utility.yul\":13821:13840   */\n      0x4e6f742074696d6564206f757420796574000000000000000000000000000000\n        /* \"#utility.yul\":13817:13818   */\n      0x00\n        /* \"#utility.yul\":13809:13815   */\n      dup3\n        /* \"#utility.yul\":13805:13819   */\n      add\n        /* \"#utility.yul\":13798:13841   */\n      mstore\n        /* \"#utility.yul\":13681:13848   */\n      pop\n      jump\t// out\n        /* \"#utility.yul\":13854:14220   */\n    tag_217:\n        /* \"#utility.yul\":13996:13999   */\n      0x00\n        /* \"#utility.yul\":14017:14084   */\n      tag_353\n        /* \"#utility.yul\":14081:14083   */\n      0x11\n        /* \"#utility.yul\":14076:14079   */\n      dup4\n        /* \"#utility.yul\":14017:14084   */\n      tag_198\n      jump\t// in\n    tag_353:\n        /* \"#utility.yul\":14010:14084   */\n      swap2\n      pop\n        /* \"#utility.yul\":14093:14186   */\n      tag_354\n        /* \"#utility.yul\":14182:14185   */\n      dup3\n        /* \"#utility.yul\":14093:14186   */\n      tag_216\n      jump\t// in\n    tag_354:\n        /* \"#utility.yul\":14211:14213   */\n      0x20\n        /* \"#utility.yul\":14206:14209   */\n      dup3\n        /* \"#utility.yul\":14202:14214   */\n      add\n        /* \"#utility.yul\":14195:14214   */\n      swap1\n      pop\n        /* \"#utility.yul\":13854:14220   */\n      swap2\n      swap1\n      pop\n      jump\t// out\n        /* \"#utility.yul\":14226:14645   */\n    tag_140:\n        /* \"#utility.yul\":14392:14396   */\n      0x00\n        /* \"#utility.yul\":14430:14432   */\n      0x20\n        /* \"#utility.yul\":14419:14428   */\n      dup3\n        /* \"#utility.yul\":14415:14433   */\n      add\n        /* \"#utility.yul\":14407:14433   */\n      swap1\n      pop\n        /* \"#utility.yul\":14479:14488   */\n      dup2\n        /* \"#utility.yul\":14473:14477   */\n      dup2\n        /* \"#utility.yul\":14469:14489   */\n      sub\n        /* \"#utility.yul\":14465:14466   */\n      0x00\n        /* \"#utility.yul\":14454:14463   */\n      dup4\n        /* \"#utility.yul\":14450:14467   */\n      add\n        /* \"#utility.yul\":14443:14490   */\n      mstore\n        /* \"#utility.yul\":14507:14638   */\n      tag_356\n        /* \"#utility.yul\":14633:14637   */\n      dup2\n        /* \"#utility.yul\":14507:14638   */\n      tag_217\n      jump\t// in\n    tag_356:\n        /* \"#utility.yul\":14499:14638   */\n      swap1\n      pop\n        /* \"#utility.yul\":14226:14645   */\n      swap2\n      swap1\n      pop\n      jump\t// out\n        /* \"#utility.yul\":14651:14808   */\n    tag_218:\n        /* \"#utility.yul\":14791:14800   */\n      0x74696d656f757400000000000000000000000000000000000000000000000000\n        /* \"#utility.yul\":14787:14788   */\n      0x00\n        /* \"#utility.yul\":14779:14785   */\n      dup3\n        /* \"#utility.yul\":14775:14789   */\n      add\n        /* \"#utility.yul\":14768:14801   */\n      mstore\n        /* \"#utility.yul\":14651:14808   */\n      pop\n      jump\t// out\n        /* \"#utility.yul\":14814:15179   */\n    tag_219:\n        /* \"#utility.yul\":14956:14959   */\n      0x00\n        /* \"#utility.yul\":14977:15043   */\n      tag_359\n        /* \"#utility.yul\":15041:15042   */\n      0x07\n        /* \"#utility.yul\":15036:15039   */\n      dup4\n        /* \"#utility.yul\":14977:15043   */\n      tag_198\n      jump\t// in\n    tag_359:\n        /* \"#utility.yul\":14970:15043   */\n      swap2\n      pop\n        /* \"#utility.yul\":15052:15145   */\n      tag_360\n        /* \"#utility.yul\":15141:15144   */\n      dup3\n        /* \"#utility.yul\":15052:15145   */\n      tag_218\n      jump\t// in\n    tag_360:\n        /* \"#utility.yul\":15170:15172   */\n      0x20\n        /* \"#utility.yul\":15165:15168   */\n      dup3\n        /* \"#utility.yul\":15161:15173   */\n      add\n        /* \"#utility.yul\":15154:15173   */\n      swap1\n      pop\n        /* \"#utility.yul\":14814:15179   */\n      swap2\n      swap1\n      pop\n      jump\t// out\n        /* \"#utility.yul\":15185:15604   */\n    tag_142:\n        /* \"#utility.yul\":15351:15355   */\n      0x00\n        /* \"#utility.yul\":15389:15391   */\n      0x20\n        /* \"#utility.yul\":15378:15387   */\n      dup3\n        /* \"#utility.yul\":15374:15392   */\n      add\n        /* \"#utility.yul\":15366:15392   */\n      swap1\n      pop\n        /* \"#utility.yul\":15438:15447   */\n      dup2\n        /* \"#utility.yul\":15432:15436   */\n      dup2\n        /* \"#utility.yul\":15428:15448   */\n      sub\n        /* \"#utility.yul\":15424:15425   */\n      0x00\n        /* \"#utility.yul\":15413:15422   */\n      dup4\n        /* \"#utility.yul\":15409:15426   */\n      add\n        /* \"#utility.yul\":15402:15449   */\n      mstore\n        /* \"#utility.yul\":15466:15597   */\n      tag_362\n        /* \"#utility.yul\":15592:15596   */\n      dup2\n        /* \"#utility.yul\":15466:15597   */\n      tag_219\n      jump\t// in\n    tag_362:\n        /* \"#utility.yul\":15458:15597   */\n      swap1\n      pop\n        /* \"#utility.yul\":15185:15604   */\n      swap2\n      swap1\n      pop\n      jump\t// out\n        /* \"#utility.yul\":15610:15782   */\n    tag_220:\n        /* \"#utility.yul\":15750:15774   */\n      0x4e6f742077686974656c6973746564206f7261636c6500000000000000000000\n        /* \"#utility.yul\":15746:15747   */\n      0x00\n        /* \"#utility.yul\":15738:15744   */\n      dup3\n        /* \"#utility.yul\":15734:15748   */\n      add\n        /* \"#utility.yul\":15727:15775   */\n      mstore\n        /* \"#utility.yul\":15610:15782   */\n      pop\n      jump\t// out\n        /* \"#utility.yul\":15788:16154   */\n    tag_221:\n        /* \"#utility.yul\":15930:15933   */\n      0x00\n        /* \"#utility.yul\":15951:16018   */\n      tag_365\n        /* \"#utility.yul\":16015:16017   */\n      0x16\n        /* \"#utility.yul\":16010:16013   */\n      dup4\n        /* \"#utility.yul\":15951:16018   */\n      tag_198\n      jump\t// in\n    tag_365:\n        /* \"#utility.yul\":15944:16018   */\n      swap2\n      pop\n        /* \"#utility.yul\":16027:16120   */\n      tag_366\n        /* \"#utility.yul\":16116:16119   */\n      dup3\n        /* \"#utility.yul\":16027:16120   */\n      tag_220\n      jump\t// in\n    tag_366:\n        /* \"#utility.yul\":16145:16147   */\n      0x20\n        /* \"#utility.yul\":16140:16143   */\n      dup3\n        /* \"#utility.yul\":16136:16148   */\n      add\n        /* \"#utility.yul\":16129:16148   */\n      swap1\n      pop\n        /* \"#utility.yul\":15788:16154   */\n      swap2\n      swap1\n      pop\n      jump\t// out\n        /* \"#utility.yul\":16160:16579   */\n    tag_147:\n        /* \"#utility.yul\":16326:16330   */\n      0x00\n        /* \"#utility.yul\":16364:16366   */\n      0x20\n        /* \"#utility.yul\":16353:16362   */\n      dup3\n        /* \"#utility.yul\":16349:16367   */\n      add\n        /* \"#utility.yul\":16341:16367   */\n      swap1\n      pop\n        /* \"#utility.yul\":16413:16422   */\n      dup2\n        /* \"#utility.yul\":16407:16411   */\n      dup2\n        /* \"#utility.yul\":16403:16423   */\n      sub\n        /* \"#utility.yul\":16399:16400   */\n      0x00\n        /* \"#utility.yul\":16388:16397   */\n      dup4\n        /* \"#utility.yul\":16384:16401   */\n      add\n        /* \"#utility.yul\":16377:16424   */\n      mstore\n        /* \"#utility.yul\":16441:16572   */\n      tag_368\n        /* \"#utility.yul\":16567:16571   */\n      dup2\n        /* \"#utility.yul\":16441:16572   */\n      tag_221\n      jump\t// in\n    tag_368:\n        /* \"#utility.yul\":16433:16572   */\n      swap1\n      pop\n        /* \"#utility.yul\":16160:16579   */\n      swap2\n      swap1\n      pop\n      jump\t// out\n        /* \"#utility.yul\":16585:16758   */\n    tag_222:\n        /* \"#utility.yul\":16725:16750   */\n      0x526f756e6420616c72656164792066696e616c697a6564000000000000000000\n        /* \"#utility.yul\":16721:16722   */\n      0x00\n        /* \"#utility.yul\":16713:16719   */\n      dup3\n        /* \"#utility.yul\":16709:16723   */\n      add\n        /* \"#utility.yul\":16702:16751   */\n      mstore\n        /* \"#utility.yul\":16585:16758   */\n      pop\n      jump\t// out\n        /* \"#utility.yul\":16764:17130   */\n    tag_223:\n        /* \"#utility.yul\":16906:16909   */\n      0x00\n        /* \"#utility.yul\":16927:16994   */\n      tag_371\n        /* \"#utility.yul\":16991:16993   */\n      0x17\n        /* \"#utility.yul\":16986:16989   */\n      dup4\n        /* \"#utility.yul\":16927:16994   */\n      tag_198\n      jump\t// in\n    tag_371:\n        /* \"#utility.yul\":16920:16994   */\n      swap2\n      pop\n        /* \"#utility.yul\":17003:17096   */\n      tag_372\n        /* \"#utility.yul\":17092:17095   */\n      dup3\n        /* \"#utility.yul\":17003:17096   */\n      tag_222\n      jump\t// in\n    tag_372:\n        /* \"#utility.yul\":17121:17123   */\n      0x20\n        /* \"#utility.yul\":17116:17119   */\n      dup3\n        /* \"#utility.yul\":17112:17124   */\n      add\n        /* \"#utility.yul\":17105:17124   */\n      swap1\n      pop\n        /* \"#utility.yul\":16764:17130   */\n      swap2\n      swap1\n      pop\n      jump\t// out\n        /* \"#utility.yul\":17136:17555   */\n    tag_153:\n        /* \"#utility.yul\":17302:17306   */\n      0x00\n        /* \"#utility.yul\":17340:17342   */\n      0x20\n        /* \"#utility.yul\":17329:17338   */\n      dup3\n        /* \"#utility.yul\":17325:17343   */\n      add\n        /* \"#utility.yul\":17317:17343   */\n      swap1\n      pop\n        /* \"#utility.yul\":17389:17398   */\n      dup2\n        /* \"#utility.yul\":17383:17387   */\n      dup2\n        /* \"#utility.yul\":17379:17399   */\n      sub\n        /* \"#utility.yul\":17375:17376   */\n      0x00\n        /* \"#utility.yul\":17364:17373   */\n      dup4\n        /* \"#utility.yul\":17360:17377   */\n      add\n        /* \"#utility.yul\":17353:17400   */\n      mstore\n        /* \"#utility.yul\":17417:17548   */\n      tag_374\n        /* \"#utility.yul\":17543:17547   */\n      dup2\n        /* \"#utility.yul\":17417:17548   */\n      tag_223\n      jump\t// in\n    tag_374:\n        /* \"#utility.yul\":17409:17548   */\n      swap1\n      pop\n        /* \"#utility.yul\":17136:17555   */\n      swap2\n      swap1\n      pop\n      jump\t// out\n        /* \"#utility.yul\":17561:17736   */\n    tag_224:\n        /* \"#utility.yul\":17701:17728   */\n      0x4f7261636c653120616c7265616479207375626d697474656400000000000000\n        /* \"#utility.yul\":17697:17698   */\n      0x00\n        /* \"#utility.yul\":17689:17695   */\n      dup3\n        /* \"#utility.yul\":17685:17699   */\n      add\n        /* \"#utility.yul\":17678:17729   */\n      mstore\n        /* \"#utility.yul\":17561:17736   */\n      pop\n      jump\t// out\n        /* \"#utility.yul\":17742:18108   */\n    tag_225:\n        /* \"#utility.yul\":17884:17887   */\n      0x00\n        /* \"#utility.yul\":17905:17972   */\n      tag_377\n        /* \"#utility.yul\":17969:17971   */\n      0x19\n        /* \"#utility.yul\":17964:17967   */\n      dup4\n        /* \"#utility.yul\":17905:17972   */\n      tag_198\n      jump\t// in\n    tag_377:\n        /* \"#utility.yul\":17898:17972   */\n      swap2\n      pop\n        /* \"#utility.yul\":17981:18074   */\n      tag_378\n        /* \"#utility.yul\":18070:18073   */\n      dup3\n        /* \"#utility.yul\":17981:18074   */\n      tag_224\n      jump\t// in\n    tag_378:\n        /* \"#utility.yul\":18099:18101   */\n      0x20\n        /* \"#utility.yul\":18094:18097   */\n      dup3\n        /* \"#utility.yul\":18090:18102   */\n      add\n        /* \"#utility.yul\":18083:18102   */\n      swap1\n      pop\n        /* \"#utility.yul\":17742:18108   */\n      swap2\n      swap1\n      pop\n      jump\t// out\n        /* \"#utility.yul\":18114:18533   */\n    tag_157:\n        /* \"#utility.yul\":18280:18284   */\n      0x00\n        /* \"#utility.yul\":18318:18320   */\n      0x20\n        /* \"#utility.yul\":18307:18316   */\n      dup3\n        /* \"#utility.yul\":18303:18321   */\n      add\n        /* \"#utility.yul\":18295:18321   */\n      swap1\n      pop\n        /* \"#utility.yul\":18367:18376   */\n      dup2\n        /* \"#utility.yul\":18361:18365   */\n      dup2\n        /* \"#utility.yul\":18357:18377   */\n      sub\n        /* \"#utility.yul\":18353:18354   */\n      0x00\n        /* \"#utility.yul\":18342:18351   */\n      dup4\n        /* \"#utility.yul\":18338:18355   */\n      add\n        /* \"#utility.yul\":18331:18378   */\n      mstore\n        /* \"#utility.yul\":18395:18526   */\n      tag_380\n        /* \"#utility.yul\":18521:18525   */\n      dup2\n        /* \"#utility.yul\":18395:18526   */\n      tag_225\n      jump\t// in\n    tag_380:\n        /* \"#utility.yul\":18387:18526   */\n      swap1\n      pop\n        /* \"#utility.yul\":18114:18533   */\n      swap2\n      swap1\n      pop\n      jump\t// out\n        /* \"#utility.yul\":18539:18727   */\n    tag_159:\n        /* \"#utility.yul\":18577:18580   */\n      0x00\n        /* \"#utility.yul\":18596:18614   */\n      tag_382\n        /* \"#utility.yul\":18612:18613   */\n      dup3\n        /* \"#utility.yul\":18596:18614   */\n      tag_194\n      jump\t// in\n    tag_382:\n        /* \"#utility.yul\":18591:18614   */\n      swap2\n      pop\n        /* \"#utility.yul\":18628:18646   */\n      tag_383\n        /* \"#utility.yul\":18644:18645   */\n      dup4\n        /* \"#utility.yul\":18628:18646   */\n      tag_194\n      jump\t// in\n    tag_383:\n        /* \"#utility.yul\":18623:18646   */\n      swap3\n      pop\n        /* \"#utility.yul\":18669:18670   */\n      dup3\n        /* \"#utility.yul\":18666:18667   */\n      dup3\n        /* \"#utility.yul\":18662:18671   */\n      add\n        /* \"#utility.yul\":18655:18671   */\n      swap1\n      pop\n        /* \"#utility.yul\":18692:18696   */\n      0xff\n        /* \"#utility.yul\":18687:18690   */\n      dup2\n        /* \"#utility.yul\":18684:18697   */\n      gt\n        /* \"#utility.yul\":18681:18720   */\n      iszero\n      tag_384\n      jumpi\n        /* \"#utility.yul\":18700:18718   */\n      tag_385\n      tag_213\n      jump\t// in\n    tag_385:\n        /* \"#utility.yul\":18681:18720   */\n    tag_384:\n        /* \"#utility.yul\":18539:18727   */\n      swap3\n      swap2\n      pop\n      pop\n      jump\t// out\n        /* \"#utility.yul\":18733:18908   */\n    tag_226:\n        /* \"#utility.yul\":18873:18900   */\n      0x4f7261636c653220616c7265616479207375626d697474656400000000000000\n        /* \"#utility.yul\":18869:18870   */\n      0x00\n        /* \"#utility.yul\":18861:18867   */\n      dup3\n        /* \"#utility.yul\":18857:18871   */\n      add\n        /* \"#utility.yul\":18850:18901   */\n      mstore\n        /* \"#utility.yul\":18733:18908   */\n      pop\n      jump\t// out\n        /* \"#utility.yul\":18914:19280   */\n    tag_227:\n        /* \"#utility.yul\":19056:19059   */\n      0x00\n        /* \"#utility.yul\":19077:19144   */\n      tag_388\n        /* \"#utility.yul\":19141:19143   */\n      0x19\n        /* \"#utility.yul\":19136:19139   */\n      dup4\n        /* \"#utility.yul\":19077:19144   */\n      tag_198\n      jump\t// in\n    tag_388:\n        /* \"#utility.yul\":19070:19144   */\n      swap2\n      pop\n        /* \"#utility.yul\":19153:19246   */\n      tag_389\n        /* \"#utility.yul\":19242:19245   */\n      dup3\n        /* \"#utility.yul\":19153:19246   */\n      tag_226\n      jump\t// in\n    tag_389:\n        /* \"#utility.yul\":19271:19273   */\n      0x20\n        /* \"#utility.yul\":19266:19269   */\n      dup3\n        /* \"#utility.yul\":19262:19274   */\n      add\n        /* \"#utility.yul\":19255:19274   */\n      swap1\n      pop\n        /* \"#utility.yul\":18914:19280   */\n      swap2\n      swap1\n      pop\n      jump\t// out\n        /* \"#utility.yul\":19286:19705   */\n    tag_163:\n        /* \"#utility.yul\":19452:19456   */\n      0x00\n        /* \"#utility.yul\":19490:19492   */\n      0x20\n        /* \"#utility.yul\":19479:19488   */\n      dup3\n        /* \"#utility.yul\":19475:19493   */\n      add\n        /* \"#utility.yul\":19467:19493   */\n      swap1\n      pop\n        /* \"#utility.yul\":19539:19548   */\n      dup2\n        /* \"#utility.yul\":19533:19537   */\n      dup2\n        /* \"#utility.yul\":19529:19549   */\n      sub\n        /* \"#utility.yul\":19525:19526   */\n      0x00\n        /* \"#utility.yul\":19514:19523   */\n      dup4\n        /* \"#utility.yul\":19510:19527   */\n      add\n        /* \"#utility.yul\":19503:19550   */\n      mstore\n        /* \"#utility.yul\":19567:19698   */\n      tag_391\n        /* \"#utility.yul\":19693:19697   */\n      dup2\n        /* \"#utility.yul\":19567:19698   */\n      tag_227\n      jump\t// in\n    tag_391:\n        /* \"#utility.yul\":19559:19698   */\n      swap1\n      pop\n        /* \"#utility.yul\":19286:19705   */\n      swap2\n      swap1\n      pop\n      jump\t// out\n        /* \"#utility.yul\":19711:19881   */\n    tag_228:\n        /* \"#utility.yul\":19851:19873   */\n      0x4e6565642074776f207375626d697373696f6e73000000000000000000000000\n        /* \"#utility.yul\":19847:19848   */\n      0x00\n        /* \"#utility.yul\":19839:19845   */\n      dup3\n        /* \"#utility.yul\":19835:19849   */\n      add\n        /* \"#utility.yul\":19828:19874   */\n      mstore\n        /* \"#utility.yul\":19711:19881   */\n      pop\n      jump\t// out\n        /* \"#utility.yul\":19887:20253   */\n    tag_229:\n        /* \"#utility.yul\":20029:20032   */\n      0x00\n        /* \"#utility.yul\":20050:20117   */\n      tag_394\n        /* \"#utility.yul\":20114:20116   */\n      0x14\n        /* \"#utility.yul\":20109:20112   */\n      dup4\n        /* \"#utility.yul\":20050:20117   */\n      tag_198\n      jump\t// in\n    tag_394:\n        /* \"#utility.yul\":20043:20117   */\n      swap2\n      pop\n        /* \"#utility.yul\":20126:20219   */\n      tag_395\n        /* \"#utility.yul\":20215:20218   */\n      dup3\n        /* \"#utility.yul\":20126:20219   */\n      tag_228\n      jump\t// in\n    tag_395:\n        /* \"#utility.yul\":20244:20246   */\n      0x20\n        /* \"#utility.yul\":20239:20242   */\n      dup3\n        /* \"#utility.yul\":20235:20247   */\n      add\n        /* \"#utility.yul\":20228:20247   */\n      swap1\n      pop\n        /* \"#utility.yul\":19887:20253   */\n      swap2\n      swap1\n      pop\n      jump\t// out\n        /* \"#utility.yul\":20259:20678   */\n    tag_172:\n        /* \"#utility.yul\":20425:20429   */\n      0x00\n        /* \"#utility.yul\":20463:20465   */\n      0x20\n        /* \"#utility.yul\":20452:20461   */\n      dup3\n        /* \"#utility.yul\":20448:20466   */\n      add\n        /* \"#utility.yul\":20440:20466   */\n      swap1\n      pop\n        /* \"#utility.yul\":20512:20521   */\n      dup2\n        /* \"#utility.yul\":20506:20510   */\n      dup2\n        /* \"#utility.yul\":20502:20522   */\n      sub\n        /* \"#utility.yul\":20498:20499   */\n      0x00\n        /* \"#utility.yul\":20487:20496   */\n      dup4\n        /* \"#utility.yul\":20483:20500   */\n      add\n        /* \"#utility.yul\":20476:20523   */\n      mstore\n        /* \"#utility.yul\":20540:20671   */\n      tag_397\n        /* \"#utility.yul\":20666:20670   */\n      dup2\n        /* \"#utility.yul\":20540:20671   */\n      tag_229\n      jump\t// in\n    tag_397:\n        /* \"#utility.yul\":20532:20671   */\n      swap1\n      pop\n        /* \"#utility.yul\":20259:20678   */\n      swap2\n      swap1\n      pop\n      jump\t// out\n        /* \"#utility.yul\":20684:20851   */\n    tag_230:\n        /* \"#utility.yul\":20824:20843   */\n      0x416c72656164792066696e616c697a6564000000000000000000000000000000\n        /* \"#utility.yul\":20820:20821   */\n      0x00\n        /* \"#utility.yul\":20812:20818   */\n      dup3\n        /* \"#utility.yul\":20808:20822   */\n      add\n        /* \"#utility.yul\":20801:20844   */\n      mstore\n        /* \"#utility.yul\":20684:20851   */\n      pop\n      jump\t// out\n        /* \"#utility.yul\":20857:21223   */\n    tag_231:\n        /* \"#utility.yul\":20999:21002   */\n      0x00\n        /* \"#utility.yul\":21020:21087   */\n      tag_400\n        /* \"#utility.yul\":21084:21086   */\n      0x11\n        /* \"#utility.yul\":21079:21082   */\n      dup4\n        /* \"#utility.yul\":21020:21087   */\n      tag_198\n      jump\t// in\n    tag_400:\n        /* \"#utility.yul\":21013:21087   */\n      swap2\n      pop\n        /* \"#utility.yul\":21096:21189   */\n      tag_401\n        /* \"#utility.yul\":21185:21188   */\n      dup3\n        /* \"#utility.yul\":21096:21189   */\n      tag_230\n      jump\t// in\n    tag_401:\n        /* \"#utility.yul\":21214:21216   */\n      0x20\n        /* \"#utility.yul\":21209:21212   */\n      dup3\n        /* \"#utility.yul\":21205:21217   */\n      add\n        /* \"#utility.yul\":21198:21217   */\n      swap1\n      pop\n        /* \"#utility.yul\":20857:21223   */\n      swap2\n      swap1\n      pop\n      jump\t// out\n        /* \"#utility.yul\":21229:21648   */\n    tag_175:\n        /* \"#utility.yul\":21395:21399   */\n      0x00\n        /* \"#utility.yul\":21433:21435   */\n      0x20\n        /* \"#utility.yul\":21422:21431   */\n      dup3\n        /* \"#utility.yul\":21418:21436   */\n      add\n        /* \"#utility.yul\":21410:21436   */\n      swap1\n      pop\n        /* \"#utility.yul\":21482:21491   */\n      dup2\n        /* \"#utility.yul\":21476:21480   */\n      dup2\n        /* \"#utility.yul\":21472:21492   */\n      sub\n        /* \"#utility.yul\":21468:21469   */\n      0x00\n        /* \"#utility.yul\":21457:21466   */\n      dup4\n        /* \"#utility.yul\":21453:21470   */\n      add\n        /* \"#utility.yul\":21446:21493   */\n      mstore\n        /* \"#utility.yul\":21510:21641   */\n      tag_403\n        /* \"#utility.yul\":21636:21640   */\n      dup2\n        /* \"#utility.yul\":21510:21641   */\n      tag_231\n      jump\t// in\n    tag_403:\n        /* \"#utility.yul\":21502:21641   */\n      swap1\n      pop\n        /* \"#utility.yul\":21229:21648   */\n      swap2\n      swap1\n      pop\n      jump\t// out\n        /* \"#utility.yul\":21654:21834   */\n    tag_232:\n        /* \"#utility.yul\":21702:21779   */\n      0x4e487b7100000000000000000000000000000000000000000000000000000000\n        /* \"#utility.yul\":21699:21700   */\n      0x00\n        /* \"#utility.yul\":21692:21780   */\n      mstore\n        /* \"#utility.yul\":21799:21803   */\n      0x12\n        /* \"#utility.yul\":21796:21797   */\n      0x04\n        /* \"#utility.yul\":21789:21804   */\n      mstore\n        /* \"#utility.yul\":21823:21827   */\n      0x24\n        /* \"#utility.yul\":21820:21821   */\n      0x00\n        /* \"#utility.yul\":21813:21828   */\n      revert\n        /* \"#utility.yul\":21840:22025   */\n    tag_178:\n        /* \"#utility.yul\":21880:21881   */\n      0x00\n        /* \"#utility.yul\":21897:21917   */\n      tag_406\n        /* \"#utility.yul\":21915:21916   */\n      dup3\n        /* \"#utility.yul\":21897:21917   */\n      tag_185\n      jump\t// in\n    tag_406:\n        /* \"#utility.yul\":21892:21917   */\n      swap2\n      pop\n        /* \"#utility.yul\":21931:21951   */\n      tag_407\n        /* \"#utility.yul\":21949:21950   */\n      dup4\n        /* \"#utility.yul\":21931:21951   */\n      tag_185\n      jump\t// in\n    tag_407:\n        /* \"#utility.yul\":21926:21951   */\n      swap3\n      pop\n        /* \"#utility.yul\":21970:21971   */\n      dup3\n        /* \"#utility.yul\":21960:21995   */\n      tag_408\n      jumpi\n        /* \"#utility.yul\":21975:21993   */\n      tag_409\n      tag_232\n      jump\t// in\n    tag_409:\n        /* \"#utility.yul\":21960:21995   */\n    tag_408:\n        /* \"#utility.yul\":22017:22018   */\n      dup3\n        /* \"#utility.yul\":22014:22015   */\n      dup3\n        /* \"#utility.yul\":22010:22019   */\n      div\n        /* \"#utility.yul\":22005:22019   */\n      swap1\n      pop\n        /* \"#utility.yul\":21840:22025   */\n      swap3\n      swap2\n      pop\n      pop\n      jump\t// out\n\n    auxdata: 0xa2646970667358221220b2aa7776473ee1229a33d392e2670556dc4b9b94af43a95e2c45d410528dc15064736f6c63430008110033\n}\n",
				"bytecode": {
					"linkReferences": {},
					"object": "60a06040526107086007553480156200001757600080fd5b50604051620021ad380380620021ad83398181016040528101906200003d91906200031f565b600073ffffffffffffffffffffffffffffffffffffffff168273ffffffffffffffffffffffffffffffffffffffff1614158015620000a85750600073ffffffffffffffffffffffffffffffffffffffff168173ffffffffffffffffffffffffffffffffffffffff1614155b620000ea576040517f08c379a0000000000000000000000000000000000000000000000000000000008152600401620000e190620003dc565b60405180910390fd5b8073ffffffffffffffffffffffffffffffffffffffff168273ffffffffffffffffffffffffffffffffffffffff16036200015b576040517f08c379a000000000000000000000000000000000000000000000000000000000815260040162000152906200044e565b60405180910390fd5b3373ffffffffffffffffffffffffffffffffffffffff1660808173ffffffffffffffffffffffffffffffffffffffff168152505082600281905550816000806101000a81548173ffffffffffffffffffffffffffffffffffffffff021916908373ffffffffffffffffffffffffffffffffffffffff16021790555080600160006101000a81548173ffffffffffffffffffffffffffffffffffffffff021916908373ffffffffffffffffffffffffffffffffffffffff1602179055508073ffffffffffffffffffffffffffffffffffffffff168273ffffffffffffffffffffffffffffffffffffffff167f77b9c343ee7f106dc3307e5d6d46358cac531140c9b7f1862f8c5c7fed42695360405160405180910390a350505062000470565b600080fd5b6000819050919050565b62000294816200027f565b8114620002a057600080fd5b50565b600081519050620002b48162000289565b92915050565b600073ffffffffffffffffffffffffffffffffffffffff82169050919050565b6000620002e782620002ba565b9050919050565b620002f981620002da565b81146200030557600080fd5b50565b6000815190506200031981620002ee565b92915050565b6000806000606084860312156200033b576200033a6200027a565b5b60006200034b86828701620002a3565b93505060206200035e8682870162000308565b9250506040620003718682870162000308565b9150509250925092565b600082825260208201905092915050565b7f4f7261636c65206973207a65726f000000000000000000000000000000000000600082015250565b6000620003c4600e836200037b565b9150620003d1826200038c565b602082019050919050565b60006020820190508181036000830152620003f781620003b5565b9050919050565b7f4f7261636c6573206d7573742064696666657200000000000000000000000000600082015250565b6000620004366013836200037b565b91506200044382620003fe565b602082019050919050565b60006020820190508181036000830152620004698162000427565b9050919050565b608051611cfe620004af600039600081816103660152818161039601528181610551015281816106b4015281816109380152610aa40152611cfe6000f3fe608060405234801561001057600080fd5b506004361061012c5760003560e01c8063572a9302116100ad5780638cd221c9116100715780638cd221c9146102b9578063996f7d3a146102d75780639b6b9664146102f5578063ad73349e14610313578063c195cd6d146103485761012c565b8063572a93021461024d578063606deecd146102695780636798699b14610273578063747a0c3a1461027d578063804755161461029b5761012c565b80633c7a3aff116100f45780633c7a3aff146101cb5780633e66a647146101d55780634222c7fb146101f3578063485d2f6c146102115780634a151fa81461022f5761012c565b806310e1d8ca146101315780631303a4841461014f5780631d26190a1461016d57806336f945cd1461018b5780633968ecec146101a7575b600080fd5b610139610364565b6040516101469190611290565b60405180910390f35b610157610388565b60405161016491906112c4565b60405180910390f35b61017561038e565b60405161018291906112f8565b60405180910390f35b6101a560048036038101906101a09190611344565b610394565b005b6101af6104b6565b6040516101c297969594939291906113a8565b60405180910390f35b6101d361054f565b005b6101dd61068d565b6040516101ea91906112f8565b60405180910390f35b6101fb610693565b6040516102089190611417565b60405180910390f35b6102196106a6565b60405161022691906112c4565b60405180910390f35b6102376106ac565b60405161024491906112f8565b60405180910390f35b6102676004803603810190610262919061145e565b6106b2565b005b610271610936565b005b61027b610b07565b005b610285610c2d565b6040516102929190611290565b60405180910390f35b6102a3610c51565b6040516102b091906112f8565b60405180910390f35b6102c1610c57565b6040516102ce91906112f8565b60405180910390f35b6102df610c5d565b6040516102ec9190611290565b60405180910390f35b6102fd610c83565b60405161030a9190611417565b60405180910390f35b61032d60048036038101906103289190611344565b610c96565b60405161033f9695949392919061149e565b60405180910390f35b610362600480360381019061035d9190611344565b610d06565b005b7f000000000000000000000000000000000000000000000000000000000000000081565b60025481565b600a5481565b7f000000000000000000000000000000000000000000000000000000000000000073ffffffffffffffffffffffffffffffffffffffff163373ffffffffffffffffffffffffffffffffffffffff1614610422576040517f08c379a00000000000000000000000000000000000000000000000000000000081526004016104199061155c565b60405180910390fd5b603c8110158015610436575062093a808111155b610475576040517f08c379a000000000000000000000000000000000000000000000000000000000815260040161046c906115c8565b60405180910390fd5b806007819055507f1a1cd30e223035d872019b55a16a88e0fad18aac07397d463628bf771cc10b94816040516104ab91906112f8565b60405180910390a150565b600080600080600080600080600b600060045481526020019081526020016000209050600454600560009054906101000a900460ff166006548360020160039054906101000a900460ff168460020160009054906101000a900460ff168560020160019054906101000a900460ff168660020160029054906101000a900460ff1697509750975097509750975097505090919293949596565b7f000000000000000000000000000000000000000000000000000000000000000073ffffffffffffffffffffffffffffffffffffffff163373ffffffffffffffffffffffffffffffffffffffff16146105dd576040517f08c379a00000000000000000000000000000000000000000000000000000000081526004016105d49061155c565b60405180910390fd5b600360009054906101000a900460ff161561062d576040517f08c379a000000000000000000000000000000000000000000000000000000000815260040161062490611634565b60405180910390fd5b6001600360006101000a81548160ff0219169083151502179055503373ffffffffffffffffffffffffffffffffffffffff167f385d85909904c479680cfb49104dd25dd686a79a13b842e5ab5f1fab8fa0fb2a60405160405180910390a2565b60065481565b600560009054906101000a900460ff1681565b60095481565b60085481565b7f000000000000000000000000000000000000000000000000000000000000000073ffffffffffffffffffffffffffffffffffffffff163373ffffffffffffffffffffffffffffffffffffffff1614610740576040517f08c379a00000000000000000000000000000000000000000000000000000000081526004016107379061155c565b60405180910390fd5b600073ffffffffffffffffffffffffffffffffffffffff168273ffffffffffffffffffffffffffffffffffffffff16141580156107aa5750600073ffffffffffffffffffffffffffffffffffffffff168173ffffffffffffffffffffffffffffffffffffffff1614155b6107e9576040517f08c379a00000000000000000000000000000000000000000000000000000000081526004016107e0906116a0565b60405180910390fd5b8073ffffffffffffffffffffffffffffffffffffffff168273ffffffffffffffffffffffffffffffffffffffff1603610857576040517f08c379a000000000000000000000000000000000000000000000000000000000815260040161084e9061170c565b60405180910390fd5b816000806101000a81548173ffffffffffffffffffffffffffffffffffffffff021916908373ffffffffffffffffffffffffffffffffffffffff16021790555080600160006101000a81548173ffffffffffffffffffffffffffffffffffffffff021916908373ffffffffffffffffffffffffffffffffffffffff1602179055508073ffffffffffffffffffffffffffffffffffffffff168273ffffffffffffffffffffffffffffffffffffffff167f77b9c343ee7f106dc3307e5d6d46358cac531140c9b7f1862f8c5c7fed42695360405160405180910390a35050565b7f000000000000000000000000000000000000000000000000000000000000000073ffffffffffffffffffffffffffffffffffffffff163373ffffffffffffffffffffffffffffffffffffffff16146109c4576040517f08c379a00000000000000000000000000000000000000000000000000000000081526004016109bb9061155c565b60405180910390fd5b600360009054906101000a900460ff16610a13576040517f08c379a0000000000000000000000000000000000000000000000000000000008152600401610a0a90611778565b60405180910390fd5b600560009054906101000a900460ff1615610a63576040517f08c379a0000000000000000000000000000000000000000000000000000000008152600401610a5a906117e4565b60405180910390fd5b600160046000828254610a769190611833565b925050819055506001600560006101000a81548160ff021916908315150217905550426006819055506004547f000000000000000000000000000000000000000000000000000000000000000073ffffffffffffffffffffffffffffffffffffffff167f3fe96a3ccc27bc4c37d7fc553fdca8e6c351f415b8fd16c0c7f49cc57a40a17860405160405180910390a3565b600560009054906101000a900460ff16610b56576040517f08c379a0000000000000000000000000000000000000000000000000000000008152600401610b4d906118b3565b60405180910390fd5b600754600654610b669190611833565b4211610ba7576040517f08c379a0000000000000000000000000000000000000000000000000000000008152600401610b9e9061191f565b60405180910390fd5b6000600560006101000a81548160ff0219169083151502179055506001600b6000600454815260200190815260200160002060020160026101000a81548160ff0219169083151502179055506004547fbc1f2817c8da8aa582f7fe3340aaa9ab36778feeb860785edf2c078abc221c99604051610c239061198b565b60405180910390a2565b60008054906101000a900473ffffffffffffffffffffffffffffffffffffffff1681565b60075481565b60045481565b600160009054906101000a900473ffffffffffffffffffffffffffffffffffffffff1681565b600360009054906101000a900460ff1681565b600b6020528060005260406000206000915090508060000154908060010154908060020160009054906101000a900460ff16908060020160019054906101000a900460ff16908060020160029054906101000a900460ff16908060020160039054906101000a900460ff16905086565b60008054906101000a900473ffffffffffffffffffffffffffffffffffffffff1673ffffffffffffffffffffffffffffffffffffffff163373ffffffffffffffffffffffffffffffffffffffff161480610dad5750600160009054906101000a900473ffffffffffffffffffffffffffffffffffffffff1673ffffffffffffffffffffffffffffffffffffffff163373ffffffffffffffffffffffffffffffffffffffff16145b610dec576040517f08c379a0000000000000000000000000000000000000000000000000000000008152600401610de3906119f7565b60405180910390fd5b600560009054906101000a900460ff16610e3b576040517f08c379a0000000000000000000000000000000000000000000000000000000008152600401610e32906118b3565b60405180910390fd5b6000600b6000600454815260200190815260200160002090508060020160029054906101000a900460ff1615610ea6576040517f08c379a0000000000000000000000000000000000000000000000000000000008152600401610e9d90611a63565b60405180910390fd5b60008054906101000a900473ffffffffffffffffffffffffffffffffffffffff1673ffffffffffffffffffffffffffffffffffffffff163373ffffffffffffffffffffffffffffffffffffffff1603610faf578060020160009054906101000a900460ff1615610f4b576040517f08c379a0000000000000000000000000000000000000000000000000000000008152600401610f4290611acf565b60405180910390fd5b81816000018190555060018160020160006101000a81548160ff02191690831515021790555060018160020160038282829054906101000a900460ff16610f929190611aef565b92506101000a81548160ff021916908360ff160217905550611061565b8060020160019054906101000a900460ff1615611001576040517f08c379a0000000000000000000000000000000000000000000000000000000008152600401610ff890611b70565b60405180910390fd5b81816001018190555060018160020160016101000a81548160ff02191690831515021790555060018160020160038282829054906101000a900460ff166110489190611aef565b92506101000a81548160ff021916908360ff1602179055505b6004543373ffffffffffffffffffffffffffffffffffffffff167f4a4aef11802d4cbec5b5520552ce8aa8995a74f076415d72b8a4a0344f90c932846040516110aa91906112f8565b60405180910390a360028160020160039054906101000a900460ff1660ff16036110da576110d96004546110de565b5b5050565b6000600b6000838152602001908152602001600020905060028160020160039054906101000a900460ff1660ff161461114c576040517f08c379a000000000000000000000000000000000000000000000000000000000815260040161114390611bdc565b60405180910390fd5b8060020160029054906101000a900460ff161561119e576040517f08c379a000000000000000000000000000000000000000000000000000000000815260040161119590611c48565b60405180910390fd5b60006002826001015483600001546111b69190611833565b6111c09190611c97565b9050806008819055508060001b60098190555082600a8190555060018260020160026101000a81548160ff0219169083151502179055506000600560006101000a81548160ff021916908315150217905550827f7d0b66134fa67d827ade897b74d8188a5d4bf8f648339633b4c453667ddcba8e8260405161124291906112f8565b60405180910390a2505050565b600073ffffffffffffffffffffffffffffffffffffffff82169050919050565b600061127a8261124f565b9050919050565b61128a8161126f565b82525050565b60006020820190506112a56000830184611281565b92915050565b6000819050919050565b6112be816112ab565b82525050565b60006020820190506112d960008301846112b5565b92915050565b6000819050919050565b6112f2816112df565b82525050565b600060208201905061130d60008301846112e9565b92915050565b600080fd5b611321816112df565b811461132c57600080fd5b50565b60008135905061133e81611318565b92915050565b60006020828403121561135a57611359611313565b5b60006113688482850161132f565b91505092915050565b60008115159050919050565b61138681611371565b82525050565b600060ff82169050919050565b6113a28161138c565b82525050565b600060e0820190506113bd600083018a6112e9565b6113ca602083018961137d565b6113d760408301886112e9565b6113e46060830187611399565b6113f1608083018661137d565b6113fe60a083018561137d565b61140b60c083018461137d565b98975050505050505050565b600060208201905061142c600083018461137d565b92915050565b61143b8161126f565b811461144657600080fd5b50565b60008135905061145881611432565b92915050565b6000806040838503121561147557611474611313565b5b600061148385828601611449565b925050602061149485828601611449565b9150509250929050565b600060c0820190506114b360008301896112e9565b6114c060208301886112e9565b6114cd604083018761137d565b6114da606083018661137d565b6114e7608083018561137d565b6114f460a0830184611399565b979650505050505050565b600082825260208201905092915050565b7f4e6f742050617274794100000000000000000000000000000000000000000000600082015250565b6000611546600a836114ff565b915061155182611510565b602082019050919050565b6000602082019050818103600083015261157581611539565b9050919050565b7f54696d656f7574206f7574206f662072616e6765000000000000000000000000600082015250565b60006115b26014836114ff565b91506115bd8261157c565b602082019050919050565b600060208201905081810360008301526115e1816115a5565b9050919050565b7f416c726561647920636f6d6d6974746564000000000000000000000000000000600082015250565b600061161e6011836114ff565b9150611629826115e8565b602082019050919050565b6000602082019050818103600083015261164d81611611565b9050919050565b7f4f7261636c65206973207a65726f000000000000000000000000000000000000600082015250565b600061168a600e836114ff565b915061169582611654565b602082019050919050565b600060208201905081810360008301526116b98161167d565b9050919050565b7f4f7261636c6573206d7573742064696666657200000000000000000000000000600082015250565b60006116f66013836114ff565b9150611701826116c0565b602082019050919050565b60006020820190508181036000830152611725816116e9565b9050919050565b7f436f6d6d69742066697273740000000000000000000000000000000000000000600082015250565b6000611762600c836114ff565b915061176d8261172c565b602082019050919050565b6000602082019050818103600083015261179181611755565b9050919050565b7f50726576696f75732072657175657374207374696c6c20616374697665000000600082015250565b60006117ce601d836114ff565b91506117d982611798565b602082019050919050565b600060208201905081810360008301526117fd816117c1565b9050919050565b7f4e487b7100000000000000000000000000000000000000000000000000000000600052601160045260246000fd5b600061183e826112df565b9150611849836112df565b925082820190508082111561186157611860611804565b5b92915050565b7f4e6f206163746976652072657175657374000000000000000000000000000000600082015250565b600061189d6011836114ff565b91506118a882611867565b602082019050919050565b600060208201905081810360008301526118cc81611890565b9050919050565b7f4e6f742074696d6564206f757420796574000000000000000000000000000000600082015250565b60006119096011836114ff565b9150611914826118d3565b602082019050919050565b60006020820190508181036000830152611938816118fc565b9050919050565b7f74696d656f757400000000000000000000000000000000000000000000000000600082015250565b60006119756007836114ff565b91506119808261193f565b602082019050919050565b600060208201905081810360008301526119a481611968565b9050919050565b7f4e6f742077686974656c6973746564206f7261636c6500000000000000000000600082015250565b60006119e16016836114ff565b91506119ec826119ab565b602082019050919050565b60006020820190508181036000830152611a10816119d4565b9050919050565b7f526f756e6420616c72656164792066696e616c697a6564000000000000000000600082015250565b6000611a4d6017836114ff565b9150611a5882611a17565b602082019050919050565b60006020820190508181036000830152611a7c81611a40565b9050919050565b7f4f7261636c653120616c7265616479207375626d697474656400000000000000600082015250565b6000611ab96019836114ff565b9150611ac482611a83565b602082019050919050565b60006020820190508181036000830152611ae881611aac565b9050919050565b6000611afa8261138c565b9150611b058361138c565b9250828201905060ff811115611b1e57611b1d611804565b5b92915050565b7f4f7261636c653220616c7265616479207375626d697474656400000000000000600082015250565b6000611b5a6019836114ff565b9150611b6582611b24565b602082019050919050565b60006020820190508181036000830152611b8981611b4d565b9050919050565b7f4e6565642074776f207375626d697373696f6e73000000000000000000000000600082015250565b6000611bc66014836114ff565b9150611bd182611b90565b602082019050919050565b60006020820190508181036000830152611bf581611bb9565b9050919050565b7f416c72656164792066696e616c697a6564000000000000000000000000000000600082015250565b6000611c326011836114ff565b9150611c3d82611bfc565b602082019050919050565b60006020820190508181036000830152611c6181611c25565b9050919050565b7f4e487b7100000000000000000000000000000000000000000000000000000000600052601260045260246000fd5b6000611ca2826112df565b9150611cad836112df565b925082611cbd57611cbc611c68565b5b82820490509291505056fea2646970667358221220b2aa7776473ee1229a33d392e2670556dc4b9b94af43a95e2c45d410528dc15064736f6c63430008110033",
					"opcodes": "PUSH1 0xA0 PUSH1 0x40 MSTORE PUSH2 0x708 PUSH1 0x7 SSTORE CALLVALUE DUP1 ISZERO PUSH3 0x17 JUMPI PUSH1 0x0 DUP1 REVERT JUMPDEST POP PUSH1 0x40 MLOAD PUSH3 0x21AD CODESIZE SUB DUP1 PUSH3 0x21AD DUP4 CODECOPY DUP2 DUP2 ADD PUSH1 0x40 MSTORE DUP2 ADD SWAP1 PUSH3 0x3D SWAP2 SWAP1 PUSH3 0x31F JUMP JUMPDEST PUSH1 0x0 PUSH20 0xFFFFFFFFFFFFFFFFFFFFFFFFFFFFFFFFFFFFFFFF AND DUP3 PUSH20 0xFFFFFFFFFFFFFFFFFFFFFFFFFFFFFFFFFFFFFFFF AND EQ ISZERO DUP1 ISZERO PUSH3 0xA8 JUMPI POP PUSH1 0x0 PUSH20 0xFFFFFFFFFFFFFFFFFFFFFFFFFFFFFFFFFFFFFFFF AND DUP2 PUSH20 0xFFFFFFFFFFFFFFFFFFFFFFFFFFFFFFFFFFFFFFFF AND EQ ISZERO JUMPDEST PUSH3 0xEA JUMPI PUSH1 0x40 MLOAD PUSH32 0x8C379A000000000000000000000000000000000000000000000000000000000 DUP2 MSTORE PUSH1 0x4 ADD PUSH3 0xE1 SWAP1 PUSH3 0x3DC JUMP JUMPDEST PUSH1 0x40 MLOAD DUP1 SWAP2 SUB SWAP1 REVERT JUMPDEST DUP1 PUSH20 0xFFFFFFFFFFFFFFFFFFFFFFFFFFFFFFFFFFFFFFFF AND DUP3 PUSH20 0xFFFFFFFFFFFFFFFFFFFFFFFFFFFFFFFFFFFFFFFF AND SUB PUSH3 0x15B JUMPI PUSH1 0x40 MLOAD PUSH32 0x8C379A000000000000000000000000000000000000000000000000000000000 DUP2 MSTORE PUSH1 0x4 ADD PUSH3 0x152 SWAP1 PUSH3 0x44E JUMP JUMPDEST PUSH1 0x40 MLOAD DUP1 SWAP2 SUB SWAP1 REVERT JUMPDEST CALLER PUSH20 0xFFFFFFFFFFFFFFFFFFFFFFFFFFFFFFFFFFFFFFFF AND PUSH1 0x80 DUP2 PUSH20 0xFFFFFFFFFFFFFFFFFFFFFFFFFFFFFFFFFFFFFFFF AND DUP2 MSTORE POP POP DUP3 PUSH1 0x2 DUP2 SWAP1 SSTORE POP DUP2 PUSH1 0x0 DUP1 PUSH2 0x100 EXP DUP2 SLOAD DUP2 PUSH20 0xFFFFFFFFFFFFFFFFFFFFFFFFFFFFFFFFFFFFFFFF MUL NOT AND SWAP1 DUP4 PUSH20 0xFFFFFFFFFFFFFFFFFFFFFFFFFFFFFFFFFFFFFFFF AND MUL OR SWAP1 SSTORE POP DUP1 PUSH1 0x1 PUSH1 0x0 PUSH2 0x100 EXP DUP2 SLOAD DUP2 PUSH20 0xFFFFFFFFFFFFFFFFFFFFFFFFFFFFFFFFFFFFFFFF MUL NOT AND SWAP1 DUP4 PUSH20 0xFFFFFFFFFFFFFFFFFFFFFFFFFFFFFFFFFFFFFFFF AND MUL OR SWAP1 SSTORE POP DUP1 PUSH20 0xFFFFFFFFFFFFFFFFFFFFFFFFFFFFFFFFFFFFFFFF AND DUP3 PUSH20 0xFFFFFFFFFFFFFFFFFFFFFFFFFFFFFFFFFFFFFFFF AND PUSH32 0x77B9C343EE7F106DC3307E5D6D46358CAC531140C9B7F1862F8C5C7FED426953 PUSH1 0x40 MLOAD PUSH1 0x40 MLOAD DUP1 SWAP2 SUB SWAP1 LOG3 POP POP POP PUSH3 0x470 JUMP JUMPDEST PUSH1 0x0 DUP1 REVERT JUMPDEST PUSH1 0x0 DUP2 SWAP1 POP SWAP2 SWAP1 POP JUMP JUMPDEST PUSH3 0x294 DUP2 PUSH3 0x27F JUMP JUMPDEST DUP2 EQ PUSH3 0x2A0 JUMPI PUSH1 0x0 DUP1 REVERT JUMPDEST POP JUMP JUMPDEST PUSH1 0x0 DUP2 MLOAD SWAP1 POP PUSH3 0x2B4 DUP2 PUSH3 0x289 JUMP JUMPDEST SWAP3 SWAP2 POP POP JUMP JUMPDEST PUSH1 0x0 PUSH20 0xFFFFFFFFFFFFFFFFFFFFFFFFFFFFFFFFFFFFFFFF DUP3 AND SWAP1 POP SWAP2 SWAP1 POP JUMP JUMPDEST PUSH1 0x0 PUSH3 0x2E7 DUP3 PUSH3 0x2BA JUMP JUMPDEST SWAP1 POP SWAP2 SWAP1 POP JUMP JUMPDEST PUSH3 0x2F9 DUP2 PUSH3 0x2DA JUMP JUMPDEST DUP2 EQ PUSH3 0x305 JUMPI PUSH1 0x0 DUP1 REVERT JUMPDEST POP JUMP JUMPDEST PUSH1 0x0 DUP2 MLOAD SWAP1 POP PUSH3 0x319 DUP2 PUSH3 0x2EE JUMP JUMPDEST SWAP3 SWAP2 POP POP JUMP JUMPDEST PUSH1 0x0 DUP1 PUSH1 0x0 PUSH1 0x60 DUP5 DUP7 SUB SLT ISZERO PUSH3 0x33B JUMPI PUSH3 0x33A PUSH3 0x27A JUMP JUMPDEST JUMPDEST PUSH1 0x0 PUSH3 0x34B DUP7 DUP3 DUP8 ADD PUSH3 0x2A3 JUMP JUMPDEST SWAP4 POP POP PUSH1 0x20 PUSH3 0x35E DUP7 DUP3 DUP8 ADD PUSH3 0x308 JUMP JUMPDEST SWAP3 POP POP PUSH1 0x40 PUSH3 0x371 DUP7 DUP3 DUP8 ADD PUSH3 0x308 JUMP JUMPDEST SWAP2 POP POP SWAP3 POP SWAP3 POP SWAP3 JUMP JUMPDEST PUSH1 0x0 DUP3 DUP3 MSTORE PUSH1 0x20 DUP3 ADD SWAP1 POP SWAP3 SWAP2 POP POP JUMP JUMPDEST PUSH32 0x4F7261636C65206973207A65726F000000000000000000000000000000000000 PUSH1 0x0 DUP3 ADD MSTORE POP JUMP JUMPDEST PUSH1 0x0 PUSH3 0x3C4 PUSH1 0xE DUP4 PUSH3 0x37B JUMP JUMPDEST SWAP2 POP PUSH3 0x3D1 DUP3 PUSH3 0x38C JUMP JUMPDEST PUSH1 0x20 DUP3 ADD SWAP1 POP SWAP2 SWAP1 POP JUMP JUMPDEST PUSH1 0x0 PUSH1 0x20 DUP3 ADD SWAP1 POP DUP2 DUP2 SUB PUSH1 0x0 DUP4 ADD MSTORE PUSH3 0x3F7 DUP2 PUSH3 0x3B5 JUMP JUMPDEST SWAP1 POP SWAP2 SWAP1 POP JUMP JUMPDEST PUSH32 0x4F7261636C6573206D7573742064696666657200000000000000000000000000 PUSH1 0x0 DUP3 ADD MSTORE POP JUMP JUMPDEST PUSH1 0x0 PUSH3 0x436 PUSH1 0x13 DUP4 PUSH3 0x37B JUMP JUMPDEST SWAP2 POP PUSH3 0x443 DUP3 PUSH3 0x3FE JUMP JUMPDEST PUSH1 0x20 DUP3 ADD SWAP1 POP SWAP2 SWAP1 POP JUMP JUMPDEST PUSH1 0x0 PUSH1 0x20 DUP3 ADD SWAP1 POP DUP2 DUP2 SUB PUSH1 0x0 DUP4 ADD MSTORE PUSH3 0x469 DUP2 PUSH3 0x427 JUMP JUMPDEST SWAP1 POP SWAP2 SWAP1 POP JUMP JUMPDEST PUSH1 0x80 MLOAD PUSH2 0x1CFE PUSH3 0x4AF PUSH1 0x0 CODECOPY PUSH1 0x0 DUP2 DUP2 PUSH2 0x366 ADD MSTORE DUP2 DUP2 PUSH2 0x396 ADD MSTORE DUP2 DUP2 PUSH2 0x551 ADD MSTORE DUP2 DUP2 PUSH2 0x6B4 ADD MSTORE DUP2 DUP2 PUSH2 0x938 ADD MSTORE PUSH2 0xAA4 ADD MSTORE PUSH2 0x1CFE PUSH1 0x0 RETURN INVALID PUSH1 0x80 PUSH1 0x40 MSTORE CALLVALUE DUP1 ISZERO PUSH2 0x10 JUMPI PUSH1 0x0 DUP1 REVERT JUMPDEST POP PUSH1 0x4 CALLDATASIZE LT PUSH2 0x12C JUMPI PUSH1 0x0 CALLDATALOAD PUSH1 0xE0 SHR DUP1 PUSH4 0x572A9302 GT PUSH2 0xAD JUMPI DUP1 PUSH4 0x8CD221C9 GT PUSH2 0x71 JUMPI DUP1 PUSH4 0x8CD221C9 EQ PUSH2 0x2B9 JUMPI DUP1 PUSH4 0x996F7D3A EQ PUSH2 0x2D7 JUMPI DUP1 PUSH4 0x9B6B9664 EQ PUSH2 0x2F5 JUMPI DUP1 PUSH4 0xAD73349E EQ PUSH2 0x313 JUMPI DUP1 PUSH4 0xC195CD6D EQ PUSH2 0x348 JUMPI PUSH2 0x12C JUMP JUMPDEST DUP1 PUSH4 0x572A9302 EQ PUSH2 0x24D JUMPI DUP1 PUSH4 0x606DEECD EQ PUSH2 0x269 JUMPI DUP1 PUSH4 0x6798699B EQ PUSH2 0x273 JUMPI DUP1 PUSH4 0x747A0C3A EQ PUSH2 0x27D JUMPI DUP1 PUSH4 0x80475516 EQ PUSH2 0x29B JUMPI PUSH2 0x12C JUMP JUMPDEST DUP1 PUSH4 0x3C7A3AFF GT PUSH2 0xF4 JUMPI DUP1 PUSH4 0x3C7A3AFF EQ PUSH2 0x1CB JUMPI DUP1 PUSH4 0x3E66A647 EQ PUSH2 0x1D5 JUMPI DUP1 PUSH4 0x4222C7FB EQ PUSH2 0x1F3 JUMPI DUP1 PUSH4 0x485D2F6C EQ PUSH2 0x211 JUMPI DUP1 PUSH4 0x4A151FA8 EQ PUSH2 0x22F JUMPI PUSH2 0x12C JUMP JUMPDEST DUP1 PUSH4 0x10E1D8CA EQ PUSH2 0x131 JUMPI DUP1 PUSH4 0x1303A484 EQ PUSH2 0x14F JUMPI DUP1 PUSH4 0x1D26190A EQ PUSH2 0x16D JUMPI DUP1 PUSH4 0x36F945CD EQ PUSH2 0x18B JUMPI DUP1 PUSH4 0x3968ECEC EQ PUSH2 0x1A7 JUMPI JUMPDEST PUSH1 0x0 DUP1 REVERT JUMPDEST PUSH2 0x139 PUSH2 0x364 JUMP JUMPDEST PUSH1 0x40 MLOAD PUSH2 0x146 SWAP2 SWAP1 PUSH2 0x1290 JUMP JUMPDEST PUSH1 0x40 MLOAD DUP1 SWAP2 SUB SWAP1 RETURN JUMPDEST PUSH2 0x157 PUSH2 0x388 JUMP JUMPDEST PUSH1 0x40 MLOAD PUSH2 0x164 SWAP2 SWAP1 PUSH2 0x12C4 JUMP JUMPDEST PUSH1 0x40 MLOAD DUP1 SWAP2 SUB SWAP1 RETURN JUMPDEST PUSH2 0x175 PUSH2 0x38E JUMP JUMPDEST PUSH1 0x40 MLOAD PUSH2 0x182 SWAP2 SWAP1 PUSH2 0x12F8 JUMP JUMPDEST PUSH1 0x40 MLOAD DUP1 SWAP2 SUB SWAP1 RETURN JUMPDEST PUSH2 0x1A5 PUSH1 0x4 DUP1 CALLDATASIZE SUB DUP2 ADD SWAP1 PUSH2 0x1A0 SWAP2 SWAP1 PUSH2 0x1344 JUMP JUMPDEST PUSH2 0x394 JUMP JUMPDEST STOP JUMPDEST PUSH2 0x1AF PUSH2 0x4B6 JUMP JUMPDEST PUSH1 0x40 MLOAD PUSH2 0x1C2 SWAP8 SWAP7 SWAP6 SWAP5 SWAP4 SWAP3 SWAP2 SWAP1 PUSH2 0x13A8 JUMP JUMPDEST PUSH1 0x40 MLOAD DUP1 SWAP2 SUB SWAP1 RETURN JUMPDEST PUSH2 0x1D3 PUSH2 0x54F JUMP JUMPDEST STOP JUMPDEST PUSH2 0x1DD PUSH2 0x68D JUMP JUMPDEST PUSH1 0x40 MLOAD PUSH2 0x1EA SWAP2 SWAP1 PUSH2 0x12F8 JUMP JUMPDEST PUSH1 0x40 MLOAD DUP1 SWAP2 SUB SWAP1 RETURN JUMPDEST PUSH2 0x1FB PUSH2 0x693 JUMP JUMPDEST PUSH1 0x40 MLOAD PUSH2 0x208 SWAP2 SWAP1 PUSH2 0x1417 JUMP JUMPDEST PUSH1 0x40 MLOAD DUP1 SWAP2 SUB SWAP1 RETURN JUMPDEST PUSH2 0x219 PUSH2 0x6A6 JUMP JUMPDEST PUSH1 0x40 MLOAD PUSH2 0x226 SWAP2 SWAP1 PUSH2 0x12C4 JUMP JUMPDEST PUSH1 0x40 MLOAD DUP1 SWAP2 SUB SWAP1 RETURN JUMPDEST PUSH2 0x237 PUSH2 0x6AC JUMP JUMPDEST PUSH1 0x40 MLOAD PUSH2 0x244 SWAP2 SWAP1 PUSH2 0x12F8 JUMP JUMPDEST PUSH1 0x40 MLOAD DUP1 SWAP2 SUB SWAP1 RETURN JUMPDEST PUSH2 0x267 PUSH1 0x4 DUP1 CALLDATASIZE SUB DUP2 ADD SWAP1 PUSH2 0x262 SWAP2 SWAP1 PUSH2 0x145E JUMP JUMPDEST PUSH2 0x6B2 JUMP JUMPDEST STOP JUMPDEST PUSH2 0x271 PUSH2 0x936 JUMP JUMPDEST STOP JUMPDEST PUSH2 0x27B PUSH2 0xB07 JUMP JUMPDEST STOP JUMPDEST PUSH2 0x285 PUSH2 0xC2D JUMP JUMPDEST PUSH1 0x40 MLOAD PUSH2 0x292 SWAP2 SWAP1 PUSH2 0x1290 JUMP JUMPDEST PUSH1 0x40 MLOAD DUP1 SWAP2 SUB SWAP1 RETURN JUMPDEST PUSH2 0x2A3 PUSH2 0xC51 JUMP JUMPDEST PUSH1 0x40 MLOAD PUSH2 0x2B0 SWAP2 SWAP1 PUSH2 0x12F8 JUMP JUMPDEST PUSH1 0x40 MLOAD DUP1 SWAP2 SUB SWAP1 RETURN JUMPDEST PUSH2 0x2C1 PUSH2 0xC57 JUMP JUMPDEST PUSH1 0x40 MLOAD PUSH2 0x2CE SWAP2 SWAP1 PUSH2 0x12F8 JUMP JUMPDEST PUSH1 0x40 MLOAD DUP1 SWAP2 SUB SWAP1 RETURN JUMPDEST PUSH2 0x2DF PUSH2 0xC5D JUMP JUMPDEST PUSH1 0x40 MLOAD PUSH2 0x2EC SWAP2 SWAP1 PUSH2 0x1290 JUMP JUMPDEST PUSH1 0x40 MLOAD DUP1 SWAP2 SUB SWAP1 RETURN JUMPDEST PUSH2 0x2FD PUSH2 0xC83 JUMP JUMPDEST PUSH1 0x40 MLOAD PUSH2 0x30A SWAP2 SWAP1 PUSH2 0x1417 JUMP JUMPDEST PUSH1 0x40 MLOAD DUP1 SWAP2 SUB SWAP1 RETURN JUMPDEST PUSH2 0x32D PUSH1 0x4 DUP1 CALLDATASIZE SUB DUP2 ADD SWAP1 PUSH2 0x328 SWAP2 SWAP1 PUSH2 0x1344 JUMP JUMPDEST PUSH2 0xC96 JUMP JUMPDEST PUSH1 0x40 MLOAD PUSH2 0x33F SWAP7 SWAP6 SWAP5 SWAP4 SWAP3 SWAP2 SWAP1 PUSH2 0x149E JUMP JUMPDEST PUSH1 0x40 MLOAD DUP1 SWAP2 SUB SWAP1 RETURN JUMPDEST PUSH2 0x362 PUSH1 0x4 DUP1 CALLDATASIZE SUB DUP2 ADD SWAP1 PUSH2 0x35D SWAP2 SWAP1 PUSH2 0x1344 JUMP JUMPDEST PUSH2 0xD06 JUMP JUMPDEST STOP JUMPDEST PUSH32 0x0 DUP2 JUMP JUMPDEST PUSH1 0x2 SLOAD DUP2 JUMP JUMPDEST PUSH1 0xA SLOAD DUP2 JUMP JUMPDEST PUSH32 0x0 PUSH20 0xFFFFFFFFFFFFFFFFFFFFFFFFFFFFFFFFFFFFFFFF AND CALLER PUSH20 0xFFFFFFFFFFFFFFFFFFFFFFFFFFFFFFFFFFFFFFFF AND EQ PUSH2 0x422 JUMPI PUSH1 0x40 MLOAD PUSH32 0x8C379A000000000000000000000000000000000000000000000000000000000 DUP2 MSTORE PUSH1 0x4 ADD PUSH2 0x419 SWAP1 PUSH2 0x155C JUMP JUMPDEST PUSH1 0x40 MLOAD DUP1 SWAP2 SUB SWAP1 REVERT JUMPDEST PUSH1 0x3C DUP2 LT ISZERO DUP1 ISZERO PUSH2 0x436 JUMPI POP PUSH3 0x93A80 DUP2 GT ISZERO JUMPDEST PUSH2 0x475 JUMPI PUSH1 0x40 MLOAD PUSH32 0x8C379A000000000000000000000000000000000000000000000000000000000 DUP2 MSTORE PUSH1 0x4 ADD PUSH2 0x46C SWAP1 PUSH2 0x15C8 JUMP JUMPDEST PUSH1 0x40 MLOAD DUP1 SWAP2 SUB SWAP1 REVERT JUMPDEST DUP1 PUSH1 0x7 DUP2 SWAP1 SSTORE POP PUSH32 0x1A1CD30E223035D872019B55A16A88E0FAD18AAC07397D463628BF771CC10B94 DUP2 PUSH1 0x40 MLOAD PUSH2 0x4AB SWAP2 SWAP1 PUSH2 0x12F8 JUMP JUMPDEST PUSH1 0x40 MLOAD DUP1 SWAP2 SUB SWAP1 LOG1 POP JUMP JUMPDEST PUSH1 0x0 DUP1 PUSH1 0x0 DUP1 PUSH1 0x0 DUP1 PUSH1 0x0 DUP1 PUSH1 0xB PUSH1 0x0 PUSH1 0x4 SLOAD DUP2 MSTORE PUSH1 0x20 ADD SWAP1 DUP2 MSTORE PUSH1 0x20 ADD PUSH1 0x0 KECCAK256 SWAP1 POP PUSH1 0x4 SLOAD PUSH1 0x5 PUSH1 0x0 SWAP1 SLOAD SWAP1 PUSH2 0x100 EXP SWAP1 DIV PUSH1 0xFF AND PUSH1 0x6 SLOAD DUP4 PUSH1 0x2 ADD PUSH1 0x3 SWAP1 SLOAD SWAP1 PUSH2 0x100 EXP SWAP1 DIV PUSH1 0xFF AND DUP5 PUSH1 0x2 ADD PUSH1 0x0 SWAP1 SLOAD SWAP1 PUSH2 0x100 EXP SWAP1 DIV PUSH1 0xFF AND DUP6 PUSH1 0x2 ADD PUSH1 0x1 SWAP1 SLOAD SWAP1 PUSH2 0x100 EXP SWAP1 DIV PUSH1 0xFF AND DUP7 PUSH1 0x2 ADD PUSH1 0x2 SWAP1 SLOAD SWAP1 PUSH2 0x100 EXP SWAP1 DIV PUSH1 0xFF AND SWAP8 POP SWAP8 POP SWAP8 POP SWAP8 POP SWAP8 POP SWAP8 POP SWAP8 POP POP SWAP1 SWAP2 SWAP3 SWAP4 SWAP5 SWAP6 SWAP7 JUMP JUMPDEST PUSH32 0x0 PUSH20 0xFFFFFFFFFFFFFFFFFFFFFFFFFFFFFFFFFFFFFFFF AND CALLER PUSH20 0xFFFFFFFFFFFFFFFFFFFFFFFFFFFFFFFFFFFFFFFF AND EQ PUSH2 0x5DD JUMPI PUSH1 0x40 MLOAD PUSH32 0x8C379A000000000000000000000000000000000000000000000000000000000 DUP2 MSTORE PUSH1 0x4 ADD PUSH2 0x5D4 SWAP1 PUSH2 0x155C JUMP JUMPDEST PUSH1 0x40 MLOAD DUP1 SWAP2 SUB SWAP1 REVERT JUMPDEST PUSH1 0x3 PUSH1 0x0 SWAP1 SLOAD SWAP1 PUSH2 0x100 EXP SWAP1 DIV PUSH1 0xFF AND ISZERO PUSH2 0x62D JUMPI PUSH1 0x40 MLOAD PUSH32 0x8C379A000000000000000000000000000000000000000000000000000000000 DUP2 MSTORE PUSH1 0x4 ADD PUSH2 0x624 SWAP1 PUSH2 0x1634 JUMP JUMPDEST PUSH1 0x40 MLOAD DUP1 SWAP2 SUB SWAP1 REVERT JUMPDEST PUSH1 0x1 PUSH1 0x3 PUSH1 0x0 PUSH2 0x100 EXP DUP2 SLOAD DUP2 PUSH1 0xFF MUL NOT AND SWAP1 DUP4 ISZERO ISZERO MUL OR SWAP1 SSTORE POP CALLER PUSH20 0xFFFFFFFFFFFFFFFFFFFFFFFFFFFFFFFFFFFFFFFF AND PUSH32 0x385D85909904C479680CFB49104DD25DD686A79A13B842E5AB5F1FAB8FA0FB2A PUSH1 0x40 MLOAD PUSH1 0x40 MLOAD DUP1 SWAP2 SUB SWAP1 LOG2 JUMP JUMPDEST PUSH1 0x6 SLOAD DUP2 JUMP JUMPDEST PUSH1 0x5 PUSH1 0x0 SWAP1 SLOAD SWAP1 PUSH2 0x100 EXP SWAP1 DIV PUSH1 0xFF AND DUP2 JUMP JUMPDEST PUSH1 0x9 SLOAD DUP2 JUMP JUMPDEST PUSH1 0x8 SLOAD DUP2 JUMP JUMPDEST PUSH32 0x0 PUSH20 0xFFFFFFFFFFFFFFFFFFFFFFFFFFFFFFFFFFFFFFFF AND CALLER PUSH20 0xFFFFFFFFFFFFFFFFFFFFFFFFFFFFFFFFFFFFFFFF AND EQ PUSH2 0x740 JUMPI PUSH1 0x40 MLOAD PUSH32 0x8C379A000000000000000000000000000000000000000000000000000000000 DUP2 MSTORE PUSH1 0x4 ADD PUSH2 0x737 SWAP1 PUSH2 0x155C JUMP JUMPDEST PUSH1 0x40 MLOAD DUP1 SWAP2 SUB SWAP1 REVERT JUMPDEST PUSH1 0x0 PUSH20 0xFFFFFFFFFFFFFFFFFFFFFFFFFFFFFFFFFFFFFFFF AND DUP3 PUSH20 0xFFFFFFFFFFFFFFFFFFFFFFFFFFFFFFFFFFFFFFFF AND EQ ISZERO DUP1 ISZERO PUSH2 0x7AA JUMPI POP PUSH1 0x0 PUSH20 0xFFFFFFFFFFFFFFFFFFFFFFFFFFFFFFFFFFFFFFFF AND DUP2 PUSH20 0xFFFFFFFFFFFFFFFFFFFFFFFFFFFFFFFFFFFFFFFF AND EQ ISZERO JUMPDEST PUSH2 0x7E9 JUMPI PUSH1 0x40 MLOAD PUSH32 0x8C379A000000000000000000000000000000000000000000000000000000000 DUP2 MSTORE PUSH1 0x4 ADD PUSH2 0x7E0 SWAP1 PUSH2 0x16A0 JUMP JUMPDEST PUSH1 0x40 MLOAD DUP1 SWAP2 SUB SWAP1 REVERT JUMPDEST DUP1 PUSH20 0xFFFFFFFFFFFFFFFFFFFFFFFFFFFFFFFFFFFFFFFF AND DUP3 PUSH20 0xFFFFFFFFFFFFFFFFFFFFFFFFFFFFFFFFFFFFFFFF AND SUB PUSH2 0x857 JUMPI PUSH1 0x40 MLOAD PUSH32 0x8C379A000000000000000000000000000000000000000000000000000000000 DUP2 MSTORE PUSH1 0x4 ADD PUSH2 0x84E SWAP1 PUSH2 0x170C JUMP JUMPDEST PUSH1 0x40 MLOAD DUP1 SWAP2 SUB SWAP1 REVERT JUMPDEST DUP2 PUSH1 0x0 DUP1 PUSH2 0x100 EXP DUP2 SLOAD DUP2 PUSH20 0xFFFFFFFFFFFFFFFFFFFFFFFFFFFFFFFFFFFFFFFF MUL NOT AND SWAP1 DUP4 PUSH20 0xFFFFFFFFFFFFFFFFFFFFFFFFFFFFFFFFFFFFFFFF AND MUL OR SWAP1 SSTORE POP DUP1 PUSH1 0x1 PUSH1 0x0 PUSH2 0x100 EXP DUP2 SLOAD DUP2 PUSH20 0xFFFFFFFFFFFFFFFFFFFFFFFFFFFFFFFFFFFFFFFF MUL NOT AND SWAP1 DUP4 PUSH20 0xFFFFFFFFFFFFFFFFFFFFFFFFFFFFFFFFFFFFFFFF AND MUL OR SWAP1 SSTORE POP DUP1 PUSH20 0xFFFFFFFFFFFFFFFFFFFFFFFFFFFFFFFFFFFFFFFF AND DUP3 PUSH20 0xFFFFFFFFFFFFFFFFFFFFFFFFFFFFFFFFFFFFFFFF AND PUSH32 0x77B9C343EE7F106DC3307E5D6D46358CAC531140C9B7F1862F8C5C7FED426953 PUSH1 0x40 MLOAD PUSH1 0x40 MLOAD DUP1 SWAP2 SUB SWAP1 LOG3 POP POP JUMP JUMPDEST PUSH32 0x0 PUSH20 0xFFFFFFFFFFFFFFFFFFFFFFFFFFFFFFFFFFFFFFFF AND CALLER PUSH20 0xFFFFFFFFFFFFFFFFFFFFFFFFFFFFFFFFFFFFFFFF AND EQ PUSH2 0x9C4 JUMPI PUSH1 0x40 MLOAD PUSH32 0x8C379A000000000000000000000000000000000000000000000000000000000 DUP2 MSTORE PUSH1 0x4 ADD PUSH2 0x9BB SWAP1 PUSH2 0x155C JUMP JUMPDEST PUSH1 0x40 MLOAD DUP1 SWAP2 SUB SWAP1 REVERT JUMPDEST PUSH1 0x3 PUSH1 0x0 SWAP1 SLOAD SWAP1 PUSH2 0x100 EXP SWAP1 DIV PUSH1 0xFF AND PUSH2 0xA13 JUMPI PUSH1 0x40 MLOAD PUSH32 0x8C379A000000000000000000000000000000000000000000000000000000000 DUP2 MSTORE PUSH1 0x4 ADD PUSH2 0xA0A SWAP1 PUSH2 0x1778 JUMP JUMPDEST PUSH1 0x40 MLOAD DUP1 SWAP2 SUB SWAP1 REVERT JUMPDEST PUSH1 0x5 PUSH1 0x0 SWAP1 SLOAD SWAP1 PUSH2 0x100 EXP SWAP1 DIV PUSH1 0xFF AND ISZERO PUSH2 0xA63 JUMPI PUSH1 0x40 MLOAD PUSH32 0x8C379A000000000000000000000000000000000000000000000000000000000 DUP2 MSTORE PUSH1 0x4 ADD PUSH2 0xA5A SWAP1 PUSH2 0x17E4 JUMP JUMPDEST PUSH1 0x40 MLOAD DUP1 SWAP2 SUB SWAP1 REVERT JUMPDEST PUSH1 0x1 PUSH1 0x4 PUSH1 0x0 DUP3 DUP3 SLOAD PUSH2 0xA76 SWAP2 SWAP1 PUSH2 0x1833 JUMP JUMPDEST SWAP3 POP POP DUP2 SWAP1 SSTORE POP PUSH1 0x1 PUSH1 0x5 PUSH1 0x0 PUSH2 0x100 EXP DUP2 SLOAD DUP2 PUSH1 0xFF MUL NOT AND SWAP1 DUP4 ISZERO ISZERO MUL OR SWAP1 SSTORE POP TIMESTAMP PUSH1 0x6 DUP2 SWAP1 SSTORE POP PUSH1 0x4 SLOAD PUSH32 0x0 PUSH20 0xFFFFFFFFFFFFFFFFFFFFFFFFFFFFFFFFFFFFFFFF AND PUSH32 0x3FE96A3CCC27BC4C37D7FC553FDCA8E6C351F415B8FD16C0C7F49CC57A40A178 PUSH1 0x40 MLOAD PUSH1 0x40 MLOAD DUP1 SWAP2 SUB SWAP1 LOG3 JUMP JUMPDEST PUSH1 0x5 PUSH1 0x0 SWAP1 SLOAD SWAP1 PUSH2 0x100 EXP SWAP1 DIV PUSH1 0xFF AND PUSH2 0xB56 JUMPI PUSH1 0x40 MLOAD PUSH32 0x8C379A000000000000000000000000000000000000000000000000000000000 DUP2 MSTORE PUSH1 0x4 ADD PUSH2 0xB4D SWAP1 PUSH2 0x18B3 JUMP JUMPDEST PUSH1 0x40 MLOAD DUP1 SWAP2 SUB SWAP1 REVERT JUMPDEST PUSH1 0x7 SLOAD PUSH1 0x6 SLOAD PUSH2 0xB66 SWAP2 SWAP1 PUSH2 0x1833 JUMP JUMPDEST TIMESTAMP GT PUSH2 0xBA7 JUMPI PUSH1 0x40 MLOAD PUSH32 0x8C379A000000000000000000000000000000000000000000000000000000000 DUP2 MSTORE PUSH1 0x4 ADD PUSH2 0xB9E SWAP1 PUSH2 0x191F JUMP JUMPDEST PUSH1 0x40 MLOAD DUP1 SWAP2 SUB SWAP1 REVERT JUMPDEST PUSH1 0x0 PUSH1 0x5 PUSH1 0x0 PUSH2 0x100 EXP DUP2 SLOAD DUP2 PUSH1 0xFF MUL NOT AND SWAP1 DUP4 ISZERO ISZERO MUL OR SWAP1 SSTORE POP PUSH1 0x1 PUSH1 0xB PUSH1 0x0 PUSH1 0x4 SLOAD DUP2 MSTORE PUSH1 0x20 ADD SWAP1 DUP2 MSTORE PUSH1 0x20 ADD PUSH1 0x0 KECCAK256 PUSH1 0x2 ADD PUSH1 0x2 PUSH2 0x100 EXP DUP2 SLOAD DUP2 PUSH1 0xFF MUL NOT AND SWAP1 DUP4 ISZERO ISZERO MUL OR SWAP1 SSTORE POP PUSH1 0x4 SLOAD PUSH32 0xBC1F2817C8DA8AA582F7FE3340AAA9AB36778FEEB860785EDF2C078ABC221C99 PUSH1 0x40 MLOAD PUSH2 0xC23 SWAP1 PUSH2 0x198B JUMP JUMPDEST PUSH1 0x40 MLOAD DUP1 SWAP2 SUB SWAP1 LOG2 JUMP JUMPDEST PUSH1 0x0 DUP1 SLOAD SWAP1 PUSH2 0x100 EXP SWAP1 DIV PUSH20 0xFFFFFFFFFFFFFFFFFFFFFFFFFFFFFFFFFFFFFFFF AND DUP2 JUMP JUMPDEST PUSH1 0x7 SLOAD DUP2 JUMP JUMPDEST PUSH1 0x4 SLOAD DUP2 JUMP JUMPDEST PUSH1 0x1 PUSH1 0x0 SWAP1 SLOAD SWAP1 PUSH2 0x100 EXP SWAP1 DIV PUSH20 0xFFFFFFFFFFFFFFFFFFFFFFFFFFFFFFFFFFFFFFFF AND DUP2 JUMP JUMPDEST PUSH1 0x3 PUSH1 0x0 SWAP1 SLOAD SWAP1 PUSH2 0x100 EXP SWAP1 DIV PUSH1 0xFF AND DUP2 JUMP JUMPDEST PUSH1 0xB PUSH1 0x20 MSTORE DUP1 PUSH1 0x0 MSTORE PUSH1 0x40 PUSH1 0x0 KECCAK256 PUSH1 0x0 SWAP2 POP SWAP1 POP DUP1 PUSH1 0x0 ADD SLOAD SWAP1 DUP1 PUSH1 0x1 ADD SLOAD SWAP1 DUP1 PUSH1 0x2 ADD PUSH1 0x0 SWAP1 SLOAD SWAP1 PUSH2 0x100 EXP SWAP1 DIV PUSH1 0xFF AND SWAP1 DUP1 PUSH1 0x2 ADD PUSH1 0x1 SWAP1 SLOAD SWAP1 PUSH2 0x100 EXP SWAP1 DIV PUSH1 0xFF AND SWAP1 DUP1 PUSH1 0x2 ADD PUSH1 0x2 SWAP1 SLOAD SWAP1 PUSH2 0x100 EXP SWAP1 DIV PUSH1 0xFF AND SWAP1 DUP1 PUSH1 0x2 ADD PUSH1 0x3 SWAP1 SLOAD SWAP1 PUSH2 0x100 EXP SWAP1 DIV PUSH1 0xFF AND SWAP1 POP DUP7 JUMP JUMPDEST PUSH1 0x0 DUP1 SLOAD SWAP1 PUSH2 0x100 EXP SWAP1 DIV PUSH20 0xFFFFFFFFFFFFFFFFFFFFFFFFFFFFFFFFFFFFFFFF AND PUSH20 0xFFFFFFFFFFFFFFFFFFFFFFFFFFFFFFFFFFFFFFFF AND CALLER PUSH20 0xFFFFFFFFFFFFFFFFFFFFFFFFFFFFFFFFFFFFFFFF AND EQ DUP1 PUSH2 0xDAD JUMPI POP PUSH1 0x1 PUSH1 0x0 SWAP1 SLOAD SWAP1 PUSH2 0x100 EXP SWAP1 DIV PUSH20 0xFFFFFFFFFFFFFFFFFFFFFFFFFFFFFFFFFFFFFFFF AND PUSH20 0xFFFFFFFFFFFFFFFFFFFFFFFFFFFFFFFFFFFFFFFF AND CALLER PUSH20 0xFFFFFFFFFFFFFFFFFFFFFFFFFFFFFFFFFFFFFFFF AND EQ JUMPDEST PUSH2 0xDEC JUMPI PUSH1 0x40 MLOAD PUSH32 0x8C379A000000000000000000000000000000000000000000000000000000000 DUP2 MSTORE PUSH1 0x4 ADD PUSH2 0xDE3 SWAP1 PUSH2 0x19F7 JUMP JUMPDEST PUSH1 0x40 MLOAD DUP1 SWAP2 SUB SWAP1 REVERT JUMPDEST PUSH1 0x5 PUSH1 0x0 SWAP1 SLOAD SWAP1 PUSH2 0x100 EXP SWAP1 DIV PUSH1 0xFF AND PUSH2 0xE3B JUMPI PUSH1 0x40 MLOAD PUSH32 0x8C379A000000000000000000000000000000000000000000000000000000000 DUP2 MSTORE PUSH1 0x4 ADD PUSH2 0xE32 SWAP1 PUSH2 0x18B3 JUMP JUMPDEST PUSH1 0x40 MLOAD DUP1 SWAP2 SUB SWAP1 REVERT JUMPDEST PUSH1 0x0 PUSH1 0xB PUSH1 0x0 PUSH1 0x4 SLOAD DUP2 MSTORE PUSH1 0x20 ADD SWAP1 DUP2 MSTORE PUSH1 0x20 ADD PUSH1 0x0 KECCAK256 SWAP1 POP DUP1 PUSH1 0x2 ADD PUSH1 0x2 SWAP1 SLOAD SWAP1 PUSH2 0x100 EXP SWAP1 DIV PUSH1 0xFF AND ISZERO PUSH2 0xEA6 JUMPI PUSH1 0x40 MLOAD PUSH32 0x8C379A000000000000000000000000000000000000000000000000000000000 DUP2 MSTORE PUSH1 0x4 ADD PUSH2 0xE9D SWAP1 PUSH2 0x1A63 JUMP JUMPDEST PUSH1 0x40 MLOAD DUP1 SWAP2 SUB SWAP1 REVERT JUMPDEST PUSH1 0x0 DUP1 SLOAD SWAP1 PUSH2 0x100 EXP SWAP1 DIV PUSH20 0xFFFFFFFFFFFFFFFFFFFFFFFFFFFFFFFFFFFFFFFF AND PUSH20 0xFFFFFFFFFFFFFFFFFFFFFFFFFFFFFFFFFFFFFFFF AND CALLER PUSH20 0xFFFFFFFFFFFFFFFFFFFFFFFFFFFFFFFFFFFFFFFF AND SUB PUSH2 0xFAF JUMPI DUP1 PUSH1 0x2 ADD PUSH1 0x0 SWAP1 SLOAD SWAP1 PUSH2 0x100 EXP SWAP1 DIV PUSH1 0xFF AND ISZERO PUSH2 0xF4B JUMPI PUSH1 0x40 MLOAD PUSH32 0x8C379A000000000000000000000000000000000000000000000000000000000 DUP2 MSTORE PUSH1 0x4 ADD PUSH2 0xF42 SWAP1 PUSH2 0x1ACF JUMP JUMPDEST PUSH1 0x40 MLOAD DUP1 SWAP2 SUB SWAP1 REVERT JUMPDEST DUP2 DUP2 PUSH1 0x0 ADD DUP2 SWAP1 SSTORE POP PUSH1 0x1 DUP2 PUSH1 0x2 ADD PUSH1 0x0 PUSH2 0x100 EXP DUP2 SLOAD DUP2 PUSH1 0xFF MUL NOT AND SWAP1 DUP4 ISZERO ISZERO MUL OR SWAP1 SSTORE POP PUSH1 0x1 DUP2 PUSH1 0x2 ADD PUSH1 0x3 DUP3 DUP3 DUP3 SWAP1 SLOAD SWAP1 PUSH2 0x100 EXP SWAP1 DIV PUSH1 0xFF AND PUSH2 0xF92 SWAP2 SWAP1 PUSH2 0x1AEF JUMP JUMPDEST SWAP3 POP PUSH2 0x100 EXP DUP2 SLOAD DUP2 PUSH1 0xFF MUL NOT AND SWAP1 DUP4 PUSH1 0xFF AND MUL OR SWAP1 SSTORE POP PUSH2 0x1061 JUMP JUMPDEST DUP1 PUSH1 0x2 ADD PUSH1 0x1 SWAP1 SLOAD SWAP1 PUSH2 0x100 EXP SWAP1 DIV PUSH1 0xFF AND ISZERO PUSH2 0x1001 JUMPI PUSH1 0x40 MLOAD PUSH32 0x8C379A000000000000000000000000000000000000000000000000000000000 DUP2 MSTORE PUSH1 0x4 ADD PUSH2 0xFF8 SWAP1 PUSH2 0x1B70 JUMP JUMPDEST PUSH1 0x40 MLOAD DUP1 SWAP2 SUB SWAP1 REVERT JUMPDEST DUP2 DUP2 PUSH1 0x1 ADD DUP2 SWAP1 SSTORE POP PUSH1 0x1 DUP2 PUSH1 0x2 ADD PUSH1 0x1 PUSH2 0x100 EXP DUP2 SLOAD DUP2 PUSH1 0xFF MUL NOT AND SWAP1 DUP4 ISZERO ISZERO MUL OR SWAP1 SSTORE POP PUSH1 0x1 DUP2 PUSH1 0x2 ADD PUSH1 0x3 DUP3 DUP3 DUP3 SWAP1 SLOAD SWAP1 PUSH2 0x100 EXP SWAP1 DIV PUSH1 0xFF AND PUSH2 0x1048 SWAP2 SWAP1 PUSH2 0x1AEF JUMP JUMPDEST SWAP3 POP PUSH2 0x100 EXP DUP2 SLOAD DUP2 PUSH1 0xFF MUL NOT AND SWAP1 DUP4 PUSH1 0xFF AND MUL OR SWAP1 SSTORE POP JUMPDEST PUSH1 0x4 SLOAD CALLER PUSH20 0xFFFFFFFFFFFFFFFFFFFFFFFFFFFFFFFFFFFFFFFF AND PUSH32 0x4A4AEF11802D4CBEC5B5520552CE8AA8995A74F076415D72B8A4A0344F90C932 DUP5 PUSH1 0x40 MLOAD PUSH2 0x10AA SWAP2 SWAP1 PUSH2 0x12F8 JUMP JUMPDEST PUSH1 0x40 MLOAD DUP1 SWAP2 SUB SWAP1 LOG3 PUSH1 0x2 DUP2 PUSH1 0x2 ADD PUSH1 0x3 SWAP1 SLOAD SWAP1 PUSH2 0x100 EXP SWAP1 DIV PUSH1 0xFF AND PUSH1 0xFF AND SUB PUSH2 0x10DA JUMPI PUSH2 0x10D9 PUSH1 0x4 SLOAD PUSH2 0x10DE JUMP JUMPDEST JUMPDEST POP POP JUMP JUMPDEST PUSH1 0x0 PUSH1 0xB PUSH1 0x0 DUP4 DUP2 MSTORE PUSH1 0x20 ADD SWAP1 DUP2 MSTORE PUSH1 0x20 ADD PUSH1 0x0 KECCAK256 SWAP1 POP PUSH1 0x2 DUP2 PUSH1 0x2 ADD PUSH1 0x3 SWAP1 SLOAD SWAP1 PUSH2 0x100 EXP SWAP1 DIV PUSH1 0xFF AND PUSH1 0xFF AND EQ PUSH2 0x114C JUMPI PUSH1 0x40 MLOAD PUSH32 0x8C379A000000000000000000000000000000000000000000000000000000000 DUP2 MSTORE PUSH1 0x4 ADD PUSH2 0x1143 SWAP1 PUSH2 0x1BDC JUMP JUMPDEST PUSH1 0x40 MLOAD DUP1 SWAP2 SUB SWAP1 REVERT JUMPDEST DUP1 PUSH1 0x2 ADD PUSH1 0x2 SWAP1 SLOAD SWAP1 PUSH2 0x100 EXP SWAP1 DIV PUSH1 0xFF AND ISZERO PUSH2 0x119E JUMPI PUSH1 0x40 MLOAD PUSH32 0x8C379A000000000000000000000000000000000000000000000000000000000 DUP2 MSTORE PUSH1 0x4 ADD PUSH2 0x1195 SWAP1 PUSH2 0x1C48 JUMP JUMPDEST PUSH1 0x40 MLOAD DUP1 SWAP2 SUB SWAP1 REVERT JUMPDEST PUSH1 0x0 PUSH1 0x2 DUP3 PUSH1 0x1 ADD SLOAD DUP4 PUSH1 0x0 ADD SLOAD PUSH2 0x11B6 SWAP2 SWAP1 PUSH2 0x1833 JUMP JUMPDEST PUSH2 0x11C0 SWAP2 SWAP1 PUSH2 0x1C97 JUMP JUMPDEST SWAP1 POP DUP1 PUSH1 0x8 DUP2 SWAP1 SSTORE POP DUP1 PUSH1 0x0 SHL PUSH1 0x9 DUP2 SWAP1 SSTORE POP DUP3 PUSH1 0xA DUP2 SWAP1 SSTORE POP PUSH1 0x1 DUP3 PUSH1 0x2 ADD PUSH1 0x2 PUSH2 0x100 EXP DUP2 SLOAD DUP2 PUSH1 0xFF MUL NOT AND SWAP1 DUP4 ISZERO ISZERO MUL OR SWAP1 SSTORE POP PUSH1 0x0 PUSH1 0x5 PUSH1 0x0 PUSH2 0x100 EXP DUP2 SLOAD DUP2 PUSH1 0xFF MUL NOT AND SWAP1 DUP4 ISZERO ISZERO MUL OR SWAP1 SSTORE POP DUP3 PUSH32 0x7D0B66134FA67D827ADE897B74D8188A5D4BF8F648339633B4C453667DDCBA8E DUP3 PUSH1 0x40 MLOAD PUSH2 0x1242 SWAP2 SWAP1 PUSH2 0x12F8 JUMP JUMPDEST PUSH1 0x40 MLOAD DUP1 SWAP2 SUB SWAP1 LOG2 POP POP POP JUMP JUMPDEST PUSH1 0x0 PUSH20 0xFFFFFFFFFFFFFFFFFFFFFFFFFFFFFFFFFFFFFFFF DUP3 AND SWAP1 POP SWAP2 SWAP1 POP JUMP JUMPDEST PUSH1 0x0 PUSH2 0x127A DUP3 PUSH2 0x124F JUMP JUMPDEST SWAP1 POP SWAP2 SWAP1 POP JUMP JUMPDEST PUSH2 0x128A DUP2 PUSH2 0x126F JUMP JUMPDEST DUP3 MSTORE POP POP JUMP JUMPDEST PUSH1 0x0 PUSH1 0x20 DUP3 ADD SWAP1 POP PUSH2 0x12A5 PUSH1 0x0 DUP4 ADD DUP5 PUSH2 0x1281 JUMP JUMPDEST SWAP3 SWAP2 POP POP JUMP JUMPDEST PUSH1 0x0 DUP2 SWAP1 POP SWAP2 SWAP1 POP JUMP JUMPDEST PUSH2 0x12BE DUP2 PUSH2 0x12AB JUMP JUMPDEST DUP3 MSTORE POP POP JUMP JUMPDEST PUSH1 0x0 PUSH1 0x20 DUP3 ADD SWAP1 POP PUSH2 0x12D9 PUSH1 0x0 DUP4 ADD DUP5 PUSH2 0x12B5 JUMP JUMPDEST SWAP3 SWAP2 POP POP JUMP JUMPDEST PUSH1 0x0 DUP2 SWAP1 POP SWAP2 SWAP1 POP JUMP JUMPDEST PUSH2 0x12F2 DUP2 PUSH2 0x12DF JUMP JUMPDEST DUP3 MSTORE POP POP JUMP JUMPDEST PUSH1 0x0 PUSH1 0x20 DUP3 ADD SWAP1 POP PUSH2 0x130D PUSH1 0x0 DUP4 ADD DUP5 PUSH2 0x12E9 JUMP JUMPDEST SWAP3 SWAP2 POP POP JUMP JUMPDEST PUSH1 0x0 DUP1 REVERT JUMPDEST PUSH2 0x1321 DUP2 PUSH2 0x12DF JUMP JUMPDEST DUP2 EQ PUSH2 0x132C JUMPI PUSH1 0x0 DUP1 REVERT JUMPDEST POP JUMP JUMPDEST PUSH1 0x0 DUP2 CALLDATALOAD SWAP1 POP PUSH2 0x133E DUP2 PUSH2 0x1318 JUMP JUMPDEST SWAP3 SWAP2 POP POP JUMP JUMPDEST PUSH1 0x0 PUSH1 0x20 DUP3 DUP5 SUB SLT ISZERO PUSH2 0x135A JUMPI PUSH2 0x1359 PUSH2 0x1313 JUMP JUMPDEST JUMPDEST PUSH1 0x0 PUSH2 0x1368 DUP5 DUP3 DUP6 ADD PUSH2 0x132F JUMP JUMPDEST SWAP2 POP POP SWAP3 SWAP2 POP POP JUMP JUMPDEST PUSH1 0x0 DUP2 ISZERO ISZERO SWAP1 POP SWAP2 SWAP1 POP JUMP JUMPDEST PUSH2 0x1386 DUP2 PUSH2 0x1371 JUMP JUMPDEST DUP3 MSTORE POP POP JUMP JUMPDEST PUSH1 0x0 PUSH1 0xFF DUP3 AND SWAP1 POP SWAP2 SWAP1 POP JUMP JUMPDEST PUSH2 0x13A2 DUP2 PUSH2 0x138C JUMP JUMPDEST DUP3 MSTORE POP POP JUMP JUMPDEST PUSH1 0x0 PUSH1 0xE0 DUP3 ADD SWAP1 POP PUSH2 0x13BD PUSH1 0x0 DUP4 ADD DUP11 PUSH2 0x12E9 JUMP JUMPDEST PUSH2 0x13CA PUSH1 0x20 DUP4 ADD DUP10 PUSH2 0x137D JUMP JUMPDEST PUSH2 0x13D7 PUSH1 0x40 DUP4 ADD DUP9 PUSH2 0x12E9 JUMP JUMPDEST PUSH2 0x13E4 PUSH1 0x60 DUP4 ADD DUP8 PUSH2 0x1399 JUMP JUMPDEST PUSH2 0x13F1 PUSH1 0x80 DUP4 ADD DUP7 PUSH2 0x137D JUMP JUMPDEST PUSH2 0x13FE PUSH1 0xA0 DUP4 ADD DUP6 PUSH2 0x137D JUMP JUMPDEST PUSH2 0x140B PUSH1 0xC0 DUP4 ADD DUP5 PUSH2 0x137D JUMP JUMPDEST SWAP9 SWAP8 POP POP POP POP POP POP POP POP JUMP JUMPDEST PUSH1 0x0 PUSH1 0x20 DUP3 ADD SWAP1 POP PUSH2 0x142C PUSH1 0x0 DUP4 ADD DUP5 PUSH2 0x137D JUMP JUMPDEST SWAP3 SWAP2 POP POP JUMP JUMPDEST PUSH2 0x143B DUP2 PUSH2 0x126F JUMP JUMPDEST DUP2 EQ PUSH2 0x1446 JUMPI PUSH1 0x0 DUP1 REVERT JUMPDEST POP JUMP JUMPDEST PUSH1 0x0 DUP2 CALLDATALOAD SWAP1 POP PUSH2 0x1458 DUP2 PUSH2 0x1432 JUMP JUMPDEST SWAP3 SWAP2 POP POP JUMP JUMPDEST PUSH1 0x0 DUP1 PUSH1 0x40 DUP4 DUP6 SUB SLT ISZERO PUSH2 0x1475 JUMPI PUSH2 0x1474 PUSH2 0x1313 JUMP JUMPDEST JUMPDEST PUSH1 0x0 PUSH2 0x1483 DUP6 DUP3 DUP7 ADD PUSH2 0x1449 JUMP JUMPDEST SWAP3 POP POP PUSH1 0x20 PUSH2 0x1494 DUP6 DUP3 DUP7 ADD PUSH2 0x1449 JUMP JUMPDEST SWAP2 POP POP SWAP3 POP SWAP3 SWAP1 POP JUMP JUMPDEST PUSH1 0x0 PUSH1 0xC0 DUP3 ADD SWAP1 POP PUSH2 0x14B3 PUSH1 0x0 DUP4 ADD DUP10 PUSH2 0x12E9 JUMP JUMPDEST PUSH2 0x14C0 PUSH1 0x20 DUP4 ADD DUP9 PUSH2 0x12E9 JUMP JUMPDEST PUSH2 0x14CD PUSH1 0x40 DUP4 ADD DUP8 PUSH2 0x137D JUMP JUMPDEST PUSH2 0x14DA PUSH1 0x60 DUP4 ADD DUP7 PUSH2 0x137D JUMP JUMPDEST PUSH2 0x14E7 PUSH1 0x80 DUP4 ADD DUP6 PUSH2 0x137D JUMP JUMPDEST PUSH2 0x14F4 PUSH1 0xA0 DUP4 ADD DUP5 PUSH2 0x1399 JUMP JUMPDEST SWAP8 SWAP7 POP POP POP POP POP POP POP JUMP JUMPDEST PUSH1 0x0 DUP3 DUP3 MSTORE PUSH1 0x20 DUP3 ADD SWAP1 POP SWAP3 SWAP2 POP POP JUMP JUMPDEST PUSH32 0x4E6F742050617274794100000000000000000000000000000000000000000000 PUSH1 0x0 DUP3 ADD MSTORE POP JUMP JUMPDEST PUSH1 0x0 PUSH2 0x1546 PUSH1 0xA DUP4 PUSH2 0x14FF JUMP JUMPDEST SWAP2 POP PUSH2 0x1551 DUP3 PUSH2 0x1510 JUMP JUMPDEST PUSH1 0x20 DUP3 ADD SWAP1 POP SWAP2 SWAP1 POP JUMP JUMPDEST PUSH1 0x0 PUSH1 0x20 DUP3 ADD SWAP1 POP DUP2 DUP2 SUB PUSH1 0x0 DUP4 ADD MSTORE PUSH2 0x1575 DUP2 PUSH2 0x1539 JUMP JUMPDEST SWAP1 POP SWAP2 SWAP1 POP JUMP JUMPDEST PUSH32 0x54696D656F7574206F7574206F662072616E6765000000000000000000000000 PUSH1 0x0 DUP3 ADD MSTORE POP JUMP JUMPDEST PUSH1 0x0 PUSH2 0x15B2 PUSH1 0x14 DUP4 PUSH2 0x14FF JUMP JUMPDEST SWAP2 POP PUSH2 0x15BD DUP3 PUSH2 0x157C JUMP JUMPDEST PUSH1 0x20 DUP3 ADD SWAP1 POP SWAP2 SWAP1 POP JUMP JUMPDEST PUSH1 0x0 PUSH1 0x20 DUP3 ADD SWAP1 POP DUP2 DUP2 SUB PUSH1 0x0 DUP4 ADD MSTORE PUSH2 0x15E1 DUP2 PUSH2 0x15A5 JUMP JUMPDEST SWAP1 POP SWAP2 SWAP1 POP JUMP JUMPDEST PUSH32 0x416C726561647920636F6D6D6974746564000000000000000000000000000000 PUSH1 0x0 DUP3 ADD MSTORE POP JUMP JUMPDEST PUSH1 0x0 PUSH2 0x161E PUSH1 0x11 DUP4 PUSH2 0x14FF JUMP JUMPDEST SWAP2 POP PUSH2 0x1629 DUP3 PUSH2 0x15E8 JUMP JUMPDEST PUSH1 0x20 DUP3 ADD SWAP1 POP SWAP2 SWAP1 POP JUMP JUMPDEST PUSH1 0x0 PUSH1 0x20 DUP3 ADD SWAP1 POP DUP2 DUP2 SUB PUSH1 0x0 DUP4 ADD MSTORE PUSH2 0x164D DUP2 PUSH2 0x1611 JUMP JUMPDEST SWAP1 POP SWAP2 SWAP1 POP JUMP JUMPDEST PUSH32 0x4F7261636C65206973207A65726F000000000000000000000000000000000000 PUSH1 0x0 DUP3 ADD MSTORE POP JUMP JUMPDEST PUSH1 0x0 PUSH2 0x168A PUSH1 0xE DUP4 PUSH2 0x14FF JUMP JUMPDEST SWAP2 POP PUSH2 0x1695 DUP3 PUSH2 0x1654 JUMP JUMPDEST PUSH1 0x20 DUP3 ADD SWAP1 POP SWAP2 SWAP1 POP JUMP JUMPDEST PUSH1 0x0 PUSH1 0x20 DUP3 ADD SWAP1 POP DUP2 DUP2 SUB PUSH1 0x0 DUP4 ADD MSTORE PUSH2 0x16B9 DUP2 PUSH2 0x167D JUMP JUMPDEST SWAP1 POP SWAP2 SWAP1 POP JUMP JUMPDEST PUSH32 0x4F7261636C6573206D7573742064696666657200000000000000000000000000 PUSH1 0x0 DUP3 ADD MSTORE POP JUMP JUMPDEST PUSH1 0x0 PUSH2 0x16F6 PUSH1 0x13 DUP4 PUSH2 0x14FF JUMP JUMPDEST SWAP2 POP PUSH2 0x1701 DUP3 PUSH2 0x16C0 JUMP JUMPDEST PUSH1 0x20 DUP3 ADD SWAP1 POP SWAP2 SWAP1 POP JUMP JUMPDEST PUSH1 0x0 PUSH1 0x20 DUP3 ADD SWAP1 POP DUP2 DUP2 SUB PUSH1 0x0 DUP4 ADD MSTORE PUSH2 0x1725 DUP2 PUSH2 0x16E9 JUMP JUMPDEST SWAP1 POP SWAP2 SWAP1 POP JUMP JUMPDEST PUSH32 0x436F6D6D69742066697273740000000000000000000000000000000000000000 PUSH1 0x0 DUP3 ADD MSTORE POP JUMP JUMPDEST PUSH1 0x0 PUSH2 0x1762 PUSH1 0xC DUP4 PUSH2 0x14FF JUMP JUMPDEST SWAP2 POP PUSH2 0x176D DUP3 PUSH2 0x172C JUMP JUMPDEST PUSH1 0x20 DUP3 ADD SWAP1 POP SWAP2 SWAP1 POP JUMP JUMPDEST PUSH1 0x0 PUSH1 0x20 DUP3 ADD SWAP1 POP DUP2 DUP2 SUB PUSH1 0x0 DUP4 ADD MSTORE PUSH2 0x1791 DUP2 PUSH2 0x1755 JUMP JUMPDEST SWAP1 POP SWAP2 SWAP1 POP JUMP JUMPDEST PUSH32 0x50726576696F75732072657175657374207374696C6C20616374697665000000 PUSH1 0x0 DUP3 ADD MSTORE POP JUMP JUMPDEST PUSH1 0x0 PUSH2 0x17CE PUSH1 0x1D DUP4 PUSH2 0x14FF JUMP JUMPDEST SWAP2 POP PUSH2 0x17D9 DUP3 PUSH2 0x1798 JUMP JUMPDEST PUSH1 0x20 DUP3 ADD SWAP1 POP SWAP2 SWAP1 POP JUMP JUMPDEST PUSH1 0x0 PUSH1 0x20 DUP3 ADD SWAP1 POP DUP2 DUP2 SUB PUSH1 0x0 DUP4 ADD MSTORE PUSH2 0x17FD DUP2 PUSH2 0x17C1 JUMP JUMPDEST SWAP1 POP SWAP2 SWAP1 POP JUMP JUMPDEST PUSH32 0x4E487B7100000000000000000000000000000000000000000000000000000000 PUSH1 0x0 MSTORE PUSH1 0x11 PUSH1 0x4 MSTORE PUSH1 0x24 PUSH1 0x0 REVERT JUMPDEST PUSH1 0x0 PUSH2 0x183E DUP3 PUSH2 0x12DF JUMP JUMPDEST SWAP2 POP PUSH2 0x1849 DUP4 PUSH2 0x12DF JUMP JUMPDEST SWAP3 POP DUP3 DUP3 ADD SWAP1 POP DUP1 DUP3 GT ISZERO PUSH2 0x1861 JUMPI PUSH2 0x1860 PUSH2 0x1804 JUMP JUMPDEST JUMPDEST SWAP3 SWAP2 POP POP JUMP JUMPDEST PUSH32 0x4E6F206163746976652072657175657374000000000000000000000000000000 PUSH1 0x0 DUP3 ADD MSTORE POP JUMP JUMPDEST PUSH1 0x0 PUSH2 0x189D PUSH1 0x11 DUP4 PUSH2 0x14FF JUMP JUMPDEST SWAP2 POP PUSH2 0x18A8 DUP3 PUSH2 0x1867 JUMP JUMPDEST PUSH1 0x20 DUP3 ADD SWAP1 POP SWAP2 SWAP1 POP JUMP JUMPDEST PUSH1 0x0 PUSH1 0x20 DUP3 ADD SWAP1 POP DUP2 DUP2 SUB PUSH1 0x0 DUP4 ADD MSTORE PUSH2 0x18CC DUP2 PUSH2 0x1890 JUMP JUMPDEST SWAP1 POP SWAP2 SWAP1 POP JUMP JUMPDEST PUSH32 0x4E6F742074696D6564206F757420796574000000000000000000000000000000 PUSH1 0x0 DUP3 ADD MSTORE POP JUMP JUMPDEST PUSH1 0x0 PUSH2 0x1909 PUSH1 0x11 DUP4 PUSH2 0x14FF JUMP JUMPDEST SWAP2 POP PUSH2 0x1914 DUP3 PUSH2 0x18D3 JUMP JUMPDEST PUSH1 0x20 DUP3 ADD SWAP1 POP SWAP2 SWAP1 POP JUMP JUMPDEST PUSH1 0x0 PUSH1 0x20 DUP3 ADD SWAP1 POP DUP2 DUP2 SUB PUSH1 0x0 DUP4 ADD MSTORE PUSH2 0x1938 DUP2 PUSH2 0x18FC JUMP JUMPDEST SWAP1 POP SWAP2 SWAP1 POP JUMP JUMPDEST PUSH32 0x74696D656F757400000000000000000000000000000000000000000000000000 PUSH1 0x0 DUP3 ADD MSTORE POP JUMP JUMPDEST PUSH1 0x0 PUSH2 0x1975 PUSH1 0x7 DUP4 PUSH2 0x14FF JUMP JUMPDEST SWAP2 POP PUSH2 0x1980 DUP3 PUSH2 0x193F JUMP JUMPDEST PUSH1 0x20 DUP3 ADD SWAP1 POP SWAP2 SWAP1 POP JUMP JUMPDEST PUSH1 0x0 PUSH1 0x20 DUP3 ADD SWAP1 POP DUP2 DUP2 SUB PUSH1 0x0 DUP4 ADD MSTORE PUSH2 0x19A4 DUP2 PUSH2 0x1968 JUMP JUMPDEST SWAP1 POP SWAP2 SWAP1 POP JUMP JUMPDEST PUSH32 0x4E6F742077686974656C6973746564206F7261636C6500000000000000000000 PUSH1 0x0 DUP3 ADD MSTORE POP JUMP JUMPDEST PUSH1 0x0 PUSH2 0x19E1 PUSH1 0x16 DUP4 PUSH2 0x14FF JUMP JUMPDEST SWAP2 POP PUSH2 0x19EC DUP3 PUSH2 0x19AB JUMP JUMPDEST PUSH1 0x20 DUP3 ADD SWAP1 POP SWAP2 SWAP1 POP JUMP JUMPDEST PUSH1 0x0 PUSH1 0x20 DUP3 ADD SWAP1 POP DUP2 DUP2 SUB PUSH1 0x0 DUP4 ADD MSTORE PUSH2 0x1A10 DUP2 PUSH2 0x19D4 JUMP JUMPDEST SWAP1 POP SWAP2 SWAP1 POP JUMP JUMPDEST PUSH32 0x526F756E6420616C72656164792066696E616C697A6564000000000000000000 PUSH1 0x0 DUP3 ADD MSTORE POP JUMP JUMPDEST PUSH1 0x0 PUSH2 0x1A4D PUSH1 0x17 DUP4 PUSH2 0x14FF JUMP JUMPDEST SWAP2 POP PUSH2 0x1A58 DUP3 PUSH2 0x1A17 JUMP JUMPDEST PUSH1 0x20 DUP3 ADD SWAP1 POP SWAP2 SWAP1 POP JUMP JUMPDEST PUSH1 0x0 PUSH1 0x20 DUP3 ADD SWAP1 POP DUP2 DUP2 SUB PUSH1 0x0 DUP4 ADD MSTORE PUSH2 0x1A7C DUP2 PUSH2 0x1A40 JUMP JUMPDEST SWAP1 POP SWAP2 SWAP1 POP JUMP JUMPDEST PUSH32 0x4F7261636C653120616C7265616479207375626D697474656400000000000000 PUSH1 0x0 DUP3 ADD MSTORE POP JUMP JUMPDEST PUSH1 0x0 PUSH2 0x1AB9 PUSH1 0x19 DUP4 PUSH2 0x14FF JUMP JUMPDEST SWAP2 POP PUSH2 0x1AC4 DUP3 PUSH2 0x1A83 JUMP JUMPDEST PUSH1 0x20 DUP3 ADD SWAP1 POP SWAP2 SWAP1 POP JUMP JUMPDEST PUSH1 0x0 PUSH1 0x20 DUP3 ADD SWAP1 POP DUP2 DUP2 SUB PUSH1 0x0 DUP4 ADD MSTORE PUSH2 0x1AE8 DUP2 PUSH2 0x1AAC JUMP JUMPDEST SWAP1 POP SWAP2 SWAP1 POP JUMP JUMPDEST PUSH1 0x0 PUSH2 0x1AFA DUP3 PUSH2 0x138C JUMP JUMPDEST SWAP2 POP PUSH2 0x1B05 DUP4 PUSH2 0x138C JUMP JUMPDEST SWAP3 POP DUP3 DUP3 ADD SWAP1 POP PUSH1 0xFF DUP2 GT ISZERO PUSH2 0x1B1E JUMPI PUSH2 0x1B1D PUSH2 0x1804 JUMP JUMPDEST JUMPDEST SWAP3 SWAP2 POP POP JUMP JUMPDEST PUSH32 0x4F7261636C653220616C7265616479207375626D697474656400000000000000 PUSH1 0x0 DUP3 ADD MSTORE POP JUMP JUMPDEST PUSH1 0x0 PUSH2 0x1B5A PUSH1 0x19 DUP4 PUSH2 0x14FF JUMP JUMPDEST SWAP2 POP PUSH2 0x1B65 DUP3 PUSH2 0x1B24 JUMP JUMPDEST PUSH1 0x20 DUP3 ADD SWAP1 POP SWAP2 SWAP1 POP JUMP JUMPDEST PUSH1 0x0 PUSH1 0x20 DUP3 ADD SWAP1 POP DUP2 DUP2 SUB PUSH1 0x0 DUP4 ADD MSTORE PUSH2 0x1B89 DUP2 PUSH2 0x1B4D JUMP JUMPDEST SWAP1 POP SWAP2 SWAP1 POP JUMP JUMPDEST PUSH32 0x4E6565642074776F207375626D697373696F6E73000000000000000000000000 PUSH1 0x0 DUP3 ADD MSTORE POP JUMP JUMPDEST PUSH1 0x0 PUSH2 0x1BC6 PUSH1 0x14 DUP4 PUSH2 0x14FF JUMP JUMPDEST SWAP2 POP PUSH2 0x1BD1 DUP3 PUSH2 0x1B90 JUMP JUMPDEST PUSH1 0x20 DUP3 ADD SWAP1 POP SWAP2 SWAP1 POP JUMP JUMPDEST PUSH1 0x0 PUSH1 0x20 DUP3 ADD SWAP1 POP DUP2 DUP2 SUB PUSH1 0x0 DUP4 ADD MSTORE PUSH2 0x1BF5 DUP2 PUSH2 0x1BB9 JUMP JUMPDEST SWAP1 POP SWAP2 SWAP1 POP JUMP JUMPDEST PUSH32 0x416C72656164792066696E616C697A6564000000000000000000000000000000 PUSH1 0x0 DUP3 ADD MSTORE POP JUMP JUMPDEST PUSH1 0x0 PUSH2 0x1C32 PUSH1 0x11 DUP4 PUSH2 0x14FF JUMP JUMPDEST SWAP2 POP PUSH2 0x1C3D DUP3 PUSH2 0x1BFC JUMP JUMPDEST PUSH1 0x20 DUP3 ADD SWAP1 POP SWAP2 SWAP1 POP JUMP JUMPDEST PUSH1 0x0 PUSH1 0x20 DUP3 ADD SWAP1 POP DUP2 DUP2 SUB PUSH1 0x0 DUP4 ADD MSTORE PUSH2 0x1C61 DUP2 PUSH2 0x1C25 JUMP JUMPDEST SWAP1 POP SWAP2 SWAP1 POP JUMP JUMPDEST PUSH32 0x4E487B7100000000000000000000000000000000000000000000000000000000 PUSH1 0x0 MSTORE PUSH1 0x12 PUSH1 0x4 MSTORE PUSH1 0x24 PUSH1 0x0 REVERT JUMPDEST PUSH1 0x0 PUSH2 0x1CA2 DUP3 PUSH2 0x12DF JUMP JUMPDEST SWAP2 POP PUSH2 0x1CAD DUP4 PUSH2 0x12DF JUMP JUMPDEST SWAP3 POP DUP3 PUSH2 0x1CBD JUMPI PUSH2 0x1CBC PUSH2 0x1C68 JUMP JUMPDEST JUMPDEST DUP3 DUP3 DIV SWAP1 POP SWAP3 SWAP2 POP POP JUMP INVALID LOG2 PUSH5 0x6970667358 0x22 SLT KECCAK256 0xB2 0xAA PUSH24 0x76473EE1229A33D392E2670556DC4B9B94AF43A95E2C45D4 LT MSTORE DUP14 0xC1 POP PUSH5 0x736F6C6343 STOP ADDMOD GT STOP CALLER "
				},
				"gasEstimates": {
					"creation": {
						"codeDepositCost": "1484400",
						"executionCost": "infinite",
						"totalCost": "infinite"
					},
					"external": {
						"cancelIfTimeout()": "infinite",
						"commit()": "infinite",
						"commitment()": "2475",
						"committed()": "2537",
						"currentRoundStatus()": "infinite",
						"dataRequested()": "2538",
						"fulfillData(uint256)": "infinite",
						"latestAggregated()": "2540",
						"latestAggregatedRound()": "2497",
						"latestDataBytes32()": "2518",
						"oracle1()": "2600",
						"oracle2()": "2558",
						"partyA()": "infinite",
						"requestData()": "infinite",
						"requestTimestamp()": "2474",
						"roundId()": "2451",
						"setOracles(address,address)": "infinite",
						"setTimeoutSeconds(uint256)": "infinite",
						"submissions(uint256)": "infinite",
						"timeoutSeconds()": "2540"
					},
					"internal": {
						"_finalizeRound(uint256)": "infinite"
					}
				},
				"methodIdentifiers": {
					"cancelIfTimeout()": "6798699b",
					"commit()": "3c7a3aff",
					"commitment()": "1303a484",
					"committed()": "9b6b9664",
					"currentRoundStatus()": "3968ecec",
					"dataRequested()": "4222c7fb",
					"fulfillData(uint256)": "c195cd6d",
					"latestAggregated()": "4a151fa8",
					"latestAggregatedRound()": "1d26190a",
					"latestDataBytes32()": "485d2f6c",
					"oracle1()": "747a0c3a",
					"oracle2()": "996f7d3a",
					"partyA()": "10e1d8ca",
					"requestData()": "606deecd",
					"requestTimestamp()": "3e66a647",
					"roundId()": "8cd221c9",
					"setOracles(address,address)": "572a9302",
					"setTimeoutSeconds(uint256)": "36f945cd",
					"submissions(uint256)": "ad73349e",
					"timeoutSeconds()": "80475516"
				}
			},
			"storageLayout": {
				"storage": [
					{
						"astId": 8,
						"contract": "PartyA_multiOracle.sol:PartyA_multiOracle",
						"label": "oracle1",
						"offset": 0,
						"slot": "0",
						"type": "t_address"
					},
					{
						"astId": 10,
						"contract": "PartyA_multiOracle.sol:PartyA_multiOracle",
						"label": "oracle2",
						"offset": 0,
						"slot": "1",
						"type": "t_address"
					},
					{
						"astId": 12,
						"contract": "PartyA_multiOracle.sol:PartyA_multiOracle",
						"label": "commitment",
						"offset": 0,
						"slot": "2",
						"type": "t_bytes32"
					},
					{
						"astId": 14,
						"contract": "PartyA_multiOracle.sol:PartyA_multiOracle",
						"label": "committed",
						"offset": 0,
						"slot": "3",
						"type": "t_bool"
					},
					{
						"astId": 17,
						"contract": "PartyA_multiOracle.sol:PartyA_multiOracle",
						"label": "roundId",
						"offset": 0,
						"slot": "4",
						"type": "t_uint256"
					},
					{
						"astId": 20,
						"contract": "PartyA_multiOracle.sol:PartyA_multiOracle",
						"label": "dataRequested",
						"offset": 0,
						"slot": "5",
						"type": "t_bool"
					},
					{
						"astId": 23,
						"contract": "PartyA_multiOracle.sol:PartyA_multiOracle",
						"label": "requestTimestamp",
						"offset": 0,
						"slot": "6",
						"type": "t_uint256"
					},
					{
						"astId": 27,
						"contract": "PartyA_multiOracle.sol:PartyA_multiOracle",
						"label": "timeoutSeconds",
						"offset": 0,
						"slot": "7",
						"type": "t_uint256"
					},
					{
						"astId": 30,
						"contract": "PartyA_multiOracle.sol:PartyA_multiOracle",
						"label": "latestAggregated",
						"offset": 0,
						"slot": "8",
						"type": "t_uint256"
					},
					{
						"astId": 33,
						"contract": "PartyA_multiOracle.sol:PartyA_multiOracle",
						"label": "latestDataBytes32",
						"offset": 0,
						"slot": "9",
						"type": "t_bytes32"
					},
					{
						"astId": 36,
						"contract": "PartyA_multiOracle.sol:PartyA_multiOracle",
						"label": "latestAggregatedRound",
						"offset": 0,
						"slot": "10",
						"type": "t_uint256"
					},
					{
						"astId": 55,
						"contract": "PartyA_multiOracle.sol:PartyA_multiOracle",
						"label": "submissions",
						"offset": 0,
						"slot": "11",
						"type": "t_mapping(t_uint256,t_struct(RoundSubmission)49_storage)"
					}
				],
				"types": {
					"t_address": {
						"encoding": "inplace",
						"label": "address",
						"numberOfBytes": "20"
					},
					"t_bool": {
						"encoding": "inplace",
						"label": "bool",
						"numberOfBytes": "1"
					},
					"t_bytes32": {
						"encoding": "inplace",
						"label": "bytes32",
						"numberOfBytes": "32"
					},
					"t_mapping(t_uint256,t_struct(RoundSubmission)49_storage)": {
						"encoding": "mapping",
						"key": "t_uint256",
						"label": "mapping(uint256 => struct PartyA_multiOracle.RoundSubmission)",
						"numberOfBytes": "32",
						"value": "t_struct(RoundSubmission)49_storage"
					},
					"t_struct(RoundSubmission)49_storage": {
						"encoding": "inplace",
						"label": "struct PartyA_multiOracle.RoundSubmission",
						"members": [
							{
								"astId": 38,
								"contract": "PartyA_multiOracle.sol:PartyA_multiOracle",
								"label": "v1",
								"offset": 0,
								"slot": "0",
								"type": "t_uint256"
							},
							{
								"astId": 40,
								"contract": "PartyA_multiOracle.sol:PartyA_multiOracle",
								"label": "v2",
								"offset": 0,
								"slot": "1",
								"type": "t_uint256"
							},
							{
								"astId": 42,
								"contract": "PartyA_multiOracle.sol:PartyA_multiOracle",
								"label": "s1",
								"offset": 0,
								"slot": "2",
								"type": "t_bool"
							},
							{
								"astId": 44,
								"contract": "PartyA_multiOracle.sol:PartyA_multiOracle",
								"label": "s2",
								"offset": 1,
								"slot": "2",
								"type": "t_bool"
							},
							{
								"astId": 46,
								"contract": "PartyA_multiOracle.sol:PartyA_multiOracle",
								"label": "finalized",
								"offset": 2,
								"slot": "2",
								"type": "t_bool"
							},
							{
								"astId": 48,
								"contract": "PartyA_multiOracle.sol:PartyA_multiOracle",
								"label": "count",
								"offset": 3,
								"slot": "2",
								"type": "t_uint8"
							}
						],
						"numberOfBytes": "96"
					},
					"t_uint256": {
						"encoding": "inplace",
						"label": "uint256",
						"numberOfBytes": "32"
					},
					"t_uint8": {
						"encoding": "inplace",
						"label": "uint8",
						"numberOfBytes": "1"
					}
				}
			},
			"userdoc": {
				"kind": "user",
				"methods": {
					"cancelIfTimeout()": {
						"notice": "超时取消本轮请求（防止一个 oracle 掉线导致系统永久卡住）"
					},
					"commit()": {
						"notice": "PartyA 提交一次承诺（如果你想保留 commit-gate）"
					},
					"dataRequested()": {
						"notice": "当前是否存在未完成的数据请求（防止同一时间多轮并发）"
					},
					"fulfillData(uint256)": {
						"notice": "Oracle 回写数据（每个 oracle 每轮只能提交一次）"
					},
					"latestAggregated()": {
						"notice": "最近一次聚合完成的数值结果（算术平均）"
					},
					"latestAggregatedRound()": {
						"notice": "最近一次聚合对应的轮次"
					},
					"latestDataBytes32()": {
						"notice": "最近一次聚合完成的 bytes32 结果（可选：兼容你之前 bytes32 风格）"
					},
					"oracle1()": {
						"notice": "Oracle 白名单（两个）"
					},
					"partyA()": {
						"notice": "PartyA 地址（合约部署者/请求发起方）"
					},
					"requestData()": {
						"notice": "PartyA 发起新一轮数据请求（多轮可重复测试）"
					},
					"requestTimestamp()": {
						"notice": "当前轮请求发起时间（用于超时控制，防止系统卡死）"
					},
					"roundId()": {
						"notice": "当前轮次 ID（从 1 开始；每次 requestData +1）"
					},
					"setOracles(address,address)": {
						"notice": "修改 oracle 地址（工程落地常见：换机器/换 key）"
					},
					"setTimeoutSeconds(uint256)": {
						"notice": "修改超时时间（防卡死）"
					},
					"submissions(uint256)": {
						"notice": "roundId => 本轮提交情况"
					},
					"timeoutSeconds()": {
						"notice": "超时时间（默认 30 分钟，可调）"
					}
				},
				"notice": "PartyA requests data; two whitelisted oracles submit uint256; contract aggregates by arithmetic mean.",
				"version": 1
			}
		}
	}
}