{
	"data": {
		"bytecode": {
			"linkReferences": {},
			"object": "608060405234801561001057600080fd5b50604051610a8c380380610a8c833981810160405281019061003291906100ba565b336000806101000a81548173ffffffffffffffffffffffffffffffffffffffff021916908373ffffffffffffffffffffffffffffffffffffffff16021790555080600181905550506100e7565b600080fd5b6000819050919050565b61009781610084565b81146100a257600080fd5b50565b6000815190506100b48161008e565b92915050565b6000602082840312156100d0576100cf61007f565b5b60006100de848285016100a5565b91505092915050565b610996806100f66000396000f3fe608060405234801561001057600080fd5b50600436106100935760003560e01c80634222c7fb116100665780634222c7fb146100fc578063606deecd1461011a5780639b6b966414610124578063d041914214610142578063feae371b1461016057610093565b806310e1d8ca146100985780631303a484146100b6578063142bc2ae146100d45780633c7a3aff146100f2575b600080fd5b6100a061017c565b6040516100ad91906105e4565b60405180910390f35b6100be6101a0565b6040516100cb9190610618565b60405180910390f35b6100dc6101a6565b6040516100e99190610618565b60405180910390f35b6100fa6101ac565b005b6101046102a7565b604051610111919061064e565b60405180910390f35b6101226102ba565b005b61012c610467565b604051610139919061064e565b60405180910390f35b61014a61047a565b604051610157919061064e565b60405180910390f35b61017a6004803603810190610175919061069a565b61048d565b005b60008054906101000a900473ffffffffffffffffffffffffffffffffffffffff1681565b60015481565b60035481565b60008054906101000a900473ffffffffffffffffffffffffffffffffffffffff1673ffffffffffffffffffffffffffffffffffffffff163373ffffffffffffffffffffffffffffffffffffffff161461023a576040517f08c379a000000000000000000000000000000000000000000000000000000000815260040161023190610724565b60405180910390fd5b600260009054906101000a900460ff161561028a576040517f08c379a000000000000000000000000000000000000000000000000000000000815260040161028190610790565b60405180910390fd5b6001600260006101000a81548160ff021916908315150217905550565b600260019054906101000a900460ff1681565b60008054906101000a900473ffffffffffffffffffffffffffffffffffffffff1673ffffffffffffffffffffffffffffffffffffffff163373ffffffffffffffffffffffffffffffffffffffff1614610348576040517f08c379a000000000000000000000000000000000000000000000000000000000815260040161033f90610724565b60405180910390fd5b600260009054906101000a900460ff16610397576040517f08c379a000000000000000000000000000000000000000000000000000000000815260040161038e906107fc565b60405180910390fd5b600260019054906101000a900460ff16156103e7576040517f08c379a00000000000000000000000000000000000000000000000000000000081526004016103de90610868565b60405180910390fd5b6001600260016101000a81548160ff02191690831515021790555060008054906101000a900473ffffffffffffffffffffffffffffffffffffffff1673ffffffffffffffffffffffffffffffffffffffff167f8d7c4e9d9310df2c3d969c8de3b2b04b96ef2d58bfc4ac9418bee119c8c7879f60405160405180910390a2565b600260009054906101000a900460ff1681565b600460009054906101000a900460ff1681565b600260019054906101000a900460ff166104dc576040517f08c379a00000000000000000000000000000000000000000000000000000000081526004016104d3906108d4565b60405180910390fd5b600460009054906101000a900460ff161561052c576040517f08c379a000000000000000000000000000000000000000000000000000000000815260040161052390610940565b60405180910390fd5b806003819055506001600460006101000a81548160ff0219169083151502179055506000600260016101000a81548160ff0219169083151502179055507f4be282b4d4f709866dff4ea2f636445e386bdc77067de8f68b5787ad642c517e816040516105989190610618565b60405180910390a150565b600073ffffffffffffffffffffffffffffffffffffffff82169050919050565b60006105ce826105a3565b9050919050565b6105de816105c3565b82525050565b60006020820190506105f960008301846105d5565b92915050565b6000819050919050565b610612816105ff565b82525050565b600060208201905061062d6000830184610609565b92915050565b60008115159050919050565b61064881610633565b82525050565b6000602082019050610663600083018461063f565b92915050565b600080fd5b610677816105ff565b811461068257600080fd5b50565b6000813590506106948161066e565b92915050565b6000602082840312156106b0576106af610669565b5b60006106be84828501610685565b91505092915050565b600082825260208201905092915050565b7f4e6f742050617274794100000000000000000000000000000000000000000000600082015250565b600061070e600a836106c7565b9150610719826106d8565b602082019050919050565b6000602082019050818103600083015261073d81610701565b9050919050565b7f416c726561647920636f6d6d6974746564000000000000000000000000000000600082015250565b600061077a6011836106c7565b915061078582610744565b602082019050919050565b600060208201905081810360008301526107a98161076d565b9050919050565b7f436f6d6d69742066697273740000000000000000000000000000000000000000600082015250565b60006107e6600c836106c7565b91506107f1826107b0565b602082019050919050565b60006020820190508181036000830152610815816107d9565b9050919050565b7f416c726561647920726571756573746564000000000000000000000000000000600082015250565b60006108526011836106c7565b915061085d8261081c565b602082019050919050565b6000602082019050818103600083015261088181610845565b9050919050565b7f4e6f206163746976652072657175657374000000000000000000000000000000600082015250565b60006108be6011836106c7565b91506108c982610888565b602082019050919050565b600060208201905081810360008301526108ed816108b1565b9050919050565b7f416c72656164792066756c66696c6c6564000000000000000000000000000000600082015250565b600061092a6011836106c7565b9150610935826108f4565b602082019050919050565b600060208201905081810360008301526109598161091d565b905091905056fea2646970667358221220e1e18cecc4b61dc6a9cfd5f24afc77047126ffbbe078deb61642bfda8f2cf19a64736f6c63430008110033",
			"opcodes": "PUSH1 0x80 PUSH1 0x40 MSTORE CALLVALUE DUP1 ISZERO PUSH2 0x10 JUMPI PUSH1 0x0 DUP1 REVERT JUMPDEST POP PUSH1 0x40 MLOAD PUSH2 0xA8C CODESIZE SUB DUP1 PUSH2 0xA8C DUP4 CODECOPY DUP2 DUP2 ADD PUSH1 0x40 MSTORE DUP2 ADD SWAP1 PUSH2 0x32 SWAP2 SWAP1 PUSH2 0xBA JUMP JUMPDEST CALLER PUSH1 0x0 DUP1 PUSH2 0x100 EXP DUP2 SLOAD DUP2 PUSH20 0xFFFFFFFFFFFFFFFFFFFFFFFFFFFFFFFFFFFFFFFF MUL NOT AND SWAP1 DUP4 PUSH20 0xFFFFFFFFFFFFFFFFFFFFFFFFFFFFFFFFFFFFFFFF AND MUL OR SWAP1 SSTORE POP DUP1 PUSH1 0x1 DUP2 SWAP1 SSTORE POP POP PUSH2 0xE7 JUMP JUMPDEST PUSH1 0x0 DUP1 REVERT JUMPDEST PUSH1 0x0 DUP2 SWAP1 POP SWAP2 SWAP1 POP JUMP JUMPDEST PUSH2 0x97 DUP2 PUSH2 0x84 JUMP JUMPDEST DUP2 EQ PUSH2 0xA2 JUMPI PUSH1 0x0 DUP1 REVERT JUMPDEST POP JUMP JUMPDEST PUSH1 0x0 DUP2 MLOAD SWAP1 POP PUSH2 0xB4 DUP2 PUSH2 0x8E JUMP JUMPDEST SWAP3 SWAP2 POP POP JUMP JUMPDEST PUSH1 0x0 PUSH1 0x20 DUP3 DUP5 SUB SLT ISZERO PUSH2 0xD0 JUMPI PUSH2 0xCF PUSH2 0x7F JUMP JUMPDEST JUMPDEST PUSH1 0x0 PUSH2 0xDE DUP5 DUP3 DUP6 ADD PUSH2 0xA5 JUMP JUMPDEST SWAP2 POP POP SWAP3 SWAP2 POP POP JUMP JUMPDEST PUSH2 0x996 DUP1 PUSH2 0xF6 PUSH1 0x0 CODECOPY PUSH1 0x0 RETURN INVALID PUSH1 0x80 PUSH1 0x40 MSTORE CALLVALUE DUP1 ISZERO PUSH2 0x10 JUMPI PUSH1 0x0 DUP1 REVERT JUMPDEST POP PUSH1 0x4 CALLDATASIZE LT PUSH2 0x93 JUMPI PUSH1 0x0 CALLDATALOAD PUSH1 0xE0 SHR DUP1 PUSH4 0x4222C7FB GT PUSH2 0x66 JUMPI DUP1 PUSH4 0x4222C7FB EQ PUSH2 0xFC JUMPI DUP1 PUSH4 0x606DEECD EQ PUSH2 0x11A JUMPI DUP1 PUSH4 0x9B6B9664 EQ PUSH2 0x124 JUMPI DUP1 PUSH4 0xD0419142 EQ PUSH2 0x142 JUMPI DUP1 PUSH4 0xFEAE371B EQ PUSH2 0x160 JUMPI PUSH2 0x93 JUMP JUMPDEST DUP1 PUSH4 0x10E1D8CA EQ PUSH2 0x98 JUMPI DUP1 PUSH4 0x1303A484 EQ PUSH2 0xB6 JUMPI DUP1 PUSH4 0x142BC2AE EQ PUSH2 0xD4 JUMPI DUP1 PUSH4 0x3C7A3AFF EQ PUSH2 0xF2 JUMPI JUMPDEST PUSH1 0x0 DUP1 REVERT JUMPDEST PUSH2 0xA0 PUSH2 0x17C JUMP JUMPDEST PUSH1 0x40 MLOAD PUSH2 0xAD SWAP2 SWAP1 PUSH2 0x5E4 JUMP JUMPDEST PUSH1 0x40 MLOAD DUP1 SWAP2 SUB SWAP1 RETURN JUMPDEST PUSH2 0xBE PUSH2 0x1A0 JUMP JUMPDEST PUSH1 0x40 MLOAD PUSH2 0xCB SWAP2 SWAP1 PUSH2 0x618 JUMP JUMPDEST PUSH1 0x40 MLOAD DUP1 SWAP2 SUB SWAP1 RETURN JUMPDEST PUSH2 0xDC PUSH2 0x1A6 JUMP JUMPDEST PUSH1 0x40 MLOAD PUSH2 0xE9 SWAP2 SWAP1 PUSH2 0x618 JUMP JUMPDEST PUSH1 0x40 MLOAD DUP1 SWAP2 SUB SWAP1 RETURN JUMPDEST PUSH2 0xFA PUSH2 0x1AC JUMP JUMPDEST STOP JUMPDEST PUSH2 0x104 PUSH2 0x2A7 JUMP JUMPDEST PUSH1 0x40 MLOAD PUSH2 0x111 SWAP2 SWAP1 PUSH2 0x64E JUMP JUMPDEST PUSH1 0x40 MLOAD DUP1 SWAP2 SUB SWAP1 RETURN JUMPDEST PUSH2 0x122 PUSH2 0x2BA JUMP JUMPDEST STOP JUMPDEST PUSH2 0x12C PUSH2 0x467 JUMP JUMPDEST PUSH1 0x40 MLOAD PUSH2 0x139 SWAP2 SWAP1 PUSH2 0x64E JUMP JUMPDEST PUSH1 0x40 MLOAD DUP1 SWAP2 SUB SWAP1 RETURN JUMPDEST PUSH2 0x14A PUSH2 0x47A JUMP JUMPDEST PUSH1 0x40 MLOAD PUSH2 0x157 SWAP2 SWAP1 PUSH2 0x64E JUMP JUMPDEST PUSH1 0x40 MLOAD DUP1 SWAP2 SUB SWAP1 RETURN JUMPDEST PUSH2 0x17A PUSH1 0x4 DUP1 CALLDATASIZE SUB DUP2 ADD SWAP1 PUSH2 0x175 SWAP2 SWAP1 PUSH2 0x69A JUMP JUMPDEST PUSH2 0x48D JUMP JUMPDEST STOP JUMPDEST PUSH1 0x0 DUP1 SLOAD SWAP1 PUSH2 0x100 EXP SWAP1 DIV PUSH20 0xFFFFFFFFFFFFFFFFFFFFFFFFFFFFFFFFFFFFFFFF AND DUP2 JUMP JUMPDEST PUSH1 0x1 SLOAD DUP2 JUMP JUMPDEST PUSH1 0x3 SLOAD DUP2 JUMP JUMPDEST PUSH1 0x0 DUP1 SLOAD SWAP1 PUSH2 0x100 EXP SWAP1 DIV PUSH20 0xFFFFFFFFFFFFFFFFFFFFFFFFFFFFFFFFFFFFFFFF AND PUSH20 0xFFFFFFFFFFFFFFFFFFFFFFFFFFFFFFFFFFFFFFFF AND CALLER PUSH20 0xFFFFFFFFFFFFFFFFFFFFFFFFFFFFFFFFFFFFFFFF AND EQ PUSH2 0x23A JUMPI PUSH1 0x40 MLOAD PUSH32 0x8C379A000000000000000000000000000000000000000000000000000000000 DUP2 MSTORE PUSH1 0x4 ADD PUSH2 0x231 SWAP1 PUSH2 0x724 JUMP JUMPDEST PUSH1 0x40 MLOAD DUP1 SWAP2 SUB SWAP1 REVERT JUMPDEST PUSH1 0x2 PUSH1 0x0 SWAP1 SLOAD SWAP1 PUSH2 0x100 EXP SWAP1 DIV PUSH1 0xFF AND ISZERO PUSH2 0x28A JUMPI PUSH1 0x40 MLOAD PUSH32 0x8C379A000000000000000000000000000000000000000000000000000000000 DUP2 MSTORE PUSH1 0x4 ADD PUSH2 0x281 SWAP1 PUSH2 0x790 JUMP JUMPDEST PUSH1 0x40 MLOAD DUP1 SWAP2 SUB SWAP1 REVERT JUMPDEST PUSH1 0x1 PUSH1 0x2 PUSH1 0x0 PUSH2 0x100 EXP DUP2 SLOAD DUP2 PUSH1 0xFF MUL NOT AND SWAP1 DUP4 ISZERO ISZERO MUL OR SWAP1 SSTORE POP JUMP JUMPDEST PUSH1 0x2 PUSH1 0x1 SWAP1 SLOAD SWAP1 PUSH2 0x100 EXP SWAP1 DIV PUSH1 0xFF AND DUP2 JUMP JUMPDEST PUSH1 0x0 DUP1 SLOAD SWAP1 PUSH2 0x100 EXP SWAP1 DIV PUSH20 0xFFFFFFFFFFFFFFFFFFFFFFFFFFFFFFFFFFFFFFFF AND PUSH20 0xFFFFFFFFFFFFFFFFFFFFFFFFFFFFFFFFFFFFFFFF AND CALLER PUSH20 0xFFFFFFFFFFFFFFFFFFFFFFFFFFFFFFFFFFFFFFFF AND EQ PUSH2 0x348 JUMPI PUSH1 0x40 MLOAD PUSH32 0x8C379A000000000000000000000000000000000000000000000000000000000 DUP2 MSTORE PUSH1 0x4 ADD PUSH2 0x33F SWAP1 PUSH2 0x724 JUMP JUMPDEST PUSH1 0x40 MLOAD DUP1 SWAP2 SUB SWAP1 REVERT JUMPDEST PUSH1 0x2 PUSH1 0x0 SWAP1 SLOAD SWAP1 PUSH2 0x100 EXP SWAP1 DIV PUSH1 0xFF AND PUSH2 0x397 JUMPI PUSH1 0x40 MLOAD PUSH32 0x8C379A000000000000000000000000000000000000000000000000000000000 DUP2 MSTORE PUSH1 0x4 ADD PUSH2 0x38E SWAP1 PUSH2 0x7FC JUMP JUMPDEST PUSH1 0x40 MLOAD DUP1 SWAP2 SUB SWAP1 REVERT JUMPDEST PUSH1 0x2 PUSH1 0x1 SWAP1 SLOAD SWAP1 PUSH2 0x100 EXP SWAP1 DIV PUSH1 0xFF AND ISZERO PUSH2 0x3E7 JUMPI PUSH1 0x40 MLOAD PUSH32 0x8C379A000000000000000000000000000000000000000000000000000000000 DUP2 MSTORE PUSH1 0x4 ADD PUSH2 0x3DE SWAP1 PUSH2 0x868 JUMP JUMPDEST PUSH1 0x40 MLOAD DUP1 SWAP2 SUB SWAP1 REVERT JUMPDEST PUSH1 0x1 PUSH1 0x2 PUSH1 0x1 PUSH2 0x100 EXP DUP2 SLOAD DUP2 PUSH1 0xFF MUL NOT AND SWAP1 DUP4 ISZERO ISZERO MUL OR SWAP1 SSTORE POP PUSH1 0x0 DUP1 SLOAD SWAP1 PUSH2 0x100 EXP SWAP1 DIV PUSH20 0xFFFFFFFFFFFFFFFFFFFFFFFFFFFFFFFFFFFFFFFF AND PUSH20 0xFFFFFFFFFFFFFFFFFFFFFFFFFFFFFFFFFFFFFFFF AND PUSH32 0x8D7C4E9D9310DF2C3D969C8DE3B2B04B96EF2D58BFC4AC9418BEE119C8C7879F PUSH1 0x40 MLOAD PUSH1 0x40 MLOAD DUP1 SWAP2 SUB SWAP1 LOG2 JUMP JUMPDEST PUSH1 0x2 PUSH1 0x0 SWAP1 SLOAD SWAP1 PUSH2 0x100 EXP SWAP1 DIV PUSH1 0xFF AND DUP2 JUMP JUMPDEST PUSH1 0x4 PUSH1 0x0 SWAP1 SLOAD SWAP1 PUSH2 0x100 EXP SWAP1 DIV PUSH1 0xFF AND DUP2 JUMP JUMPDEST PUSH1 0x2 PUSH1 0x1 SWAP1 SLOAD SWAP1 PUSH2 0x100 EXP SWAP1 DIV PUSH1 0xFF AND PUSH2 0x4DC JUMPI PUSH1 0x40 MLOAD PUSH32 0x8C379A000000000000000000000000000000000000000000000000000000000 DUP2 MSTORE PUSH1 0x4 ADD PUSH2 0x4D3 SWAP1 PUSH2 0x8D4 JUMP JUMPDEST PUSH1 0x40 MLOAD DUP1 SWAP2 SUB SWAP1 REVERT JUMPDEST PUSH1 0x4 PUSH1 0x0 SWAP1 SLOAD SWAP1 PUSH2 0x100 EXP SWAP1 DIV PUSH1 0xFF AND ISZERO PUSH2 0x52C JUMPI PUSH1 0x40 MLOAD PUSH32 0x8C379A000000000000000000000000000000000000000000000000000000000 DUP2 MSTORE PUSH1 0x4 ADD PUSH2 0x523 SWAP1 PUSH2 0x940 JUMP JUMPDEST PUSH1 0x40 MLOAD DUP1 SWAP2 SUB SWAP1 REVERT JUMPDEST DUP1 PUSH1 0x3 DUP2 SWAP1 SSTORE POP PUSH1 0x1 PUSH1 0x4 PUSH1 0x0 PUSH2 0x100 EXP DUP2 SLOAD DUP2 PUSH1 0xFF MUL NOT AND SWAP1 DUP4 ISZERO ISZERO MUL OR SWAP1 SSTORE POP PUSH1 0x0 PUSH1 0x2 PUSH1 0x1 PUSH2 0x100 EXP DUP2 SLOAD DUP2 PUSH1 0xFF MUL NOT AND SWAP1 DUP4 ISZERO ISZERO MUL OR SWAP1 SSTORE POP PUSH32 0x4BE282B4D4F709866DFF4EA2F636445E386BDC77067DE8F68B5787AD642C517E DUP2 PUSH1 0x40 MLOAD PUSH2 0x598 SWAP2 SWAP1 PUSH2 0x618 JUMP JUMPDEST PUSH1 0x40 MLOAD DUP1 SWAP2 SUB SWAP1 LOG1 POP JUMP JUMPDEST PUSH1 0x0 PUSH20 0xFFFFFFFFFFFFFFFFFFFFFFFFFFFFFFFFFFFFFFFF DUP3 AND SWAP1 POP SWAP2 SWAP1 POP JUMP JUMPDEST PUSH1 0x0 PUSH2 0x5CE DUP3 PUSH2 0x5A3 JUMP JUMPDEST SWAP1 POP SWAP2 SWAP1 POP JUMP JUMPDEST PUSH2 0x5DE DUP2 PUSH2 0x5C3 JUMP JUMPDEST DUP3 MSTORE POP POP JUMP JUMPDEST PUSH1 0x0 PUSH1 0x20 DUP3 ADD SWAP1 POP PUSH2 0x5F9 PUSH1 0x0 DUP4 ADD DUP5 PUSH2 0x5D5 JUMP JUMPDEST SWAP3 SWAP2 POP POP JUMP JUMPDEST PUSH1 0x0 DUP2 SWAP1 POP SWAP2 SWAP1 POP JUMP JUMPDEST PUSH2 0x612 DUP2 PUSH2 0x5FF JUMP JUMPDEST DUP3 MSTORE POP POP JUMP JUMPDEST PUSH1 0x0 PUSH1 0x20 DUP3 ADD SWAP1 POP PUSH2 0x62D PUSH1 0x0 DUP4 ADD DUP5 PUSH2 0x609 JUMP JUMPDEST SWAP3 SWAP2 POP POP JUMP JUMPDEST PUSH1 0x0 DUP2 ISZERO ISZERO SWAP1 POP SWAP2 SWAP1 POP JUMP JUMPDEST PUSH2 0x648 DUP2 PUSH2 0x633 JUMP JUMPDEST DUP3 MSTORE POP POP JUMP JUMPDEST PUSH1 0x0 PUSH1 0x20 DUP3 ADD SWAP1 POP PUSH2 0x663 PUSH1 0x0 DUP4 ADD DUP5 PUSH2 0x63F JUMP JUMPDEST SWAP3 SWAP2 POP POP JUMP JUMPDEST PUSH1 0x0 DUP1 REVERT JUMPDEST PUSH2 0x677 DUP2 PUSH2 0x5FF JUMP JUMPDEST DUP2 EQ PUSH2 0x682 JUMPI PUSH1 0x0 DUP1 REVERT JUMPDEST POP JUMP JUMPDEST PUSH1 0x0 DUP2 CALLDATALOAD SWAP1 POP PUSH2 0x694 DUP2 PUSH2 0x66E JUMP JUMPDEST SWAP3 SWAP2 POP POP JUMP JUMPDEST PUSH1 0x0 PUSH1 0x20 DUP3 DUP5 SUB SLT ISZERO PUSH2 0x6B0 JUMPI PUSH2 0x6AF PUSH2 0x669 JUMP JUMPDEST JUMPDEST PUSH1 0x0 PUSH2 0x6BE DUP5 DUP3 DUP6 ADD PUSH2 0x685 JUMP JUMPDEST SWAP2 POP POP SWAP3 SWAP2 POP POP JUMP JUMPDEST PUSH1 0x0 DUP3 DUP3 MSTORE PUSH1 0x20 DUP3 ADD SWAP1 POP SWAP3 SWAP2 POP POP JUMP JUMPDEST PUSH32 0x4E6F742050617274794100000000000000000000000000000000000000000000 PUSH1 0x0 DUP3 ADD MSTORE POP JUMP JUMPDEST PUSH1 0x0 PUSH2 0x70E PUSH1 0xA DUP4 PUSH2 0x6C7 JUMP JUMPDEST SWAP2 POP PUSH2 0x719 DUP3 PUSH2 0x6D8 JUMP JUMPDEST PUSH1 0x20 DUP3 ADD SWAP1 POP SWAP2 SWAP1 POP JUMP JUMPDEST PUSH1 0x0 PUSH1 0x20 DUP3 ADD SWAP1 POP DUP2 DUP2 SUB PUSH1 0x0 DUP4 ADD MSTORE PUSH2 0x73D DUP2 PUSH2 0x701 JUMP JUMPDEST SWAP1 POP SWAP2 SWAP1 POP JUMP JUMPDEST PUSH32 0x416C726561647920636F6D6D6974746564000000000000000000000000000000 PUSH1 0x0 DUP3 ADD MSTORE POP JUMP JUMPDEST PUSH1 0x0 PUSH2 0x77A PUSH1 0x11 DUP4 PUSH2 0x6C7 JUMP JUMPDEST SWAP2 POP PUSH2 0x785 DUP3 PUSH2 0x744 JUMP JUMPDEST PUSH1 0x20 DUP3 ADD SWAP1 POP SWAP2 SWAP1 POP JUMP JUMPDEST PUSH1 0x0 PUSH1 0x20 DUP3 ADD SWAP1 POP DUP2 DUP2 SUB PUSH1 0x0 DUP4 ADD MSTORE PUSH2 0x7A9 DUP2 PUSH2 0x76D JUMP JUMPDEST SWAP1 POP SWAP2 SWAP1 POP JUMP JUMPDEST PUSH32 0x436F6D6D69742066697273740000000000000000000000000000000000000000 PUSH1 0x0 DUP3 ADD MSTORE POP JUMP JUMPDEST PUSH1 0x0 PUSH2 0x7E6 PUSH1 0xC DUP4 PUSH2 0x6C7 JUMP JUMPDEST SWAP2 POP PUSH2 0x7F1 DUP3 PUSH2 0x7B0 JUMP JUMPDEST PUSH1 0x20 DUP3 ADD SWAP1 POP SWAP2 SWAP1 POP JUMP JUMPDEST PUSH1 0x0 PUSH1 0x20 DUP3 ADD SWAP1 POP DUP2 DUP2 SUB PUSH1 0x0 DUP4 ADD MSTORE PUSH2 0x815 DUP2 PUSH2 0x7D9 JUMP JUMPDEST SWAP1 POP SWAP2 SWAP1 POP JUMP JUMPDEST PUSH32 0x416C726561647920726571756573746564000000000000000000000000000000 PUSH1 0x0 DUP3 ADD MSTORE POP JUMP JUMPDEST PUSH1 0x0 PUSH2 0x852 PUSH1 0x11 DUP4 PUSH2 0x6C7 JUMP JUMPDEST SWAP2 POP PUSH2 0x85D DUP3 PUSH2 0x81C JUMP JUMPDEST PUSH1 0x20 DUP3 ADD SWAP1 POP SWAP2 SWAP1 POP JUMP JUMPDEST PUSH1 0x0 PUSH1 0x20 DUP3 ADD SWAP1 POP DUP2 DUP2 SUB PUSH1 0x0 DUP4 ADD MSTORE PUSH2 0x881 DUP2 PUSH2 0x845 JUMP JUMPDEST SWAP1 POP SWAP2 SWAP1 POP JUMP JUMPDEST PUSH32 0x4E6F206163746976652072657175657374000000000000000000000000000000 PUSH1 0x0 DUP3 ADD MSTORE POP JUMP JUMPDEST PUSH1 0x0 PUSH2 0x8BE PUSH1 0x11 DUP4 PUSH2 0x6C7 JUMP JUMPDEST SWAP2 POP PUSH2 0x8C9 DUP3 PUSH2 0x888 JUMP JUMPDEST PUSH1 0x20 DUP3 ADD SWAP1 POP SWAP2 SWAP1 POP JUMP JUMPDEST PUSH1 0x0 PUSH1 0x20 DUP3 ADD SWAP1 POP DUP2 DUP2 SUB PUSH1 0x0 DUP4 ADD MSTORE PUSH2 0x8ED DUP2 PUSH2 0x8B1 JUMP JUMPDEST SWAP1 POP SWAP2 SWAP1 POP JUMP JUMPDEST PUSH32 0x416C72656164792066756C66696C6C6564000000000000000000000000000000 PUSH1 0x0 DUP3 ADD MSTORE POP JUMP JUMPDEST PUSH1 0x0 PUSH2 0x92A PUSH1 0x11 DUP4 PUSH2 0x6C7 JUMP JUMPDEST SWAP2 POP PUSH2 0x935 DUP3 PUSH2 0x8F4 JUMP JUMPDEST PUSH1 0x20 DUP3 ADD SWAP1 POP SWAP2 SWAP1 POP JUMP JUMPDEST PUSH1 0x0 PUSH1 0x20 DUP3 ADD SWAP1 POP DUP2 DUP2 SUB PUSH1 0x0 DUP4 ADD MSTORE PUSH2 0x959 DUP2 PUSH2 0x91D JUMP JUMPDEST SWAP1 POP SWAP2 SWAP1 POP JUMP INVALID LOG2 PUSH5 0x6970667358 0x22 SLT KECCAK256 0xE1 0xE1 DUP13 0xEC 0xC4 0xB6 SAR 0xC6 0xA9 0xCF 0xD5 CALLCODE 0x4A 0xFC PUSH24 0x47126FFBBE078DEB61642BFDA8F2CF19A64736F6C634300 ADDMOD GT STOP CALLER "
		},
		"gasEstimates": {
			"creation": {
				"codeDepositCost": "490800",
				"executionCost": "infinite",
				"totalCost": "infinite"
			},
			"external": {
				"commit()": "28801",
				"commitment()": "2452",
				"committed()": "2515",
				"dataFulfilled()": "2537",
				"dataRequested()": "2521",
				"fulfillData(bytes32)": "infinite",
				"latestData()": "2474",
				"partyA()": "2512",
				"requestData()": "34303"
			}
		},
		"methodIdentifiers": {
			"commit()": "3c7a3aff",
			"commitment()": "1303a484",
			"committed()": "9b6b9664",
			"dataFulfilled()": "d0419142",
			"dataRequested()": "4222c7fb",
			"fulfillData(bytes32)": "feae371b",
			"latestData()": "142bc2ae",
			"partyA()": "10e1d8ca",
			"requestData()": "606deecd"
		}
	},
	"abi": [
		{
			"inputs": [
				{
					"internalType": "bytes32",
					"name": "_commitment",
					"type": "bytes32"
				}
			],
			"stateMutability": "nonpayable",
			"type": "constructor"
		},
		{
			"anonymous": false,
			"inputs": [
				{
					"indexed": false,
					"internalType": "bytes32",
					"name": "data",
					"type": "bytes32"
				}
			],
			"name": "DataFulfilled",
			"type": "event"
		},
		{
			"anonymous": false,
			"inputs": [
				{
					"indexed": true,
					"internalType": "address",
					"name": "partyA",
					"type": "address"
				}
			],
			"name": "DataRequested",
			"type": "event"
		},
		{
			"inputs": [],
			"name": "commit",
			"outputs": [],
			"stateMutability": "nonpayable",
			"type": "function"
		},
		{
			"inputs": [],
			"name": "commitment",
			"outputs": [
				{
					"internalType": "bytes32",
					"name": "",
					"type": "bytes32"
				}
			],
			"stateMutability": "view",
			"type": "function"
		},
		{
			"inputs": [],
			"name": "committed",
			"outputs": [
				{
					"internalType": "bool",
					"name": "",
					"type": "bool"
				}
			],
			"stateMutability": "view",
			"type": "function"
		},
		{
			"inputs": [],
			"name": "dataFulfilled",
			"outputs": [
				{
					"internalType": "bool",
					"name": "",
					"type": "bool"
				}
			],
			"stateMutability": "view",
			"type": "function"
		},
		{
			"inputs": [],
			"name": "dataRequested",
			"outputs": [
				{
					"internalType": "bool",
					"name": "",
					"type": "bool"
				}
			],
			"stateMutability": "view",
			"type": "function"
		},
		{
			"inputs": [
				{
					"internalType": "bytes32",
					"name": "data",
					"type": "bytes32"
				}
			],
			"name": "fulfillData",
			"outputs": [],
			"stateMutability": "nonpayable",
			"type": "function"
		},
		{
			"inputs": [],
			"name": "latestData",
			"outputs": [
				{
					"internalType": "bytes32",
					"name": "",
					"type": "bytes32"
				}
			],
			"stateMutability": "view",
			"type": "function"
		},
		{
			"inputs": [],
			"name": "partyA",
			"outputs": [
				{
					"internalType": "address",
					"name": "",
					"type": "address"
				}
			],
			"stateMutability": "view",
			"type": "function"
		},
		{
			"inputs": [],
			"name": "requestData",
			"outputs": [],
			"stateMutability": "nonpayable",
			"type": "function"
		}
	]
}